{"contracts/Deyplay.sol":{"Deyplay":{"abi":[{"anonymous":false,"inputs":[{"indexed":false,"internalType":"uint256","name":"id","type":"uint256"},{"indexed":false,"internalType":"string","name":"title","type":"string"},{"indexed":false,"internalType":"address","name":"artist","type":"address"},{"indexed":false,"internalType":"string","name":"imageUrl","type":"string"},{"indexed":false,"internalType":"string","name":"description","type":"string"},{"indexed":false,"internalType":"uint256","name":"price","type":"uint256"},{"indexed":false,"internalType":"uint256[]","name":"audioFiles","type":"uint256[]"},{"indexed":false,"internalType":"address[]","name":"royaltiesOwners","type":"address[]"},{"indexed":false,"internalType":"uint256[]","name":"royaltiesPercentages","type":"uint256[]"}],"name":"AlbumCreated","type":"event"},{"anonymous":false,"inputs":[{"indexed":false,"internalType":"uint256","name":"albumId","type":"uint256"},{"indexed":false,"internalType":"address","name":"buyer","type":"address"},{"indexed":false,"internalType":"uint256","name":"amount","type":"uint256"}],"name":"AlbumPurchased","type":"event"},{"anonymous":false,"inputs":[{"indexed":false,"internalType":"uint256","name":"albumId","type":"uint256"},{"indexed":false,"internalType":"address","name":"listener","type":"address"},{"indexed":false,"internalType":"uint256","name":"amount","type":"uint256"}],"name":"AlbumStreamed","type":"event"},{"anonymous":false,"inputs":[{"indexed":false,"internalType":"uint256","name":"id","type":"uint256"},{"indexed":false,"internalType":"string","name":"title","type":"string"},{"indexed":false,"internalType":"address","name":"artist","type":"address"},{"indexed":false,"internalType":"string","name":"imageUrl","type":"string"},{"indexed":false,"internalType":"string","name":"audioFile","type":"string"},{"indexed":false,"internalType":"uint256","name":"price","type":"uint256"},{"indexed":false,"internalType":"address[]","name":"royaltiesOwners","type":"address[]"},{"indexed":false,"internalType":"uint256[]","name":"royaltiesPercentages","type":"uint256[]"}],"name":"TrackCreated","type":"event"},{"anonymous":false,"inputs":[{"indexed":false,"internalType":"uint256","name":"trackId","type":"uint256"},{"indexed":false,"internalType":"address","name":"buyer","type":"address"},{"indexed":false,"internalType":"uint256","name":"amount","type":"uint256"}],"name":"TrackPurchased","type":"event"},{"anonymous":false,"inputs":[{"indexed":false,"internalType":"uint256","name":"trackId","type":"uint256"},{"indexed":false,"internalType":"address","name":"listener","type":"address"},{"indexed":false,"internalType":"uint256","name":"amount","type":"uint256"}],"name":"TrackStreamed","type":"event"},{"inputs":[{"internalType":"string","name":"_title","type":"string"},{"internalType":"address","name":"_artist","type":"address"},{"internalType":"string","name":"_imageUrl","type":"string"},{"internalType":"string","name":"_description","type":"string"},{"internalType":"uint256","name":"_price","type":"uint256"},{"internalType":"uint256[]","name":"_audioFiles","type":"uint256[]"},{"internalType":"address[]","name":"_royaltiesOwners","type":"address[]"},{"internalType":"uint256[]","name":"_royaltiesPercentages","type":"uint256[]"}],"name":"addAlbum","outputs":[],"stateMutability":"nonpayable","type":"function"},{"inputs":[{"internalType":"string","name":"_title","type":"string"},{"internalType":"address","name":"_artist","type":"address"},{"internalType":"string","name":"_imageUrl","type":"string"},{"internalType":"string","name":"_audioFile","type":"string"},{"internalType":"uint256","name":"_price","type":"uint256"},{"internalType":"address[]","name":"_royaltiesOwners","type":"address[]"},{"internalType":"uint256[]","name":"_royaltiesPercentages","type":"uint256[]"}],"name":"addTrack","outputs":[],"stateMutability":"nonpayable","type":"function"},{"inputs":[{"internalType":"uint256","name":"_trackId","type":"uint256"},{"internalType":"uint256","name":"_albumId","type":"uint256"}],"name":"addTrackToAlbum","outputs":[],"stateMutability":"nonpayable","type":"function"},{"inputs":[{"internalType":"address","name":"_artist","type":"address"}],"name":"getArtistBalance","outputs":[{"internalType":"uint256","name":"","type":"uint256"}],"stateMutability":"view","type":"function"},{"inputs":[{"internalType":"address","name":"_artist","type":"address"}],"name":"getTotalAlbumAmount","outputs":[{"internalType":"uint256","name":"","type":"uint256"}],"stateMutability":"view","type":"function"},{"inputs":[{"internalType":"address","name":"_artist","type":"address"}],"name":"getTotalAlbumStreams","outputs":[{"internalType":"uint256","name":"","type":"uint256"}],"stateMutability":"view","type":"function"},{"inputs":[{"internalType":"address","name":"_artist","type":"address"}],"name":"getTotalTrackAmount","outputs":[{"internalType":"uint256","name":"","type":"uint256"}],"stateMutability":"view","type":"function"},{"inputs":[{"internalType":"address","name":"_artist","type":"address"}],"name":"getTotalTrackStreams","outputs":[{"internalType":"uint256","name":"","type":"uint256"}],"stateMutability":"view","type":"function"},{"inputs":[{"internalType":"address","name":"_user","type":"address"}],"name":"getUserPurchasedAlbums","outputs":[{"internalType":"uint256[]","name":"","type":"uint256[]"}],"stateMutability":"view","type":"function"},{"inputs":[{"internalType":"address","name":"_user","type":"address"}],"name":"getUserPurchasedTracks","outputs":[{"internalType":"uint256[]","name":"","type":"uint256[]"}],"stateMutability":"view","type":"function"},{"inputs":[{"internalType":"address","name":"_artist","type":"address"}],"name":"listAlbumsByArtist","outputs":[{"internalType":"uint256[]","name":"","type":"uint256[]"}],"stateMutability":"view","type":"function"},{"inputs":[],"name":"listAllAlbums","outputs":[{"internalType":"uint256[]","name":"","type":"uint256[]"}],"stateMutability":"view","type":"function"},{"inputs":[],"name":"listAllTracks","outputs":[{"internalType":"uint256[]","name":"","type":"uint256[]"}],"stateMutability":"view","type":"function"},{"inputs":[{"internalType":"address","name":"_artist","type":"address"}],"name":"listTracksByArtist","outputs":[{"internalType":"uint256[]","name":"","type":"uint256[]"}],"stateMutability":"view","type":"function"},{"inputs":[{"internalType":"uint256","name":"_albumId","type":"uint256"}],"name":"purchaseAlbum","outputs":[],"stateMutability":"payable","type":"function"},{"inputs":[{"internalType":"uint256","name":"_trackId","type":"uint256"}],"name":"purchaseTrack","outputs":[],"stateMutability":"payable","type":"function"},{"inputs":[{"internalType":"uint256","name":"_albumId","type":"uint256"}],"name":"streamAlbum","outputs":[],"stateMutability":"payable","type":"function"},{"inputs":[{"internalType":"uint256","name":"_trackId","type":"uint256"}],"name":"streamTrack","outputs":[],"stateMutability":"payable","type":"function"}],"evm":{"bytecode":{"linkReferences":{},"object":"608060405234801561001057600080fd5b5061231a806100206000396000f3fe6080604052600436106101085760003560e01c8063784d8abb11610095578063acff110e11610064578063acff110e14610296578063c103351f146102b6578063ea981775146102d6578063efb78308146102e9578063f4ce0f861461030957600080fd5b8063784d8abb146102305780638d59f7e2146102505780638ef8b386146102705780639edc858c1461028357600080fd5b806340d1e240116100dc57806340d1e2401461019a5780635d0650b4146101ad5780636456b79a146101db5780636850a7e3146101f057806376dde21b1461021057600080fd5b806221991e1461010d5780631d29d5991461012f578063245d1558146101655780632cdfb61f14610185575b600080fd5b34801561011957600080fd5b5061012d610128366004611f26565b61033f565b005b34801561013b57600080fd5b5061014f61014a366004611cfd565b6103cc565b60405161015c9190612004565b60405180910390f35b34801561017157600080fd5b5061012d610180366004611d1e565b610438565b34801561019157600080fd5b5061014f6105d8565b61012d6101a8366004611f0e565b610699565b3480156101b957600080fd5b506101cd6101c8366004611cfd565b610961565b60405190815260200161015c565b3480156101e757600080fd5b5061014f6109df565b3480156101fc57600080fd5b5061014f61020b366004611cfd565b610a99565b34801561021c57600080fd5b506101cd61022b366004611cfd565b610b8a565b34801561023c57600080fd5b5061012d61024b366004611e04565b610bf0565b34801561025c57600080fd5b506101cd61026b366004611cfd565b610e24565b61012d61027e366004611f0e565b610e9a565b61012d610291366004611f0e565b611153565b3480156102a257600080fd5b5061014f6102b1366004611cfd565b611438565b3480156102c257600080fd5b506101cd6102d1366004611cfd565b6114a2565b61012d6102e4366004611f0e565b611507565b3480156102f557600080fd5b5061014f610304366004611cfd565b6117ea565b34801561031557600080fd5b506101cd610324366004611cfd565b6001600160a01b031660009081526006602052604090205490565b8160008111801561035257506000548111155b6103775760405162461bcd60e51b815260040161036e90612045565b60405180910390fd5b8160008111801561038a57506001548111155b6103a65760405162461bcd60e51b815260040161036e90612017565b505060009081526003602090815260408220600801805460018101825590835291200155565b6001600160a01b03811660009081526005602090815260409182902080548351818402810184019094528084526060939283018282801561042c57602002820191906000526020600020905b815481526020019060010190808311610418575b50505050509050919050565b6000805490806104478361229d565b909155505060408051610140810182526000805480835260208084018c81526001600160a01b038c1685870152606085018b9052608085018a905260a0850189905260c0850184905260e085018490526101008501889052610120850187905291835260028152939091208251815590518051929391926104ce9260018501920190611a7b565b5060408201516002820180546001600160a01b0319166001600160a01b0390921691909117905560608201518051610510916003840191602090910190611a7b565b506080820151805161052c916004840191602090910190611a7b565b5060a0820151600582015560c0820151600682015560e082015160078201556101008201518051610567916008840191602090910190611aff565b506101208201518051610584916009840191602090910190611b54565b509050507fbf2201dbf94a92f1d5a37c712b8d9b99e2a1e94a9ead3e3318c067b76569712a600054888888888888886040516105c7989796959493929190612073565b60405180910390a150505050505050565b6060600060015467ffffffffffffffff81111561060557634e487b7160e01b600052604160045260246000fd5b60405190808252806020026020018201604052801561062e578160200160208202803683370190505b50905060015b60015481116106935760008181526003602052604090205482610658600184612251565b8151811061067657634e487b7160e01b600052603260045260246000fd5b60209081029190910101528061068b8161229d565b915050610634565b50919050565b806000811180156106ac57506001548111155b6106c85760405162461bcd60e51b815260040161036e90612017565b6000828152600360205260409020600581015434101561073b5760405162461bcd60e51b815260206004820152602860248201527f496e73756666696369656e74207061796d656e7420746f2073747265616d2074604482015267686520616c62756d60c01b606482015260840161036e565b60006107fa82600501548360090180548060200260200160405190810160405280929190818152602001828054801561079d57602002820191906000526020600020905b81546001600160a01b0316815260019091019060200180831161077f575b505050505084600a018054806020026020016040519081016040528092919081815260200182805480156107f057602002820191906000526020600020905b8154815260200190600101908083116107dc575b50505050506118d2565b9050600081836005015461080e9190612251565b60068401805491925060006108228361229d565b909155505060028301546001600160a01b0316600090815260066020526040812080548392906108539084906121fa565b92505081905550610913836009018054806020026020016040519081016040528092919081815260200182805480156108b557602002820191906000526020600020905b81546001600160a01b03168152600190910190602001808311610897575b505050505084600a0180548060200260200160405190810160405280929190818152602001828054801561090857602002820191906000526020600020905b8154815260200190600101908083116108f4575b505050505084611946565b600583015460408051878152336020820152908101919091527f9895cbad8f9db9bfb55390deaa7dd85188e313b35ee7ee4748b41ae3b9a7936f906060015b60405180910390a15050505050565b60008060015b60005481116109d857600081815260026020819052604090912001546001600160a01b03858116911614156109c657600081815260026020526040902060058101546007909101546109b99190612232565b6109c390836121fa565b91505b806109d08161229d565b915050610967565b5092915050565b60606000805467ffffffffffffffff811115610a0b57634e487b7160e01b600052604160045260246000fd5b604051908082528060200260200182016040528015610a34578160200160208202803683370190505b50905060015b60005481116106935760008181526002602052604090205482610a5e600184612251565b81518110610a7c57634e487b7160e01b600052603260045260246000fd5b602090810291909101015280610a918161229d565b915050610a3a565b60606000805467ffffffffffffffff811115610ac557634e487b7160e01b600052604160045260246000fd5b604051908082528060200260200182016040528015610aee578160200160208202803683370190505b509050600060015b6000548111610b8157600081815260026020819052604090912001546001600160a01b0386811691161415610b6f576000818152600260205260409020548351849084908110610b5657634e487b7160e01b600052603260045260246000fd5b602090810291909101015281610b6b8161229d565b9250505b80610b798161229d565b915050610af6565b50909392505050565b60008060015b60005481116109d857600081815260026020819052604090912001546001600160a01b0385811691161415610bde57600081815260026020526040902060060154610bdb90836121fa565b91505b80610be88161229d565b915050610b90565b6000835111610c515760405162461bcd60e51b815260206004820152602760248201527f416c62756d206d7573742068617665206174206c65617374206f6e6520617564604482015266696f2066696c6560c81b606482015260840161036e565b60018054906000610c618361229d565b91905055506040518061016001604052806001548152602001898152602001886001600160a01b03168152602001878152602001868152602001858152602001600081526020016000815260200184815260200183815260200182815250600360006001548152602001908152602001600020600082015181600001556020820151816001019080519060200190610cfa929190611a7b565b5060408201516002820180546001600160a01b0319166001600160a01b0390921691909117905560608201518051610d3c916003840191602090910190611a7b565b5060808201518051610d58916004840191602090910190611a7b565b5060a0820151600582015560c0820151600682015560e082015160078201556101008201518051610d93916008840191602090910190611b54565b506101208201518051610db0916009840191602090910190611aff565b506101408201518051610dcd91600a840191602090910190611b54565b509050507f35cf2fbf514073689c9dc7a15257dd4daee42df218875b25a09ae0e6db27d75e6001548989898989898989604051610e1299989796959493929190612101565b60405180910390a15050505050505050565b60008060015b60015481116109d8576000818152600360205260409020600201546001600160a01b0385811691161415610e885760008181526003602052604090206005810154600790910154610e7b9190612232565b610e8590836121fa565b91505b80610e928161229d565b915050610e2a565b80600081118015610ead57506000548111155b610ec95760405162461bcd60e51b815260040161036e90612045565b60008281526002602052604090206005810154341015610f3c5760405162461bcd60e51b815260206004820152602860248201527f496e73756666696369656e74207061796d656e7420746f2073747265616d2074604482015267686520747261636b60c01b606482015260840161036e565b6000610ff9826005015483600801805480602002602001604051908101604052809291908181526020018280548015610f9e57602002820191906000526020600020905b81546001600160a01b03168152600190910190602001808311610f80575b5050505050846009018054806020026020016040519081016040528092919081815260200182805480156107f057602002820191906000526020600020908154815260200190600101908083116107dc5750505050506118d2565b9050600081836005015461100d9190612251565b60068401805491925060006110218361229d565b909155505060028301546001600160a01b0316600090815260066020526040812080548392906110529084906121fa565b92505081905550611110836008018054806020026020016040519081016040528092919081815260200182805480156110b457602002820191906000526020600020905b81546001600160a01b03168152600190910190602001808311611096575b50505050508460090180548060200260200160405190810160405280929190818152602001828054801561090857602002820191906000526020600020908154815260200190600101908083116108f457505050505084611946565b600583015460408051878152336020820152908101919091527fa8ff0760db1bd134bec00c7f599e3d73ad185cfc7dd4c313b1ccfc4bd959473790606001610952565b8060008111801561116657506000548111155b6111825760405162461bcd60e51b815260040161036e90612045565b600082815260026020526040902060058101543410156111f75760405162461bcd60e51b815260206004820152602a60248201527f496e73756666696369656e74207061796d656e7420746f2070757263686173656044820152692074686520747261636b60b01b606482015260840161036e565b60006112b2826005015483600801805480602002602001604051908101604052809291908181526020018280548015610f9e576020028201919060005260206000209081546001600160a01b03168152600190910190602001808311610f80575050505050846009018054806020026020016040519081016040528092919081815260200182805480156107f057602002820191906000526020600020908154815260200190600101908083116107dc5750505050506118d2565b905060008183600501546112c69190612251565b60078401805491925060006112da8361229d565b909155505060028301546001600160a01b03166000908152600660205260408120805483929061130b9084906121fa565b925050819055506113c7836008018054806020026020016040519081016040528092919081815260200182805480156110b4576020028201919060005260206000209081546001600160a01b031681526001909101906020018083116110965750505050508460090180548060200260200160405190810160405280929190818152602001828054801561090857602002820191906000526020600020908154815260200190600101908083116108f457505050505084611946565b33600081815260046020908152604080832080546001810182559084529190922001879055600585015490517ffe3f9af2d0ba5be4687ca774df8206ec9cf7919bcf32bd9c76b051e5dfbbb5b492610952928983526001600160a01b03919091166020830152604082015260600190565b6001600160a01b03811660009081526004602090815260409182902080548351818402810184019094528084526060939283018282801561042c57602002820191906000526020600020908154815260200190600101908083116104185750505050509050919050565b60008060015b60015481116109d8576000818152600360205260409020600201546001600160a01b03858116911614156114f5576000818152600360205260409020600601546114f290836121fa565b91505b806114ff8161229d565b9150506114a8565b8060008111801561151a57506001548111155b6115365760405162461bcd60e51b815260040161036e90612017565b600082815260036020526040902060058101543410156115ab5760405162461bcd60e51b815260206004820152602a60248201527f496e73756666696369656e74207061796d656e7420746f2070757263686173656044820152692074686520616c62756d60b01b606482015260840161036e565b600061166682600501548360090180548060200260200160405190810160405280929190818152602001828054801561079d576020028201919060005260206000209081546001600160a01b0316815260019091019060200180831161077f57505050505084600a018054806020026020016040519081016040528092919081815260200182805480156107f057602002820191906000526020600020908154815260200190600101908083116107dc5750505050506118d2565b9050600081836005015461167a9190612251565b600784018054919250600061168e8361229d565b909155505060028301546001600160a01b0316600090815260066020526040812080548392906116bf9084906121fa565b9250508190555061177b836009018054806020026020016040519081016040528092919081815260200182805480156108b5576020028201919060005260206000209081546001600160a01b0316815260019091019060200180831161089757505050505084600a0180548060200260200160405190810160405280929190818152602001828054801561090857602002820191906000526020600020908154815260200190600101908083116108f457505050505084611946565b3360008181526005602081815260408084208054600181018255908552919093200188905585015490517f11332ef3956cea4003185b2a4db8407e3e5662fe799887282e178f18726ecc9b92610952928983526001600160a01b03919091166020830152604082015260600190565b6060600060015467ffffffffffffffff81111561181757634e487b7160e01b600052604160045260246000fd5b604051908082528060200260200182016040528015611840578160200160208202803683370190505b509050600060015b6001548111610b81576000818152600360205260409020600201546001600160a01b03868116911614156118c05760008181526003602052604090205483518490849081106118a757634e487b7160e01b600052603260045260246000fd5b6020908102919091010152816118bc8161229d565b9250505b806118ca8161229d565b915050611848565b600080805b845181101561193d57606484828151811061190257634e487b7160e01b600052603260045260246000fd5b6020026020010151876119159190612232565b61191f9190612212565b61192990836121fa565b9150806119358161229d565b9150506118d7565b50949350505050565b81518351146119ad5760405162461bcd60e51b815260206004820152602d60248201527f4f776e65727320616e642070657263656e746167657320617272617973206c6560448201526c0dccee8d040dad2e6dac2e8c6d609b1b606482015260840161036e565b60005b8351811015611a755760008482815181106119db57634e487b7160e01b600052603260045260246000fd5b6020026020010151905060006064858481518110611a0957634e487b7160e01b600052603260045260246000fd5b602002602001015185611a1c9190612232565b611a269190612212565b6040519091506001600160a01b0383169082156108fc029083906000818181858888f19350505050158015611a5f573d6000803e3d6000fd5b5050508080611a6d9061229d565b9150506119b0565b50505050565b828054611a8790612268565b90600052602060002090601f016020900481019282611aa95760008555611aef565b82601f10611ac257805160ff1916838001178555611aef565b82800160010185558215611aef579182015b82811115611aef578251825591602001919060010190611ad4565b50611afb929150611b8e565b5090565b828054828255906000526020600020908101928215611aef579160200282015b82811115611aef57825182546001600160a01b0319166001600160a01b03909116178255602090920191600190910190611b1f565b828054828255906000526020600020908101928215611aef5791602002820182811115611aef578251825591602001919060010190611ad4565b5b80821115611afb5760008155600101611b8f565b80356001600160a01b0381168114611bba57600080fd5b919050565b600082601f830112611bcf578081fd5b81356020611be4611bdf836121d6565b6121a5565b80838252828201915082860187848660051b8901011115611c03578586fd5b855b85811015611c2857611c1682611ba3565b84529284019290840190600101611c05565b5090979650505050505050565b600082601f830112611c45578081fd5b81356020611c55611bdf836121d6565b80838252828201915082860187848660051b8901011115611c74578586fd5b855b85811015611c2857813584529284019290840190600101611c76565b600082601f830112611ca2578081fd5b813567ffffffffffffffff811115611cbc57611cbc6122ce565b611ccf601f8201601f19166020016121a5565b818152846020838601011115611ce3578283fd5b816020850160208301379081016020019190915292915050565b600060208284031215611d0e578081fd5b611d1782611ba3565b9392505050565b600080600080600080600060e0888a031215611d38578283fd5b873567ffffffffffffffff80821115611d4f578485fd5b611d5b8b838c01611c92565b9850611d6960208b01611ba3565b975060408a0135915080821115611d7e578485fd5b611d8a8b838c01611c92565b965060608a0135915080821115611d9f578485fd5b611dab8b838c01611c92565b955060808a0135945060a08a0135915080821115611dc7578384fd5b611dd38b838c01611bbf565b935060c08a0135915080821115611de8578283fd5b50611df58a828b01611c35565b91505092959891949750929550565b600080600080600080600080610100898b031215611e20578081fd5b883567ffffffffffffffff80821115611e37578283fd5b611e438c838d01611c92565b9950611e5160208c01611ba3565b985060408b0135915080821115611e66578283fd5b611e728c838d01611c92565b975060608b0135915080821115611e87578283fd5b611e938c838d01611c92565b965060808b0135955060a08b0135915080821115611eaf578283fd5b611ebb8c838d01611c35565b945060c08b0135915080821115611ed0578283fd5b611edc8c838d01611bbf565b935060e08b0135915080821115611ef1578283fd5b50611efe8b828c01611c35565b9150509295985092959890939650565b600060208284031215611f1f578081fd5b5035919050565b60008060408385031215611f38578182fd5b50508035926020909101359150565b6000815180845260208085019450808401835b83811015611f7f5781516001600160a01b031687529582019590820190600101611f5a565b509495945050505050565b6000815180845260208085019450808401835b83811015611f7f57815187529582019590820190600101611f9d565b60008151808452815b81811015611fde57602081850181015186830182015201611fc2565b81811115611fef5782602083870101525b50601f01601f19169290920160200192915050565b602081526000611d176020830184611f8a565b602080825260149082015273105b189d5b48191bd95cc81b9bdd08195e1a5cdd60621b604082015260600190565b602080825260149082015273151c9858dac8191bd95cc81b9bdd08195e1a5cdd60621b604082015260600190565b60006101008a835280602084015261208d8184018b611fb9565b6001600160a01b038a166040850152838103606085015290506120b08189611fb9565b905082810360808401526120c48188611fb9565b90508560a084015282810360c08401526120de8186611f47565b905082810360e08401526120f28185611f8a565b9b9a5050505050505050505050565b60006101208b835280602084015261211b8184018c611fb9565b6001600160a01b038b1660408501528381036060850152905061213e818a611fb9565b905082810360808401526121528189611fb9565b90508660a084015282810360c084015261216c8187611f8a565b905082810360e08401526121808186611f47565b90508281036101008401526121958185611f8a565b9c9b505050505050505050505050565b604051601f8201601f1916810167ffffffffffffffff811182821017156121ce576121ce6122ce565b604052919050565b600067ffffffffffffffff8211156121f0576121f06122ce565b5060051b60200190565b6000821982111561220d5761220d6122b8565b500190565b60008261222d57634e487b7160e01b81526012600452602481fd5b500490565b600081600019048311821515161561224c5761224c6122b8565b500290565b600082821015612263576122636122b8565b500390565b600181811c9082168061227c57607f821691505b6020821081141561069357634e487b7160e01b600052602260045260246000fd5b60006000198214156122b1576122b16122b8565b5060010190565b634e487b7160e01b600052601160045260246000fd5b634e487b7160e01b600052604160045260246000fdfea264697066735822122082f525de2e28274fda4516ce93c6ee16fb46a87ad890cd7e75a30b31f0d7c7cb64736f6c63430008040033","opcodes":"PUSH1 0x80 PUSH1 0x40 MSTORE CALLVALUE DUP1 ISZERO PUSH2 0x10 JUMPI PUSH1 0x0 DUP1 REVERT JUMPDEST POP PUSH2 0x231A DUP1 PUSH2 0x20 PUSH1 0x0 CODECOPY PUSH1 0x0 RETURN INVALID PUSH1 0x80 PUSH1 0x40 MSTORE PUSH1 0x4 CALLDATASIZE LT PUSH2 0x108 JUMPI PUSH1 0x0 CALLDATALOAD PUSH1 0xE0 SHR DUP1 PUSH4 0x784D8ABB GT PUSH2 0x95 JUMPI DUP1 PUSH4 0xACFF110E GT PUSH2 0x64 JUMPI DUP1 PUSH4 0xACFF110E EQ PUSH2 0x296 JUMPI DUP1 PUSH4 0xC103351F EQ PUSH2 0x2B6 JUMPI DUP1 PUSH4 0xEA981775 EQ PUSH2 0x2D6 JUMPI DUP1 PUSH4 0xEFB78308 EQ PUSH2 0x2E9 JUMPI DUP1 PUSH4 0xF4CE0F86 EQ PUSH2 0x309 JUMPI PUSH1 0x0 DUP1 REVERT JUMPDEST DUP1 PUSH4 0x784D8ABB EQ PUSH2 0x230 JUMPI DUP1 PUSH4 0x8D59F7E2 EQ PUSH2 0x250 JUMPI DUP1 PUSH4 0x8EF8B386 EQ PUSH2 0x270 JUMPI DUP1 PUSH4 0x9EDC858C EQ PUSH2 0x283 JUMPI PUSH1 0x0 DUP1 REVERT JUMPDEST DUP1 PUSH4 0x40D1E240 GT PUSH2 0xDC JUMPI DUP1 PUSH4 0x40D1E240 EQ PUSH2 0x19A JUMPI DUP1 PUSH4 0x5D0650B4 EQ PUSH2 0x1AD JUMPI DUP1 PUSH4 0x6456B79A EQ PUSH2 0x1DB JUMPI DUP1 PUSH4 0x6850A7E3 EQ PUSH2 0x1F0 JUMPI DUP1 PUSH4 0x76DDE21B EQ PUSH2 0x210 JUMPI PUSH1 0x0 DUP1 REVERT JUMPDEST DUP1 PUSH3 0x21991E EQ PUSH2 0x10D JUMPI DUP1 PUSH4 0x1D29D599 EQ PUSH2 0x12F JUMPI DUP1 PUSH4 0x245D1558 EQ PUSH2 0x165 JUMPI DUP1 PUSH4 0x2CDFB61F EQ PUSH2 0x185 JUMPI JUMPDEST PUSH1 0x0 DUP1 REVERT JUMPDEST CALLVALUE DUP1 ISZERO PUSH2 0x119 JUMPI PUSH1 0x0 DUP1 REVERT JUMPDEST POP PUSH2 0x12D PUSH2 0x128 CALLDATASIZE PUSH1 0x4 PUSH2 0x1F26 JUMP JUMPDEST PUSH2 0x33F JUMP JUMPDEST STOP JUMPDEST CALLVALUE DUP1 ISZERO PUSH2 0x13B JUMPI PUSH1 0x0 DUP1 REVERT JUMPDEST POP PUSH2 0x14F PUSH2 0x14A CALLDATASIZE PUSH1 0x4 PUSH2 0x1CFD JUMP JUMPDEST PUSH2 0x3CC JUMP JUMPDEST PUSH1 0x40 MLOAD PUSH2 0x15C SWAP2 SWAP1 PUSH2 0x2004 JUMP JUMPDEST PUSH1 0x40 MLOAD DUP1 SWAP2 SUB SWAP1 RETURN JUMPDEST CALLVALUE DUP1 ISZERO PUSH2 0x171 JUMPI PUSH1 0x0 DUP1 REVERT JUMPDEST POP PUSH2 0x12D PUSH2 0x180 CALLDATASIZE PUSH1 0x4 PUSH2 0x1D1E JUMP JUMPDEST PUSH2 0x438 JUMP JUMPDEST CALLVALUE DUP1 ISZERO PUSH2 0x191 JUMPI PUSH1 0x0 DUP1 REVERT JUMPDEST POP PUSH2 0x14F PUSH2 0x5D8 JUMP JUMPDEST PUSH2 0x12D PUSH2 0x1A8 CALLDATASIZE PUSH1 0x4 PUSH2 0x1F0E JUMP JUMPDEST PUSH2 0x699 JUMP JUMPDEST CALLVALUE DUP1 ISZERO PUSH2 0x1B9 JUMPI PUSH1 0x0 DUP1 REVERT JUMPDEST POP PUSH2 0x1CD PUSH2 0x1C8 CALLDATASIZE PUSH1 0x4 PUSH2 0x1CFD JUMP JUMPDEST PUSH2 0x961 JUMP JUMPDEST PUSH1 0x40 MLOAD SWAP1 DUP2 MSTORE PUSH1 0x20 ADD PUSH2 0x15C JUMP JUMPDEST CALLVALUE DUP1 ISZERO PUSH2 0x1E7 JUMPI PUSH1 0x0 DUP1 REVERT JUMPDEST POP PUSH2 0x14F PUSH2 0x9DF JUMP JUMPDEST CALLVALUE DUP1 ISZERO PUSH2 0x1FC JUMPI PUSH1 0x0 DUP1 REVERT JUMPDEST POP PUSH2 0x14F PUSH2 0x20B CALLDATASIZE PUSH1 0x4 PUSH2 0x1CFD JUMP JUMPDEST PUSH2 0xA99 JUMP JUMPDEST CALLVALUE DUP1 ISZERO PUSH2 0x21C JUMPI PUSH1 0x0 DUP1 REVERT JUMPDEST POP PUSH2 0x1CD PUSH2 0x22B CALLDATASIZE PUSH1 0x4 PUSH2 0x1CFD JUMP JUMPDEST PUSH2 0xB8A JUMP JUMPDEST CALLVALUE DUP1 ISZERO PUSH2 0x23C JUMPI PUSH1 0x0 DUP1 REVERT JUMPDEST POP PUSH2 0x12D PUSH2 0x24B CALLDATASIZE PUSH1 0x4 PUSH2 0x1E04 JUMP JUMPDEST PUSH2 0xBF0 JUMP JUMPDEST CALLVALUE DUP1 ISZERO PUSH2 0x25C JUMPI PUSH1 0x0 DUP1 REVERT JUMPDEST POP PUSH2 0x1CD PUSH2 0x26B CALLDATASIZE PUSH1 0x4 PUSH2 0x1CFD JUMP JUMPDEST PUSH2 0xE24 JUMP JUMPDEST PUSH2 0x12D PUSH2 0x27E CALLDATASIZE PUSH1 0x4 PUSH2 0x1F0E JUMP JUMPDEST PUSH2 0xE9A JUMP JUMPDEST PUSH2 0x12D PUSH2 0x291 CALLDATASIZE PUSH1 0x4 PUSH2 0x1F0E JUMP JUMPDEST PUSH2 0x1153 JUMP JUMPDEST CALLVALUE DUP1 ISZERO PUSH2 0x2A2 JUMPI PUSH1 0x0 DUP1 REVERT JUMPDEST POP PUSH2 0x14F PUSH2 0x2B1 CALLDATASIZE PUSH1 0x4 PUSH2 0x1CFD JUMP JUMPDEST PUSH2 0x1438 JUMP JUMPDEST CALLVALUE DUP1 ISZERO PUSH2 0x2C2 JUMPI PUSH1 0x0 DUP1 REVERT JUMPDEST POP PUSH2 0x1CD PUSH2 0x2D1 CALLDATASIZE PUSH1 0x4 PUSH2 0x1CFD JUMP JUMPDEST PUSH2 0x14A2 JUMP JUMPDEST PUSH2 0x12D PUSH2 0x2E4 CALLDATASIZE PUSH1 0x4 PUSH2 0x1F0E JUMP JUMPDEST PUSH2 0x1507 JUMP JUMPDEST CALLVALUE DUP1 ISZERO PUSH2 0x2F5 JUMPI PUSH1 0x0 DUP1 REVERT JUMPDEST POP PUSH2 0x14F PUSH2 0x304 CALLDATASIZE PUSH1 0x4 PUSH2 0x1CFD JUMP JUMPDEST PUSH2 0x17EA JUMP JUMPDEST CALLVALUE DUP1 ISZERO PUSH2 0x315 JUMPI PUSH1 0x0 DUP1 REVERT JUMPDEST POP PUSH2 0x1CD PUSH2 0x324 CALLDATASIZE PUSH1 0x4 PUSH2 0x1CFD JUMP JUMPDEST PUSH1 0x1 PUSH1 0x1 PUSH1 0xA0 SHL SUB AND PUSH1 0x0 SWAP1 DUP2 MSTORE PUSH1 0x6 PUSH1 0x20 MSTORE PUSH1 0x40 SWAP1 KECCAK256 SLOAD SWAP1 JUMP JUMPDEST DUP2 PUSH1 0x0 DUP2 GT DUP1 ISZERO PUSH2 0x352 JUMPI POP PUSH1 0x0 SLOAD DUP2 GT ISZERO JUMPDEST PUSH2 0x377 JUMPI PUSH1 0x40 MLOAD PUSH3 0x461BCD PUSH1 0xE5 SHL DUP2 MSTORE PUSH1 0x4 ADD PUSH2 0x36E SWAP1 PUSH2 0x2045 JUMP JUMPDEST PUSH1 0x40 MLOAD DUP1 SWAP2 SUB SWAP1 REVERT JUMPDEST DUP2 PUSH1 0x0 DUP2 GT DUP1 ISZERO PUSH2 0x38A JUMPI POP PUSH1 0x1 SLOAD DUP2 GT ISZERO JUMPDEST PUSH2 0x3A6 JUMPI PUSH1 0x40 MLOAD PUSH3 0x461BCD PUSH1 0xE5 SHL DUP2 MSTORE PUSH1 0x4 ADD PUSH2 0x36E SWAP1 PUSH2 0x2017 JUMP JUMPDEST POP POP PUSH1 0x0 SWAP1 DUP2 MSTORE PUSH1 0x3 PUSH1 0x20 SWAP1 DUP2 MSTORE PUSH1 0x40 DUP3 KECCAK256 PUSH1 0x8 ADD DUP1 SLOAD PUSH1 0x1 DUP2 ADD DUP3 SSTORE SWAP1 DUP4 MSTORE SWAP2 KECCAK256 ADD SSTORE JUMP JUMPDEST PUSH1 0x1 PUSH1 0x1 PUSH1 0xA0 SHL SUB DUP2 AND PUSH1 0x0 SWAP1 DUP2 MSTORE PUSH1 0x5 PUSH1 0x20 SWAP1 DUP2 MSTORE PUSH1 0x40 SWAP2 DUP3 SWAP1 KECCAK256 DUP1 SLOAD DUP4 MLOAD DUP2 DUP5 MUL DUP2 ADD DUP5 ADD SWAP1 SWAP5 MSTORE DUP1 DUP5 MSTORE PUSH1 0x60 SWAP4 SWAP3 DUP4 ADD DUP3 DUP3 DUP1 ISZERO PUSH2 0x42C JUMPI PUSH1 0x20 MUL DUP3 ADD SWAP2 SWAP1 PUSH1 0x0 MSTORE PUSH1 0x20 PUSH1 0x0 KECCAK256 SWAP1 JUMPDEST DUP2 SLOAD DUP2 MSTORE PUSH1 0x20 ADD SWAP1 PUSH1 0x1 ADD SWAP1 DUP1 DUP4 GT PUSH2 0x418 JUMPI JUMPDEST POP POP POP POP POP SWAP1 POP SWAP2 SWAP1 POP JUMP JUMPDEST PUSH1 0x0 DUP1 SLOAD SWAP1 DUP1 PUSH2 0x447 DUP4 PUSH2 0x229D JUMP JUMPDEST SWAP1 SWAP2 SSTORE POP POP PUSH1 0x40 DUP1 MLOAD PUSH2 0x140 DUP2 ADD DUP3 MSTORE PUSH1 0x0 DUP1 SLOAD DUP1 DUP4 MSTORE PUSH1 0x20 DUP1 DUP5 ADD DUP13 DUP2 MSTORE PUSH1 0x1 PUSH1 0x1 PUSH1 0xA0 SHL SUB DUP13 AND DUP6 DUP8 ADD MSTORE PUSH1 0x60 DUP6 ADD DUP12 SWAP1 MSTORE PUSH1 0x80 DUP6 ADD DUP11 SWAP1 MSTORE PUSH1 0xA0 DUP6 ADD DUP10 SWAP1 MSTORE PUSH1 0xC0 DUP6 ADD DUP5 SWAP1 MSTORE PUSH1 0xE0 DUP6 ADD DUP5 SWAP1 MSTORE PUSH2 0x100 DUP6 ADD DUP9 SWAP1 MSTORE PUSH2 0x120 DUP6 ADD DUP8 SWAP1 MSTORE SWAP2 DUP4 MSTORE PUSH1 0x2 DUP2 MSTORE SWAP4 SWAP1 SWAP2 KECCAK256 DUP3 MLOAD DUP2 SSTORE SWAP1 MLOAD DUP1 MLOAD SWAP3 SWAP4 SWAP2 SWAP3 PUSH2 0x4CE SWAP3 PUSH1 0x1 DUP6 ADD SWAP3 ADD SWAP1 PUSH2 0x1A7B JUMP JUMPDEST POP PUSH1 0x40 DUP3 ADD MLOAD PUSH1 0x2 DUP3 ADD DUP1 SLOAD PUSH1 0x1 PUSH1 0x1 PUSH1 0xA0 SHL SUB NOT AND PUSH1 0x1 PUSH1 0x1 PUSH1 0xA0 SHL SUB SWAP1 SWAP3 AND SWAP2 SWAP1 SWAP2 OR SWAP1 SSTORE PUSH1 0x60 DUP3 ADD MLOAD DUP1 MLOAD PUSH2 0x510 SWAP2 PUSH1 0x3 DUP5 ADD SWAP2 PUSH1 0x20 SWAP1 SWAP2 ADD SWAP1 PUSH2 0x1A7B JUMP JUMPDEST POP PUSH1 0x80 DUP3 ADD MLOAD DUP1 MLOAD PUSH2 0x52C SWAP2 PUSH1 0x4 DUP5 ADD SWAP2 PUSH1 0x20 SWAP1 SWAP2 ADD SWAP1 PUSH2 0x1A7B JUMP JUMPDEST POP PUSH1 0xA0 DUP3 ADD MLOAD PUSH1 0x5 DUP3 ADD SSTORE PUSH1 0xC0 DUP3 ADD MLOAD PUSH1 0x6 DUP3 ADD SSTORE PUSH1 0xE0 DUP3 ADD MLOAD PUSH1 0x7 DUP3 ADD SSTORE PUSH2 0x100 DUP3 ADD MLOAD DUP1 MLOAD PUSH2 0x567 SWAP2 PUSH1 0x8 DUP5 ADD SWAP2 PUSH1 0x20 SWAP1 SWAP2 ADD SWAP1 PUSH2 0x1AFF JUMP JUMPDEST POP PUSH2 0x120 DUP3 ADD MLOAD DUP1 MLOAD PUSH2 0x584 SWAP2 PUSH1 0x9 DUP5 ADD SWAP2 PUSH1 0x20 SWAP1 SWAP2 ADD SWAP1 PUSH2 0x1B54 JUMP JUMPDEST POP SWAP1 POP POP PUSH32 0xBF2201DBF94A92F1D5A37C712B8D9B99E2A1E94A9EAD3E3318C067B76569712A PUSH1 0x0 SLOAD DUP9 DUP9 DUP9 DUP9 DUP9 DUP9 DUP9 PUSH1 0x40 MLOAD PUSH2 0x5C7 SWAP9 SWAP8 SWAP7 SWAP6 SWAP5 SWAP4 SWAP3 SWAP2 SWAP1 PUSH2 0x2073 JUMP JUMPDEST PUSH1 0x40 MLOAD DUP1 SWAP2 SUB SWAP1 LOG1 POP POP POP POP POP POP POP JUMP JUMPDEST PUSH1 0x60 PUSH1 0x0 PUSH1 0x1 SLOAD PUSH8 0xFFFFFFFFFFFFFFFF DUP2 GT ISZERO PUSH2 0x605 JUMPI PUSH4 0x4E487B71 PUSH1 0xE0 SHL PUSH1 0x0 MSTORE PUSH1 0x41 PUSH1 0x4 MSTORE PUSH1 0x24 PUSH1 0x0 REVERT JUMPDEST PUSH1 0x40 MLOAD SWAP1 DUP1 DUP3 MSTORE DUP1 PUSH1 0x20 MUL PUSH1 0x20 ADD DUP3 ADD PUSH1 0x40 MSTORE DUP1 ISZERO PUSH2 0x62E JUMPI DUP2 PUSH1 0x20 ADD PUSH1 0x20 DUP3 MUL DUP1 CALLDATASIZE DUP4 CALLDATACOPY ADD SWAP1 POP JUMPDEST POP SWAP1 POP PUSH1 0x1 JUMPDEST PUSH1 0x1 SLOAD DUP2 GT PUSH2 0x693 JUMPI PUSH1 0x0 DUP2 DUP2 MSTORE PUSH1 0x3 PUSH1 0x20 MSTORE PUSH1 0x40 SWAP1 KECCAK256 SLOAD DUP3 PUSH2 0x658 PUSH1 0x1 DUP5 PUSH2 0x2251 JUMP JUMPDEST DUP2 MLOAD DUP2 LT PUSH2 0x676 JUMPI PUSH4 0x4E487B71 PUSH1 0xE0 SHL PUSH1 0x0 MSTORE PUSH1 0x32 PUSH1 0x4 MSTORE PUSH1 0x24 PUSH1 0x0 REVERT JUMPDEST PUSH1 0x20 SWAP1 DUP2 MUL SWAP2 SWAP1 SWAP2 ADD ADD MSTORE DUP1 PUSH2 0x68B DUP2 PUSH2 0x229D JUMP JUMPDEST SWAP2 POP POP PUSH2 0x634 JUMP JUMPDEST POP SWAP2 SWAP1 POP JUMP JUMPDEST DUP1 PUSH1 0x0 DUP2 GT DUP1 ISZERO PUSH2 0x6AC JUMPI POP PUSH1 0x1 SLOAD DUP2 GT ISZERO JUMPDEST PUSH2 0x6C8 JUMPI PUSH1 0x40 MLOAD PUSH3 0x461BCD PUSH1 0xE5 SHL DUP2 MSTORE PUSH1 0x4 ADD PUSH2 0x36E SWAP1 PUSH2 0x2017 JUMP JUMPDEST PUSH1 0x0 DUP3 DUP2 MSTORE PUSH1 0x3 PUSH1 0x20 MSTORE PUSH1 0x40 SWAP1 KECCAK256 PUSH1 0x5 DUP2 ADD SLOAD CALLVALUE LT ISZERO PUSH2 0x73B JUMPI PUSH1 0x40 MLOAD PUSH3 0x461BCD PUSH1 0xE5 SHL DUP2 MSTORE PUSH1 0x20 PUSH1 0x4 DUP3 ADD MSTORE PUSH1 0x28 PUSH1 0x24 DUP3 ADD MSTORE PUSH32 0x496E73756666696369656E74207061796D656E7420746F2073747265616D2074 PUSH1 0x44 DUP3 ADD MSTORE PUSH8 0x686520616C62756D PUSH1 0xC0 SHL PUSH1 0x64 DUP3 ADD MSTORE PUSH1 0x84 ADD PUSH2 0x36E JUMP JUMPDEST PUSH1 0x0 PUSH2 0x7FA DUP3 PUSH1 0x5 ADD SLOAD DUP4 PUSH1 0x9 ADD DUP1 SLOAD DUP1 PUSH1 0x20 MUL PUSH1 0x20 ADD PUSH1 0x40 MLOAD SWAP1 DUP2 ADD PUSH1 0x40 MSTORE DUP1 SWAP3 SWAP2 SWAP1 DUP2 DUP2 MSTORE PUSH1 0x20 ADD DUP3 DUP1 SLOAD DUP1 ISZERO PUSH2 0x79D JUMPI PUSH1 0x20 MUL DUP3 ADD SWAP2 SWAP1 PUSH1 0x0 MSTORE PUSH1 0x20 PUSH1 0x0 KECCAK256 SWAP1 JUMPDEST DUP2 SLOAD PUSH1 0x1 PUSH1 0x1 PUSH1 0xA0 SHL SUB AND DUP2 MSTORE PUSH1 0x1 SWAP1 SWAP2 ADD SWAP1 PUSH1 0x20 ADD DUP1 DUP4 GT PUSH2 0x77F JUMPI JUMPDEST POP POP POP POP POP DUP5 PUSH1 0xA ADD DUP1 SLOAD DUP1 PUSH1 0x20 MUL PUSH1 0x20 ADD PUSH1 0x40 MLOAD SWAP1 DUP2 ADD PUSH1 0x40 MSTORE DUP1 SWAP3 SWAP2 SWAP1 DUP2 DUP2 MSTORE PUSH1 0x20 ADD DUP3 DUP1 SLOAD DUP1 ISZERO PUSH2 0x7F0 JUMPI PUSH1 0x20 MUL DUP3 ADD SWAP2 SWAP1 PUSH1 0x0 MSTORE PUSH1 0x20 PUSH1 0x0 KECCAK256 SWAP1 JUMPDEST DUP2 SLOAD DUP2 MSTORE PUSH1 0x20 ADD SWAP1 PUSH1 0x1 ADD SWAP1 DUP1 DUP4 GT PUSH2 0x7DC JUMPI JUMPDEST POP POP POP POP POP PUSH2 0x18D2 JUMP JUMPDEST SWAP1 POP PUSH1 0x0 DUP2 DUP4 PUSH1 0x5 ADD SLOAD PUSH2 0x80E SWAP2 SWAP1 PUSH2 0x2251 JUMP JUMPDEST PUSH1 0x6 DUP5 ADD DUP1 SLOAD SWAP2 SWAP3 POP PUSH1 0x0 PUSH2 0x822 DUP4 PUSH2 0x229D JUMP JUMPDEST SWAP1 SWAP2 SSTORE POP POP PUSH1 0x2 DUP4 ADD SLOAD PUSH1 0x1 PUSH1 0x1 PUSH1 0xA0 SHL SUB AND PUSH1 0x0 SWAP1 DUP2 MSTORE PUSH1 0x6 PUSH1 0x20 MSTORE PUSH1 0x40 DUP2 KECCAK256 DUP1 SLOAD DUP4 SWAP3 SWAP1 PUSH2 0x853 SWAP1 DUP5 SWAP1 PUSH2 0x21FA JUMP JUMPDEST SWAP3 POP POP DUP2 SWAP1 SSTORE POP PUSH2 0x913 DUP4 PUSH1 0x9 ADD DUP1 SLOAD DUP1 PUSH1 0x20 MUL PUSH1 0x20 ADD PUSH1 0x40 MLOAD SWAP1 DUP2 ADD PUSH1 0x40 MSTORE DUP1 SWAP3 SWAP2 SWAP1 DUP2 DUP2 MSTORE PUSH1 0x20 ADD DUP3 DUP1 SLOAD DUP1 ISZERO PUSH2 0x8B5 JUMPI PUSH1 0x20 MUL DUP3 ADD SWAP2 SWAP1 PUSH1 0x0 MSTORE PUSH1 0x20 PUSH1 0x0 KECCAK256 SWAP1 JUMPDEST DUP2 SLOAD PUSH1 0x1 PUSH1 0x1 PUSH1 0xA0 SHL SUB AND DUP2 MSTORE PUSH1 0x1 SWAP1 SWAP2 ADD SWAP1 PUSH1 0x20 ADD DUP1 DUP4 GT PUSH2 0x897 JUMPI JUMPDEST POP POP POP POP POP DUP5 PUSH1 0xA ADD DUP1 SLOAD DUP1 PUSH1 0x20 MUL PUSH1 0x20 ADD PUSH1 0x40 MLOAD SWAP1 DUP2 ADD PUSH1 0x40 MSTORE DUP1 SWAP3 SWAP2 SWAP1 DUP2 DUP2 MSTORE PUSH1 0x20 ADD DUP3 DUP1 SLOAD DUP1 ISZERO PUSH2 0x908 JUMPI PUSH1 0x20 MUL DUP3 ADD SWAP2 SWAP1 PUSH1 0x0 MSTORE PUSH1 0x20 PUSH1 0x0 KECCAK256 SWAP1 JUMPDEST DUP2 SLOAD DUP2 MSTORE PUSH1 0x20 ADD SWAP1 PUSH1 0x1 ADD SWAP1 DUP1 DUP4 GT PUSH2 0x8F4 JUMPI JUMPDEST POP POP POP POP POP DUP5 PUSH2 0x1946 JUMP JUMPDEST PUSH1 0x5 DUP4 ADD SLOAD PUSH1 0x40 DUP1 MLOAD DUP8 DUP2 MSTORE CALLER PUSH1 0x20 DUP3 ADD MSTORE SWAP1 DUP2 ADD SWAP2 SWAP1 SWAP2 MSTORE PUSH32 0x9895CBAD8F9DB9BFB55390DEAA7DD85188E313B35EE7EE4748B41AE3B9A7936F SWAP1 PUSH1 0x60 ADD JUMPDEST PUSH1 0x40 MLOAD DUP1 SWAP2 SUB SWAP1 LOG1 POP POP POP POP POP JUMP JUMPDEST PUSH1 0x0 DUP1 PUSH1 0x1 JUMPDEST PUSH1 0x0 SLOAD DUP2 GT PUSH2 0x9D8 JUMPI PUSH1 0x0 DUP2 DUP2 MSTORE PUSH1 0x2 PUSH1 0x20 DUP2 SWAP1 MSTORE PUSH1 0x40 SWAP1 SWAP2 KECCAK256 ADD SLOAD PUSH1 0x1 PUSH1 0x1 PUSH1 0xA0 SHL SUB DUP6 DUP2 AND SWAP2 AND EQ ISZERO PUSH2 0x9C6 JUMPI PUSH1 0x0 DUP2 DUP2 MSTORE PUSH1 0x2 PUSH1 0x20 MSTORE PUSH1 0x40 SWAP1 KECCAK256 PUSH1 0x5 DUP2 ADD SLOAD PUSH1 0x7 SWAP1 SWAP2 ADD SLOAD PUSH2 0x9B9 SWAP2 SWAP1 PUSH2 0x2232 JUMP JUMPDEST PUSH2 0x9C3 SWAP1 DUP4 PUSH2 0x21FA JUMP JUMPDEST SWAP2 POP JUMPDEST DUP1 PUSH2 0x9D0 DUP2 PUSH2 0x229D JUMP JUMPDEST SWAP2 POP POP PUSH2 0x967 JUMP JUMPDEST POP SWAP3 SWAP2 POP POP JUMP JUMPDEST PUSH1 0x60 PUSH1 0x0 DUP1 SLOAD PUSH8 0xFFFFFFFFFFFFFFFF DUP2 GT ISZERO PUSH2 0xA0B JUMPI PUSH4 0x4E487B71 PUSH1 0xE0 SHL PUSH1 0x0 MSTORE PUSH1 0x41 PUSH1 0x4 MSTORE PUSH1 0x24 PUSH1 0x0 REVERT JUMPDEST PUSH1 0x40 MLOAD SWAP1 DUP1 DUP3 MSTORE DUP1 PUSH1 0x20 MUL PUSH1 0x20 ADD DUP3 ADD PUSH1 0x40 MSTORE DUP1 ISZERO PUSH2 0xA34 JUMPI DUP2 PUSH1 0x20 ADD PUSH1 0x20 DUP3 MUL DUP1 CALLDATASIZE DUP4 CALLDATACOPY ADD SWAP1 POP JUMPDEST POP SWAP1 POP PUSH1 0x1 JUMPDEST PUSH1 0x0 SLOAD DUP2 GT PUSH2 0x693 JUMPI PUSH1 0x0 DUP2 DUP2 MSTORE PUSH1 0x2 PUSH1 0x20 MSTORE PUSH1 0x40 SWAP1 KECCAK256 SLOAD DUP3 PUSH2 0xA5E PUSH1 0x1 DUP5 PUSH2 0x2251 JUMP JUMPDEST DUP2 MLOAD DUP2 LT PUSH2 0xA7C JUMPI PUSH4 0x4E487B71 PUSH1 0xE0 SHL PUSH1 0x0 MSTORE PUSH1 0x32 PUSH1 0x4 MSTORE PUSH1 0x24 PUSH1 0x0 REVERT JUMPDEST PUSH1 0x20 SWAP1 DUP2 MUL SWAP2 SWAP1 SWAP2 ADD ADD MSTORE DUP1 PUSH2 0xA91 DUP2 PUSH2 0x229D JUMP JUMPDEST SWAP2 POP POP PUSH2 0xA3A JUMP JUMPDEST PUSH1 0x60 PUSH1 0x0 DUP1 SLOAD PUSH8 0xFFFFFFFFFFFFFFFF DUP2 GT ISZERO PUSH2 0xAC5 JUMPI PUSH4 0x4E487B71 PUSH1 0xE0 SHL PUSH1 0x0 MSTORE PUSH1 0x41 PUSH1 0x4 MSTORE PUSH1 0x24 PUSH1 0x0 REVERT JUMPDEST PUSH1 0x40 MLOAD SWAP1 DUP1 DUP3 MSTORE DUP1 PUSH1 0x20 MUL PUSH1 0x20 ADD DUP3 ADD PUSH1 0x40 MSTORE DUP1 ISZERO PUSH2 0xAEE JUMPI DUP2 PUSH1 0x20 ADD PUSH1 0x20 DUP3 MUL DUP1 CALLDATASIZE DUP4 CALLDATACOPY ADD SWAP1 POP JUMPDEST POP SWAP1 POP PUSH1 0x0 PUSH1 0x1 JUMPDEST PUSH1 0x0 SLOAD DUP2 GT PUSH2 0xB81 JUMPI PUSH1 0x0 DUP2 DUP2 MSTORE PUSH1 0x2 PUSH1 0x20 DUP2 SWAP1 MSTORE PUSH1 0x40 SWAP1 SWAP2 KECCAK256 ADD SLOAD PUSH1 0x1 PUSH1 0x1 PUSH1 0xA0 SHL SUB DUP7 DUP2 AND SWAP2 AND EQ ISZERO PUSH2 0xB6F JUMPI PUSH1 0x0 DUP2 DUP2 MSTORE PUSH1 0x2 PUSH1 0x20 MSTORE PUSH1 0x40 SWAP1 KECCAK256 SLOAD DUP4 MLOAD DUP5 SWAP1 DUP5 SWAP1 DUP2 LT PUSH2 0xB56 JUMPI PUSH4 0x4E487B71 PUSH1 0xE0 SHL PUSH1 0x0 MSTORE PUSH1 0x32 PUSH1 0x4 MSTORE PUSH1 0x24 PUSH1 0x0 REVERT JUMPDEST PUSH1 0x20 SWAP1 DUP2 MUL SWAP2 SWAP1 SWAP2 ADD ADD MSTORE DUP2 PUSH2 0xB6B DUP2 PUSH2 0x229D JUMP JUMPDEST SWAP3 POP POP JUMPDEST DUP1 PUSH2 0xB79 DUP2 PUSH2 0x229D JUMP JUMPDEST SWAP2 POP POP PUSH2 0xAF6 JUMP JUMPDEST POP SWAP1 SWAP4 SWAP3 POP POP POP JUMP JUMPDEST PUSH1 0x0 DUP1 PUSH1 0x1 JUMPDEST PUSH1 0x0 SLOAD DUP2 GT PUSH2 0x9D8 JUMPI PUSH1 0x0 DUP2 DUP2 MSTORE PUSH1 0x2 PUSH1 0x20 DUP2 SWAP1 MSTORE PUSH1 0x40 SWAP1 SWAP2 KECCAK256 ADD SLOAD PUSH1 0x1 PUSH1 0x1 PUSH1 0xA0 SHL SUB DUP6 DUP2 AND SWAP2 AND EQ ISZERO PUSH2 0xBDE JUMPI PUSH1 0x0 DUP2 DUP2 MSTORE PUSH1 0x2 PUSH1 0x20 MSTORE PUSH1 0x40 SWAP1 KECCAK256 PUSH1 0x6 ADD SLOAD PUSH2 0xBDB SWAP1 DUP4 PUSH2 0x21FA JUMP JUMPDEST SWAP2 POP JUMPDEST DUP1 PUSH2 0xBE8 DUP2 PUSH2 0x229D JUMP JUMPDEST SWAP2 POP POP PUSH2 0xB90 JUMP JUMPDEST PUSH1 0x0 DUP4 MLOAD GT PUSH2 0xC51 JUMPI PUSH1 0x40 MLOAD PUSH3 0x461BCD PUSH1 0xE5 SHL DUP2 MSTORE PUSH1 0x20 PUSH1 0x4 DUP3 ADD MSTORE PUSH1 0x27 PUSH1 0x24 DUP3 ADD MSTORE PUSH32 0x416C62756D206D7573742068617665206174206C65617374206F6E6520617564 PUSH1 0x44 DUP3 ADD MSTORE PUSH7 0x696F2066696C65 PUSH1 0xC8 SHL PUSH1 0x64 DUP3 ADD MSTORE PUSH1 0x84 ADD PUSH2 0x36E JUMP JUMPDEST PUSH1 0x1 DUP1 SLOAD SWAP1 PUSH1 0x0 PUSH2 0xC61 DUP4 PUSH2 0x229D JUMP JUMPDEST SWAP2 SWAP1 POP SSTORE POP PUSH1 0x40 MLOAD DUP1 PUSH2 0x160 ADD PUSH1 0x40 MSTORE DUP1 PUSH1 0x1 SLOAD DUP2 MSTORE PUSH1 0x20 ADD DUP10 DUP2 MSTORE PUSH1 0x20 ADD DUP9 PUSH1 0x1 PUSH1 0x1 PUSH1 0xA0 SHL SUB AND DUP2 MSTORE PUSH1 0x20 ADD DUP8 DUP2 MSTORE PUSH1 0x20 ADD DUP7 DUP2 MSTORE PUSH1 0x20 ADD DUP6 DUP2 MSTORE PUSH1 0x20 ADD PUSH1 0x0 DUP2 MSTORE PUSH1 0x20 ADD PUSH1 0x0 DUP2 MSTORE PUSH1 0x20 ADD DUP5 DUP2 MSTORE PUSH1 0x20 ADD DUP4 DUP2 MSTORE PUSH1 0x20 ADD DUP3 DUP2 MSTORE POP PUSH1 0x3 PUSH1 0x0 PUSH1 0x1 SLOAD DUP2 MSTORE PUSH1 0x20 ADD SWAP1 DUP2 MSTORE PUSH1 0x20 ADD PUSH1 0x0 KECCAK256 PUSH1 0x0 DUP3 ADD MLOAD DUP2 PUSH1 0x0 ADD SSTORE PUSH1 0x20 DUP3 ADD MLOAD DUP2 PUSH1 0x1 ADD SWAP1 DUP1 MLOAD SWAP1 PUSH1 0x20 ADD SWAP1 PUSH2 0xCFA SWAP3 SWAP2 SWAP1 PUSH2 0x1A7B JUMP JUMPDEST POP PUSH1 0x40 DUP3 ADD MLOAD PUSH1 0x2 DUP3 ADD DUP1 SLOAD PUSH1 0x1 PUSH1 0x1 PUSH1 0xA0 SHL SUB NOT AND PUSH1 0x1 PUSH1 0x1 PUSH1 0xA0 SHL SUB SWAP1 SWAP3 AND SWAP2 SWAP1 SWAP2 OR SWAP1 SSTORE PUSH1 0x60 DUP3 ADD MLOAD DUP1 MLOAD PUSH2 0xD3C SWAP2 PUSH1 0x3 DUP5 ADD SWAP2 PUSH1 0x20 SWAP1 SWAP2 ADD SWAP1 PUSH2 0x1A7B JUMP JUMPDEST POP PUSH1 0x80 DUP3 ADD MLOAD DUP1 MLOAD PUSH2 0xD58 SWAP2 PUSH1 0x4 DUP5 ADD SWAP2 PUSH1 0x20 SWAP1 SWAP2 ADD SWAP1 PUSH2 0x1A7B JUMP JUMPDEST POP PUSH1 0xA0 DUP3 ADD MLOAD PUSH1 0x5 DUP3 ADD SSTORE PUSH1 0xC0 DUP3 ADD MLOAD PUSH1 0x6 DUP3 ADD SSTORE PUSH1 0xE0 DUP3 ADD MLOAD PUSH1 0x7 DUP3 ADD SSTORE PUSH2 0x100 DUP3 ADD MLOAD DUP1 MLOAD PUSH2 0xD93 SWAP2 PUSH1 0x8 DUP5 ADD SWAP2 PUSH1 0x20 SWAP1 SWAP2 ADD SWAP1 PUSH2 0x1B54 JUMP JUMPDEST POP PUSH2 0x120 DUP3 ADD MLOAD DUP1 MLOAD PUSH2 0xDB0 SWAP2 PUSH1 0x9 DUP5 ADD SWAP2 PUSH1 0x20 SWAP1 SWAP2 ADD SWAP1 PUSH2 0x1AFF JUMP JUMPDEST POP PUSH2 0x140 DUP3 ADD MLOAD DUP1 MLOAD PUSH2 0xDCD SWAP2 PUSH1 0xA DUP5 ADD SWAP2 PUSH1 0x20 SWAP1 SWAP2 ADD SWAP1 PUSH2 0x1B54 JUMP JUMPDEST POP SWAP1 POP POP PUSH32 0x35CF2FBF514073689C9DC7A15257DD4DAEE42DF218875B25A09AE0E6DB27D75E PUSH1 0x1 SLOAD DUP10 DUP10 DUP10 DUP10 DUP10 DUP10 DUP10 DUP10 PUSH1 0x40 MLOAD PUSH2 0xE12 SWAP10 SWAP9 SWAP8 SWAP7 SWAP6 SWAP5 SWAP4 SWAP3 SWAP2 SWAP1 PUSH2 0x2101 JUMP JUMPDEST PUSH1 0x40 MLOAD DUP1 SWAP2 SUB SWAP1 LOG1 POP POP POP POP POP POP POP POP JUMP JUMPDEST PUSH1 0x0 DUP1 PUSH1 0x1 JUMPDEST PUSH1 0x1 SLOAD DUP2 GT PUSH2 0x9D8 JUMPI PUSH1 0x0 DUP2 DUP2 MSTORE PUSH1 0x3 PUSH1 0x20 MSTORE PUSH1 0x40 SWAP1 KECCAK256 PUSH1 0x2 ADD SLOAD PUSH1 0x1 PUSH1 0x1 PUSH1 0xA0 SHL SUB DUP6 DUP2 AND SWAP2 AND EQ ISZERO PUSH2 0xE88 JUMPI PUSH1 0x0 DUP2 DUP2 MSTORE PUSH1 0x3 PUSH1 0x20 MSTORE PUSH1 0x40 SWAP1 KECCAK256 PUSH1 0x5 DUP2 ADD SLOAD PUSH1 0x7 SWAP1 SWAP2 ADD SLOAD PUSH2 0xE7B SWAP2 SWAP1 PUSH2 0x2232 JUMP JUMPDEST PUSH2 0xE85 SWAP1 DUP4 PUSH2 0x21FA JUMP JUMPDEST SWAP2 POP JUMPDEST DUP1 PUSH2 0xE92 DUP2 PUSH2 0x229D JUMP JUMPDEST SWAP2 POP POP PUSH2 0xE2A JUMP JUMPDEST DUP1 PUSH1 0x0 DUP2 GT DUP1 ISZERO PUSH2 0xEAD JUMPI POP PUSH1 0x0 SLOAD DUP2 GT ISZERO JUMPDEST PUSH2 0xEC9 JUMPI PUSH1 0x40 MLOAD PUSH3 0x461BCD PUSH1 0xE5 SHL DUP2 MSTORE PUSH1 0x4 ADD PUSH2 0x36E SWAP1 PUSH2 0x2045 JUMP JUMPDEST PUSH1 0x0 DUP3 DUP2 MSTORE PUSH1 0x2 PUSH1 0x20 MSTORE PUSH1 0x40 SWAP1 KECCAK256 PUSH1 0x5 DUP2 ADD SLOAD CALLVALUE LT ISZERO PUSH2 0xF3C JUMPI PUSH1 0x40 MLOAD PUSH3 0x461BCD PUSH1 0xE5 SHL DUP2 MSTORE PUSH1 0x20 PUSH1 0x4 DUP3 ADD MSTORE PUSH1 0x28 PUSH1 0x24 DUP3 ADD MSTORE PUSH32 0x496E73756666696369656E74207061796D656E7420746F2073747265616D2074 PUSH1 0x44 DUP3 ADD MSTORE PUSH8 0x686520747261636B PUSH1 0xC0 SHL PUSH1 0x64 DUP3 ADD MSTORE PUSH1 0x84 ADD PUSH2 0x36E JUMP JUMPDEST PUSH1 0x0 PUSH2 0xFF9 DUP3 PUSH1 0x5 ADD SLOAD DUP4 PUSH1 0x8 ADD DUP1 SLOAD DUP1 PUSH1 0x20 MUL PUSH1 0x20 ADD PUSH1 0x40 MLOAD SWAP1 DUP2 ADD PUSH1 0x40 MSTORE DUP1 SWAP3 SWAP2 SWAP1 DUP2 DUP2 MSTORE PUSH1 0x20 ADD DUP3 DUP1 SLOAD DUP1 ISZERO PUSH2 0xF9E JUMPI PUSH1 0x20 MUL DUP3 ADD SWAP2 SWAP1 PUSH1 0x0 MSTORE PUSH1 0x20 PUSH1 0x0 KECCAK256 SWAP1 JUMPDEST DUP2 SLOAD PUSH1 0x1 PUSH1 0x1 PUSH1 0xA0 SHL SUB AND DUP2 MSTORE PUSH1 0x1 SWAP1 SWAP2 ADD SWAP1 PUSH1 0x20 ADD DUP1 DUP4 GT PUSH2 0xF80 JUMPI JUMPDEST POP POP POP POP POP DUP5 PUSH1 0x9 ADD DUP1 SLOAD DUP1 PUSH1 0x20 MUL PUSH1 0x20 ADD PUSH1 0x40 MLOAD SWAP1 DUP2 ADD PUSH1 0x40 MSTORE DUP1 SWAP3 SWAP2 SWAP1 DUP2 DUP2 MSTORE PUSH1 0x20 ADD DUP3 DUP1 SLOAD DUP1 ISZERO PUSH2 0x7F0 JUMPI PUSH1 0x20 MUL DUP3 ADD SWAP2 SWAP1 PUSH1 0x0 MSTORE PUSH1 0x20 PUSH1 0x0 KECCAK256 SWAP1 DUP2 SLOAD DUP2 MSTORE PUSH1 0x20 ADD SWAP1 PUSH1 0x1 ADD SWAP1 DUP1 DUP4 GT PUSH2 0x7DC JUMPI POP POP POP POP POP PUSH2 0x18D2 JUMP JUMPDEST SWAP1 POP PUSH1 0x0 DUP2 DUP4 PUSH1 0x5 ADD SLOAD PUSH2 0x100D SWAP2 SWAP1 PUSH2 0x2251 JUMP JUMPDEST PUSH1 0x6 DUP5 ADD DUP1 SLOAD SWAP2 SWAP3 POP PUSH1 0x0 PUSH2 0x1021 DUP4 PUSH2 0x229D JUMP JUMPDEST SWAP1 SWAP2 SSTORE POP POP PUSH1 0x2 DUP4 ADD SLOAD PUSH1 0x1 PUSH1 0x1 PUSH1 0xA0 SHL SUB AND PUSH1 0x0 SWAP1 DUP2 MSTORE PUSH1 0x6 PUSH1 0x20 MSTORE PUSH1 0x40 DUP2 KECCAK256 DUP1 SLOAD DUP4 SWAP3 SWAP1 PUSH2 0x1052 SWAP1 DUP5 SWAP1 PUSH2 0x21FA JUMP JUMPDEST SWAP3 POP POP DUP2 SWAP1 SSTORE POP PUSH2 0x1110 DUP4 PUSH1 0x8 ADD DUP1 SLOAD DUP1 PUSH1 0x20 MUL PUSH1 0x20 ADD PUSH1 0x40 MLOAD SWAP1 DUP2 ADD PUSH1 0x40 MSTORE DUP1 SWAP3 SWAP2 SWAP1 DUP2 DUP2 MSTORE PUSH1 0x20 ADD DUP3 DUP1 SLOAD DUP1 ISZERO PUSH2 0x10B4 JUMPI PUSH1 0x20 MUL DUP3 ADD SWAP2 SWAP1 PUSH1 0x0 MSTORE PUSH1 0x20 PUSH1 0x0 KECCAK256 SWAP1 JUMPDEST DUP2 SLOAD PUSH1 0x1 PUSH1 0x1 PUSH1 0xA0 SHL SUB AND DUP2 MSTORE PUSH1 0x1 SWAP1 SWAP2 ADD SWAP1 PUSH1 0x20 ADD DUP1 DUP4 GT PUSH2 0x1096 JUMPI JUMPDEST POP POP POP POP POP DUP5 PUSH1 0x9 ADD DUP1 SLOAD DUP1 PUSH1 0x20 MUL PUSH1 0x20 ADD PUSH1 0x40 MLOAD SWAP1 DUP2 ADD PUSH1 0x40 MSTORE DUP1 SWAP3 SWAP2 SWAP1 DUP2 DUP2 MSTORE PUSH1 0x20 ADD DUP3 DUP1 SLOAD DUP1 ISZERO PUSH2 0x908 JUMPI PUSH1 0x20 MUL DUP3 ADD SWAP2 SWAP1 PUSH1 0x0 MSTORE PUSH1 0x20 PUSH1 0x0 KECCAK256 SWAP1 DUP2 SLOAD DUP2 MSTORE PUSH1 0x20 ADD SWAP1 PUSH1 0x1 ADD SWAP1 DUP1 DUP4 GT PUSH2 0x8F4 JUMPI POP POP POP POP POP DUP5 PUSH2 0x1946 JUMP JUMPDEST PUSH1 0x5 DUP4 ADD SLOAD PUSH1 0x40 DUP1 MLOAD DUP8 DUP2 MSTORE CALLER PUSH1 0x20 DUP3 ADD MSTORE SWAP1 DUP2 ADD SWAP2 SWAP1 SWAP2 MSTORE PUSH32 0xA8FF0760DB1BD134BEC00C7F599E3D73AD185CFC7DD4C313B1CCFC4BD9594737 SWAP1 PUSH1 0x60 ADD PUSH2 0x952 JUMP JUMPDEST DUP1 PUSH1 0x0 DUP2 GT DUP1 ISZERO PUSH2 0x1166 JUMPI POP PUSH1 0x0 SLOAD DUP2 GT ISZERO JUMPDEST PUSH2 0x1182 JUMPI PUSH1 0x40 MLOAD PUSH3 0x461BCD PUSH1 0xE5 SHL DUP2 MSTORE PUSH1 0x4 ADD PUSH2 0x36E SWAP1 PUSH2 0x2045 JUMP JUMPDEST PUSH1 0x0 DUP3 DUP2 MSTORE PUSH1 0x2 PUSH1 0x20 MSTORE PUSH1 0x40 SWAP1 KECCAK256 PUSH1 0x5 DUP2 ADD SLOAD CALLVALUE LT ISZERO PUSH2 0x11F7 JUMPI PUSH1 0x40 MLOAD PUSH3 0x461BCD PUSH1 0xE5 SHL DUP2 MSTORE PUSH1 0x20 PUSH1 0x4 DUP3 ADD MSTORE PUSH1 0x2A PUSH1 0x24 DUP3 ADD MSTORE PUSH32 0x496E73756666696369656E74207061796D656E7420746F207075726368617365 PUSH1 0x44 DUP3 ADD MSTORE PUSH10 0x2074686520747261636B PUSH1 0xB0 SHL PUSH1 0x64 DUP3 ADD MSTORE PUSH1 0x84 ADD PUSH2 0x36E JUMP JUMPDEST PUSH1 0x0 PUSH2 0x12B2 DUP3 PUSH1 0x5 ADD SLOAD DUP4 PUSH1 0x8 ADD DUP1 SLOAD DUP1 PUSH1 0x20 MUL PUSH1 0x20 ADD PUSH1 0x40 MLOAD SWAP1 DUP2 ADD PUSH1 0x40 MSTORE DUP1 SWAP3 SWAP2 SWAP1 DUP2 DUP2 MSTORE PUSH1 0x20 ADD DUP3 DUP1 SLOAD DUP1 ISZERO PUSH2 0xF9E JUMPI PUSH1 0x20 MUL DUP3 ADD SWAP2 SWAP1 PUSH1 0x0 MSTORE PUSH1 0x20 PUSH1 0x0 KECCAK256 SWAP1 DUP2 SLOAD PUSH1 0x1 PUSH1 0x1 PUSH1 0xA0 SHL SUB AND DUP2 MSTORE PUSH1 0x1 SWAP1 SWAP2 ADD SWAP1 PUSH1 0x20 ADD DUP1 DUP4 GT PUSH2 0xF80 JUMPI POP POP POP POP POP DUP5 PUSH1 0x9 ADD DUP1 SLOAD DUP1 PUSH1 0x20 MUL PUSH1 0x20 ADD PUSH1 0x40 MLOAD SWAP1 DUP2 ADD PUSH1 0x40 MSTORE DUP1 SWAP3 SWAP2 SWAP1 DUP2 DUP2 MSTORE PUSH1 0x20 ADD DUP3 DUP1 SLOAD DUP1 ISZERO PUSH2 0x7F0 JUMPI PUSH1 0x20 MUL DUP3 ADD SWAP2 SWAP1 PUSH1 0x0 MSTORE PUSH1 0x20 PUSH1 0x0 KECCAK256 SWAP1 DUP2 SLOAD DUP2 MSTORE PUSH1 0x20 ADD SWAP1 PUSH1 0x1 ADD SWAP1 DUP1 DUP4 GT PUSH2 0x7DC JUMPI POP POP POP POP POP PUSH2 0x18D2 JUMP JUMPDEST SWAP1 POP PUSH1 0x0 DUP2 DUP4 PUSH1 0x5 ADD SLOAD PUSH2 0x12C6 SWAP2 SWAP1 PUSH2 0x2251 JUMP JUMPDEST PUSH1 0x7 DUP5 ADD DUP1 SLOAD SWAP2 SWAP3 POP PUSH1 0x0 PUSH2 0x12DA DUP4 PUSH2 0x229D JUMP JUMPDEST SWAP1 SWAP2 SSTORE POP POP PUSH1 0x2 DUP4 ADD SLOAD PUSH1 0x1 PUSH1 0x1 PUSH1 0xA0 SHL SUB AND PUSH1 0x0 SWAP1 DUP2 MSTORE PUSH1 0x6 PUSH1 0x20 MSTORE PUSH1 0x40 DUP2 KECCAK256 DUP1 SLOAD DUP4 SWAP3 SWAP1 PUSH2 0x130B SWAP1 DUP5 SWAP1 PUSH2 0x21FA JUMP JUMPDEST SWAP3 POP POP DUP2 SWAP1 SSTORE POP PUSH2 0x13C7 DUP4 PUSH1 0x8 ADD DUP1 SLOAD DUP1 PUSH1 0x20 MUL PUSH1 0x20 ADD PUSH1 0x40 MLOAD SWAP1 DUP2 ADD PUSH1 0x40 MSTORE DUP1 SWAP3 SWAP2 SWAP1 DUP2 DUP2 MSTORE PUSH1 0x20 ADD DUP3 DUP1 SLOAD DUP1 ISZERO PUSH2 0x10B4 JUMPI PUSH1 0x20 MUL DUP3 ADD SWAP2 SWAP1 PUSH1 0x0 MSTORE PUSH1 0x20 PUSH1 0x0 KECCAK256 SWAP1 DUP2 SLOAD PUSH1 0x1 PUSH1 0x1 PUSH1 0xA0 SHL SUB AND DUP2 MSTORE PUSH1 0x1 SWAP1 SWAP2 ADD SWAP1 PUSH1 0x20 ADD DUP1 DUP4 GT PUSH2 0x1096 JUMPI POP POP POP POP POP DUP5 PUSH1 0x9 ADD DUP1 SLOAD DUP1 PUSH1 0x20 MUL PUSH1 0x20 ADD PUSH1 0x40 MLOAD SWAP1 DUP2 ADD PUSH1 0x40 MSTORE DUP1 SWAP3 SWAP2 SWAP1 DUP2 DUP2 MSTORE PUSH1 0x20 ADD DUP3 DUP1 SLOAD DUP1 ISZERO PUSH2 0x908 JUMPI PUSH1 0x20 MUL DUP3 ADD SWAP2 SWAP1 PUSH1 0x0 MSTORE PUSH1 0x20 PUSH1 0x0 KECCAK256 SWAP1 DUP2 SLOAD DUP2 MSTORE PUSH1 0x20 ADD SWAP1 PUSH1 0x1 ADD SWAP1 DUP1 DUP4 GT PUSH2 0x8F4 JUMPI POP POP POP POP POP DUP5 PUSH2 0x1946 JUMP JUMPDEST CALLER PUSH1 0x0 DUP2 DUP2 MSTORE PUSH1 0x4 PUSH1 0x20 SWAP1 DUP2 MSTORE PUSH1 0x40 DUP1 DUP4 KECCAK256 DUP1 SLOAD PUSH1 0x1 DUP2 ADD DUP3 SSTORE SWAP1 DUP5 MSTORE SWAP2 SWAP1 SWAP3 KECCAK256 ADD DUP8 SWAP1 SSTORE PUSH1 0x5 DUP6 ADD SLOAD SWAP1 MLOAD PUSH32 0xFE3F9AF2D0BA5BE4687CA774DF8206EC9CF7919BCF32BD9C76B051E5DFBBB5B4 SWAP3 PUSH2 0x952 SWAP3 DUP10 DUP4 MSTORE PUSH1 0x1 PUSH1 0x1 PUSH1 0xA0 SHL SUB SWAP2 SWAP1 SWAP2 AND PUSH1 0x20 DUP4 ADD MSTORE PUSH1 0x40 DUP3 ADD MSTORE PUSH1 0x60 ADD SWAP1 JUMP JUMPDEST PUSH1 0x1 PUSH1 0x1 PUSH1 0xA0 SHL SUB DUP2 AND PUSH1 0x0 SWAP1 DUP2 MSTORE PUSH1 0x4 PUSH1 0x20 SWAP1 DUP2 MSTORE PUSH1 0x40 SWAP2 DUP3 SWAP1 KECCAK256 DUP1 SLOAD DUP4 MLOAD DUP2 DUP5 MUL DUP2 ADD DUP5 ADD SWAP1 SWAP5 MSTORE DUP1 DUP5 MSTORE PUSH1 0x60 SWAP4 SWAP3 DUP4 ADD DUP3 DUP3 DUP1 ISZERO PUSH2 0x42C JUMPI PUSH1 0x20 MUL DUP3 ADD SWAP2 SWAP1 PUSH1 0x0 MSTORE PUSH1 0x20 PUSH1 0x0 KECCAK256 SWAP1 DUP2 SLOAD DUP2 MSTORE PUSH1 0x20 ADD SWAP1 PUSH1 0x1 ADD SWAP1 DUP1 DUP4 GT PUSH2 0x418 JUMPI POP POP POP POP POP SWAP1 POP SWAP2 SWAP1 POP JUMP JUMPDEST PUSH1 0x0 DUP1 PUSH1 0x1 JUMPDEST PUSH1 0x1 SLOAD DUP2 GT PUSH2 0x9D8 JUMPI PUSH1 0x0 DUP2 DUP2 MSTORE PUSH1 0x3 PUSH1 0x20 MSTORE PUSH1 0x40 SWAP1 KECCAK256 PUSH1 0x2 ADD SLOAD PUSH1 0x1 PUSH1 0x1 PUSH1 0xA0 SHL SUB DUP6 DUP2 AND SWAP2 AND EQ ISZERO PUSH2 0x14F5 JUMPI PUSH1 0x0 DUP2 DUP2 MSTORE PUSH1 0x3 PUSH1 0x20 MSTORE PUSH1 0x40 SWAP1 KECCAK256 PUSH1 0x6 ADD SLOAD PUSH2 0x14F2 SWAP1 DUP4 PUSH2 0x21FA JUMP JUMPDEST SWAP2 POP JUMPDEST DUP1 PUSH2 0x14FF DUP2 PUSH2 0x229D JUMP JUMPDEST SWAP2 POP POP PUSH2 0x14A8 JUMP JUMPDEST DUP1 PUSH1 0x0 DUP2 GT DUP1 ISZERO PUSH2 0x151A JUMPI POP PUSH1 0x1 SLOAD DUP2 GT ISZERO JUMPDEST PUSH2 0x1536 JUMPI PUSH1 0x40 MLOAD PUSH3 0x461BCD PUSH1 0xE5 SHL DUP2 MSTORE PUSH1 0x4 ADD PUSH2 0x36E SWAP1 PUSH2 0x2017 JUMP JUMPDEST PUSH1 0x0 DUP3 DUP2 MSTORE PUSH1 0x3 PUSH1 0x20 MSTORE PUSH1 0x40 SWAP1 KECCAK256 PUSH1 0x5 DUP2 ADD SLOAD CALLVALUE LT ISZERO PUSH2 0x15AB JUMPI PUSH1 0x40 MLOAD PUSH3 0x461BCD PUSH1 0xE5 SHL DUP2 MSTORE PUSH1 0x20 PUSH1 0x4 DUP3 ADD MSTORE PUSH1 0x2A PUSH1 0x24 DUP3 ADD MSTORE PUSH32 0x496E73756666696369656E74207061796D656E7420746F207075726368617365 PUSH1 0x44 DUP3 ADD MSTORE PUSH10 0x2074686520616C62756D PUSH1 0xB0 SHL PUSH1 0x64 DUP3 ADD MSTORE PUSH1 0x84 ADD PUSH2 0x36E JUMP JUMPDEST PUSH1 0x0 PUSH2 0x1666 DUP3 PUSH1 0x5 ADD SLOAD DUP4 PUSH1 0x9 ADD DUP1 SLOAD DUP1 PUSH1 0x20 MUL PUSH1 0x20 ADD PUSH1 0x40 MLOAD SWAP1 DUP2 ADD PUSH1 0x40 MSTORE DUP1 SWAP3 SWAP2 SWAP1 DUP2 DUP2 MSTORE PUSH1 0x20 ADD DUP3 DUP1 SLOAD DUP1 ISZERO PUSH2 0x79D JUMPI PUSH1 0x20 MUL DUP3 ADD SWAP2 SWAP1 PUSH1 0x0 MSTORE PUSH1 0x20 PUSH1 0x0 KECCAK256 SWAP1 DUP2 SLOAD PUSH1 0x1 PUSH1 0x1 PUSH1 0xA0 SHL SUB AND DUP2 MSTORE PUSH1 0x1 SWAP1 SWAP2 ADD SWAP1 PUSH1 0x20 ADD DUP1 DUP4 GT PUSH2 0x77F JUMPI POP POP POP POP POP DUP5 PUSH1 0xA ADD DUP1 SLOAD DUP1 PUSH1 0x20 MUL PUSH1 0x20 ADD PUSH1 0x40 MLOAD SWAP1 DUP2 ADD PUSH1 0x40 MSTORE DUP1 SWAP3 SWAP2 SWAP1 DUP2 DUP2 MSTORE PUSH1 0x20 ADD DUP3 DUP1 SLOAD DUP1 ISZERO PUSH2 0x7F0 JUMPI PUSH1 0x20 MUL DUP3 ADD SWAP2 SWAP1 PUSH1 0x0 MSTORE PUSH1 0x20 PUSH1 0x0 KECCAK256 SWAP1 DUP2 SLOAD DUP2 MSTORE PUSH1 0x20 ADD SWAP1 PUSH1 0x1 ADD SWAP1 DUP1 DUP4 GT PUSH2 0x7DC JUMPI POP POP POP POP POP PUSH2 0x18D2 JUMP JUMPDEST SWAP1 POP PUSH1 0x0 DUP2 DUP4 PUSH1 0x5 ADD SLOAD PUSH2 0x167A SWAP2 SWAP1 PUSH2 0x2251 JUMP JUMPDEST PUSH1 0x7 DUP5 ADD DUP1 SLOAD SWAP2 SWAP3 POP PUSH1 0x0 PUSH2 0x168E DUP4 PUSH2 0x229D JUMP JUMPDEST SWAP1 SWAP2 SSTORE POP POP PUSH1 0x2 DUP4 ADD SLOAD PUSH1 0x1 PUSH1 0x1 PUSH1 0xA0 SHL SUB AND PUSH1 0x0 SWAP1 DUP2 MSTORE PUSH1 0x6 PUSH1 0x20 MSTORE PUSH1 0x40 DUP2 KECCAK256 DUP1 SLOAD DUP4 SWAP3 SWAP1 PUSH2 0x16BF SWAP1 DUP5 SWAP1 PUSH2 0x21FA JUMP JUMPDEST SWAP3 POP POP DUP2 SWAP1 SSTORE POP PUSH2 0x177B DUP4 PUSH1 0x9 ADD DUP1 SLOAD DUP1 PUSH1 0x20 MUL PUSH1 0x20 ADD PUSH1 0x40 MLOAD SWAP1 DUP2 ADD PUSH1 0x40 MSTORE DUP1 SWAP3 SWAP2 SWAP1 DUP2 DUP2 MSTORE PUSH1 0x20 ADD DUP3 DUP1 SLOAD DUP1 ISZERO PUSH2 0x8B5 JUMPI PUSH1 0x20 MUL DUP3 ADD SWAP2 SWAP1 PUSH1 0x0 MSTORE PUSH1 0x20 PUSH1 0x0 KECCAK256 SWAP1 DUP2 SLOAD PUSH1 0x1 PUSH1 0x1 PUSH1 0xA0 SHL SUB AND DUP2 MSTORE PUSH1 0x1 SWAP1 SWAP2 ADD SWAP1 PUSH1 0x20 ADD DUP1 DUP4 GT PUSH2 0x897 JUMPI POP POP POP POP POP DUP5 PUSH1 0xA ADD DUP1 SLOAD DUP1 PUSH1 0x20 MUL PUSH1 0x20 ADD PUSH1 0x40 MLOAD SWAP1 DUP2 ADD PUSH1 0x40 MSTORE DUP1 SWAP3 SWAP2 SWAP1 DUP2 DUP2 MSTORE PUSH1 0x20 ADD DUP3 DUP1 SLOAD DUP1 ISZERO PUSH2 0x908 JUMPI PUSH1 0x20 MUL DUP3 ADD SWAP2 SWAP1 PUSH1 0x0 MSTORE PUSH1 0x20 PUSH1 0x0 KECCAK256 SWAP1 DUP2 SLOAD DUP2 MSTORE PUSH1 0x20 ADD SWAP1 PUSH1 0x1 ADD SWAP1 DUP1 DUP4 GT PUSH2 0x8F4 JUMPI POP POP POP POP POP DUP5 PUSH2 0x1946 JUMP JUMPDEST CALLER PUSH1 0x0 DUP2 DUP2 MSTORE PUSH1 0x5 PUSH1 0x20 DUP2 DUP2 MSTORE PUSH1 0x40 DUP1 DUP5 KECCAK256 DUP1 SLOAD PUSH1 0x1 DUP2 ADD DUP3 SSTORE SWAP1 DUP6 MSTORE SWAP2 SWAP1 SWAP4 KECCAK256 ADD DUP9 SWAP1 SSTORE DUP6 ADD SLOAD SWAP1 MLOAD PUSH32 0x11332EF3956CEA4003185B2A4DB8407E3E5662FE799887282E178F18726ECC9B SWAP3 PUSH2 0x952 SWAP3 DUP10 DUP4 MSTORE PUSH1 0x1 PUSH1 0x1 PUSH1 0xA0 SHL SUB SWAP2 SWAP1 SWAP2 AND PUSH1 0x20 DUP4 ADD MSTORE PUSH1 0x40 DUP3 ADD MSTORE PUSH1 0x60 ADD SWAP1 JUMP JUMPDEST PUSH1 0x60 PUSH1 0x0 PUSH1 0x1 SLOAD PUSH8 0xFFFFFFFFFFFFFFFF DUP2 GT ISZERO PUSH2 0x1817 JUMPI PUSH4 0x4E487B71 PUSH1 0xE0 SHL PUSH1 0x0 MSTORE PUSH1 0x41 PUSH1 0x4 MSTORE PUSH1 0x24 PUSH1 0x0 REVERT JUMPDEST PUSH1 0x40 MLOAD SWAP1 DUP1 DUP3 MSTORE DUP1 PUSH1 0x20 MUL PUSH1 0x20 ADD DUP3 ADD PUSH1 0x40 MSTORE DUP1 ISZERO PUSH2 0x1840 JUMPI DUP2 PUSH1 0x20 ADD PUSH1 0x20 DUP3 MUL DUP1 CALLDATASIZE DUP4 CALLDATACOPY ADD SWAP1 POP JUMPDEST POP SWAP1 POP PUSH1 0x0 PUSH1 0x1 JUMPDEST PUSH1 0x1 SLOAD DUP2 GT PUSH2 0xB81 JUMPI PUSH1 0x0 DUP2 DUP2 MSTORE PUSH1 0x3 PUSH1 0x20 MSTORE PUSH1 0x40 SWAP1 KECCAK256 PUSH1 0x2 ADD SLOAD PUSH1 0x1 PUSH1 0x1 PUSH1 0xA0 SHL SUB DUP7 DUP2 AND SWAP2 AND EQ ISZERO PUSH2 0x18C0 JUMPI PUSH1 0x0 DUP2 DUP2 MSTORE PUSH1 0x3 PUSH1 0x20 MSTORE PUSH1 0x40 SWAP1 KECCAK256 SLOAD DUP4 MLOAD DUP5 SWAP1 DUP5 SWAP1 DUP2 LT PUSH2 0x18A7 JUMPI PUSH4 0x4E487B71 PUSH1 0xE0 SHL PUSH1 0x0 MSTORE PUSH1 0x32 PUSH1 0x4 MSTORE PUSH1 0x24 PUSH1 0x0 REVERT JUMPDEST PUSH1 0x20 SWAP1 DUP2 MUL SWAP2 SWAP1 SWAP2 ADD ADD MSTORE DUP2 PUSH2 0x18BC DUP2 PUSH2 0x229D JUMP JUMPDEST SWAP3 POP POP JUMPDEST DUP1 PUSH2 0x18CA DUP2 PUSH2 0x229D JUMP JUMPDEST SWAP2 POP POP PUSH2 0x1848 JUMP JUMPDEST PUSH1 0x0 DUP1 DUP1 JUMPDEST DUP5 MLOAD DUP2 LT ISZERO PUSH2 0x193D JUMPI PUSH1 0x64 DUP5 DUP3 DUP2 MLOAD DUP2 LT PUSH2 0x1902 JUMPI PUSH4 0x4E487B71 PUSH1 0xE0 SHL PUSH1 0x0 MSTORE PUSH1 0x32 PUSH1 0x4 MSTORE PUSH1 0x24 PUSH1 0x0 REVERT JUMPDEST PUSH1 0x20 MUL PUSH1 0x20 ADD ADD MLOAD DUP8 PUSH2 0x1915 SWAP2 SWAP1 PUSH2 0x2232 JUMP JUMPDEST PUSH2 0x191F SWAP2 SWAP1 PUSH2 0x2212 JUMP JUMPDEST PUSH2 0x1929 SWAP1 DUP4 PUSH2 0x21FA JUMP JUMPDEST SWAP2 POP DUP1 PUSH2 0x1935 DUP2 PUSH2 0x229D JUMP JUMPDEST SWAP2 POP POP PUSH2 0x18D7 JUMP JUMPDEST POP SWAP5 SWAP4 POP POP POP POP JUMP JUMPDEST DUP2 MLOAD DUP4 MLOAD EQ PUSH2 0x19AD JUMPI PUSH1 0x40 MLOAD PUSH3 0x461BCD PUSH1 0xE5 SHL DUP2 MSTORE PUSH1 0x20 PUSH1 0x4 DUP3 ADD MSTORE PUSH1 0x2D PUSH1 0x24 DUP3 ADD MSTORE PUSH32 0x4F776E65727320616E642070657263656E746167657320617272617973206C65 PUSH1 0x44 DUP3 ADD MSTORE PUSH13 0xDCCEE8D040DAD2E6DAC2E8C6D PUSH1 0x9B SHL PUSH1 0x64 DUP3 ADD MSTORE PUSH1 0x84 ADD PUSH2 0x36E JUMP JUMPDEST PUSH1 0x0 JUMPDEST DUP4 MLOAD DUP2 LT ISZERO PUSH2 0x1A75 JUMPI PUSH1 0x0 DUP5 DUP3 DUP2 MLOAD DUP2 LT PUSH2 0x19DB JUMPI PUSH4 0x4E487B71 PUSH1 0xE0 SHL PUSH1 0x0 MSTORE PUSH1 0x32 PUSH1 0x4 MSTORE PUSH1 0x24 PUSH1 0x0 REVERT JUMPDEST PUSH1 0x20 MUL PUSH1 0x20 ADD ADD MLOAD SWAP1 POP PUSH1 0x0 PUSH1 0x64 DUP6 DUP5 DUP2 MLOAD DUP2 LT PUSH2 0x1A09 JUMPI PUSH4 0x4E487B71 PUSH1 0xE0 SHL PUSH1 0x0 MSTORE PUSH1 0x32 PUSH1 0x4 MSTORE PUSH1 0x24 PUSH1 0x0 REVERT JUMPDEST PUSH1 0x20 MUL PUSH1 0x20 ADD ADD MLOAD DUP6 PUSH2 0x1A1C SWAP2 SWAP1 PUSH2 0x2232 JUMP JUMPDEST PUSH2 0x1A26 SWAP2 SWAP1 PUSH2 0x2212 JUMP JUMPDEST PUSH1 0x40 MLOAD SWAP1 SWAP2 POP PUSH1 0x1 PUSH1 0x1 PUSH1 0xA0 SHL SUB DUP4 AND SWAP1 DUP3 ISZERO PUSH2 0x8FC MUL SWAP1 DUP4 SWAP1 PUSH1 0x0 DUP2 DUP2 DUP2 DUP6 DUP9 DUP9 CALL SWAP4 POP POP POP POP ISZERO DUP1 ISZERO PUSH2 0x1A5F JUMPI RETURNDATASIZE PUSH1 0x0 DUP1 RETURNDATACOPY RETURNDATASIZE PUSH1 0x0 REVERT JUMPDEST POP POP POP DUP1 DUP1 PUSH2 0x1A6D SWAP1 PUSH2 0x229D JUMP JUMPDEST SWAP2 POP POP PUSH2 0x19B0 JUMP JUMPDEST POP POP POP POP JUMP JUMPDEST DUP3 DUP1 SLOAD PUSH2 0x1A87 SWAP1 PUSH2 0x2268 JUMP JUMPDEST SWAP1 PUSH1 0x0 MSTORE PUSH1 0x20 PUSH1 0x0 KECCAK256 SWAP1 PUSH1 0x1F ADD PUSH1 0x20 SWAP1 DIV DUP2 ADD SWAP3 DUP3 PUSH2 0x1AA9 JUMPI PUSH1 0x0 DUP6 SSTORE PUSH2 0x1AEF JUMP JUMPDEST DUP3 PUSH1 0x1F LT PUSH2 0x1AC2 JUMPI DUP1 MLOAD PUSH1 0xFF NOT AND DUP4 DUP1 ADD OR DUP6 SSTORE PUSH2 0x1AEF JUMP JUMPDEST DUP3 DUP1 ADD PUSH1 0x1 ADD DUP6 SSTORE DUP3 ISZERO PUSH2 0x1AEF JUMPI SWAP2 DUP3 ADD JUMPDEST DUP3 DUP2 GT ISZERO PUSH2 0x1AEF JUMPI DUP3 MLOAD DUP3 SSTORE SWAP2 PUSH1 0x20 ADD SWAP2 SWAP1 PUSH1 0x1 ADD SWAP1 PUSH2 0x1AD4 JUMP JUMPDEST POP PUSH2 0x1AFB SWAP3 SWAP2 POP PUSH2 0x1B8E JUMP JUMPDEST POP SWAP1 JUMP JUMPDEST DUP3 DUP1 SLOAD DUP3 DUP3 SSTORE SWAP1 PUSH1 0x0 MSTORE PUSH1 0x20 PUSH1 0x0 KECCAK256 SWAP1 DUP2 ADD SWAP3 DUP3 ISZERO PUSH2 0x1AEF JUMPI SWAP2 PUSH1 0x20 MUL DUP3 ADD JUMPDEST DUP3 DUP2 GT ISZERO PUSH2 0x1AEF JUMPI DUP3 MLOAD DUP3 SLOAD PUSH1 0x1 PUSH1 0x1 PUSH1 0xA0 SHL SUB NOT AND PUSH1 0x1 PUSH1 0x1 PUSH1 0xA0 SHL SUB SWAP1 SWAP2 AND OR DUP3 SSTORE PUSH1 0x20 SWAP1 SWAP3 ADD SWAP2 PUSH1 0x1 SWAP1 SWAP2 ADD SWAP1 PUSH2 0x1B1F JUMP JUMPDEST DUP3 DUP1 SLOAD DUP3 DUP3 SSTORE SWAP1 PUSH1 0x0 MSTORE PUSH1 0x20 PUSH1 0x0 KECCAK256 SWAP1 DUP2 ADD SWAP3 DUP3 ISZERO PUSH2 0x1AEF JUMPI SWAP2 PUSH1 0x20 MUL DUP3 ADD DUP3 DUP2 GT ISZERO PUSH2 0x1AEF JUMPI DUP3 MLOAD DUP3 SSTORE SWAP2 PUSH1 0x20 ADD SWAP2 SWAP1 PUSH1 0x1 ADD SWAP1 PUSH2 0x1AD4 JUMP JUMPDEST JUMPDEST DUP1 DUP3 GT ISZERO PUSH2 0x1AFB JUMPI PUSH1 0x0 DUP2 SSTORE PUSH1 0x1 ADD PUSH2 0x1B8F JUMP JUMPDEST DUP1 CALLDATALOAD PUSH1 0x1 PUSH1 0x1 PUSH1 0xA0 SHL SUB DUP2 AND DUP2 EQ PUSH2 0x1BBA JUMPI PUSH1 0x0 DUP1 REVERT JUMPDEST SWAP2 SWAP1 POP JUMP JUMPDEST PUSH1 0x0 DUP3 PUSH1 0x1F DUP4 ADD SLT PUSH2 0x1BCF JUMPI DUP1 DUP2 REVERT JUMPDEST DUP2 CALLDATALOAD PUSH1 0x20 PUSH2 0x1BE4 PUSH2 0x1BDF DUP4 PUSH2 0x21D6 JUMP JUMPDEST PUSH2 0x21A5 JUMP JUMPDEST DUP1 DUP4 DUP3 MSTORE DUP3 DUP3 ADD SWAP2 POP DUP3 DUP7 ADD DUP8 DUP5 DUP7 PUSH1 0x5 SHL DUP10 ADD ADD GT ISZERO PUSH2 0x1C03 JUMPI DUP6 DUP7 REVERT JUMPDEST DUP6 JUMPDEST DUP6 DUP2 LT ISZERO PUSH2 0x1C28 JUMPI PUSH2 0x1C16 DUP3 PUSH2 0x1BA3 JUMP JUMPDEST DUP5 MSTORE SWAP3 DUP5 ADD SWAP3 SWAP1 DUP5 ADD SWAP1 PUSH1 0x1 ADD PUSH2 0x1C05 JUMP JUMPDEST POP SWAP1 SWAP8 SWAP7 POP POP POP POP POP POP POP JUMP JUMPDEST PUSH1 0x0 DUP3 PUSH1 0x1F DUP4 ADD SLT PUSH2 0x1C45 JUMPI DUP1 DUP2 REVERT JUMPDEST DUP2 CALLDATALOAD PUSH1 0x20 PUSH2 0x1C55 PUSH2 0x1BDF DUP4 PUSH2 0x21D6 JUMP JUMPDEST DUP1 DUP4 DUP3 MSTORE DUP3 DUP3 ADD SWAP2 POP DUP3 DUP7 ADD DUP8 DUP5 DUP7 PUSH1 0x5 SHL DUP10 ADD ADD GT ISZERO PUSH2 0x1C74 JUMPI DUP6 DUP7 REVERT JUMPDEST DUP6 JUMPDEST DUP6 DUP2 LT ISZERO PUSH2 0x1C28 JUMPI DUP2 CALLDATALOAD DUP5 MSTORE SWAP3 DUP5 ADD SWAP3 SWAP1 DUP5 ADD SWAP1 PUSH1 0x1 ADD PUSH2 0x1C76 JUMP JUMPDEST PUSH1 0x0 DUP3 PUSH1 0x1F DUP4 ADD SLT PUSH2 0x1CA2 JUMPI DUP1 DUP2 REVERT JUMPDEST DUP2 CALLDATALOAD PUSH8 0xFFFFFFFFFFFFFFFF DUP2 GT ISZERO PUSH2 0x1CBC JUMPI PUSH2 0x1CBC PUSH2 0x22CE JUMP JUMPDEST PUSH2 0x1CCF PUSH1 0x1F DUP3 ADD PUSH1 0x1F NOT AND PUSH1 0x20 ADD PUSH2 0x21A5 JUMP JUMPDEST DUP2 DUP2 MSTORE DUP5 PUSH1 0x20 DUP4 DUP7 ADD ADD GT ISZERO PUSH2 0x1CE3 JUMPI DUP3 DUP4 REVERT JUMPDEST DUP2 PUSH1 0x20 DUP6 ADD PUSH1 0x20 DUP4 ADD CALLDATACOPY SWAP1 DUP2 ADD PUSH1 0x20 ADD SWAP2 SWAP1 SWAP2 MSTORE SWAP3 SWAP2 POP POP JUMP JUMPDEST PUSH1 0x0 PUSH1 0x20 DUP3 DUP5 SUB SLT ISZERO PUSH2 0x1D0E JUMPI DUP1 DUP2 REVERT JUMPDEST PUSH2 0x1D17 DUP3 PUSH2 0x1BA3 JUMP JUMPDEST SWAP4 SWAP3 POP POP POP JUMP JUMPDEST PUSH1 0x0 DUP1 PUSH1 0x0 DUP1 PUSH1 0x0 DUP1 PUSH1 0x0 PUSH1 0xE0 DUP9 DUP11 SUB SLT ISZERO PUSH2 0x1D38 JUMPI DUP3 DUP4 REVERT JUMPDEST DUP8 CALLDATALOAD PUSH8 0xFFFFFFFFFFFFFFFF DUP1 DUP3 GT ISZERO PUSH2 0x1D4F JUMPI DUP5 DUP6 REVERT JUMPDEST PUSH2 0x1D5B DUP12 DUP4 DUP13 ADD PUSH2 0x1C92 JUMP JUMPDEST SWAP9 POP PUSH2 0x1D69 PUSH1 0x20 DUP12 ADD PUSH2 0x1BA3 JUMP JUMPDEST SWAP8 POP PUSH1 0x40 DUP11 ADD CALLDATALOAD SWAP2 POP DUP1 DUP3 GT ISZERO PUSH2 0x1D7E JUMPI DUP5 DUP6 REVERT JUMPDEST PUSH2 0x1D8A DUP12 DUP4 DUP13 ADD PUSH2 0x1C92 JUMP JUMPDEST SWAP7 POP PUSH1 0x60 DUP11 ADD CALLDATALOAD SWAP2 POP DUP1 DUP3 GT ISZERO PUSH2 0x1D9F JUMPI DUP5 DUP6 REVERT JUMPDEST PUSH2 0x1DAB DUP12 DUP4 DUP13 ADD PUSH2 0x1C92 JUMP JUMPDEST SWAP6 POP PUSH1 0x80 DUP11 ADD CALLDATALOAD SWAP5 POP PUSH1 0xA0 DUP11 ADD CALLDATALOAD SWAP2 POP DUP1 DUP3 GT ISZERO PUSH2 0x1DC7 JUMPI DUP4 DUP5 REVERT JUMPDEST PUSH2 0x1DD3 DUP12 DUP4 DUP13 ADD PUSH2 0x1BBF JUMP JUMPDEST SWAP4 POP PUSH1 0xC0 DUP11 ADD CALLDATALOAD SWAP2 POP DUP1 DUP3 GT ISZERO PUSH2 0x1DE8 JUMPI DUP3 DUP4 REVERT JUMPDEST POP PUSH2 0x1DF5 DUP11 DUP3 DUP12 ADD PUSH2 0x1C35 JUMP JUMPDEST SWAP2 POP POP SWAP3 SWAP6 SWAP9 SWAP2 SWAP5 SWAP8 POP SWAP3 SWAP6 POP JUMP JUMPDEST PUSH1 0x0 DUP1 PUSH1 0x0 DUP1 PUSH1 0x0 DUP1 PUSH1 0x0 DUP1 PUSH2 0x100 DUP10 DUP12 SUB SLT ISZERO PUSH2 0x1E20 JUMPI DUP1 DUP2 REVERT JUMPDEST DUP9 CALLDATALOAD PUSH8 0xFFFFFFFFFFFFFFFF DUP1 DUP3 GT ISZERO PUSH2 0x1E37 JUMPI DUP3 DUP4 REVERT JUMPDEST PUSH2 0x1E43 DUP13 DUP4 DUP14 ADD PUSH2 0x1C92 JUMP JUMPDEST SWAP10 POP PUSH2 0x1E51 PUSH1 0x20 DUP13 ADD PUSH2 0x1BA3 JUMP JUMPDEST SWAP9 POP PUSH1 0x40 DUP12 ADD CALLDATALOAD SWAP2 POP DUP1 DUP3 GT ISZERO PUSH2 0x1E66 JUMPI DUP3 DUP4 REVERT JUMPDEST PUSH2 0x1E72 DUP13 DUP4 DUP14 ADD PUSH2 0x1C92 JUMP JUMPDEST SWAP8 POP PUSH1 0x60 DUP12 ADD CALLDATALOAD SWAP2 POP DUP1 DUP3 GT ISZERO PUSH2 0x1E87 JUMPI DUP3 DUP4 REVERT JUMPDEST PUSH2 0x1E93 DUP13 DUP4 DUP14 ADD PUSH2 0x1C92 JUMP JUMPDEST SWAP7 POP PUSH1 0x80 DUP12 ADD CALLDATALOAD SWAP6 POP PUSH1 0xA0 DUP12 ADD CALLDATALOAD SWAP2 POP DUP1 DUP3 GT ISZERO PUSH2 0x1EAF JUMPI DUP3 DUP4 REVERT JUMPDEST PUSH2 0x1EBB DUP13 DUP4 DUP14 ADD PUSH2 0x1C35 JUMP JUMPDEST SWAP5 POP PUSH1 0xC0 DUP12 ADD CALLDATALOAD SWAP2 POP DUP1 DUP3 GT ISZERO PUSH2 0x1ED0 JUMPI DUP3 DUP4 REVERT JUMPDEST PUSH2 0x1EDC DUP13 DUP4 DUP14 ADD PUSH2 0x1BBF JUMP JUMPDEST SWAP4 POP PUSH1 0xE0 DUP12 ADD CALLDATALOAD SWAP2 POP DUP1 DUP3 GT ISZERO PUSH2 0x1EF1 JUMPI DUP3 DUP4 REVERT JUMPDEST POP PUSH2 0x1EFE DUP12 DUP3 DUP13 ADD PUSH2 0x1C35 JUMP JUMPDEST SWAP2 POP POP SWAP3 SWAP6 SWAP9 POP SWAP3 SWAP6 SWAP9 SWAP1 SWAP4 SWAP7 POP JUMP JUMPDEST PUSH1 0x0 PUSH1 0x20 DUP3 DUP5 SUB SLT ISZERO PUSH2 0x1F1F JUMPI DUP1 DUP2 REVERT JUMPDEST POP CALLDATALOAD SWAP2 SWAP1 POP JUMP JUMPDEST PUSH1 0x0 DUP1 PUSH1 0x40 DUP4 DUP6 SUB SLT ISZERO PUSH2 0x1F38 JUMPI DUP2 DUP3 REVERT JUMPDEST POP POP DUP1 CALLDATALOAD SWAP3 PUSH1 0x20 SWAP1 SWAP2 ADD CALLDATALOAD SWAP2 POP JUMP JUMPDEST PUSH1 0x0 DUP2 MLOAD DUP1 DUP5 MSTORE PUSH1 0x20 DUP1 DUP6 ADD SWAP5 POP DUP1 DUP5 ADD DUP4 JUMPDEST DUP4 DUP2 LT ISZERO PUSH2 0x1F7F JUMPI DUP2 MLOAD PUSH1 0x1 PUSH1 0x1 PUSH1 0xA0 SHL SUB AND DUP8 MSTORE SWAP6 DUP3 ADD SWAP6 SWAP1 DUP3 ADD SWAP1 PUSH1 0x1 ADD PUSH2 0x1F5A JUMP JUMPDEST POP SWAP5 SWAP6 SWAP5 POP POP POP POP POP JUMP JUMPDEST PUSH1 0x0 DUP2 MLOAD DUP1 DUP5 MSTORE PUSH1 0x20 DUP1 DUP6 ADD SWAP5 POP DUP1 DUP5 ADD DUP4 JUMPDEST DUP4 DUP2 LT ISZERO PUSH2 0x1F7F JUMPI DUP2 MLOAD DUP8 MSTORE SWAP6 DUP3 ADD SWAP6 SWAP1 DUP3 ADD SWAP1 PUSH1 0x1 ADD PUSH2 0x1F9D JUMP JUMPDEST PUSH1 0x0 DUP2 MLOAD DUP1 DUP5 MSTORE DUP2 JUMPDEST DUP2 DUP2 LT ISZERO PUSH2 0x1FDE JUMPI PUSH1 0x20 DUP2 DUP6 ADD DUP2 ADD MLOAD DUP7 DUP4 ADD DUP3 ADD MSTORE ADD PUSH2 0x1FC2 JUMP JUMPDEST DUP2 DUP2 GT ISZERO PUSH2 0x1FEF JUMPI DUP3 PUSH1 0x20 DUP4 DUP8 ADD ADD MSTORE JUMPDEST POP PUSH1 0x1F ADD PUSH1 0x1F NOT AND SWAP3 SWAP1 SWAP3 ADD PUSH1 0x20 ADD SWAP3 SWAP2 POP POP JUMP JUMPDEST PUSH1 0x20 DUP2 MSTORE PUSH1 0x0 PUSH2 0x1D17 PUSH1 0x20 DUP4 ADD DUP5 PUSH2 0x1F8A JUMP JUMPDEST PUSH1 0x20 DUP1 DUP3 MSTORE PUSH1 0x14 SWAP1 DUP3 ADD MSTORE PUSH20 0x105B189D5B48191BD95CC81B9BDD08195E1A5CDD PUSH1 0x62 SHL PUSH1 0x40 DUP3 ADD MSTORE PUSH1 0x60 ADD SWAP1 JUMP JUMPDEST PUSH1 0x20 DUP1 DUP3 MSTORE PUSH1 0x14 SWAP1 DUP3 ADD MSTORE PUSH20 0x151C9858DAC8191BD95CC81B9BDD08195E1A5CDD PUSH1 0x62 SHL PUSH1 0x40 DUP3 ADD MSTORE PUSH1 0x60 ADD SWAP1 JUMP JUMPDEST PUSH1 0x0 PUSH2 0x100 DUP11 DUP4 MSTORE DUP1 PUSH1 0x20 DUP5 ADD MSTORE PUSH2 0x208D DUP2 DUP5 ADD DUP12 PUSH2 0x1FB9 JUMP JUMPDEST PUSH1 0x1 PUSH1 0x1 PUSH1 0xA0 SHL SUB DUP11 AND PUSH1 0x40 DUP6 ADD MSTORE DUP4 DUP2 SUB PUSH1 0x60 DUP6 ADD MSTORE SWAP1 POP PUSH2 0x20B0 DUP2 DUP10 PUSH2 0x1FB9 JUMP JUMPDEST SWAP1 POP DUP3 DUP2 SUB PUSH1 0x80 DUP5 ADD MSTORE PUSH2 0x20C4 DUP2 DUP9 PUSH2 0x1FB9 JUMP JUMPDEST SWAP1 POP DUP6 PUSH1 0xA0 DUP5 ADD MSTORE DUP3 DUP2 SUB PUSH1 0xC0 DUP5 ADD MSTORE PUSH2 0x20DE DUP2 DUP7 PUSH2 0x1F47 JUMP JUMPDEST SWAP1 POP DUP3 DUP2 SUB PUSH1 0xE0 DUP5 ADD MSTORE PUSH2 0x20F2 DUP2 DUP6 PUSH2 0x1F8A JUMP JUMPDEST SWAP12 SWAP11 POP POP POP POP POP POP POP POP POP POP POP JUMP JUMPDEST PUSH1 0x0 PUSH2 0x120 DUP12 DUP4 MSTORE DUP1 PUSH1 0x20 DUP5 ADD MSTORE PUSH2 0x211B DUP2 DUP5 ADD DUP13 PUSH2 0x1FB9 JUMP JUMPDEST PUSH1 0x1 PUSH1 0x1 PUSH1 0xA0 SHL SUB DUP12 AND PUSH1 0x40 DUP6 ADD MSTORE DUP4 DUP2 SUB PUSH1 0x60 DUP6 ADD MSTORE SWAP1 POP PUSH2 0x213E DUP2 DUP11 PUSH2 0x1FB9 JUMP JUMPDEST SWAP1 POP DUP3 DUP2 SUB PUSH1 0x80 DUP5 ADD MSTORE PUSH2 0x2152 DUP2 DUP10 PUSH2 0x1FB9 JUMP JUMPDEST SWAP1 POP DUP7 PUSH1 0xA0 DUP5 ADD MSTORE DUP3 DUP2 SUB PUSH1 0xC0 DUP5 ADD MSTORE PUSH2 0x216C DUP2 DUP8 PUSH2 0x1F8A JUMP JUMPDEST SWAP1 POP DUP3 DUP2 SUB PUSH1 0xE0 DUP5 ADD MSTORE PUSH2 0x2180 DUP2 DUP7 PUSH2 0x1F47 JUMP JUMPDEST SWAP1 POP DUP3 DUP2 SUB PUSH2 0x100 DUP5 ADD MSTORE PUSH2 0x2195 DUP2 DUP6 PUSH2 0x1F8A JUMP JUMPDEST SWAP13 SWAP12 POP POP POP POP POP POP POP POP POP POP POP POP JUMP JUMPDEST PUSH1 0x40 MLOAD PUSH1 0x1F DUP3 ADD PUSH1 0x1F NOT AND DUP2 ADD PUSH8 0xFFFFFFFFFFFFFFFF DUP2 GT DUP3 DUP3 LT OR ISZERO PUSH2 0x21CE JUMPI PUSH2 0x21CE PUSH2 0x22CE JUMP JUMPDEST PUSH1 0x40 MSTORE SWAP2 SWAP1 POP JUMP JUMPDEST PUSH1 0x0 PUSH8 0xFFFFFFFFFFFFFFFF DUP3 GT ISZERO PUSH2 0x21F0 JUMPI PUSH2 0x21F0 PUSH2 0x22CE JUMP JUMPDEST POP PUSH1 0x5 SHL PUSH1 0x20 ADD SWAP1 JUMP JUMPDEST PUSH1 0x0 DUP3 NOT DUP3 GT ISZERO PUSH2 0x220D JUMPI PUSH2 0x220D PUSH2 0x22B8 JUMP JUMPDEST POP ADD SWAP1 JUMP JUMPDEST PUSH1 0x0 DUP3 PUSH2 0x222D JUMPI PUSH4 0x4E487B71 PUSH1 0xE0 SHL DUP2 MSTORE PUSH1 0x12 PUSH1 0x4 MSTORE PUSH1 0x24 DUP2 REVERT JUMPDEST POP DIV SWAP1 JUMP JUMPDEST PUSH1 0x0 DUP2 PUSH1 0x0 NOT DIV DUP4 GT DUP3 ISZERO ISZERO AND ISZERO PUSH2 0x224C JUMPI PUSH2 0x224C PUSH2 0x22B8 JUMP JUMPDEST POP MUL SWAP1 JUMP JUMPDEST PUSH1 0x0 DUP3 DUP3 LT ISZERO PUSH2 0x2263 JUMPI PUSH2 0x2263 PUSH2 0x22B8 JUMP JUMPDEST POP SUB SWAP1 JUMP JUMPDEST PUSH1 0x1 DUP2 DUP2 SHR SWAP1 DUP3 AND DUP1 PUSH2 0x227C JUMPI PUSH1 0x7F DUP3 AND SWAP2 POP JUMPDEST PUSH1 0x20 DUP3 LT DUP2 EQ ISZERO PUSH2 0x693 JUMPI PUSH4 0x4E487B71 PUSH1 0xE0 SHL PUSH1 0x0 MSTORE PUSH1 0x22 PUSH1 0x4 MSTORE PUSH1 0x24 PUSH1 0x0 REVERT JUMPDEST PUSH1 0x0 PUSH1 0x0 NOT DUP3 EQ ISZERO PUSH2 0x22B1 JUMPI PUSH2 0x22B1 PUSH2 0x22B8 JUMP JUMPDEST POP PUSH1 0x1 ADD SWAP1 JUMP JUMPDEST PUSH4 0x4E487B71 PUSH1 0xE0 SHL PUSH1 0x0 MSTORE PUSH1 0x11 PUSH1 0x4 MSTORE PUSH1 0x24 PUSH1 0x0 REVERT JUMPDEST PUSH4 0x4E487B71 PUSH1 0xE0 SHL PUSH1 0x0 MSTORE PUSH1 0x41 PUSH1 0x4 MSTORE PUSH1 0x24 PUSH1 0x0 REVERT INVALID LOG2 PUSH5 0x6970667358 0x22 SLT KECCAK256 DUP3 CREATE2 0x25 0xDE 0x2E 0x28 0x27 0x4F 0xDA GASLIMIT AND 0xCE SWAP4 0xC6 0xEE AND 0xFB CHAINID 0xA8 PUSH27 0xD890CD7E75A30B31F0D7C7CB64736F6C6343000804003300000000 "},"methodIdentifiers":{"addAlbum(string,address,string,string,uint256,uint256[],address[],uint256[])":"784d8abb","addTrack(string,address,string,string,uint256,address[],uint256[])":"245d1558","addTrackToAlbum(uint256,uint256)":"0021991e","getArtistBalance(address)":"f4ce0f86","getTotalAlbumAmount(address)":"8d59f7e2","getTotalAlbumStreams(address)":"c103351f","getTotalTrackAmount(address)":"5d0650b4","getTotalTrackStreams(address)":"76dde21b","getUserPurchasedAlbums(address)":"1d29d599","getUserPurchasedTracks(address)":"acff110e","listAlbumsByArtist(address)":"efb78308","listAllAlbums()":"2cdfb61f","listAllTracks()":"6456b79a","listTracksByArtist(address)":"6850a7e3","purchaseAlbum(uint256)":"ea981775","purchaseTrack(uint256)":"9edc858c","streamAlbum(uint256)":"40d1e240","streamTrack(uint256)":"8ef8b386"}}}}}