{"contracts/Deyplay.sol":{"Deyplay":{"abi":[{"anonymous":false,"inputs":[{"indexed":false,"internalType":"uint256","name":"id","type":"uint256"},{"indexed":false,"internalType":"string","name":"title","type":"string"},{"indexed":false,"internalType":"address","name":"artist","type":"address"},{"indexed":false,"internalType":"string","name":"imageUrl","type":"string"},{"indexed":false,"internalType":"string","name":"description","type":"string"},{"indexed":false,"internalType":"uint256","name":"price","type":"uint256"},{"indexed":false,"internalType":"address[]","name":"royaltiesOwners","type":"address[]"},{"indexed":false,"internalType":"uint256[]","name":"royaltiesPercentages","type":"uint256[]"}],"name":"AlbumCreated","type":"event"},{"anonymous":false,"inputs":[{"indexed":false,"internalType":"uint256","name":"albumId","type":"uint256"},{"indexed":false,"internalType":"address","name":"buyer","type":"address"},{"indexed":false,"internalType":"uint256","name":"amount","type":"uint256"}],"name":"AlbumPurchased","type":"event"},{"anonymous":false,"inputs":[{"indexed":false,"internalType":"uint256","name":"albumId","type":"uint256"},{"indexed":false,"internalType":"address","name":"listener","type":"address"},{"indexed":false,"internalType":"uint256","name":"amount","type":"uint256"}],"name":"AlbumStreamed","type":"event"},{"anonymous":false,"inputs":[{"indexed":false,"internalType":"uint256","name":"albumId","type":"uint256"},{"indexed":false,"internalType":"uint256","name":"trackId","type":"uint256"}],"name":"TrackAddedToAlbum","type":"event"},{"anonymous":false,"inputs":[{"indexed":false,"internalType":"uint256","name":"id","type":"uint256"},{"indexed":false,"internalType":"string","name":"title","type":"string"},{"indexed":false,"internalType":"address","name":"artist","type":"address"},{"indexed":false,"internalType":"string","name":"imageUrl","type":"string"},{"indexed":false,"internalType":"string","name":"audioFile","type":"string"},{"indexed":false,"internalType":"uint256","name":"price","type":"uint256"},{"indexed":false,"internalType":"address[]","name":"royaltiesOwners","type":"address[]"},{"indexed":false,"internalType":"uint256[]","name":"royaltiesPercentages","type":"uint256[]"}],"name":"TrackCreated","type":"event"},{"anonymous":false,"inputs":[{"indexed":false,"internalType":"uint256","name":"trackId","type":"uint256"},{"indexed":false,"internalType":"address","name":"buyer","type":"address"},{"indexed":false,"internalType":"uint256","name":"amount","type":"uint256"}],"name":"TrackPurchased","type":"event"},{"anonymous":false,"inputs":[{"indexed":false,"internalType":"uint256","name":"trackId","type":"uint256"},{"indexed":false,"internalType":"address","name":"listener","type":"address"},{"indexed":false,"internalType":"uint256","name":"amount","type":"uint256"}],"name":"TrackStreamed","type":"event"},{"inputs":[{"internalType":"string","name":"_title","type":"string"},{"internalType":"address","name":"_artist","type":"address"},{"internalType":"string","name":"_imageUrl","type":"string"},{"internalType":"string","name":"_description","type":"string"},{"internalType":"uint256","name":"_price","type":"uint256"},{"internalType":"address[]","name":"_royaltiesOwners","type":"address[]"},{"internalType":"uint256[]","name":"_royaltiesPercentages","type":"uint256[]"}],"name":"addAlbum","outputs":[],"stateMutability":"nonpayable","type":"function"},{"inputs":[{"internalType":"string","name":"_title","type":"string"},{"internalType":"address","name":"_artist","type":"address"},{"internalType":"string","name":"_imageUrl","type":"string"},{"internalType":"string","name":"_audioFile","type":"string"},{"internalType":"uint256","name":"_price","type":"uint256"},{"internalType":"address[]","name":"_royaltiesOwners","type":"address[]"},{"internalType":"uint256[]","name":"_royaltiesPercentages","type":"uint256[]"}],"name":"addTrack","outputs":[],"stateMutability":"nonpayable","type":"function"},{"inputs":[{"internalType":"uint256","name":"_albumId","type":"uint256"},{"internalType":"uint256","name":"_trackId","type":"uint256"}],"name":"addTrackToAlbum","outputs":[],"stateMutability":"nonpayable","type":"function"},{"inputs":[{"internalType":"uint256","name":"_albumId","type":"uint256"}],"name":"getAlbum","outputs":[{"components":[{"internalType":"uint256","name":"id","type":"uint256"},{"internalType":"string","name":"title","type":"string"},{"internalType":"address","name":"artist","type":"address"},{"internalType":"string","name":"imageUrl","type":"string"},{"internalType":"string","name":"description","type":"string"},{"internalType":"uint256","name":"price","type":"uint256"},{"internalType":"uint256","name":"totalStreams","type":"uint256"},{"internalType":"uint256","name":"totalPurchases","type":"uint256"},{"internalType":"uint256[]","name":"audioFileIds","type":"uint256[]"},{"internalType":"address[]","name":"royaltiesOwners","type":"address[]"},{"internalType":"uint256[]","name":"royaltiesPercentages","type":"uint256[]"}],"internalType":"struct Deyplay.Album","name":"","type":"tuple"}],"stateMutability":"view","type":"function"},{"inputs":[{"internalType":"address","name":"_artist","type":"address"}],"name":"getArtistBalance","outputs":[{"internalType":"uint256","name":"","type":"uint256"}],"stateMutability":"view","type":"function"},{"inputs":[{"internalType":"address","name":"_artist","type":"address"}],"name":"getTotalAlbumAmount","outputs":[{"internalType":"uint256","name":"","type":"uint256"}],"stateMutability":"view","type":"function"},{"inputs":[{"internalType":"address","name":"_artist","type":"address"}],"name":"getTotalAlbumStreams","outputs":[{"internalType":"uint256","name":"","type":"uint256"}],"stateMutability":"view","type":"function"},{"inputs":[{"internalType":"address","name":"_artist","type":"address"}],"name":"getTotalTrackAmount","outputs":[{"internalType":"uint256","name":"","type":"uint256"}],"stateMutability":"view","type":"function"},{"inputs":[{"internalType":"address","name":"_artist","type":"address"}],"name":"getTotalTrackStreams","outputs":[{"internalType":"uint256","name":"","type":"uint256"}],"stateMutability":"view","type":"function"},{"inputs":[{"internalType":"uint256","name":"_trackId","type":"uint256"}],"name":"getTrack","outputs":[{"components":[{"internalType":"uint256","name":"id","type":"uint256"},{"internalType":"string","name":"title","type":"string"},{"internalType":"address","name":"artist","type":"address"},{"internalType":"string","name":"imageUrl","type":"string"},{"internalType":"string","name":"audioFile","type":"string"},{"internalType":"uint256","name":"price","type":"uint256"},{"internalType":"uint256","name":"totalStreams","type":"uint256"},{"internalType":"uint256","name":"totalPurchases","type":"uint256"},{"internalType":"address[]","name":"royaltiesOwners","type":"address[]"},{"internalType":"uint256[]","name":"royaltiesPercentages","type":"uint256[]"}],"internalType":"struct Deyplay.Track","name":"","type":"tuple"}],"stateMutability":"view","type":"function"},{"inputs":[{"internalType":"address","name":"_user","type":"address"}],"name":"getUserPurchasedAlbums","outputs":[{"internalType":"uint256[]","name":"","type":"uint256[]"}],"stateMutability":"view","type":"function"},{"inputs":[{"internalType":"address","name":"_user","type":"address"}],"name":"getUserPurchasedTracks","outputs":[{"internalType":"uint256[]","name":"","type":"uint256[]"}],"stateMutability":"view","type":"function"},{"inputs":[{"internalType":"address","name":"_artist","type":"address"}],"name":"listAlbumsByArtist","outputs":[{"internalType":"uint256[]","name":"","type":"uint256[]"}],"stateMutability":"view","type":"function"},{"inputs":[],"name":"listAllAlbums","outputs":[{"internalType":"uint256[]","name":"","type":"uint256[]"}],"stateMutability":"view","type":"function"},{"inputs":[],"name":"listAllTracks","outputs":[{"internalType":"uint256[]","name":"","type":"uint256[]"}],"stateMutability":"view","type":"function"},{"inputs":[{"internalType":"address","name":"_artist","type":"address"}],"name":"listTracksByArtist","outputs":[{"internalType":"uint256[]","name":"","type":"uint256[]"}],"stateMutability":"view","type":"function"},{"inputs":[{"internalType":"uint256","name":"_albumId","type":"uint256"}],"name":"purchaseAlbum","outputs":[],"stateMutability":"payable","type":"function"},{"inputs":[{"internalType":"uint256","name":"_trackId","type":"uint256"}],"name":"purchaseTrack","outputs":[],"stateMutability":"payable","type":"function"},{"inputs":[{"internalType":"uint256","name":"_albumId","type":"uint256"}],"name":"streamAlbum","outputs":[],"stateMutability":"payable","type":"function"},{"inputs":[{"internalType":"uint256","name":"_trackId","type":"uint256"}],"name":"streamTrack","outputs":[],"stateMutability":"payable","type":"function"}],"evm":{"bytecode":{"linkReferences":{},"object":"608060405234801561001057600080fd5b50612ad0806100206000396000f3fe60806040526004361061011e5760003560e01c80638d59f7e2116100a0578063d53f2baa11610064578063d53f2baa146102f9578063d6e465c914610319578063ea98177514610346578063efb7830814610359578063f4ce0f861461037957600080fd5b80638d59f7e2146102735780638ef8b386146102935780639edc858c146102a6578063acff110e146102b9578063c103351f146102d957600080fd5b80635d0650b4116100e75780635d0650b4146101c3578063629058ca146101f15780636456b79a1461021e5780636850a7e31461023357806376dde21b1461025357600080fd5b806221991e146101235780631d29d59914610145578063245d15581461017b5780632cdfb61f1461019b57806340d1e240146101b0575b600080fd5b34801561012f57600080fd5b5061014361013e3660046125b9565b6103af565b005b34801561015157600080fd5b5061016561016036600461249a565b61047e565b6040516101729190612697565b60405180910390f35b34801561018757600080fd5b506101436101963660046124bb565b6104ea565b3480156101a757600080fd5b5061016561068a565b6101436101be3660046125a1565b61074b565b3480156101cf57600080fd5b506101e36101de36600461249a565b610a08565b604051908152602001610172565b3480156101fd57600080fd5b5061021161020c3660046125a1565b610a86565b604051610172919061280c565b34801561022a57600080fd5b50610165610dea565b34801561023f57600080fd5b5061016561024e36600461249a565b610ea4565b34801561025f57600080fd5b506101e361026e36600461249a565b610f95565b34801561027f57600080fd5b506101e361028e36600461249a565b610ffb565b6101436102a13660046125a1565b611071565b6101436102b43660046125a1565b61132a565b3480156102c557600080fd5b506101656102d436600461249a565b61160f565b3480156102e557600080fd5b506101e36102f436600461249a565b611679565b34801561030557600080fd5b506101436103143660046124bb565b6116de565b34801561032557600080fd5b506103396103343660046125a1565b6118e3565b6040516101729190612706565b6101436103543660046125a1565b611ca4565b34801561036557600080fd5b5061016561037436600461249a565b611f87565b34801561038557600080fd5b506101e361039436600461249a565b6001600160a01b031660009081526006602052604090205490565b816000811180156103c257506001548111155b6103e75760405162461bcd60e51b81526004016103de906126aa565b60405180910390fd5b816000811180156103fa57506000548111155b6104165760405162461bcd60e51b81526004016103de906126d8565b60008481526003602090815260408083206008810180546001810182559085529383902090930186905580518781529182018690527f1b75cf82c5d11e0d92f67e2806f277b7ae9cb2467100d885c3e54d50c1ae98d291015b60405180910390a15050505050565b6001600160a01b0381166000908152600560209081526040918290208054835181840281018401909452808452606093928301828280156104de57602002820191906000526020600020905b8154815260200190600101908083116104ca575b50505050509050919050565b6000805490806104f983612a53565b909155505060408051610140810182526000805480835260208084018c81526001600160a01b038c1685870152606085018b9052608085018a905260a0850189905260c0850184905260e085018490526101008501889052610120850187905291835260028152939091208251815590518051929391926105809260018501920190612218565b5060408201516002820180546001600160a01b0319166001600160a01b03909216919091179055606082015180516105c2916003840191602090910190612218565b50608082015180516105de916004840191602090910190612218565b5060a0820151600582015560c0820151600682015560e08201516007820155610100820151805161061991600884019160209091019061229c565b5061012082015180516106369160098401916020909101906122f1565b509050507fbf2201dbf94a92f1d5a37c712b8d9b99e2a1e94a9ead3e3318c067b76569712a600054888888888888886040516106799897969594939291906128cd565b60405180910390a150505050505050565b6060600060015467ffffffffffffffff8111156106b757634e487b7160e01b600052604160045260246000fd5b6040519080825280602002602001820160405280156106e0578160200160208202803683370190505b50905060015b6001548111610745576000818152600360205260409020548261070a600184612a07565b8151811061072857634e487b7160e01b600052603260045260246000fd5b60209081029190910101528061073d81612a53565b9150506106e6565b50919050565b8060008111801561075e57506001548111155b61077a5760405162461bcd60e51b81526004016103de906126aa565b600082815260036020526040902060058101543410156107ed5760405162461bcd60e51b815260206004820152602860248201527f496e73756666696369656e74207061796d656e7420746f2073747265616d2074604482015267686520616c62756d60c01b60648201526084016103de565b60006108ac82600501548360090180548060200260200160405190810160405280929190818152602001828054801561084f57602002820191906000526020600020905b81546001600160a01b03168152600190910190602001808311610831575b505050505084600a018054806020026020016040519081016040528092919081815260200182805480156108a257602002820191906000526020600020905b81548152602001906001019080831161088e575b505050505061206f565b905060008183600501546108c09190612a07565b60068401805491925060006108d483612a53565b909155505060028301546001600160a01b0316600090815260066020526040812080548392906109059084906129b0565b925050819055506109c58360090180548060200260200160405190810160405280929190818152602001828054801561096757602002820191906000526020600020905b81546001600160a01b03168152600190910190602001808311610949575b505050505084600a018054806020026020016040519081016040528092919081815260200182805480156109ba57602002820191906000526020600020905b8154815260200190600101908083116109a6575b5050505050846120e3565b600583015460408051878152336020820152908101919091527f9895cbad8f9db9bfb55390deaa7dd85188e313b35ee7ee4748b41ae3b9a7936f9060600161046f565b60008060015b6000548111610a7f57600081815260026020819052604090912001546001600160a01b0385811691161415610a6d5760008181526002602052604090206005810154600790910154610a6091906129e8565b610a6a90836129b0565b91505b80610a7781612a53565b915050610a0e565b5092915050565b610ae5604051806101400160405280600081526020016060815260200160006001600160a01b03168152602001606081526020016060815260200160008152602001600081526020016000815260200160608152602001606081525090565b81600081118015610af857506000548111155b610b145760405162461bcd60e51b81526004016103de906126d8565b600260008481526020019081526020016000206040518061014001604052908160008201548152602001600182018054610b4d90612a1e565b80601f0160208091040260200160405190810160405280929190818152602001828054610b7990612a1e565b8015610bc65780601f10610b9b57610100808354040283529160200191610bc6565b820191906000526020600020905b815481529060010190602001808311610ba957829003601f168201915b505050918352505060028201546001600160a01b03166020820152600382018054604090920191610bf690612a1e565b80601f0160208091040260200160405190810160405280929190818152602001828054610c2290612a1e565b8015610c6f5780601f10610c4457610100808354040283529160200191610c6f565b820191906000526020600020905b815481529060010190602001808311610c5257829003601f168201915b50505050508152602001600482018054610c8890612a1e565b80601f0160208091040260200160405190810160405280929190818152602001828054610cb490612a1e565b8015610d015780601f10610cd657610100808354040283529160200191610d01565b820191906000526020600020905b815481529060010190602001808311610ce457829003601f168201915b5050505050815260200160058201548152602001600682015481526020016007820154815260200160088201805480602002602001604051908101604052809291908181526020018280548015610d8157602002820191906000526020600020905b81546001600160a01b03168152600190910190602001808311610d63575b5050505050815260200160098201805480602002602001604051908101604052809291908181526020018280548015610dd957602002820191906000526020600020905b815481526020019060010190808311610dc5575b505050505081525050915050919050565b60606000805467ffffffffffffffff811115610e1657634e487b7160e01b600052604160045260246000fd5b604051908082528060200260200182016040528015610e3f578160200160208202803683370190505b50905060015b60005481116107455760008181526002602052604090205482610e69600184612a07565b81518110610e8757634e487b7160e01b600052603260045260246000fd5b602090810291909101015280610e9c81612a53565b915050610e45565b60606000805467ffffffffffffffff811115610ed057634e487b7160e01b600052604160045260246000fd5b604051908082528060200260200182016040528015610ef9578160200160208202803683370190505b509050600060015b6000548111610f8c57600081815260026020819052604090912001546001600160a01b0386811691161415610f7a576000818152600260205260409020548351849084908110610f6157634e487b7160e01b600052603260045260246000fd5b602090810291909101015281610f7681612a53565b9250505b80610f8481612a53565b915050610f01565b50909392505050565b60008060015b6000548111610a7f57600081815260026020819052604090912001546001600160a01b0385811691161415610fe957600081815260026020526040902060060154610fe690836129b0565b91505b80610ff381612a53565b915050610f9b565b60008060015b6001548111610a7f576000818152600360205260409020600201546001600160a01b038581169116141561105f576000818152600360205260409020600581015460079091015461105291906129e8565b61105c90836129b0565b91505b8061106981612a53565b915050611001565b8060008111801561108457506000548111155b6110a05760405162461bcd60e51b81526004016103de906126d8565b600082815260026020526040902060058101543410156111135760405162461bcd60e51b815260206004820152602860248201527f496e73756666696369656e74207061796d656e7420746f2073747265616d2074604482015267686520747261636b60c01b60648201526084016103de565b60006111d082600501548360080180548060200260200160405190810160405280929190818152602001828054801561117557602002820191906000526020600020905b81546001600160a01b03168152600190910190602001808311611157575b5050505050846009018054806020026020016040519081016040528092919081815260200182805480156108a2576020028201919060005260206000209081548152602001906001019080831161088e57505050505061206f565b905060008183600501546111e49190612a07565b60068401805491925060006111f883612a53565b909155505060028301546001600160a01b0316600090815260066020526040812080548392906112299084906129b0565b925050819055506112e78360080180548060200260200160405190810160405280929190818152602001828054801561128b57602002820191906000526020600020905b81546001600160a01b0316815260019091019060200180831161126d575b5050505050846009018054806020026020016040519081016040528092919081815260200182805480156109ba57602002820191906000526020600020908154815260200190600101908083116109a6575050505050846120e3565b600583015460408051878152336020820152908101919091527fa8ff0760db1bd134bec00c7f599e3d73ad185cfc7dd4c313b1ccfc4bd95947379060600161046f565b8060008111801561133d57506000548111155b6113595760405162461bcd60e51b81526004016103de906126d8565b600082815260026020526040902060058101543410156113ce5760405162461bcd60e51b815260206004820152602a60248201527f496e73756666696369656e74207061796d656e7420746f2070757263686173656044820152692074686520747261636b60b01b60648201526084016103de565b6000611489826005015483600801805480602002602001604051908101604052809291908181526020018280548015611175576020028201919060005260206000209081546001600160a01b03168152600190910190602001808311611157575050505050846009018054806020026020016040519081016040528092919081815260200182805480156108a2576020028201919060005260206000209081548152602001906001019080831161088e57505050505061206f565b9050600081836005015461149d9190612a07565b60078401805491925060006114b183612a53565b909155505060028301546001600160a01b0316600090815260066020526040812080548392906114e29084906129b0565b9250508190555061159e8360080180548060200260200160405190810160405280929190818152602001828054801561128b576020028201919060005260206000209081546001600160a01b0316815260019091019060200180831161126d575050505050846009018054806020026020016040519081016040528092919081815260200182805480156109ba57602002820191906000526020600020908154815260200190600101908083116109a6575050505050846120e3565b33600081815260046020908152604080832080546001810182559084529190922001879055600585015490517ffe3f9af2d0ba5be4687ca774df8206ec9cf7919bcf32bd9c76b051e5dfbbb5b49261046f928983526001600160a01b03919091166020830152604082015260600190565b6001600160a01b0381166000908152600460209081526040918290208054835181840281018401909452808452606093928301828280156104de57602002820191906000526020600020908154815260200190600101908083116104ca5750505050509050919050565b60008060015b6001548111610a7f576000818152600360205260409020600201546001600160a01b03858116911614156116cc576000818152600360205260409020600601546116c990836129b0565b91505b806116d681612a53565b91505061167f565b600180549060006116ee83612a53565b91905055506040518061016001604052806001548152602001888152602001876001600160a01b031681526020018681526020018581526020018481526020016000815260200160008152602001600067ffffffffffffffff81111561176457634e487b7160e01b600052604160045260246000fd5b60405190808252806020026020018201604052801561178d578160200160208202803683370190505b5081526020808201859052604091820184905260018054600090815260038352929092208351815583820151805191936117cd9390850192910190612218565b5060408201516002820180546001600160a01b0319166001600160a01b039092169190911790556060820151805161180f916003840191602090910190612218565b506080820151805161182b916004840191602090910190612218565b5060a0820151600582015560c0820151600682015560e0820151600782015561010082015180516118669160088401916020909101906122f1565b50610120820151805161188391600984019160209091019061229c565b5061014082015180516118a091600a8401916020909101906122f1565b509050507fd78b5503298a5ec3a0c38871277d16caaede28506de5344aee4a623eebf34ed8600154888888888888886040516106799897969594939291906128cd565b611949604051806101600160405280600081526020016060815260200160006001600160a01b0316815260200160608152602001606081526020016000815260200160008152602001600081526020016060815260200160608152602001606081525090565b8160008111801561195c57506001548111155b6119785760405162461bcd60e51b81526004016103de906126aa565b6003600084815260200190815260200160002060405180610160016040529081600082015481526020016001820180546119b190612a1e565b80601f01602080910402602001604051908101604052809291908181526020018280546119dd90612a1e565b8015611a2a5780601f106119ff57610100808354040283529160200191611a2a565b820191906000526020600020905b815481529060010190602001808311611a0d57829003601f168201915b505050918352505060028201546001600160a01b03166020820152600382018054604090920191611a5a90612a1e565b80601f0160208091040260200160405190810160405280929190818152602001828054611a8690612a1e565b8015611ad35780601f10611aa857610100808354040283529160200191611ad3565b820191906000526020600020905b815481529060010190602001808311611ab657829003601f168201915b50505050508152602001600482018054611aec90612a1e565b80601f0160208091040260200160405190810160405280929190818152602001828054611b1890612a1e565b8015611b655780601f10611b3a57610100808354040283529160200191611b65565b820191906000526020600020905b815481529060010190602001808311611b4857829003601f168201915b5050505050815260200160058201548152602001600682015481526020016007820154815260200160088201805480602002602001604051908101604052809291908181526020018280548015611bdb57602002820191906000526020600020905b815481526020019060010190808311611bc7575b5050505050815260200160098201805480602002602001604051908101604052809291908181526020018280548015611c3d57602002820191906000526020600020905b81546001600160a01b03168152600190910190602001808311611c1f575b50505050508152602001600a8201805480602002602001604051908101604052809291908181526020018280548015610dd95760200282019190600052602060002090815481526020019060010190808311610dc557505050505081525050915050919050565b80600081118015611cb757506001548111155b611cd35760405162461bcd60e51b81526004016103de906126aa565b60008281526003602052604090206005810154341015611d485760405162461bcd60e51b815260206004820152602a60248201527f496e73756666696369656e74207061796d656e7420746f2070757263686173656044820152692074686520616c62756d60b01b60648201526084016103de565b6000611e0382600501548360090180548060200260200160405190810160405280929190818152602001828054801561084f576020028201919060005260206000209081546001600160a01b0316815260019091019060200180831161083157505050505084600a018054806020026020016040519081016040528092919081815260200182805480156108a2576020028201919060005260206000209081548152602001906001019080831161088e57505050505061206f565b90506000818360050154611e179190612a07565b6007840180549192506000611e2b83612a53565b909155505060028301546001600160a01b031660009081526006602052604081208054839290611e5c9084906129b0565b92505081905550611f1883600901805480602002602001604051908101604052809291908181526020018280548015610967576020028201919060005260206000209081546001600160a01b0316815260019091019060200180831161094957505050505084600a018054806020026020016040519081016040528092919081815260200182805480156109ba57602002820191906000526020600020908154815260200190600101908083116109a6575050505050846120e3565b3360008181526005602081815260408084208054600181018255908552919093200188905585015490517f11332ef3956cea4003185b2a4db8407e3e5662fe799887282e178f18726ecc9b9261046f928983526001600160a01b03919091166020830152604082015260600190565b6060600060015467ffffffffffffffff811115611fb457634e487b7160e01b600052604160045260246000fd5b604051908082528060200260200182016040528015611fdd578160200160208202803683370190505b509050600060015b6001548111610f8c576000818152600360205260409020600201546001600160a01b038681169116141561205d57600081815260036020526040902054835184908490811061204457634e487b7160e01b600052603260045260246000fd5b60209081029190910101528161205981612a53565b9250505b8061206781612a53565b915050611fe5565b600080805b84518110156120da57606484828151811061209f57634e487b7160e01b600052603260045260246000fd5b6020026020010151876120b291906129e8565b6120bc91906129c8565b6120c690836129b0565b9150806120d281612a53565b915050612074565b50949350505050565b815183511461214a5760405162461bcd60e51b815260206004820152602d60248201527f4f776e65727320616e642070657263656e746167657320617272617973206c6560448201526c0dccee8d040dad2e6dac2e8c6d609b1b60648201526084016103de565b60005b835181101561221257600084828151811061217857634e487b7160e01b600052603260045260246000fd5b60200260200101519050600060648584815181106121a657634e487b7160e01b600052603260045260246000fd5b6020026020010151856121b991906129e8565b6121c391906129c8565b6040519091506001600160a01b0383169082156108fc029083906000818181858888f193505050501580156121fc573d6000803e3d6000fd5b505050808061220a90612a53565b91505061214d565b50505050565b82805461222490612a1e565b90600052602060002090601f016020900481019282612246576000855561228c565b82601f1061225f57805160ff191683800117855561228c565b8280016001018555821561228c579182015b8281111561228c578251825591602001919060010190612271565b5061229892915061232b565b5090565b82805482825590600052602060002090810192821561228c579160200282015b8281111561228c57825182546001600160a01b0319166001600160a01b039091161782556020909201916001909101906122bc565b82805482825590600052602060002090810192821561228c579160200282018281111561228c578251825591602001919060010190612271565b5b80821115612298576000815560010161232c565b80356001600160a01b038116811461235757600080fd5b919050565b600082601f83011261236c578081fd5b8135602061238161237c8361298c565b61295b565b80838252828201915082860187848660051b89010111156123a0578586fd5b855b858110156123c5576123b382612340565b845292840192908401906001016123a2565b5090979650505050505050565b600082601f8301126123e2578081fd5b813560206123f261237c8361298c565b80838252828201915082860187848660051b8901011115612411578586fd5b855b858110156123c557813584529284019290840190600101612413565b600082601f83011261243f578081fd5b813567ffffffffffffffff81111561245957612459612a84565b61246c601f8201601f191660200161295b565b818152846020838601011115612480578283fd5b816020850160208301379081016020019190915292915050565b6000602082840312156124ab578081fd5b6124b482612340565b9392505050565b600080600080600080600060e0888a0312156124d5578283fd5b873567ffffffffffffffff808211156124ec578485fd5b6124f88b838c0161242f565b985061250660208b01612340565b975060408a013591508082111561251b578485fd5b6125278b838c0161242f565b965060608a013591508082111561253c578485fd5b6125488b838c0161242f565b955060808a0135945060a08a0135915080821115612564578384fd5b6125708b838c0161235c565b935060c08a0135915080821115612585578283fd5b506125928a828b016123d2565b91505092959891949750929550565b6000602082840312156125b2578081fd5b5035919050565b600080604083850312156125cb578182fd5b50508035926020909101359150565b6000815180845260208085019450808401835b838110156126125781516001600160a01b0316875295820195908201906001016125ed565b509495945050505050565b6000815180845260208085019450808401835b8381101561261257815187529582019590820190600101612630565b60008151808452815b8181101561267157602081850181015186830182015201612655565b818111156126825782602083870101525b50601f01601f19169290920160200192915050565b6020815260006124b4602083018461261d565b602080825260149082015273105b189d5b48191bd95cc81b9bdd08195e1a5cdd60621b604082015260600190565b602080825260149082015273151c9858dac8191bd95cc81b9bdd08195e1a5cdd60621b604082015260600190565b60208152815160208201526000602083015161016080604085015261272f61018085018361264c565b9150604085015161274b60608601826001600160a01b03169052565b506060850151601f1980868503016080870152612768848361264c565b935060808701519150808685030160a0870152612785848361264c565b935060a087015160c087015260c087015160e087015260e087015191506101008281880152808801519250506101208187860301818801526127c7858461261d565b9450808801519250506101408187860301818801526127e685846125da565b908801518782039092018488015293509050612802838261261d565b9695505050505050565b60208152815160208201526000602083015161014080604085015261283561016085018361264c565b9150604085015161285160608601826001600160a01b03169052565b506060850151601f198086850301608087015261286e848361264c565b935060808701519150808685030160a087015261288b848361264c565b935060a087015160c087015260c087015160e087015260e087015191506101008281880152808801519250506101208187860301818801526127e685846125da565b60006101008a83528060208401526128e78184018b61264c565b6001600160a01b038a1660408501528381036060850152905061290a818961264c565b9050828103608084015261291e818861264c565b90508560a084015282810360c084015261293881866125da565b905082810360e084015261294c818561261d565b9b9a5050505050505050505050565b604051601f8201601f1916810167ffffffffffffffff8111828210171561298457612984612a84565b604052919050565b600067ffffffffffffffff8211156129a6576129a6612a84565b5060051b60200190565b600082198211156129c3576129c3612a6e565b500190565b6000826129e357634e487b7160e01b81526012600452602481fd5b500490565b6000816000190483118215151615612a0257612a02612a6e565b500290565b600082821015612a1957612a19612a6e565b500390565b600181811c90821680612a3257607f821691505b6020821081141561074557634e487b7160e01b600052602260045260246000fd5b6000600019821415612a6757612a67612a6e565b5060010190565b634e487b7160e01b600052601160045260246000fd5b634e487b7160e01b600052604160045260246000fdfea26469706673582212200058b2638f6b21e73e4e46a368bb0496aa0ecb30dfd30ef1da1dad871d7b821364736f6c63430008040033","opcodes":"PUSH1 0x80 PUSH1 0x40 MSTORE CALLVALUE DUP1 ISZERO PUSH2 0x10 JUMPI PUSH1 0x0 DUP1 REVERT JUMPDEST POP PUSH2 0x2AD0 DUP1 PUSH2 0x20 PUSH1 0x0 CODECOPY PUSH1 0x0 RETURN INVALID PUSH1 0x80 PUSH1 0x40 MSTORE PUSH1 0x4 CALLDATASIZE LT PUSH2 0x11E JUMPI PUSH1 0x0 CALLDATALOAD PUSH1 0xE0 SHR DUP1 PUSH4 0x8D59F7E2 GT PUSH2 0xA0 JUMPI DUP1 PUSH4 0xD53F2BAA GT PUSH2 0x64 JUMPI DUP1 PUSH4 0xD53F2BAA EQ PUSH2 0x2F9 JUMPI DUP1 PUSH4 0xD6E465C9 EQ PUSH2 0x319 JUMPI DUP1 PUSH4 0xEA981775 EQ PUSH2 0x346 JUMPI DUP1 PUSH4 0xEFB78308 EQ PUSH2 0x359 JUMPI DUP1 PUSH4 0xF4CE0F86 EQ PUSH2 0x379 JUMPI PUSH1 0x0 DUP1 REVERT JUMPDEST DUP1 PUSH4 0x8D59F7E2 EQ PUSH2 0x273 JUMPI DUP1 PUSH4 0x8EF8B386 EQ PUSH2 0x293 JUMPI DUP1 PUSH4 0x9EDC858C EQ PUSH2 0x2A6 JUMPI DUP1 PUSH4 0xACFF110E EQ PUSH2 0x2B9 JUMPI DUP1 PUSH4 0xC103351F EQ PUSH2 0x2D9 JUMPI PUSH1 0x0 DUP1 REVERT JUMPDEST DUP1 PUSH4 0x5D0650B4 GT PUSH2 0xE7 JUMPI DUP1 PUSH4 0x5D0650B4 EQ PUSH2 0x1C3 JUMPI DUP1 PUSH4 0x629058CA EQ PUSH2 0x1F1 JUMPI DUP1 PUSH4 0x6456B79A EQ PUSH2 0x21E JUMPI DUP1 PUSH4 0x6850A7E3 EQ PUSH2 0x233 JUMPI DUP1 PUSH4 0x76DDE21B EQ PUSH2 0x253 JUMPI PUSH1 0x0 DUP1 REVERT JUMPDEST DUP1 PUSH3 0x21991E EQ PUSH2 0x123 JUMPI DUP1 PUSH4 0x1D29D599 EQ PUSH2 0x145 JUMPI DUP1 PUSH4 0x245D1558 EQ PUSH2 0x17B JUMPI DUP1 PUSH4 0x2CDFB61F EQ PUSH2 0x19B JUMPI DUP1 PUSH4 0x40D1E240 EQ PUSH2 0x1B0 JUMPI JUMPDEST PUSH1 0x0 DUP1 REVERT JUMPDEST CALLVALUE DUP1 ISZERO PUSH2 0x12F JUMPI PUSH1 0x0 DUP1 REVERT JUMPDEST POP PUSH2 0x143 PUSH2 0x13E CALLDATASIZE PUSH1 0x4 PUSH2 0x25B9 JUMP JUMPDEST PUSH2 0x3AF JUMP JUMPDEST STOP JUMPDEST CALLVALUE DUP1 ISZERO PUSH2 0x151 JUMPI PUSH1 0x0 DUP1 REVERT JUMPDEST POP PUSH2 0x165 PUSH2 0x160 CALLDATASIZE PUSH1 0x4 PUSH2 0x249A JUMP JUMPDEST PUSH2 0x47E JUMP JUMPDEST PUSH1 0x40 MLOAD PUSH2 0x172 SWAP2 SWAP1 PUSH2 0x2697 JUMP JUMPDEST PUSH1 0x40 MLOAD DUP1 SWAP2 SUB SWAP1 RETURN JUMPDEST CALLVALUE DUP1 ISZERO PUSH2 0x187 JUMPI PUSH1 0x0 DUP1 REVERT JUMPDEST POP PUSH2 0x143 PUSH2 0x196 CALLDATASIZE PUSH1 0x4 PUSH2 0x24BB JUMP JUMPDEST PUSH2 0x4EA JUMP JUMPDEST CALLVALUE DUP1 ISZERO PUSH2 0x1A7 JUMPI PUSH1 0x0 DUP1 REVERT JUMPDEST POP PUSH2 0x165 PUSH2 0x68A JUMP JUMPDEST PUSH2 0x143 PUSH2 0x1BE CALLDATASIZE PUSH1 0x4 PUSH2 0x25A1 JUMP JUMPDEST PUSH2 0x74B JUMP JUMPDEST CALLVALUE DUP1 ISZERO PUSH2 0x1CF JUMPI PUSH1 0x0 DUP1 REVERT JUMPDEST POP PUSH2 0x1E3 PUSH2 0x1DE CALLDATASIZE PUSH1 0x4 PUSH2 0x249A JUMP JUMPDEST PUSH2 0xA08 JUMP JUMPDEST PUSH1 0x40 MLOAD SWAP1 DUP2 MSTORE PUSH1 0x20 ADD PUSH2 0x172 JUMP JUMPDEST CALLVALUE DUP1 ISZERO PUSH2 0x1FD JUMPI PUSH1 0x0 DUP1 REVERT JUMPDEST POP PUSH2 0x211 PUSH2 0x20C CALLDATASIZE PUSH1 0x4 PUSH2 0x25A1 JUMP JUMPDEST PUSH2 0xA86 JUMP JUMPDEST PUSH1 0x40 MLOAD PUSH2 0x172 SWAP2 SWAP1 PUSH2 0x280C JUMP JUMPDEST CALLVALUE DUP1 ISZERO PUSH2 0x22A JUMPI PUSH1 0x0 DUP1 REVERT JUMPDEST POP PUSH2 0x165 PUSH2 0xDEA JUMP JUMPDEST CALLVALUE DUP1 ISZERO PUSH2 0x23F JUMPI PUSH1 0x0 DUP1 REVERT JUMPDEST POP PUSH2 0x165 PUSH2 0x24E CALLDATASIZE PUSH1 0x4 PUSH2 0x249A JUMP JUMPDEST PUSH2 0xEA4 JUMP JUMPDEST CALLVALUE DUP1 ISZERO PUSH2 0x25F JUMPI PUSH1 0x0 DUP1 REVERT JUMPDEST POP PUSH2 0x1E3 PUSH2 0x26E CALLDATASIZE PUSH1 0x4 PUSH2 0x249A JUMP JUMPDEST PUSH2 0xF95 JUMP JUMPDEST CALLVALUE DUP1 ISZERO PUSH2 0x27F JUMPI PUSH1 0x0 DUP1 REVERT JUMPDEST POP PUSH2 0x1E3 PUSH2 0x28E CALLDATASIZE PUSH1 0x4 PUSH2 0x249A JUMP JUMPDEST PUSH2 0xFFB JUMP JUMPDEST PUSH2 0x143 PUSH2 0x2A1 CALLDATASIZE PUSH1 0x4 PUSH2 0x25A1 JUMP JUMPDEST PUSH2 0x1071 JUMP JUMPDEST PUSH2 0x143 PUSH2 0x2B4 CALLDATASIZE PUSH1 0x4 PUSH2 0x25A1 JUMP JUMPDEST PUSH2 0x132A JUMP JUMPDEST CALLVALUE DUP1 ISZERO PUSH2 0x2C5 JUMPI PUSH1 0x0 DUP1 REVERT JUMPDEST POP PUSH2 0x165 PUSH2 0x2D4 CALLDATASIZE PUSH1 0x4 PUSH2 0x249A JUMP JUMPDEST PUSH2 0x160F JUMP JUMPDEST CALLVALUE DUP1 ISZERO PUSH2 0x2E5 JUMPI PUSH1 0x0 DUP1 REVERT JUMPDEST POP PUSH2 0x1E3 PUSH2 0x2F4 CALLDATASIZE PUSH1 0x4 PUSH2 0x249A JUMP JUMPDEST PUSH2 0x1679 JUMP JUMPDEST CALLVALUE DUP1 ISZERO PUSH2 0x305 JUMPI PUSH1 0x0 DUP1 REVERT JUMPDEST POP PUSH2 0x143 PUSH2 0x314 CALLDATASIZE PUSH1 0x4 PUSH2 0x24BB JUMP JUMPDEST PUSH2 0x16DE JUMP JUMPDEST CALLVALUE DUP1 ISZERO PUSH2 0x325 JUMPI PUSH1 0x0 DUP1 REVERT JUMPDEST POP PUSH2 0x339 PUSH2 0x334 CALLDATASIZE PUSH1 0x4 PUSH2 0x25A1 JUMP JUMPDEST PUSH2 0x18E3 JUMP JUMPDEST PUSH1 0x40 MLOAD PUSH2 0x172 SWAP2 SWAP1 PUSH2 0x2706 JUMP JUMPDEST PUSH2 0x143 PUSH2 0x354 CALLDATASIZE PUSH1 0x4 PUSH2 0x25A1 JUMP JUMPDEST PUSH2 0x1CA4 JUMP JUMPDEST CALLVALUE DUP1 ISZERO PUSH2 0x365 JUMPI PUSH1 0x0 DUP1 REVERT JUMPDEST POP PUSH2 0x165 PUSH2 0x374 CALLDATASIZE PUSH1 0x4 PUSH2 0x249A JUMP JUMPDEST PUSH2 0x1F87 JUMP JUMPDEST CALLVALUE DUP1 ISZERO PUSH2 0x385 JUMPI PUSH1 0x0 DUP1 REVERT JUMPDEST POP PUSH2 0x1E3 PUSH2 0x394 CALLDATASIZE PUSH1 0x4 PUSH2 0x249A JUMP JUMPDEST PUSH1 0x1 PUSH1 0x1 PUSH1 0xA0 SHL SUB AND PUSH1 0x0 SWAP1 DUP2 MSTORE PUSH1 0x6 PUSH1 0x20 MSTORE PUSH1 0x40 SWAP1 KECCAK256 SLOAD SWAP1 JUMP JUMPDEST DUP2 PUSH1 0x0 DUP2 GT DUP1 ISZERO PUSH2 0x3C2 JUMPI POP PUSH1 0x1 SLOAD DUP2 GT ISZERO JUMPDEST PUSH2 0x3E7 JUMPI PUSH1 0x40 MLOAD PUSH3 0x461BCD PUSH1 0xE5 SHL DUP2 MSTORE PUSH1 0x4 ADD PUSH2 0x3DE SWAP1 PUSH2 0x26AA JUMP JUMPDEST PUSH1 0x40 MLOAD DUP1 SWAP2 SUB SWAP1 REVERT JUMPDEST DUP2 PUSH1 0x0 DUP2 GT DUP1 ISZERO PUSH2 0x3FA JUMPI POP PUSH1 0x0 SLOAD DUP2 GT ISZERO JUMPDEST PUSH2 0x416 JUMPI PUSH1 0x40 MLOAD PUSH3 0x461BCD PUSH1 0xE5 SHL DUP2 MSTORE PUSH1 0x4 ADD PUSH2 0x3DE SWAP1 PUSH2 0x26D8 JUMP JUMPDEST PUSH1 0x0 DUP5 DUP2 MSTORE PUSH1 0x3 PUSH1 0x20 SWAP1 DUP2 MSTORE PUSH1 0x40 DUP1 DUP4 KECCAK256 PUSH1 0x8 DUP2 ADD DUP1 SLOAD PUSH1 0x1 DUP2 ADD DUP3 SSTORE SWAP1 DUP6 MSTORE SWAP4 DUP4 SWAP1 KECCAK256 SWAP1 SWAP4 ADD DUP7 SWAP1 SSTORE DUP1 MLOAD DUP8 DUP2 MSTORE SWAP2 DUP3 ADD DUP7 SWAP1 MSTORE PUSH32 0x1B75CF82C5D11E0D92F67E2806F277B7AE9CB2467100D885C3E54D50C1AE98D2 SWAP2 ADD JUMPDEST PUSH1 0x40 MLOAD DUP1 SWAP2 SUB SWAP1 LOG1 POP POP POP POP POP JUMP JUMPDEST PUSH1 0x1 PUSH1 0x1 PUSH1 0xA0 SHL SUB DUP2 AND PUSH1 0x0 SWAP1 DUP2 MSTORE PUSH1 0x5 PUSH1 0x20 SWAP1 DUP2 MSTORE PUSH1 0x40 SWAP2 DUP3 SWAP1 KECCAK256 DUP1 SLOAD DUP4 MLOAD DUP2 DUP5 MUL DUP2 ADD DUP5 ADD SWAP1 SWAP5 MSTORE DUP1 DUP5 MSTORE PUSH1 0x60 SWAP4 SWAP3 DUP4 ADD DUP3 DUP3 DUP1 ISZERO PUSH2 0x4DE JUMPI PUSH1 0x20 MUL DUP3 ADD SWAP2 SWAP1 PUSH1 0x0 MSTORE PUSH1 0x20 PUSH1 0x0 KECCAK256 SWAP1 JUMPDEST DUP2 SLOAD DUP2 MSTORE PUSH1 0x20 ADD SWAP1 PUSH1 0x1 ADD SWAP1 DUP1 DUP4 GT PUSH2 0x4CA JUMPI JUMPDEST POP POP POP POP POP SWAP1 POP SWAP2 SWAP1 POP JUMP JUMPDEST PUSH1 0x0 DUP1 SLOAD SWAP1 DUP1 PUSH2 0x4F9 DUP4 PUSH2 0x2A53 JUMP JUMPDEST SWAP1 SWAP2 SSTORE POP POP PUSH1 0x40 DUP1 MLOAD PUSH2 0x140 DUP2 ADD DUP3 MSTORE PUSH1 0x0 DUP1 SLOAD DUP1 DUP4 MSTORE PUSH1 0x20 DUP1 DUP5 ADD DUP13 DUP2 MSTORE PUSH1 0x1 PUSH1 0x1 PUSH1 0xA0 SHL SUB DUP13 AND DUP6 DUP8 ADD MSTORE PUSH1 0x60 DUP6 ADD DUP12 SWAP1 MSTORE PUSH1 0x80 DUP6 ADD DUP11 SWAP1 MSTORE PUSH1 0xA0 DUP6 ADD DUP10 SWAP1 MSTORE PUSH1 0xC0 DUP6 ADD DUP5 SWAP1 MSTORE PUSH1 0xE0 DUP6 ADD DUP5 SWAP1 MSTORE PUSH2 0x100 DUP6 ADD DUP9 SWAP1 MSTORE PUSH2 0x120 DUP6 ADD DUP8 SWAP1 MSTORE SWAP2 DUP4 MSTORE PUSH1 0x2 DUP2 MSTORE SWAP4 SWAP1 SWAP2 KECCAK256 DUP3 MLOAD DUP2 SSTORE SWAP1 MLOAD DUP1 MLOAD SWAP3 SWAP4 SWAP2 SWAP3 PUSH2 0x580 SWAP3 PUSH1 0x1 DUP6 ADD SWAP3 ADD SWAP1 PUSH2 0x2218 JUMP JUMPDEST POP PUSH1 0x40 DUP3 ADD MLOAD PUSH1 0x2 DUP3 ADD DUP1 SLOAD PUSH1 0x1 PUSH1 0x1 PUSH1 0xA0 SHL SUB NOT AND PUSH1 0x1 PUSH1 0x1 PUSH1 0xA0 SHL SUB SWAP1 SWAP3 AND SWAP2 SWAP1 SWAP2 OR SWAP1 SSTORE PUSH1 0x60 DUP3 ADD MLOAD DUP1 MLOAD PUSH2 0x5C2 SWAP2 PUSH1 0x3 DUP5 ADD SWAP2 PUSH1 0x20 SWAP1 SWAP2 ADD SWAP1 PUSH2 0x2218 JUMP JUMPDEST POP PUSH1 0x80 DUP3 ADD MLOAD DUP1 MLOAD PUSH2 0x5DE SWAP2 PUSH1 0x4 DUP5 ADD SWAP2 PUSH1 0x20 SWAP1 SWAP2 ADD SWAP1 PUSH2 0x2218 JUMP JUMPDEST POP PUSH1 0xA0 DUP3 ADD MLOAD PUSH1 0x5 DUP3 ADD SSTORE PUSH1 0xC0 DUP3 ADD MLOAD PUSH1 0x6 DUP3 ADD SSTORE PUSH1 0xE0 DUP3 ADD MLOAD PUSH1 0x7 DUP3 ADD SSTORE PUSH2 0x100 DUP3 ADD MLOAD DUP1 MLOAD PUSH2 0x619 SWAP2 PUSH1 0x8 DUP5 ADD SWAP2 PUSH1 0x20 SWAP1 SWAP2 ADD SWAP1 PUSH2 0x229C JUMP JUMPDEST POP PUSH2 0x120 DUP3 ADD MLOAD DUP1 MLOAD PUSH2 0x636 SWAP2 PUSH1 0x9 DUP5 ADD SWAP2 PUSH1 0x20 SWAP1 SWAP2 ADD SWAP1 PUSH2 0x22F1 JUMP JUMPDEST POP SWAP1 POP POP PUSH32 0xBF2201DBF94A92F1D5A37C712B8D9B99E2A1E94A9EAD3E3318C067B76569712A PUSH1 0x0 SLOAD DUP9 DUP9 DUP9 DUP9 DUP9 DUP9 DUP9 PUSH1 0x40 MLOAD PUSH2 0x679 SWAP9 SWAP8 SWAP7 SWAP6 SWAP5 SWAP4 SWAP3 SWAP2 SWAP1 PUSH2 0x28CD JUMP JUMPDEST PUSH1 0x40 MLOAD DUP1 SWAP2 SUB SWAP1 LOG1 POP POP POP POP POP POP POP JUMP JUMPDEST PUSH1 0x60 PUSH1 0x0 PUSH1 0x1 SLOAD PUSH8 0xFFFFFFFFFFFFFFFF DUP2 GT ISZERO PUSH2 0x6B7 JUMPI PUSH4 0x4E487B71 PUSH1 0xE0 SHL PUSH1 0x0 MSTORE PUSH1 0x41 PUSH1 0x4 MSTORE PUSH1 0x24 PUSH1 0x0 REVERT JUMPDEST PUSH1 0x40 MLOAD SWAP1 DUP1 DUP3 MSTORE DUP1 PUSH1 0x20 MUL PUSH1 0x20 ADD DUP3 ADD PUSH1 0x40 MSTORE DUP1 ISZERO PUSH2 0x6E0 JUMPI DUP2 PUSH1 0x20 ADD PUSH1 0x20 DUP3 MUL DUP1 CALLDATASIZE DUP4 CALLDATACOPY ADD SWAP1 POP JUMPDEST POP SWAP1 POP PUSH1 0x1 JUMPDEST PUSH1 0x1 SLOAD DUP2 GT PUSH2 0x745 JUMPI PUSH1 0x0 DUP2 DUP2 MSTORE PUSH1 0x3 PUSH1 0x20 MSTORE PUSH1 0x40 SWAP1 KECCAK256 SLOAD DUP3 PUSH2 0x70A PUSH1 0x1 DUP5 PUSH2 0x2A07 JUMP JUMPDEST DUP2 MLOAD DUP2 LT PUSH2 0x728 JUMPI PUSH4 0x4E487B71 PUSH1 0xE0 SHL PUSH1 0x0 MSTORE PUSH1 0x32 PUSH1 0x4 MSTORE PUSH1 0x24 PUSH1 0x0 REVERT JUMPDEST PUSH1 0x20 SWAP1 DUP2 MUL SWAP2 SWAP1 SWAP2 ADD ADD MSTORE DUP1 PUSH2 0x73D DUP2 PUSH2 0x2A53 JUMP JUMPDEST SWAP2 POP POP PUSH2 0x6E6 JUMP JUMPDEST POP SWAP2 SWAP1 POP JUMP JUMPDEST DUP1 PUSH1 0x0 DUP2 GT DUP1 ISZERO PUSH2 0x75E JUMPI POP PUSH1 0x1 SLOAD DUP2 GT ISZERO JUMPDEST PUSH2 0x77A JUMPI PUSH1 0x40 MLOAD PUSH3 0x461BCD PUSH1 0xE5 SHL DUP2 MSTORE PUSH1 0x4 ADD PUSH2 0x3DE SWAP1 PUSH2 0x26AA JUMP JUMPDEST PUSH1 0x0 DUP3 DUP2 MSTORE PUSH1 0x3 PUSH1 0x20 MSTORE PUSH1 0x40 SWAP1 KECCAK256 PUSH1 0x5 DUP2 ADD SLOAD CALLVALUE LT ISZERO PUSH2 0x7ED JUMPI PUSH1 0x40 MLOAD PUSH3 0x461BCD PUSH1 0xE5 SHL DUP2 MSTORE PUSH1 0x20 PUSH1 0x4 DUP3 ADD MSTORE PUSH1 0x28 PUSH1 0x24 DUP3 ADD MSTORE PUSH32 0x496E73756666696369656E74207061796D656E7420746F2073747265616D2074 PUSH1 0x44 DUP3 ADD MSTORE PUSH8 0x686520616C62756D PUSH1 0xC0 SHL PUSH1 0x64 DUP3 ADD MSTORE PUSH1 0x84 ADD PUSH2 0x3DE JUMP JUMPDEST PUSH1 0x0 PUSH2 0x8AC DUP3 PUSH1 0x5 ADD SLOAD DUP4 PUSH1 0x9 ADD DUP1 SLOAD DUP1 PUSH1 0x20 MUL PUSH1 0x20 ADD PUSH1 0x40 MLOAD SWAP1 DUP2 ADD PUSH1 0x40 MSTORE DUP1 SWAP3 SWAP2 SWAP1 DUP2 DUP2 MSTORE PUSH1 0x20 ADD DUP3 DUP1 SLOAD DUP1 ISZERO PUSH2 0x84F JUMPI PUSH1 0x20 MUL DUP3 ADD SWAP2 SWAP1 PUSH1 0x0 MSTORE PUSH1 0x20 PUSH1 0x0 KECCAK256 SWAP1 JUMPDEST DUP2 SLOAD PUSH1 0x1 PUSH1 0x1 PUSH1 0xA0 SHL SUB AND DUP2 MSTORE PUSH1 0x1 SWAP1 SWAP2 ADD SWAP1 PUSH1 0x20 ADD DUP1 DUP4 GT PUSH2 0x831 JUMPI JUMPDEST POP POP POP POP POP DUP5 PUSH1 0xA ADD DUP1 SLOAD DUP1 PUSH1 0x20 MUL PUSH1 0x20 ADD PUSH1 0x40 MLOAD SWAP1 DUP2 ADD PUSH1 0x40 MSTORE DUP1 SWAP3 SWAP2 SWAP1 DUP2 DUP2 MSTORE PUSH1 0x20 ADD DUP3 DUP1 SLOAD DUP1 ISZERO PUSH2 0x8A2 JUMPI PUSH1 0x20 MUL DUP3 ADD SWAP2 SWAP1 PUSH1 0x0 MSTORE PUSH1 0x20 PUSH1 0x0 KECCAK256 SWAP1 JUMPDEST DUP2 SLOAD DUP2 MSTORE PUSH1 0x20 ADD SWAP1 PUSH1 0x1 ADD SWAP1 DUP1 DUP4 GT PUSH2 0x88E JUMPI JUMPDEST POP POP POP POP POP PUSH2 0x206F JUMP JUMPDEST SWAP1 POP PUSH1 0x0 DUP2 DUP4 PUSH1 0x5 ADD SLOAD PUSH2 0x8C0 SWAP2 SWAP1 PUSH2 0x2A07 JUMP JUMPDEST PUSH1 0x6 DUP5 ADD DUP1 SLOAD SWAP2 SWAP3 POP PUSH1 0x0 PUSH2 0x8D4 DUP4 PUSH2 0x2A53 JUMP JUMPDEST SWAP1 SWAP2 SSTORE POP POP PUSH1 0x2 DUP4 ADD SLOAD PUSH1 0x1 PUSH1 0x1 PUSH1 0xA0 SHL SUB AND PUSH1 0x0 SWAP1 DUP2 MSTORE PUSH1 0x6 PUSH1 0x20 MSTORE PUSH1 0x40 DUP2 KECCAK256 DUP1 SLOAD DUP4 SWAP3 SWAP1 PUSH2 0x905 SWAP1 DUP5 SWAP1 PUSH2 0x29B0 JUMP JUMPDEST SWAP3 POP POP DUP2 SWAP1 SSTORE POP PUSH2 0x9C5 DUP4 PUSH1 0x9 ADD DUP1 SLOAD DUP1 PUSH1 0x20 MUL PUSH1 0x20 ADD PUSH1 0x40 MLOAD SWAP1 DUP2 ADD PUSH1 0x40 MSTORE DUP1 SWAP3 SWAP2 SWAP1 DUP2 DUP2 MSTORE PUSH1 0x20 ADD DUP3 DUP1 SLOAD DUP1 ISZERO PUSH2 0x967 JUMPI PUSH1 0x20 MUL DUP3 ADD SWAP2 SWAP1 PUSH1 0x0 MSTORE PUSH1 0x20 PUSH1 0x0 KECCAK256 SWAP1 JUMPDEST DUP2 SLOAD PUSH1 0x1 PUSH1 0x1 PUSH1 0xA0 SHL SUB AND DUP2 MSTORE PUSH1 0x1 SWAP1 SWAP2 ADD SWAP1 PUSH1 0x20 ADD DUP1 DUP4 GT PUSH2 0x949 JUMPI JUMPDEST POP POP POP POP POP DUP5 PUSH1 0xA ADD DUP1 SLOAD DUP1 PUSH1 0x20 MUL PUSH1 0x20 ADD PUSH1 0x40 MLOAD SWAP1 DUP2 ADD PUSH1 0x40 MSTORE DUP1 SWAP3 SWAP2 SWAP1 DUP2 DUP2 MSTORE PUSH1 0x20 ADD DUP3 DUP1 SLOAD DUP1 ISZERO PUSH2 0x9BA JUMPI PUSH1 0x20 MUL DUP3 ADD SWAP2 SWAP1 PUSH1 0x0 MSTORE PUSH1 0x20 PUSH1 0x0 KECCAK256 SWAP1 JUMPDEST DUP2 SLOAD DUP2 MSTORE PUSH1 0x20 ADD SWAP1 PUSH1 0x1 ADD SWAP1 DUP1 DUP4 GT PUSH2 0x9A6 JUMPI JUMPDEST POP POP POP POP POP DUP5 PUSH2 0x20E3 JUMP JUMPDEST PUSH1 0x5 DUP4 ADD SLOAD PUSH1 0x40 DUP1 MLOAD DUP8 DUP2 MSTORE CALLER PUSH1 0x20 DUP3 ADD MSTORE SWAP1 DUP2 ADD SWAP2 SWAP1 SWAP2 MSTORE PUSH32 0x9895CBAD8F9DB9BFB55390DEAA7DD85188E313B35EE7EE4748B41AE3B9A7936F SWAP1 PUSH1 0x60 ADD PUSH2 0x46F JUMP JUMPDEST PUSH1 0x0 DUP1 PUSH1 0x1 JUMPDEST PUSH1 0x0 SLOAD DUP2 GT PUSH2 0xA7F JUMPI PUSH1 0x0 DUP2 DUP2 MSTORE PUSH1 0x2 PUSH1 0x20 DUP2 SWAP1 MSTORE PUSH1 0x40 SWAP1 SWAP2 KECCAK256 ADD SLOAD PUSH1 0x1 PUSH1 0x1 PUSH1 0xA0 SHL SUB DUP6 DUP2 AND SWAP2 AND EQ ISZERO PUSH2 0xA6D JUMPI PUSH1 0x0 DUP2 DUP2 MSTORE PUSH1 0x2 PUSH1 0x20 MSTORE PUSH1 0x40 SWAP1 KECCAK256 PUSH1 0x5 DUP2 ADD SLOAD PUSH1 0x7 SWAP1 SWAP2 ADD SLOAD PUSH2 0xA60 SWAP2 SWAP1 PUSH2 0x29E8 JUMP JUMPDEST PUSH2 0xA6A SWAP1 DUP4 PUSH2 0x29B0 JUMP JUMPDEST SWAP2 POP JUMPDEST DUP1 PUSH2 0xA77 DUP2 PUSH2 0x2A53 JUMP JUMPDEST SWAP2 POP POP PUSH2 0xA0E JUMP JUMPDEST POP SWAP3 SWAP2 POP POP JUMP JUMPDEST PUSH2 0xAE5 PUSH1 0x40 MLOAD DUP1 PUSH2 0x140 ADD PUSH1 0x40 MSTORE DUP1 PUSH1 0x0 DUP2 MSTORE PUSH1 0x20 ADD PUSH1 0x60 DUP2 MSTORE PUSH1 0x20 ADD PUSH1 0x0 PUSH1 0x1 PUSH1 0x1 PUSH1 0xA0 SHL SUB AND DUP2 MSTORE PUSH1 0x20 ADD PUSH1 0x60 DUP2 MSTORE PUSH1 0x20 ADD PUSH1 0x60 DUP2 MSTORE PUSH1 0x20 ADD PUSH1 0x0 DUP2 MSTORE PUSH1 0x20 ADD PUSH1 0x0 DUP2 MSTORE PUSH1 0x20 ADD PUSH1 0x0 DUP2 MSTORE PUSH1 0x20 ADD PUSH1 0x60 DUP2 MSTORE PUSH1 0x20 ADD PUSH1 0x60 DUP2 MSTORE POP SWAP1 JUMP JUMPDEST DUP2 PUSH1 0x0 DUP2 GT DUP1 ISZERO PUSH2 0xAF8 JUMPI POP PUSH1 0x0 SLOAD DUP2 GT ISZERO JUMPDEST PUSH2 0xB14 JUMPI PUSH1 0x40 MLOAD PUSH3 0x461BCD PUSH1 0xE5 SHL DUP2 MSTORE PUSH1 0x4 ADD PUSH2 0x3DE SWAP1 PUSH2 0x26D8 JUMP JUMPDEST PUSH1 0x2 PUSH1 0x0 DUP5 DUP2 MSTORE PUSH1 0x20 ADD SWAP1 DUP2 MSTORE PUSH1 0x20 ADD PUSH1 0x0 KECCAK256 PUSH1 0x40 MLOAD DUP1 PUSH2 0x140 ADD PUSH1 0x40 MSTORE SWAP1 DUP2 PUSH1 0x0 DUP3 ADD SLOAD DUP2 MSTORE PUSH1 0x20 ADD PUSH1 0x1 DUP3 ADD DUP1 SLOAD PUSH2 0xB4D SWAP1 PUSH2 0x2A1E JUMP JUMPDEST DUP1 PUSH1 0x1F ADD PUSH1 0x20 DUP1 SWAP2 DIV MUL PUSH1 0x20 ADD PUSH1 0x40 MLOAD SWAP1 DUP2 ADD PUSH1 0x40 MSTORE DUP1 SWAP3 SWAP2 SWAP1 DUP2 DUP2 MSTORE PUSH1 0x20 ADD DUP3 DUP1 SLOAD PUSH2 0xB79 SWAP1 PUSH2 0x2A1E JUMP JUMPDEST DUP1 ISZERO PUSH2 0xBC6 JUMPI DUP1 PUSH1 0x1F LT PUSH2 0xB9B JUMPI PUSH2 0x100 DUP1 DUP4 SLOAD DIV MUL DUP4 MSTORE SWAP2 PUSH1 0x20 ADD SWAP2 PUSH2 0xBC6 JUMP JUMPDEST DUP3 ADD SWAP2 SWAP1 PUSH1 0x0 MSTORE PUSH1 0x20 PUSH1 0x0 KECCAK256 SWAP1 JUMPDEST DUP2 SLOAD DUP2 MSTORE SWAP1 PUSH1 0x1 ADD SWAP1 PUSH1 0x20 ADD DUP1 DUP4 GT PUSH2 0xBA9 JUMPI DUP3 SWAP1 SUB PUSH1 0x1F AND DUP3 ADD SWAP2 JUMPDEST POP POP POP SWAP2 DUP4 MSTORE POP POP PUSH1 0x2 DUP3 ADD SLOAD PUSH1 0x1 PUSH1 0x1 PUSH1 0xA0 SHL SUB AND PUSH1 0x20 DUP3 ADD MSTORE PUSH1 0x3 DUP3 ADD DUP1 SLOAD PUSH1 0x40 SWAP1 SWAP3 ADD SWAP2 PUSH2 0xBF6 SWAP1 PUSH2 0x2A1E JUMP JUMPDEST DUP1 PUSH1 0x1F ADD PUSH1 0x20 DUP1 SWAP2 DIV MUL PUSH1 0x20 ADD PUSH1 0x40 MLOAD SWAP1 DUP2 ADD PUSH1 0x40 MSTORE DUP1 SWAP3 SWAP2 SWAP1 DUP2 DUP2 MSTORE PUSH1 0x20 ADD DUP3 DUP1 SLOAD PUSH2 0xC22 SWAP1 PUSH2 0x2A1E JUMP JUMPDEST DUP1 ISZERO PUSH2 0xC6F JUMPI DUP1 PUSH1 0x1F LT PUSH2 0xC44 JUMPI PUSH2 0x100 DUP1 DUP4 SLOAD DIV MUL DUP4 MSTORE SWAP2 PUSH1 0x20 ADD SWAP2 PUSH2 0xC6F JUMP JUMPDEST DUP3 ADD SWAP2 SWAP1 PUSH1 0x0 MSTORE PUSH1 0x20 PUSH1 0x0 KECCAK256 SWAP1 JUMPDEST DUP2 SLOAD DUP2 MSTORE SWAP1 PUSH1 0x1 ADD SWAP1 PUSH1 0x20 ADD DUP1 DUP4 GT PUSH2 0xC52 JUMPI DUP3 SWAP1 SUB PUSH1 0x1F AND DUP3 ADD SWAP2 JUMPDEST POP POP POP POP POP DUP2 MSTORE PUSH1 0x20 ADD PUSH1 0x4 DUP3 ADD DUP1 SLOAD PUSH2 0xC88 SWAP1 PUSH2 0x2A1E JUMP JUMPDEST DUP1 PUSH1 0x1F ADD PUSH1 0x20 DUP1 SWAP2 DIV MUL PUSH1 0x20 ADD PUSH1 0x40 MLOAD SWAP1 DUP2 ADD PUSH1 0x40 MSTORE DUP1 SWAP3 SWAP2 SWAP1 DUP2 DUP2 MSTORE PUSH1 0x20 ADD DUP3 DUP1 SLOAD PUSH2 0xCB4 SWAP1 PUSH2 0x2A1E JUMP JUMPDEST DUP1 ISZERO PUSH2 0xD01 JUMPI DUP1 PUSH1 0x1F LT PUSH2 0xCD6 JUMPI PUSH2 0x100 DUP1 DUP4 SLOAD DIV MUL DUP4 MSTORE SWAP2 PUSH1 0x20 ADD SWAP2 PUSH2 0xD01 JUMP JUMPDEST DUP3 ADD SWAP2 SWAP1 PUSH1 0x0 MSTORE PUSH1 0x20 PUSH1 0x0 KECCAK256 SWAP1 JUMPDEST DUP2 SLOAD DUP2 MSTORE SWAP1 PUSH1 0x1 ADD SWAP1 PUSH1 0x20 ADD DUP1 DUP4 GT PUSH2 0xCE4 JUMPI DUP3 SWAP1 SUB PUSH1 0x1F AND DUP3 ADD SWAP2 JUMPDEST POP POP POP POP POP DUP2 MSTORE PUSH1 0x20 ADD PUSH1 0x5 DUP3 ADD SLOAD DUP2 MSTORE PUSH1 0x20 ADD PUSH1 0x6 DUP3 ADD SLOAD DUP2 MSTORE PUSH1 0x20 ADD PUSH1 0x7 DUP3 ADD SLOAD DUP2 MSTORE PUSH1 0x20 ADD PUSH1 0x8 DUP3 ADD DUP1 SLOAD DUP1 PUSH1 0x20 MUL PUSH1 0x20 ADD PUSH1 0x40 MLOAD SWAP1 DUP2 ADD PUSH1 0x40 MSTORE DUP1 SWAP3 SWAP2 SWAP1 DUP2 DUP2 MSTORE PUSH1 0x20 ADD DUP3 DUP1 SLOAD DUP1 ISZERO PUSH2 0xD81 JUMPI PUSH1 0x20 MUL DUP3 ADD SWAP2 SWAP1 PUSH1 0x0 MSTORE PUSH1 0x20 PUSH1 0x0 KECCAK256 SWAP1 JUMPDEST DUP2 SLOAD PUSH1 0x1 PUSH1 0x1 PUSH1 0xA0 SHL SUB AND DUP2 MSTORE PUSH1 0x1 SWAP1 SWAP2 ADD SWAP1 PUSH1 0x20 ADD DUP1 DUP4 GT PUSH2 0xD63 JUMPI JUMPDEST POP POP POP POP POP DUP2 MSTORE PUSH1 0x20 ADD PUSH1 0x9 DUP3 ADD DUP1 SLOAD DUP1 PUSH1 0x20 MUL PUSH1 0x20 ADD PUSH1 0x40 MLOAD SWAP1 DUP2 ADD PUSH1 0x40 MSTORE DUP1 SWAP3 SWAP2 SWAP1 DUP2 DUP2 MSTORE PUSH1 0x20 ADD DUP3 DUP1 SLOAD DUP1 ISZERO PUSH2 0xDD9 JUMPI PUSH1 0x20 MUL DUP3 ADD SWAP2 SWAP1 PUSH1 0x0 MSTORE PUSH1 0x20 PUSH1 0x0 KECCAK256 SWAP1 JUMPDEST DUP2 SLOAD DUP2 MSTORE PUSH1 0x20 ADD SWAP1 PUSH1 0x1 ADD SWAP1 DUP1 DUP4 GT PUSH2 0xDC5 JUMPI JUMPDEST POP POP POP POP POP DUP2 MSTORE POP POP SWAP2 POP POP SWAP2 SWAP1 POP JUMP JUMPDEST PUSH1 0x60 PUSH1 0x0 DUP1 SLOAD PUSH8 0xFFFFFFFFFFFFFFFF DUP2 GT ISZERO PUSH2 0xE16 JUMPI PUSH4 0x4E487B71 PUSH1 0xE0 SHL PUSH1 0x0 MSTORE PUSH1 0x41 PUSH1 0x4 MSTORE PUSH1 0x24 PUSH1 0x0 REVERT JUMPDEST PUSH1 0x40 MLOAD SWAP1 DUP1 DUP3 MSTORE DUP1 PUSH1 0x20 MUL PUSH1 0x20 ADD DUP3 ADD PUSH1 0x40 MSTORE DUP1 ISZERO PUSH2 0xE3F JUMPI DUP2 PUSH1 0x20 ADD PUSH1 0x20 DUP3 MUL DUP1 CALLDATASIZE DUP4 CALLDATACOPY ADD SWAP1 POP JUMPDEST POP SWAP1 POP PUSH1 0x1 JUMPDEST PUSH1 0x0 SLOAD DUP2 GT PUSH2 0x745 JUMPI PUSH1 0x0 DUP2 DUP2 MSTORE PUSH1 0x2 PUSH1 0x20 MSTORE PUSH1 0x40 SWAP1 KECCAK256 SLOAD DUP3 PUSH2 0xE69 PUSH1 0x1 DUP5 PUSH2 0x2A07 JUMP JUMPDEST DUP2 MLOAD DUP2 LT PUSH2 0xE87 JUMPI PUSH4 0x4E487B71 PUSH1 0xE0 SHL PUSH1 0x0 MSTORE PUSH1 0x32 PUSH1 0x4 MSTORE PUSH1 0x24 PUSH1 0x0 REVERT JUMPDEST PUSH1 0x20 SWAP1 DUP2 MUL SWAP2 SWAP1 SWAP2 ADD ADD MSTORE DUP1 PUSH2 0xE9C DUP2 PUSH2 0x2A53 JUMP JUMPDEST SWAP2 POP POP PUSH2 0xE45 JUMP JUMPDEST PUSH1 0x60 PUSH1 0x0 DUP1 SLOAD PUSH8 0xFFFFFFFFFFFFFFFF DUP2 GT ISZERO PUSH2 0xED0 JUMPI PUSH4 0x4E487B71 PUSH1 0xE0 SHL PUSH1 0x0 MSTORE PUSH1 0x41 PUSH1 0x4 MSTORE PUSH1 0x24 PUSH1 0x0 REVERT JUMPDEST PUSH1 0x40 MLOAD SWAP1 DUP1 DUP3 MSTORE DUP1 PUSH1 0x20 MUL PUSH1 0x20 ADD DUP3 ADD PUSH1 0x40 MSTORE DUP1 ISZERO PUSH2 0xEF9 JUMPI DUP2 PUSH1 0x20 ADD PUSH1 0x20 DUP3 MUL DUP1 CALLDATASIZE DUP4 CALLDATACOPY ADD SWAP1 POP JUMPDEST POP SWAP1 POP PUSH1 0x0 PUSH1 0x1 JUMPDEST PUSH1 0x0 SLOAD DUP2 GT PUSH2 0xF8C JUMPI PUSH1 0x0 DUP2 DUP2 MSTORE PUSH1 0x2 PUSH1 0x20 DUP2 SWAP1 MSTORE PUSH1 0x40 SWAP1 SWAP2 KECCAK256 ADD SLOAD PUSH1 0x1 PUSH1 0x1 PUSH1 0xA0 SHL SUB DUP7 DUP2 AND SWAP2 AND EQ ISZERO PUSH2 0xF7A JUMPI PUSH1 0x0 DUP2 DUP2 MSTORE PUSH1 0x2 PUSH1 0x20 MSTORE PUSH1 0x40 SWAP1 KECCAK256 SLOAD DUP4 MLOAD DUP5 SWAP1 DUP5 SWAP1 DUP2 LT PUSH2 0xF61 JUMPI PUSH4 0x4E487B71 PUSH1 0xE0 SHL PUSH1 0x0 MSTORE PUSH1 0x32 PUSH1 0x4 MSTORE PUSH1 0x24 PUSH1 0x0 REVERT JUMPDEST PUSH1 0x20 SWAP1 DUP2 MUL SWAP2 SWAP1 SWAP2 ADD ADD MSTORE DUP2 PUSH2 0xF76 DUP2 PUSH2 0x2A53 JUMP JUMPDEST SWAP3 POP POP JUMPDEST DUP1 PUSH2 0xF84 DUP2 PUSH2 0x2A53 JUMP JUMPDEST SWAP2 POP POP PUSH2 0xF01 JUMP JUMPDEST POP SWAP1 SWAP4 SWAP3 POP POP POP JUMP JUMPDEST PUSH1 0x0 DUP1 PUSH1 0x1 JUMPDEST PUSH1 0x0 SLOAD DUP2 GT PUSH2 0xA7F JUMPI PUSH1 0x0 DUP2 DUP2 MSTORE PUSH1 0x2 PUSH1 0x20 DUP2 SWAP1 MSTORE PUSH1 0x40 SWAP1 SWAP2 KECCAK256 ADD SLOAD PUSH1 0x1 PUSH1 0x1 PUSH1 0xA0 SHL SUB DUP6 DUP2 AND SWAP2 AND EQ ISZERO PUSH2 0xFE9 JUMPI PUSH1 0x0 DUP2 DUP2 MSTORE PUSH1 0x2 PUSH1 0x20 MSTORE PUSH1 0x40 SWAP1 KECCAK256 PUSH1 0x6 ADD SLOAD PUSH2 0xFE6 SWAP1 DUP4 PUSH2 0x29B0 JUMP JUMPDEST SWAP2 POP JUMPDEST DUP1 PUSH2 0xFF3 DUP2 PUSH2 0x2A53 JUMP JUMPDEST SWAP2 POP POP PUSH2 0xF9B JUMP JUMPDEST PUSH1 0x0 DUP1 PUSH1 0x1 JUMPDEST PUSH1 0x1 SLOAD DUP2 GT PUSH2 0xA7F JUMPI PUSH1 0x0 DUP2 DUP2 MSTORE PUSH1 0x3 PUSH1 0x20 MSTORE PUSH1 0x40 SWAP1 KECCAK256 PUSH1 0x2 ADD SLOAD PUSH1 0x1 PUSH1 0x1 PUSH1 0xA0 SHL SUB DUP6 DUP2 AND SWAP2 AND EQ ISZERO PUSH2 0x105F JUMPI PUSH1 0x0 DUP2 DUP2 MSTORE PUSH1 0x3 PUSH1 0x20 MSTORE PUSH1 0x40 SWAP1 KECCAK256 PUSH1 0x5 DUP2 ADD SLOAD PUSH1 0x7 SWAP1 SWAP2 ADD SLOAD PUSH2 0x1052 SWAP2 SWAP1 PUSH2 0x29E8 JUMP JUMPDEST PUSH2 0x105C SWAP1 DUP4 PUSH2 0x29B0 JUMP JUMPDEST SWAP2 POP JUMPDEST DUP1 PUSH2 0x1069 DUP2 PUSH2 0x2A53 JUMP JUMPDEST SWAP2 POP POP PUSH2 0x1001 JUMP JUMPDEST DUP1 PUSH1 0x0 DUP2 GT DUP1 ISZERO PUSH2 0x1084 JUMPI POP PUSH1 0x0 SLOAD DUP2 GT ISZERO JUMPDEST PUSH2 0x10A0 JUMPI PUSH1 0x40 MLOAD PUSH3 0x461BCD PUSH1 0xE5 SHL DUP2 MSTORE PUSH1 0x4 ADD PUSH2 0x3DE SWAP1 PUSH2 0x26D8 JUMP JUMPDEST PUSH1 0x0 DUP3 DUP2 MSTORE PUSH1 0x2 PUSH1 0x20 MSTORE PUSH1 0x40 SWAP1 KECCAK256 PUSH1 0x5 DUP2 ADD SLOAD CALLVALUE LT ISZERO PUSH2 0x1113 JUMPI PUSH1 0x40 MLOAD PUSH3 0x461BCD PUSH1 0xE5 SHL DUP2 MSTORE PUSH1 0x20 PUSH1 0x4 DUP3 ADD MSTORE PUSH1 0x28 PUSH1 0x24 DUP3 ADD MSTORE PUSH32 0x496E73756666696369656E74207061796D656E7420746F2073747265616D2074 PUSH1 0x44 DUP3 ADD MSTORE PUSH8 0x686520747261636B PUSH1 0xC0 SHL PUSH1 0x64 DUP3 ADD MSTORE PUSH1 0x84 ADD PUSH2 0x3DE JUMP JUMPDEST PUSH1 0x0 PUSH2 0x11D0 DUP3 PUSH1 0x5 ADD SLOAD DUP4 PUSH1 0x8 ADD DUP1 SLOAD DUP1 PUSH1 0x20 MUL PUSH1 0x20 ADD PUSH1 0x40 MLOAD SWAP1 DUP2 ADD PUSH1 0x40 MSTORE DUP1 SWAP3 SWAP2 SWAP1 DUP2 DUP2 MSTORE PUSH1 0x20 ADD DUP3 DUP1 SLOAD DUP1 ISZERO PUSH2 0x1175 JUMPI PUSH1 0x20 MUL DUP3 ADD SWAP2 SWAP1 PUSH1 0x0 MSTORE PUSH1 0x20 PUSH1 0x0 KECCAK256 SWAP1 JUMPDEST DUP2 SLOAD PUSH1 0x1 PUSH1 0x1 PUSH1 0xA0 SHL SUB AND DUP2 MSTORE PUSH1 0x1 SWAP1 SWAP2 ADD SWAP1 PUSH1 0x20 ADD DUP1 DUP4 GT PUSH2 0x1157 JUMPI JUMPDEST POP POP POP POP POP DUP5 PUSH1 0x9 ADD DUP1 SLOAD DUP1 PUSH1 0x20 MUL PUSH1 0x20 ADD PUSH1 0x40 MLOAD SWAP1 DUP2 ADD PUSH1 0x40 MSTORE DUP1 SWAP3 SWAP2 SWAP1 DUP2 DUP2 MSTORE PUSH1 0x20 ADD DUP3 DUP1 SLOAD DUP1 ISZERO PUSH2 0x8A2 JUMPI PUSH1 0x20 MUL DUP3 ADD SWAP2 SWAP1 PUSH1 0x0 MSTORE PUSH1 0x20 PUSH1 0x0 KECCAK256 SWAP1 DUP2 SLOAD DUP2 MSTORE PUSH1 0x20 ADD SWAP1 PUSH1 0x1 ADD SWAP1 DUP1 DUP4 GT PUSH2 0x88E JUMPI POP POP POP POP POP PUSH2 0x206F JUMP JUMPDEST SWAP1 POP PUSH1 0x0 DUP2 DUP4 PUSH1 0x5 ADD SLOAD PUSH2 0x11E4 SWAP2 SWAP1 PUSH2 0x2A07 JUMP JUMPDEST PUSH1 0x6 DUP5 ADD DUP1 SLOAD SWAP2 SWAP3 POP PUSH1 0x0 PUSH2 0x11F8 DUP4 PUSH2 0x2A53 JUMP JUMPDEST SWAP1 SWAP2 SSTORE POP POP PUSH1 0x2 DUP4 ADD SLOAD PUSH1 0x1 PUSH1 0x1 PUSH1 0xA0 SHL SUB AND PUSH1 0x0 SWAP1 DUP2 MSTORE PUSH1 0x6 PUSH1 0x20 MSTORE PUSH1 0x40 DUP2 KECCAK256 DUP1 SLOAD DUP4 SWAP3 SWAP1 PUSH2 0x1229 SWAP1 DUP5 SWAP1 PUSH2 0x29B0 JUMP JUMPDEST SWAP3 POP POP DUP2 SWAP1 SSTORE POP PUSH2 0x12E7 DUP4 PUSH1 0x8 ADD DUP1 SLOAD DUP1 PUSH1 0x20 MUL PUSH1 0x20 ADD PUSH1 0x40 MLOAD SWAP1 DUP2 ADD PUSH1 0x40 MSTORE DUP1 SWAP3 SWAP2 SWAP1 DUP2 DUP2 MSTORE PUSH1 0x20 ADD DUP3 DUP1 SLOAD DUP1 ISZERO PUSH2 0x128B JUMPI PUSH1 0x20 MUL DUP3 ADD SWAP2 SWAP1 PUSH1 0x0 MSTORE PUSH1 0x20 PUSH1 0x0 KECCAK256 SWAP1 JUMPDEST DUP2 SLOAD PUSH1 0x1 PUSH1 0x1 PUSH1 0xA0 SHL SUB AND DUP2 MSTORE PUSH1 0x1 SWAP1 SWAP2 ADD SWAP1 PUSH1 0x20 ADD DUP1 DUP4 GT PUSH2 0x126D JUMPI JUMPDEST POP POP POP POP POP DUP5 PUSH1 0x9 ADD DUP1 SLOAD DUP1 PUSH1 0x20 MUL PUSH1 0x20 ADD PUSH1 0x40 MLOAD SWAP1 DUP2 ADD PUSH1 0x40 MSTORE DUP1 SWAP3 SWAP2 SWAP1 DUP2 DUP2 MSTORE PUSH1 0x20 ADD DUP3 DUP1 SLOAD DUP1 ISZERO PUSH2 0x9BA JUMPI PUSH1 0x20 MUL DUP3 ADD SWAP2 SWAP1 PUSH1 0x0 MSTORE PUSH1 0x20 PUSH1 0x0 KECCAK256 SWAP1 DUP2 SLOAD DUP2 MSTORE PUSH1 0x20 ADD SWAP1 PUSH1 0x1 ADD SWAP1 DUP1 DUP4 GT PUSH2 0x9A6 JUMPI POP POP POP POP POP DUP5 PUSH2 0x20E3 JUMP JUMPDEST PUSH1 0x5 DUP4 ADD SLOAD PUSH1 0x40 DUP1 MLOAD DUP8 DUP2 MSTORE CALLER PUSH1 0x20 DUP3 ADD MSTORE SWAP1 DUP2 ADD SWAP2 SWAP1 SWAP2 MSTORE PUSH32 0xA8FF0760DB1BD134BEC00C7F599E3D73AD185CFC7DD4C313B1CCFC4BD9594737 SWAP1 PUSH1 0x60 ADD PUSH2 0x46F JUMP JUMPDEST DUP1 PUSH1 0x0 DUP2 GT DUP1 ISZERO PUSH2 0x133D JUMPI POP PUSH1 0x0 SLOAD DUP2 GT ISZERO JUMPDEST PUSH2 0x1359 JUMPI PUSH1 0x40 MLOAD PUSH3 0x461BCD PUSH1 0xE5 SHL DUP2 MSTORE PUSH1 0x4 ADD PUSH2 0x3DE SWAP1 PUSH2 0x26D8 JUMP JUMPDEST PUSH1 0x0 DUP3 DUP2 MSTORE PUSH1 0x2 PUSH1 0x20 MSTORE PUSH1 0x40 SWAP1 KECCAK256 PUSH1 0x5 DUP2 ADD SLOAD CALLVALUE LT ISZERO PUSH2 0x13CE JUMPI PUSH1 0x40 MLOAD PUSH3 0x461BCD PUSH1 0xE5 SHL DUP2 MSTORE PUSH1 0x20 PUSH1 0x4 DUP3 ADD MSTORE PUSH1 0x2A PUSH1 0x24 DUP3 ADD MSTORE PUSH32 0x496E73756666696369656E74207061796D656E7420746F207075726368617365 PUSH1 0x44 DUP3 ADD MSTORE PUSH10 0x2074686520747261636B PUSH1 0xB0 SHL PUSH1 0x64 DUP3 ADD MSTORE PUSH1 0x84 ADD PUSH2 0x3DE JUMP JUMPDEST PUSH1 0x0 PUSH2 0x1489 DUP3 PUSH1 0x5 ADD SLOAD DUP4 PUSH1 0x8 ADD DUP1 SLOAD DUP1 PUSH1 0x20 MUL PUSH1 0x20 ADD PUSH1 0x40 MLOAD SWAP1 DUP2 ADD PUSH1 0x40 MSTORE DUP1 SWAP3 SWAP2 SWAP1 DUP2 DUP2 MSTORE PUSH1 0x20 ADD DUP3 DUP1 SLOAD DUP1 ISZERO PUSH2 0x1175 JUMPI PUSH1 0x20 MUL DUP3 ADD SWAP2 SWAP1 PUSH1 0x0 MSTORE PUSH1 0x20 PUSH1 0x0 KECCAK256 SWAP1 DUP2 SLOAD PUSH1 0x1 PUSH1 0x1 PUSH1 0xA0 SHL SUB AND DUP2 MSTORE PUSH1 0x1 SWAP1 SWAP2 ADD SWAP1 PUSH1 0x20 ADD DUP1 DUP4 GT PUSH2 0x1157 JUMPI POP POP POP POP POP DUP5 PUSH1 0x9 ADD DUP1 SLOAD DUP1 PUSH1 0x20 MUL PUSH1 0x20 ADD PUSH1 0x40 MLOAD SWAP1 DUP2 ADD PUSH1 0x40 MSTORE DUP1 SWAP3 SWAP2 SWAP1 DUP2 DUP2 MSTORE PUSH1 0x20 ADD DUP3 DUP1 SLOAD DUP1 ISZERO PUSH2 0x8A2 JUMPI PUSH1 0x20 MUL DUP3 ADD SWAP2 SWAP1 PUSH1 0x0 MSTORE PUSH1 0x20 PUSH1 0x0 KECCAK256 SWAP1 DUP2 SLOAD DUP2 MSTORE PUSH1 0x20 ADD SWAP1 PUSH1 0x1 ADD SWAP1 DUP1 DUP4 GT PUSH2 0x88E JUMPI POP POP POP POP POP PUSH2 0x206F JUMP JUMPDEST SWAP1 POP PUSH1 0x0 DUP2 DUP4 PUSH1 0x5 ADD SLOAD PUSH2 0x149D SWAP2 SWAP1 PUSH2 0x2A07 JUMP JUMPDEST PUSH1 0x7 DUP5 ADD DUP1 SLOAD SWAP2 SWAP3 POP PUSH1 0x0 PUSH2 0x14B1 DUP4 PUSH2 0x2A53 JUMP JUMPDEST SWAP1 SWAP2 SSTORE POP POP PUSH1 0x2 DUP4 ADD SLOAD PUSH1 0x1 PUSH1 0x1 PUSH1 0xA0 SHL SUB AND PUSH1 0x0 SWAP1 DUP2 MSTORE PUSH1 0x6 PUSH1 0x20 MSTORE PUSH1 0x40 DUP2 KECCAK256 DUP1 SLOAD DUP4 SWAP3 SWAP1 PUSH2 0x14E2 SWAP1 DUP5 SWAP1 PUSH2 0x29B0 JUMP JUMPDEST SWAP3 POP POP DUP2 SWAP1 SSTORE POP PUSH2 0x159E DUP4 PUSH1 0x8 ADD DUP1 SLOAD DUP1 PUSH1 0x20 MUL PUSH1 0x20 ADD PUSH1 0x40 MLOAD SWAP1 DUP2 ADD PUSH1 0x40 MSTORE DUP1 SWAP3 SWAP2 SWAP1 DUP2 DUP2 MSTORE PUSH1 0x20 ADD DUP3 DUP1 SLOAD DUP1 ISZERO PUSH2 0x128B JUMPI PUSH1 0x20 MUL DUP3 ADD SWAP2 SWAP1 PUSH1 0x0 MSTORE PUSH1 0x20 PUSH1 0x0 KECCAK256 SWAP1 DUP2 SLOAD PUSH1 0x1 PUSH1 0x1 PUSH1 0xA0 SHL SUB AND DUP2 MSTORE PUSH1 0x1 SWAP1 SWAP2 ADD SWAP1 PUSH1 0x20 ADD DUP1 DUP4 GT PUSH2 0x126D JUMPI POP POP POP POP POP DUP5 PUSH1 0x9 ADD DUP1 SLOAD DUP1 PUSH1 0x20 MUL PUSH1 0x20 ADD PUSH1 0x40 MLOAD SWAP1 DUP2 ADD PUSH1 0x40 MSTORE DUP1 SWAP3 SWAP2 SWAP1 DUP2 DUP2 MSTORE PUSH1 0x20 ADD DUP3 DUP1 SLOAD DUP1 ISZERO PUSH2 0x9BA JUMPI PUSH1 0x20 MUL DUP3 ADD SWAP2 SWAP1 PUSH1 0x0 MSTORE PUSH1 0x20 PUSH1 0x0 KECCAK256 SWAP1 DUP2 SLOAD DUP2 MSTORE PUSH1 0x20 ADD SWAP1 PUSH1 0x1 ADD SWAP1 DUP1 DUP4 GT PUSH2 0x9A6 JUMPI POP POP POP POP POP DUP5 PUSH2 0x20E3 JUMP JUMPDEST CALLER PUSH1 0x0 DUP2 DUP2 MSTORE PUSH1 0x4 PUSH1 0x20 SWAP1 DUP2 MSTORE PUSH1 0x40 DUP1 DUP4 KECCAK256 DUP1 SLOAD PUSH1 0x1 DUP2 ADD DUP3 SSTORE SWAP1 DUP5 MSTORE SWAP2 SWAP1 SWAP3 KECCAK256 ADD DUP8 SWAP1 SSTORE PUSH1 0x5 DUP6 ADD SLOAD SWAP1 MLOAD PUSH32 0xFE3F9AF2D0BA5BE4687CA774DF8206EC9CF7919BCF32BD9C76B051E5DFBBB5B4 SWAP3 PUSH2 0x46F SWAP3 DUP10 DUP4 MSTORE PUSH1 0x1 PUSH1 0x1 PUSH1 0xA0 SHL SUB SWAP2 SWAP1 SWAP2 AND PUSH1 0x20 DUP4 ADD MSTORE PUSH1 0x40 DUP3 ADD MSTORE PUSH1 0x60 ADD SWAP1 JUMP JUMPDEST PUSH1 0x1 PUSH1 0x1 PUSH1 0xA0 SHL SUB DUP2 AND PUSH1 0x0 SWAP1 DUP2 MSTORE PUSH1 0x4 PUSH1 0x20 SWAP1 DUP2 MSTORE PUSH1 0x40 SWAP2 DUP3 SWAP1 KECCAK256 DUP1 SLOAD DUP4 MLOAD DUP2 DUP5 MUL DUP2 ADD DUP5 ADD SWAP1 SWAP5 MSTORE DUP1 DUP5 MSTORE PUSH1 0x60 SWAP4 SWAP3 DUP4 ADD DUP3 DUP3 DUP1 ISZERO PUSH2 0x4DE JUMPI PUSH1 0x20 MUL DUP3 ADD SWAP2 SWAP1 PUSH1 0x0 MSTORE PUSH1 0x20 PUSH1 0x0 KECCAK256 SWAP1 DUP2 SLOAD DUP2 MSTORE PUSH1 0x20 ADD SWAP1 PUSH1 0x1 ADD SWAP1 DUP1 DUP4 GT PUSH2 0x4CA JUMPI POP POP POP POP POP SWAP1 POP SWAP2 SWAP1 POP JUMP JUMPDEST PUSH1 0x0 DUP1 PUSH1 0x1 JUMPDEST PUSH1 0x1 SLOAD DUP2 GT PUSH2 0xA7F JUMPI PUSH1 0x0 DUP2 DUP2 MSTORE PUSH1 0x3 PUSH1 0x20 MSTORE PUSH1 0x40 SWAP1 KECCAK256 PUSH1 0x2 ADD SLOAD PUSH1 0x1 PUSH1 0x1 PUSH1 0xA0 SHL SUB DUP6 DUP2 AND SWAP2 AND EQ ISZERO PUSH2 0x16CC JUMPI PUSH1 0x0 DUP2 DUP2 MSTORE PUSH1 0x3 PUSH1 0x20 MSTORE PUSH1 0x40 SWAP1 KECCAK256 PUSH1 0x6 ADD SLOAD PUSH2 0x16C9 SWAP1 DUP4 PUSH2 0x29B0 JUMP JUMPDEST SWAP2 POP JUMPDEST DUP1 PUSH2 0x16D6 DUP2 PUSH2 0x2A53 JUMP JUMPDEST SWAP2 POP POP PUSH2 0x167F JUMP JUMPDEST PUSH1 0x1 DUP1 SLOAD SWAP1 PUSH1 0x0 PUSH2 0x16EE DUP4 PUSH2 0x2A53 JUMP JUMPDEST SWAP2 SWAP1 POP SSTORE POP PUSH1 0x40 MLOAD DUP1 PUSH2 0x160 ADD PUSH1 0x40 MSTORE DUP1 PUSH1 0x1 SLOAD DUP2 MSTORE PUSH1 0x20 ADD DUP9 DUP2 MSTORE PUSH1 0x20 ADD DUP8 PUSH1 0x1 PUSH1 0x1 PUSH1 0xA0 SHL SUB AND DUP2 MSTORE PUSH1 0x20 ADD DUP7 DUP2 MSTORE PUSH1 0x20 ADD DUP6 DUP2 MSTORE PUSH1 0x20 ADD DUP5 DUP2 MSTORE PUSH1 0x20 ADD PUSH1 0x0 DUP2 MSTORE PUSH1 0x20 ADD PUSH1 0x0 DUP2 MSTORE PUSH1 0x20 ADD PUSH1 0x0 PUSH8 0xFFFFFFFFFFFFFFFF DUP2 GT ISZERO PUSH2 0x1764 JUMPI PUSH4 0x4E487B71 PUSH1 0xE0 SHL PUSH1 0x0 MSTORE PUSH1 0x41 PUSH1 0x4 MSTORE PUSH1 0x24 PUSH1 0x0 REVERT JUMPDEST PUSH1 0x40 MLOAD SWAP1 DUP1 DUP3 MSTORE DUP1 PUSH1 0x20 MUL PUSH1 0x20 ADD DUP3 ADD PUSH1 0x40 MSTORE DUP1 ISZERO PUSH2 0x178D JUMPI DUP2 PUSH1 0x20 ADD PUSH1 0x20 DUP3 MUL DUP1 CALLDATASIZE DUP4 CALLDATACOPY ADD SWAP1 POP JUMPDEST POP DUP2 MSTORE PUSH1 0x20 DUP1 DUP3 ADD DUP6 SWAP1 MSTORE PUSH1 0x40 SWAP2 DUP3 ADD DUP5 SWAP1 MSTORE PUSH1 0x1 DUP1 SLOAD PUSH1 0x0 SWAP1 DUP2 MSTORE PUSH1 0x3 DUP4 MSTORE SWAP3 SWAP1 SWAP3 KECCAK256 DUP4 MLOAD DUP2 SSTORE DUP4 DUP3 ADD MLOAD DUP1 MLOAD SWAP2 SWAP4 PUSH2 0x17CD SWAP4 SWAP1 DUP6 ADD SWAP3 SWAP2 ADD SWAP1 PUSH2 0x2218 JUMP JUMPDEST POP PUSH1 0x40 DUP3 ADD MLOAD PUSH1 0x2 DUP3 ADD DUP1 SLOAD PUSH1 0x1 PUSH1 0x1 PUSH1 0xA0 SHL SUB NOT AND PUSH1 0x1 PUSH1 0x1 PUSH1 0xA0 SHL SUB SWAP1 SWAP3 AND SWAP2 SWAP1 SWAP2 OR SWAP1 SSTORE PUSH1 0x60 DUP3 ADD MLOAD DUP1 MLOAD PUSH2 0x180F SWAP2 PUSH1 0x3 DUP5 ADD SWAP2 PUSH1 0x20 SWAP1 SWAP2 ADD SWAP1 PUSH2 0x2218 JUMP JUMPDEST POP PUSH1 0x80 DUP3 ADD MLOAD DUP1 MLOAD PUSH2 0x182B SWAP2 PUSH1 0x4 DUP5 ADD SWAP2 PUSH1 0x20 SWAP1 SWAP2 ADD SWAP1 PUSH2 0x2218 JUMP JUMPDEST POP PUSH1 0xA0 DUP3 ADD MLOAD PUSH1 0x5 DUP3 ADD SSTORE PUSH1 0xC0 DUP3 ADD MLOAD PUSH1 0x6 DUP3 ADD SSTORE PUSH1 0xE0 DUP3 ADD MLOAD PUSH1 0x7 DUP3 ADD SSTORE PUSH2 0x100 DUP3 ADD MLOAD DUP1 MLOAD PUSH2 0x1866 SWAP2 PUSH1 0x8 DUP5 ADD SWAP2 PUSH1 0x20 SWAP1 SWAP2 ADD SWAP1 PUSH2 0x22F1 JUMP JUMPDEST POP PUSH2 0x120 DUP3 ADD MLOAD DUP1 MLOAD PUSH2 0x1883 SWAP2 PUSH1 0x9 DUP5 ADD SWAP2 PUSH1 0x20 SWAP1 SWAP2 ADD SWAP1 PUSH2 0x229C JUMP JUMPDEST POP PUSH2 0x140 DUP3 ADD MLOAD DUP1 MLOAD PUSH2 0x18A0 SWAP2 PUSH1 0xA DUP5 ADD SWAP2 PUSH1 0x20 SWAP1 SWAP2 ADD SWAP1 PUSH2 0x22F1 JUMP JUMPDEST POP SWAP1 POP POP PUSH32 0xD78B5503298A5EC3A0C38871277D16CAAEDE28506DE5344AEE4A623EEBF34ED8 PUSH1 0x1 SLOAD DUP9 DUP9 DUP9 DUP9 DUP9 DUP9 DUP9 PUSH1 0x40 MLOAD PUSH2 0x679 SWAP9 SWAP8 SWAP7 SWAP6 SWAP5 SWAP4 SWAP3 SWAP2 SWAP1 PUSH2 0x28CD JUMP JUMPDEST PUSH2 0x1949 PUSH1 0x40 MLOAD DUP1 PUSH2 0x160 ADD PUSH1 0x40 MSTORE DUP1 PUSH1 0x0 DUP2 MSTORE PUSH1 0x20 ADD PUSH1 0x60 DUP2 MSTORE PUSH1 0x20 ADD PUSH1 0x0 PUSH1 0x1 PUSH1 0x1 PUSH1 0xA0 SHL SUB AND DUP2 MSTORE PUSH1 0x20 ADD PUSH1 0x60 DUP2 MSTORE PUSH1 0x20 ADD PUSH1 0x60 DUP2 MSTORE PUSH1 0x20 ADD PUSH1 0x0 DUP2 MSTORE PUSH1 0x20 ADD PUSH1 0x0 DUP2 MSTORE PUSH1 0x20 ADD PUSH1 0x0 DUP2 MSTORE PUSH1 0x20 ADD PUSH1 0x60 DUP2 MSTORE PUSH1 0x20 ADD PUSH1 0x60 DUP2 MSTORE PUSH1 0x20 ADD PUSH1 0x60 DUP2 MSTORE POP SWAP1 JUMP JUMPDEST DUP2 PUSH1 0x0 DUP2 GT DUP1 ISZERO PUSH2 0x195C JUMPI POP PUSH1 0x1 SLOAD DUP2 GT ISZERO JUMPDEST PUSH2 0x1978 JUMPI PUSH1 0x40 MLOAD PUSH3 0x461BCD PUSH1 0xE5 SHL DUP2 MSTORE PUSH1 0x4 ADD PUSH2 0x3DE SWAP1 PUSH2 0x26AA JUMP JUMPDEST PUSH1 0x3 PUSH1 0x0 DUP5 DUP2 MSTORE PUSH1 0x20 ADD SWAP1 DUP2 MSTORE PUSH1 0x20 ADD PUSH1 0x0 KECCAK256 PUSH1 0x40 MLOAD DUP1 PUSH2 0x160 ADD PUSH1 0x40 MSTORE SWAP1 DUP2 PUSH1 0x0 DUP3 ADD SLOAD DUP2 MSTORE PUSH1 0x20 ADD PUSH1 0x1 DUP3 ADD DUP1 SLOAD PUSH2 0x19B1 SWAP1 PUSH2 0x2A1E JUMP JUMPDEST DUP1 PUSH1 0x1F ADD PUSH1 0x20 DUP1 SWAP2 DIV MUL PUSH1 0x20 ADD PUSH1 0x40 MLOAD SWAP1 DUP2 ADD PUSH1 0x40 MSTORE DUP1 SWAP3 SWAP2 SWAP1 DUP2 DUP2 MSTORE PUSH1 0x20 ADD DUP3 DUP1 SLOAD PUSH2 0x19DD SWAP1 PUSH2 0x2A1E JUMP JUMPDEST DUP1 ISZERO PUSH2 0x1A2A JUMPI DUP1 PUSH1 0x1F LT PUSH2 0x19FF JUMPI PUSH2 0x100 DUP1 DUP4 SLOAD DIV MUL DUP4 MSTORE SWAP2 PUSH1 0x20 ADD SWAP2 PUSH2 0x1A2A JUMP JUMPDEST DUP3 ADD SWAP2 SWAP1 PUSH1 0x0 MSTORE PUSH1 0x20 PUSH1 0x0 KECCAK256 SWAP1 JUMPDEST DUP2 SLOAD DUP2 MSTORE SWAP1 PUSH1 0x1 ADD SWAP1 PUSH1 0x20 ADD DUP1 DUP4 GT PUSH2 0x1A0D JUMPI DUP3 SWAP1 SUB PUSH1 0x1F AND DUP3 ADD SWAP2 JUMPDEST POP POP POP SWAP2 DUP4 MSTORE POP POP PUSH1 0x2 DUP3 ADD SLOAD PUSH1 0x1 PUSH1 0x1 PUSH1 0xA0 SHL SUB AND PUSH1 0x20 DUP3 ADD MSTORE PUSH1 0x3 DUP3 ADD DUP1 SLOAD PUSH1 0x40 SWAP1 SWAP3 ADD SWAP2 PUSH2 0x1A5A SWAP1 PUSH2 0x2A1E JUMP JUMPDEST DUP1 PUSH1 0x1F ADD PUSH1 0x20 DUP1 SWAP2 DIV MUL PUSH1 0x20 ADD PUSH1 0x40 MLOAD SWAP1 DUP2 ADD PUSH1 0x40 MSTORE DUP1 SWAP3 SWAP2 SWAP1 DUP2 DUP2 MSTORE PUSH1 0x20 ADD DUP3 DUP1 SLOAD PUSH2 0x1A86 SWAP1 PUSH2 0x2A1E JUMP JUMPDEST DUP1 ISZERO PUSH2 0x1AD3 JUMPI DUP1 PUSH1 0x1F LT PUSH2 0x1AA8 JUMPI PUSH2 0x100 DUP1 DUP4 SLOAD DIV MUL DUP4 MSTORE SWAP2 PUSH1 0x20 ADD SWAP2 PUSH2 0x1AD3 JUMP JUMPDEST DUP3 ADD SWAP2 SWAP1 PUSH1 0x0 MSTORE PUSH1 0x20 PUSH1 0x0 KECCAK256 SWAP1 JUMPDEST DUP2 SLOAD DUP2 MSTORE SWAP1 PUSH1 0x1 ADD SWAP1 PUSH1 0x20 ADD DUP1 DUP4 GT PUSH2 0x1AB6 JUMPI DUP3 SWAP1 SUB PUSH1 0x1F AND DUP3 ADD SWAP2 JUMPDEST POP POP POP POP POP DUP2 MSTORE PUSH1 0x20 ADD PUSH1 0x4 DUP3 ADD DUP1 SLOAD PUSH2 0x1AEC SWAP1 PUSH2 0x2A1E JUMP JUMPDEST DUP1 PUSH1 0x1F ADD PUSH1 0x20 DUP1 SWAP2 DIV MUL PUSH1 0x20 ADD PUSH1 0x40 MLOAD SWAP1 DUP2 ADD PUSH1 0x40 MSTORE DUP1 SWAP3 SWAP2 SWAP1 DUP2 DUP2 MSTORE PUSH1 0x20 ADD DUP3 DUP1 SLOAD PUSH2 0x1B18 SWAP1 PUSH2 0x2A1E JUMP JUMPDEST DUP1 ISZERO PUSH2 0x1B65 JUMPI DUP1 PUSH1 0x1F LT PUSH2 0x1B3A JUMPI PUSH2 0x100 DUP1 DUP4 SLOAD DIV MUL DUP4 MSTORE SWAP2 PUSH1 0x20 ADD SWAP2 PUSH2 0x1B65 JUMP JUMPDEST DUP3 ADD SWAP2 SWAP1 PUSH1 0x0 MSTORE PUSH1 0x20 PUSH1 0x0 KECCAK256 SWAP1 JUMPDEST DUP2 SLOAD DUP2 MSTORE SWAP1 PUSH1 0x1 ADD SWAP1 PUSH1 0x20 ADD DUP1 DUP4 GT PUSH2 0x1B48 JUMPI DUP3 SWAP1 SUB PUSH1 0x1F AND DUP3 ADD SWAP2 JUMPDEST POP POP POP POP POP DUP2 MSTORE PUSH1 0x20 ADD PUSH1 0x5 DUP3 ADD SLOAD DUP2 MSTORE PUSH1 0x20 ADD PUSH1 0x6 DUP3 ADD SLOAD DUP2 MSTORE PUSH1 0x20 ADD PUSH1 0x7 DUP3 ADD SLOAD DUP2 MSTORE PUSH1 0x20 ADD PUSH1 0x8 DUP3 ADD DUP1 SLOAD DUP1 PUSH1 0x20 MUL PUSH1 0x20 ADD PUSH1 0x40 MLOAD SWAP1 DUP2 ADD PUSH1 0x40 MSTORE DUP1 SWAP3 SWAP2 SWAP1 DUP2 DUP2 MSTORE PUSH1 0x20 ADD DUP3 DUP1 SLOAD DUP1 ISZERO PUSH2 0x1BDB JUMPI PUSH1 0x20 MUL DUP3 ADD SWAP2 SWAP1 PUSH1 0x0 MSTORE PUSH1 0x20 PUSH1 0x0 KECCAK256 SWAP1 JUMPDEST DUP2 SLOAD DUP2 MSTORE PUSH1 0x20 ADD SWAP1 PUSH1 0x1 ADD SWAP1 DUP1 DUP4 GT PUSH2 0x1BC7 JUMPI JUMPDEST POP POP POP POP POP DUP2 MSTORE PUSH1 0x20 ADD PUSH1 0x9 DUP3 ADD DUP1 SLOAD DUP1 PUSH1 0x20 MUL PUSH1 0x20 ADD PUSH1 0x40 MLOAD SWAP1 DUP2 ADD PUSH1 0x40 MSTORE DUP1 SWAP3 SWAP2 SWAP1 DUP2 DUP2 MSTORE PUSH1 0x20 ADD DUP3 DUP1 SLOAD DUP1 ISZERO PUSH2 0x1C3D JUMPI PUSH1 0x20 MUL DUP3 ADD SWAP2 SWAP1 PUSH1 0x0 MSTORE PUSH1 0x20 PUSH1 0x0 KECCAK256 SWAP1 JUMPDEST DUP2 SLOAD PUSH1 0x1 PUSH1 0x1 PUSH1 0xA0 SHL SUB AND DUP2 MSTORE PUSH1 0x1 SWAP1 SWAP2 ADD SWAP1 PUSH1 0x20 ADD DUP1 DUP4 GT PUSH2 0x1C1F JUMPI JUMPDEST POP POP POP POP POP DUP2 MSTORE PUSH1 0x20 ADD PUSH1 0xA DUP3 ADD DUP1 SLOAD DUP1 PUSH1 0x20 MUL PUSH1 0x20 ADD PUSH1 0x40 MLOAD SWAP1 DUP2 ADD PUSH1 0x40 MSTORE DUP1 SWAP3 SWAP2 SWAP1 DUP2 DUP2 MSTORE PUSH1 0x20 ADD DUP3 DUP1 SLOAD DUP1 ISZERO PUSH2 0xDD9 JUMPI PUSH1 0x20 MUL DUP3 ADD SWAP2 SWAP1 PUSH1 0x0 MSTORE PUSH1 0x20 PUSH1 0x0 KECCAK256 SWAP1 DUP2 SLOAD DUP2 MSTORE PUSH1 0x20 ADD SWAP1 PUSH1 0x1 ADD SWAP1 DUP1 DUP4 GT PUSH2 0xDC5 JUMPI POP POP POP POP POP DUP2 MSTORE POP POP SWAP2 POP POP SWAP2 SWAP1 POP JUMP JUMPDEST DUP1 PUSH1 0x0 DUP2 GT DUP1 ISZERO PUSH2 0x1CB7 JUMPI POP PUSH1 0x1 SLOAD DUP2 GT ISZERO JUMPDEST PUSH2 0x1CD3 JUMPI PUSH1 0x40 MLOAD PUSH3 0x461BCD PUSH1 0xE5 SHL DUP2 MSTORE PUSH1 0x4 ADD PUSH2 0x3DE SWAP1 PUSH2 0x26AA JUMP JUMPDEST PUSH1 0x0 DUP3 DUP2 MSTORE PUSH1 0x3 PUSH1 0x20 MSTORE PUSH1 0x40 SWAP1 KECCAK256 PUSH1 0x5 DUP2 ADD SLOAD CALLVALUE LT ISZERO PUSH2 0x1D48 JUMPI PUSH1 0x40 MLOAD PUSH3 0x461BCD PUSH1 0xE5 SHL DUP2 MSTORE PUSH1 0x20 PUSH1 0x4 DUP3 ADD MSTORE PUSH1 0x2A PUSH1 0x24 DUP3 ADD MSTORE PUSH32 0x496E73756666696369656E74207061796D656E7420746F207075726368617365 PUSH1 0x44 DUP3 ADD MSTORE PUSH10 0x2074686520616C62756D PUSH1 0xB0 SHL PUSH1 0x64 DUP3 ADD MSTORE PUSH1 0x84 ADD PUSH2 0x3DE JUMP JUMPDEST PUSH1 0x0 PUSH2 0x1E03 DUP3 PUSH1 0x5 ADD SLOAD DUP4 PUSH1 0x9 ADD DUP1 SLOAD DUP1 PUSH1 0x20 MUL PUSH1 0x20 ADD PUSH1 0x40 MLOAD SWAP1 DUP2 ADD PUSH1 0x40 MSTORE DUP1 SWAP3 SWAP2 SWAP1 DUP2 DUP2 MSTORE PUSH1 0x20 ADD DUP3 DUP1 SLOAD DUP1 ISZERO PUSH2 0x84F JUMPI PUSH1 0x20 MUL DUP3 ADD SWAP2 SWAP1 PUSH1 0x0 MSTORE PUSH1 0x20 PUSH1 0x0 KECCAK256 SWAP1 DUP2 SLOAD PUSH1 0x1 PUSH1 0x1 PUSH1 0xA0 SHL SUB AND DUP2 MSTORE PUSH1 0x1 SWAP1 SWAP2 ADD SWAP1 PUSH1 0x20 ADD DUP1 DUP4 GT PUSH2 0x831 JUMPI POP POP POP POP POP DUP5 PUSH1 0xA ADD DUP1 SLOAD DUP1 PUSH1 0x20 MUL PUSH1 0x20 ADD PUSH1 0x40 MLOAD SWAP1 DUP2 ADD PUSH1 0x40 MSTORE DUP1 SWAP3 SWAP2 SWAP1 DUP2 DUP2 MSTORE PUSH1 0x20 ADD DUP3 DUP1 SLOAD DUP1 ISZERO PUSH2 0x8A2 JUMPI PUSH1 0x20 MUL DUP3 ADD SWAP2 SWAP1 PUSH1 0x0 MSTORE PUSH1 0x20 PUSH1 0x0 KECCAK256 SWAP1 DUP2 SLOAD DUP2 MSTORE PUSH1 0x20 ADD SWAP1 PUSH1 0x1 ADD SWAP1 DUP1 DUP4 GT PUSH2 0x88E JUMPI POP POP POP POP POP PUSH2 0x206F JUMP JUMPDEST SWAP1 POP PUSH1 0x0 DUP2 DUP4 PUSH1 0x5 ADD SLOAD PUSH2 0x1E17 SWAP2 SWAP1 PUSH2 0x2A07 JUMP JUMPDEST PUSH1 0x7 DUP5 ADD DUP1 SLOAD SWAP2 SWAP3 POP PUSH1 0x0 PUSH2 0x1E2B DUP4 PUSH2 0x2A53 JUMP JUMPDEST SWAP1 SWAP2 SSTORE POP POP PUSH1 0x2 DUP4 ADD SLOAD PUSH1 0x1 PUSH1 0x1 PUSH1 0xA0 SHL SUB AND PUSH1 0x0 SWAP1 DUP2 MSTORE PUSH1 0x6 PUSH1 0x20 MSTORE PUSH1 0x40 DUP2 KECCAK256 DUP1 SLOAD DUP4 SWAP3 SWAP1 PUSH2 0x1E5C SWAP1 DUP5 SWAP1 PUSH2 0x29B0 JUMP JUMPDEST SWAP3 POP POP DUP2 SWAP1 SSTORE POP PUSH2 0x1F18 DUP4 PUSH1 0x9 ADD DUP1 SLOAD DUP1 PUSH1 0x20 MUL PUSH1 0x20 ADD PUSH1 0x40 MLOAD SWAP1 DUP2 ADD PUSH1 0x40 MSTORE DUP1 SWAP3 SWAP2 SWAP1 DUP2 DUP2 MSTORE PUSH1 0x20 ADD DUP3 DUP1 SLOAD DUP1 ISZERO PUSH2 0x967 JUMPI PUSH1 0x20 MUL DUP3 ADD SWAP2 SWAP1 PUSH1 0x0 MSTORE PUSH1 0x20 PUSH1 0x0 KECCAK256 SWAP1 DUP2 SLOAD PUSH1 0x1 PUSH1 0x1 PUSH1 0xA0 SHL SUB AND DUP2 MSTORE PUSH1 0x1 SWAP1 SWAP2 ADD SWAP1 PUSH1 0x20 ADD DUP1 DUP4 GT PUSH2 0x949 JUMPI POP POP POP POP POP DUP5 PUSH1 0xA ADD DUP1 SLOAD DUP1 PUSH1 0x20 MUL PUSH1 0x20 ADD PUSH1 0x40 MLOAD SWAP1 DUP2 ADD PUSH1 0x40 MSTORE DUP1 SWAP3 SWAP2 SWAP1 DUP2 DUP2 MSTORE PUSH1 0x20 ADD DUP3 DUP1 SLOAD DUP1 ISZERO PUSH2 0x9BA JUMPI PUSH1 0x20 MUL DUP3 ADD SWAP2 SWAP1 PUSH1 0x0 MSTORE PUSH1 0x20 PUSH1 0x0 KECCAK256 SWAP1 DUP2 SLOAD DUP2 MSTORE PUSH1 0x20 ADD SWAP1 PUSH1 0x1 ADD SWAP1 DUP1 DUP4 GT PUSH2 0x9A6 JUMPI POP POP POP POP POP DUP5 PUSH2 0x20E3 JUMP JUMPDEST CALLER PUSH1 0x0 DUP2 DUP2 MSTORE PUSH1 0x5 PUSH1 0x20 DUP2 DUP2 MSTORE PUSH1 0x40 DUP1 DUP5 KECCAK256 DUP1 SLOAD PUSH1 0x1 DUP2 ADD DUP3 SSTORE SWAP1 DUP6 MSTORE SWAP2 SWAP1 SWAP4 KECCAK256 ADD DUP9 SWAP1 SSTORE DUP6 ADD SLOAD SWAP1 MLOAD PUSH32 0x11332EF3956CEA4003185B2A4DB8407E3E5662FE799887282E178F18726ECC9B SWAP3 PUSH2 0x46F SWAP3 DUP10 DUP4 MSTORE PUSH1 0x1 PUSH1 0x1 PUSH1 0xA0 SHL SUB SWAP2 SWAP1 SWAP2 AND PUSH1 0x20 DUP4 ADD MSTORE PUSH1 0x40 DUP3 ADD MSTORE PUSH1 0x60 ADD SWAP1 JUMP JUMPDEST PUSH1 0x60 PUSH1 0x0 PUSH1 0x1 SLOAD PUSH8 0xFFFFFFFFFFFFFFFF DUP2 GT ISZERO PUSH2 0x1FB4 JUMPI PUSH4 0x4E487B71 PUSH1 0xE0 SHL PUSH1 0x0 MSTORE PUSH1 0x41 PUSH1 0x4 MSTORE PUSH1 0x24 PUSH1 0x0 REVERT JUMPDEST PUSH1 0x40 MLOAD SWAP1 DUP1 DUP3 MSTORE DUP1 PUSH1 0x20 MUL PUSH1 0x20 ADD DUP3 ADD PUSH1 0x40 MSTORE DUP1 ISZERO PUSH2 0x1FDD JUMPI DUP2 PUSH1 0x20 ADD PUSH1 0x20 DUP3 MUL DUP1 CALLDATASIZE DUP4 CALLDATACOPY ADD SWAP1 POP JUMPDEST POP SWAP1 POP PUSH1 0x0 PUSH1 0x1 JUMPDEST PUSH1 0x1 SLOAD DUP2 GT PUSH2 0xF8C JUMPI PUSH1 0x0 DUP2 DUP2 MSTORE PUSH1 0x3 PUSH1 0x20 MSTORE PUSH1 0x40 SWAP1 KECCAK256 PUSH1 0x2 ADD SLOAD PUSH1 0x1 PUSH1 0x1 PUSH1 0xA0 SHL SUB DUP7 DUP2 AND SWAP2 AND EQ ISZERO PUSH2 0x205D JUMPI PUSH1 0x0 DUP2 DUP2 MSTORE PUSH1 0x3 PUSH1 0x20 MSTORE PUSH1 0x40 SWAP1 KECCAK256 SLOAD DUP4 MLOAD DUP5 SWAP1 DUP5 SWAP1 DUP2 LT PUSH2 0x2044 JUMPI PUSH4 0x4E487B71 PUSH1 0xE0 SHL PUSH1 0x0 MSTORE PUSH1 0x32 PUSH1 0x4 MSTORE PUSH1 0x24 PUSH1 0x0 REVERT JUMPDEST PUSH1 0x20 SWAP1 DUP2 MUL SWAP2 SWAP1 SWAP2 ADD ADD MSTORE DUP2 PUSH2 0x2059 DUP2 PUSH2 0x2A53 JUMP JUMPDEST SWAP3 POP POP JUMPDEST DUP1 PUSH2 0x2067 DUP2 PUSH2 0x2A53 JUMP JUMPDEST SWAP2 POP POP PUSH2 0x1FE5 JUMP JUMPDEST PUSH1 0x0 DUP1 DUP1 JUMPDEST DUP5 MLOAD DUP2 LT ISZERO PUSH2 0x20DA JUMPI PUSH1 0x64 DUP5 DUP3 DUP2 MLOAD DUP2 LT PUSH2 0x209F JUMPI PUSH4 0x4E487B71 PUSH1 0xE0 SHL PUSH1 0x0 MSTORE PUSH1 0x32 PUSH1 0x4 MSTORE PUSH1 0x24 PUSH1 0x0 REVERT JUMPDEST PUSH1 0x20 MUL PUSH1 0x20 ADD ADD MLOAD DUP8 PUSH2 0x20B2 SWAP2 SWAP1 PUSH2 0x29E8 JUMP JUMPDEST PUSH2 0x20BC SWAP2 SWAP1 PUSH2 0x29C8 JUMP JUMPDEST PUSH2 0x20C6 SWAP1 DUP4 PUSH2 0x29B0 JUMP JUMPDEST SWAP2 POP DUP1 PUSH2 0x20D2 DUP2 PUSH2 0x2A53 JUMP JUMPDEST SWAP2 POP POP PUSH2 0x2074 JUMP JUMPDEST POP SWAP5 SWAP4 POP POP POP POP JUMP JUMPDEST DUP2 MLOAD DUP4 MLOAD EQ PUSH2 0x214A JUMPI PUSH1 0x40 MLOAD PUSH3 0x461BCD PUSH1 0xE5 SHL DUP2 MSTORE PUSH1 0x20 PUSH1 0x4 DUP3 ADD MSTORE PUSH1 0x2D PUSH1 0x24 DUP3 ADD MSTORE PUSH32 0x4F776E65727320616E642070657263656E746167657320617272617973206C65 PUSH1 0x44 DUP3 ADD MSTORE PUSH13 0xDCCEE8D040DAD2E6DAC2E8C6D PUSH1 0x9B SHL PUSH1 0x64 DUP3 ADD MSTORE PUSH1 0x84 ADD PUSH2 0x3DE JUMP JUMPDEST PUSH1 0x0 JUMPDEST DUP4 MLOAD DUP2 LT ISZERO PUSH2 0x2212 JUMPI PUSH1 0x0 DUP5 DUP3 DUP2 MLOAD DUP2 LT PUSH2 0x2178 JUMPI PUSH4 0x4E487B71 PUSH1 0xE0 SHL PUSH1 0x0 MSTORE PUSH1 0x32 PUSH1 0x4 MSTORE PUSH1 0x24 PUSH1 0x0 REVERT JUMPDEST PUSH1 0x20 MUL PUSH1 0x20 ADD ADD MLOAD SWAP1 POP PUSH1 0x0 PUSH1 0x64 DUP6 DUP5 DUP2 MLOAD DUP2 LT PUSH2 0x21A6 JUMPI PUSH4 0x4E487B71 PUSH1 0xE0 SHL PUSH1 0x0 MSTORE PUSH1 0x32 PUSH1 0x4 MSTORE PUSH1 0x24 PUSH1 0x0 REVERT JUMPDEST PUSH1 0x20 MUL PUSH1 0x20 ADD ADD MLOAD DUP6 PUSH2 0x21B9 SWAP2 SWAP1 PUSH2 0x29E8 JUMP JUMPDEST PUSH2 0x21C3 SWAP2 SWAP1 PUSH2 0x29C8 JUMP JUMPDEST PUSH1 0x40 MLOAD SWAP1 SWAP2 POP PUSH1 0x1 PUSH1 0x1 PUSH1 0xA0 SHL SUB DUP4 AND SWAP1 DUP3 ISZERO PUSH2 0x8FC MUL SWAP1 DUP4 SWAP1 PUSH1 0x0 DUP2 DUP2 DUP2 DUP6 DUP9 DUP9 CALL SWAP4 POP POP POP POP ISZERO DUP1 ISZERO PUSH2 0x21FC JUMPI RETURNDATASIZE PUSH1 0x0 DUP1 RETURNDATACOPY RETURNDATASIZE PUSH1 0x0 REVERT JUMPDEST POP POP POP DUP1 DUP1 PUSH2 0x220A SWAP1 PUSH2 0x2A53 JUMP JUMPDEST SWAP2 POP POP PUSH2 0x214D JUMP JUMPDEST POP POP POP POP JUMP JUMPDEST DUP3 DUP1 SLOAD PUSH2 0x2224 SWAP1 PUSH2 0x2A1E JUMP JUMPDEST SWAP1 PUSH1 0x0 MSTORE PUSH1 0x20 PUSH1 0x0 KECCAK256 SWAP1 PUSH1 0x1F ADD PUSH1 0x20 SWAP1 DIV DUP2 ADD SWAP3 DUP3 PUSH2 0x2246 JUMPI PUSH1 0x0 DUP6 SSTORE PUSH2 0x228C JUMP JUMPDEST DUP3 PUSH1 0x1F LT PUSH2 0x225F JUMPI DUP1 MLOAD PUSH1 0xFF NOT AND DUP4 DUP1 ADD OR DUP6 SSTORE PUSH2 0x228C JUMP JUMPDEST DUP3 DUP1 ADD PUSH1 0x1 ADD DUP6 SSTORE DUP3 ISZERO PUSH2 0x228C JUMPI SWAP2 DUP3 ADD JUMPDEST DUP3 DUP2 GT ISZERO PUSH2 0x228C JUMPI DUP3 MLOAD DUP3 SSTORE SWAP2 PUSH1 0x20 ADD SWAP2 SWAP1 PUSH1 0x1 ADD SWAP1 PUSH2 0x2271 JUMP JUMPDEST POP PUSH2 0x2298 SWAP3 SWAP2 POP PUSH2 0x232B JUMP JUMPDEST POP SWAP1 JUMP JUMPDEST DUP3 DUP1 SLOAD DUP3 DUP3 SSTORE SWAP1 PUSH1 0x0 MSTORE PUSH1 0x20 PUSH1 0x0 KECCAK256 SWAP1 DUP2 ADD SWAP3 DUP3 ISZERO PUSH2 0x228C JUMPI SWAP2 PUSH1 0x20 MUL DUP3 ADD JUMPDEST DUP3 DUP2 GT ISZERO PUSH2 0x228C JUMPI DUP3 MLOAD DUP3 SLOAD PUSH1 0x1 PUSH1 0x1 PUSH1 0xA0 SHL SUB NOT AND PUSH1 0x1 PUSH1 0x1 PUSH1 0xA0 SHL SUB SWAP1 SWAP2 AND OR DUP3 SSTORE PUSH1 0x20 SWAP1 SWAP3 ADD SWAP2 PUSH1 0x1 SWAP1 SWAP2 ADD SWAP1 PUSH2 0x22BC JUMP JUMPDEST DUP3 DUP1 SLOAD DUP3 DUP3 SSTORE SWAP1 PUSH1 0x0 MSTORE PUSH1 0x20 PUSH1 0x0 KECCAK256 SWAP1 DUP2 ADD SWAP3 DUP3 ISZERO PUSH2 0x228C JUMPI SWAP2 PUSH1 0x20 MUL DUP3 ADD DUP3 DUP2 GT ISZERO PUSH2 0x228C JUMPI DUP3 MLOAD DUP3 SSTORE SWAP2 PUSH1 0x20 ADD SWAP2 SWAP1 PUSH1 0x1 ADD SWAP1 PUSH2 0x2271 JUMP JUMPDEST JUMPDEST DUP1 DUP3 GT ISZERO PUSH2 0x2298 JUMPI PUSH1 0x0 DUP2 SSTORE PUSH1 0x1 ADD PUSH2 0x232C JUMP JUMPDEST DUP1 CALLDATALOAD PUSH1 0x1 PUSH1 0x1 PUSH1 0xA0 SHL SUB DUP2 AND DUP2 EQ PUSH2 0x2357 JUMPI PUSH1 0x0 DUP1 REVERT JUMPDEST SWAP2 SWAP1 POP JUMP JUMPDEST PUSH1 0x0 DUP3 PUSH1 0x1F DUP4 ADD SLT PUSH2 0x236C JUMPI DUP1 DUP2 REVERT JUMPDEST DUP2 CALLDATALOAD PUSH1 0x20 PUSH2 0x2381 PUSH2 0x237C DUP4 PUSH2 0x298C JUMP JUMPDEST PUSH2 0x295B JUMP JUMPDEST DUP1 DUP4 DUP3 MSTORE DUP3 DUP3 ADD SWAP2 POP DUP3 DUP7 ADD DUP8 DUP5 DUP7 PUSH1 0x5 SHL DUP10 ADD ADD GT ISZERO PUSH2 0x23A0 JUMPI DUP6 DUP7 REVERT JUMPDEST DUP6 JUMPDEST DUP6 DUP2 LT ISZERO PUSH2 0x23C5 JUMPI PUSH2 0x23B3 DUP3 PUSH2 0x2340 JUMP JUMPDEST DUP5 MSTORE SWAP3 DUP5 ADD SWAP3 SWAP1 DUP5 ADD SWAP1 PUSH1 0x1 ADD PUSH2 0x23A2 JUMP JUMPDEST POP SWAP1 SWAP8 SWAP7 POP POP POP POP POP POP POP JUMP JUMPDEST PUSH1 0x0 DUP3 PUSH1 0x1F DUP4 ADD SLT PUSH2 0x23E2 JUMPI DUP1 DUP2 REVERT JUMPDEST DUP2 CALLDATALOAD PUSH1 0x20 PUSH2 0x23F2 PUSH2 0x237C DUP4 PUSH2 0x298C JUMP JUMPDEST DUP1 DUP4 DUP3 MSTORE DUP3 DUP3 ADD SWAP2 POP DUP3 DUP7 ADD DUP8 DUP5 DUP7 PUSH1 0x5 SHL DUP10 ADD ADD GT ISZERO PUSH2 0x2411 JUMPI DUP6 DUP7 REVERT JUMPDEST DUP6 JUMPDEST DUP6 DUP2 LT ISZERO PUSH2 0x23C5 JUMPI DUP2 CALLDATALOAD DUP5 MSTORE SWAP3 DUP5 ADD SWAP3 SWAP1 DUP5 ADD SWAP1 PUSH1 0x1 ADD PUSH2 0x2413 JUMP JUMPDEST PUSH1 0x0 DUP3 PUSH1 0x1F DUP4 ADD SLT PUSH2 0x243F JUMPI DUP1 DUP2 REVERT JUMPDEST DUP2 CALLDATALOAD PUSH8 0xFFFFFFFFFFFFFFFF DUP2 GT ISZERO PUSH2 0x2459 JUMPI PUSH2 0x2459 PUSH2 0x2A84 JUMP JUMPDEST PUSH2 0x246C PUSH1 0x1F DUP3 ADD PUSH1 0x1F NOT AND PUSH1 0x20 ADD PUSH2 0x295B JUMP JUMPDEST DUP2 DUP2 MSTORE DUP5 PUSH1 0x20 DUP4 DUP7 ADD ADD GT ISZERO PUSH2 0x2480 JUMPI DUP3 DUP4 REVERT JUMPDEST DUP2 PUSH1 0x20 DUP6 ADD PUSH1 0x20 DUP4 ADD CALLDATACOPY SWAP1 DUP2 ADD PUSH1 0x20 ADD SWAP2 SWAP1 SWAP2 MSTORE SWAP3 SWAP2 POP POP JUMP JUMPDEST PUSH1 0x0 PUSH1 0x20 DUP3 DUP5 SUB SLT ISZERO PUSH2 0x24AB JUMPI DUP1 DUP2 REVERT JUMPDEST PUSH2 0x24B4 DUP3 PUSH2 0x2340 JUMP JUMPDEST SWAP4 SWAP3 POP POP POP JUMP JUMPDEST PUSH1 0x0 DUP1 PUSH1 0x0 DUP1 PUSH1 0x0 DUP1 PUSH1 0x0 PUSH1 0xE0 DUP9 DUP11 SUB SLT ISZERO PUSH2 0x24D5 JUMPI DUP3 DUP4 REVERT JUMPDEST DUP8 CALLDATALOAD PUSH8 0xFFFFFFFFFFFFFFFF DUP1 DUP3 GT ISZERO PUSH2 0x24EC JUMPI DUP5 DUP6 REVERT JUMPDEST PUSH2 0x24F8 DUP12 DUP4 DUP13 ADD PUSH2 0x242F JUMP JUMPDEST SWAP9 POP PUSH2 0x2506 PUSH1 0x20 DUP12 ADD PUSH2 0x2340 JUMP JUMPDEST SWAP8 POP PUSH1 0x40 DUP11 ADD CALLDATALOAD SWAP2 POP DUP1 DUP3 GT ISZERO PUSH2 0x251B JUMPI DUP5 DUP6 REVERT JUMPDEST PUSH2 0x2527 DUP12 DUP4 DUP13 ADD PUSH2 0x242F JUMP JUMPDEST SWAP7 POP PUSH1 0x60 DUP11 ADD CALLDATALOAD SWAP2 POP DUP1 DUP3 GT ISZERO PUSH2 0x253C JUMPI DUP5 DUP6 REVERT JUMPDEST PUSH2 0x2548 DUP12 DUP4 DUP13 ADD PUSH2 0x242F JUMP JUMPDEST SWAP6 POP PUSH1 0x80 DUP11 ADD CALLDATALOAD SWAP5 POP PUSH1 0xA0 DUP11 ADD CALLDATALOAD SWAP2 POP DUP1 DUP3 GT ISZERO PUSH2 0x2564 JUMPI DUP4 DUP5 REVERT JUMPDEST PUSH2 0x2570 DUP12 DUP4 DUP13 ADD PUSH2 0x235C JUMP JUMPDEST SWAP4 POP PUSH1 0xC0 DUP11 ADD CALLDATALOAD SWAP2 POP DUP1 DUP3 GT ISZERO PUSH2 0x2585 JUMPI DUP3 DUP4 REVERT JUMPDEST POP PUSH2 0x2592 DUP11 DUP3 DUP12 ADD PUSH2 0x23D2 JUMP JUMPDEST SWAP2 POP POP SWAP3 SWAP6 SWAP9 SWAP2 SWAP5 SWAP8 POP SWAP3 SWAP6 POP JUMP JUMPDEST PUSH1 0x0 PUSH1 0x20 DUP3 DUP5 SUB SLT ISZERO PUSH2 0x25B2 JUMPI DUP1 DUP2 REVERT JUMPDEST POP CALLDATALOAD SWAP2 SWAP1 POP JUMP JUMPDEST PUSH1 0x0 DUP1 PUSH1 0x40 DUP4 DUP6 SUB SLT ISZERO PUSH2 0x25CB JUMPI DUP2 DUP3 REVERT JUMPDEST POP POP DUP1 CALLDATALOAD SWAP3 PUSH1 0x20 SWAP1 SWAP2 ADD CALLDATALOAD SWAP2 POP JUMP JUMPDEST PUSH1 0x0 DUP2 MLOAD DUP1 DUP5 MSTORE PUSH1 0x20 DUP1 DUP6 ADD SWAP5 POP DUP1 DUP5 ADD DUP4 JUMPDEST DUP4 DUP2 LT ISZERO PUSH2 0x2612 JUMPI DUP2 MLOAD PUSH1 0x1 PUSH1 0x1 PUSH1 0xA0 SHL SUB AND DUP8 MSTORE SWAP6 DUP3 ADD SWAP6 SWAP1 DUP3 ADD SWAP1 PUSH1 0x1 ADD PUSH2 0x25ED JUMP JUMPDEST POP SWAP5 SWAP6 SWAP5 POP POP POP POP POP JUMP JUMPDEST PUSH1 0x0 DUP2 MLOAD DUP1 DUP5 MSTORE PUSH1 0x20 DUP1 DUP6 ADD SWAP5 POP DUP1 DUP5 ADD DUP4 JUMPDEST DUP4 DUP2 LT ISZERO PUSH2 0x2612 JUMPI DUP2 MLOAD DUP8 MSTORE SWAP6 DUP3 ADD SWAP6 SWAP1 DUP3 ADD SWAP1 PUSH1 0x1 ADD PUSH2 0x2630 JUMP JUMPDEST PUSH1 0x0 DUP2 MLOAD DUP1 DUP5 MSTORE DUP2 JUMPDEST DUP2 DUP2 LT ISZERO PUSH2 0x2671 JUMPI PUSH1 0x20 DUP2 DUP6 ADD DUP2 ADD MLOAD DUP7 DUP4 ADD DUP3 ADD MSTORE ADD PUSH2 0x2655 JUMP JUMPDEST DUP2 DUP2 GT ISZERO PUSH2 0x2682 JUMPI DUP3 PUSH1 0x20 DUP4 DUP8 ADD ADD MSTORE JUMPDEST POP PUSH1 0x1F ADD PUSH1 0x1F NOT AND SWAP3 SWAP1 SWAP3 ADD PUSH1 0x20 ADD SWAP3 SWAP2 POP POP JUMP JUMPDEST PUSH1 0x20 DUP2 MSTORE PUSH1 0x0 PUSH2 0x24B4 PUSH1 0x20 DUP4 ADD DUP5 PUSH2 0x261D JUMP JUMPDEST PUSH1 0x20 DUP1 DUP3 MSTORE PUSH1 0x14 SWAP1 DUP3 ADD MSTORE PUSH20 0x105B189D5B48191BD95CC81B9BDD08195E1A5CDD PUSH1 0x62 SHL PUSH1 0x40 DUP3 ADD MSTORE PUSH1 0x60 ADD SWAP1 JUMP JUMPDEST PUSH1 0x20 DUP1 DUP3 MSTORE PUSH1 0x14 SWAP1 DUP3 ADD MSTORE PUSH20 0x151C9858DAC8191BD95CC81B9BDD08195E1A5CDD PUSH1 0x62 SHL PUSH1 0x40 DUP3 ADD MSTORE PUSH1 0x60 ADD SWAP1 JUMP JUMPDEST PUSH1 0x20 DUP2 MSTORE DUP2 MLOAD PUSH1 0x20 DUP3 ADD MSTORE PUSH1 0x0 PUSH1 0x20 DUP4 ADD MLOAD PUSH2 0x160 DUP1 PUSH1 0x40 DUP6 ADD MSTORE PUSH2 0x272F PUSH2 0x180 DUP6 ADD DUP4 PUSH2 0x264C JUMP JUMPDEST SWAP2 POP PUSH1 0x40 DUP6 ADD MLOAD PUSH2 0x274B PUSH1 0x60 DUP7 ADD DUP3 PUSH1 0x1 PUSH1 0x1 PUSH1 0xA0 SHL SUB AND SWAP1 MSTORE JUMP JUMPDEST POP PUSH1 0x60 DUP6 ADD MLOAD PUSH1 0x1F NOT DUP1 DUP7 DUP6 SUB ADD PUSH1 0x80 DUP8 ADD MSTORE PUSH2 0x2768 DUP5 DUP4 PUSH2 0x264C JUMP JUMPDEST SWAP4 POP PUSH1 0x80 DUP8 ADD MLOAD SWAP2 POP DUP1 DUP7 DUP6 SUB ADD PUSH1 0xA0 DUP8 ADD MSTORE PUSH2 0x2785 DUP5 DUP4 PUSH2 0x264C JUMP JUMPDEST SWAP4 POP PUSH1 0xA0 DUP8 ADD MLOAD PUSH1 0xC0 DUP8 ADD MSTORE PUSH1 0xC0 DUP8 ADD MLOAD PUSH1 0xE0 DUP8 ADD MSTORE PUSH1 0xE0 DUP8 ADD MLOAD SWAP2 POP PUSH2 0x100 DUP3 DUP2 DUP9 ADD MSTORE DUP1 DUP9 ADD MLOAD SWAP3 POP POP PUSH2 0x120 DUP2 DUP8 DUP7 SUB ADD DUP2 DUP9 ADD MSTORE PUSH2 0x27C7 DUP6 DUP5 PUSH2 0x261D JUMP JUMPDEST SWAP5 POP DUP1 DUP9 ADD MLOAD SWAP3 POP POP PUSH2 0x140 DUP2 DUP8 DUP7 SUB ADD DUP2 DUP9 ADD MSTORE PUSH2 0x27E6 DUP6 DUP5 PUSH2 0x25DA JUMP JUMPDEST SWAP1 DUP9 ADD MLOAD DUP8 DUP3 SUB SWAP1 SWAP3 ADD DUP5 DUP9 ADD MSTORE SWAP4 POP SWAP1 POP PUSH2 0x2802 DUP4 DUP3 PUSH2 0x261D JUMP JUMPDEST SWAP7 SWAP6 POP POP POP POP POP POP JUMP JUMPDEST PUSH1 0x20 DUP2 MSTORE DUP2 MLOAD PUSH1 0x20 DUP3 ADD MSTORE PUSH1 0x0 PUSH1 0x20 DUP4 ADD MLOAD PUSH2 0x140 DUP1 PUSH1 0x40 DUP6 ADD MSTORE PUSH2 0x2835 PUSH2 0x160 DUP6 ADD DUP4 PUSH2 0x264C JUMP JUMPDEST SWAP2 POP PUSH1 0x40 DUP6 ADD MLOAD PUSH2 0x2851 PUSH1 0x60 DUP7 ADD DUP3 PUSH1 0x1 PUSH1 0x1 PUSH1 0xA0 SHL SUB AND SWAP1 MSTORE JUMP JUMPDEST POP PUSH1 0x60 DUP6 ADD MLOAD PUSH1 0x1F NOT DUP1 DUP7 DUP6 SUB ADD PUSH1 0x80 DUP8 ADD MSTORE PUSH2 0x286E DUP5 DUP4 PUSH2 0x264C JUMP JUMPDEST SWAP4 POP PUSH1 0x80 DUP8 ADD MLOAD SWAP2 POP DUP1 DUP7 DUP6 SUB ADD PUSH1 0xA0 DUP8 ADD MSTORE PUSH2 0x288B DUP5 DUP4 PUSH2 0x264C JUMP JUMPDEST SWAP4 POP PUSH1 0xA0 DUP8 ADD MLOAD PUSH1 0xC0 DUP8 ADD MSTORE PUSH1 0xC0 DUP8 ADD MLOAD PUSH1 0xE0 DUP8 ADD MSTORE PUSH1 0xE0 DUP8 ADD MLOAD SWAP2 POP PUSH2 0x100 DUP3 DUP2 DUP9 ADD MSTORE DUP1 DUP9 ADD MLOAD SWAP3 POP POP PUSH2 0x120 DUP2 DUP8 DUP7 SUB ADD DUP2 DUP9 ADD MSTORE PUSH2 0x27E6 DUP6 DUP5 PUSH2 0x25DA JUMP JUMPDEST PUSH1 0x0 PUSH2 0x100 DUP11 DUP4 MSTORE DUP1 PUSH1 0x20 DUP5 ADD MSTORE PUSH2 0x28E7 DUP2 DUP5 ADD DUP12 PUSH2 0x264C JUMP JUMPDEST PUSH1 0x1 PUSH1 0x1 PUSH1 0xA0 SHL SUB DUP11 AND PUSH1 0x40 DUP6 ADD MSTORE DUP4 DUP2 SUB PUSH1 0x60 DUP6 ADD MSTORE SWAP1 POP PUSH2 0x290A DUP2 DUP10 PUSH2 0x264C JUMP JUMPDEST SWAP1 POP DUP3 DUP2 SUB PUSH1 0x80 DUP5 ADD MSTORE PUSH2 0x291E DUP2 DUP9 PUSH2 0x264C JUMP JUMPDEST SWAP1 POP DUP6 PUSH1 0xA0 DUP5 ADD MSTORE DUP3 DUP2 SUB PUSH1 0xC0 DUP5 ADD MSTORE PUSH2 0x2938 DUP2 DUP7 PUSH2 0x25DA JUMP JUMPDEST SWAP1 POP DUP3 DUP2 SUB PUSH1 0xE0 DUP5 ADD MSTORE PUSH2 0x294C DUP2 DUP6 PUSH2 0x261D JUMP JUMPDEST SWAP12 SWAP11 POP POP POP POP POP POP POP POP POP POP POP JUMP JUMPDEST PUSH1 0x40 MLOAD PUSH1 0x1F DUP3 ADD PUSH1 0x1F NOT AND DUP2 ADD PUSH8 0xFFFFFFFFFFFFFFFF DUP2 GT DUP3 DUP3 LT OR ISZERO PUSH2 0x2984 JUMPI PUSH2 0x2984 PUSH2 0x2A84 JUMP JUMPDEST PUSH1 0x40 MSTORE SWAP2 SWAP1 POP JUMP JUMPDEST PUSH1 0x0 PUSH8 0xFFFFFFFFFFFFFFFF DUP3 GT ISZERO PUSH2 0x29A6 JUMPI PUSH2 0x29A6 PUSH2 0x2A84 JUMP JUMPDEST POP PUSH1 0x5 SHL PUSH1 0x20 ADD SWAP1 JUMP JUMPDEST PUSH1 0x0 DUP3 NOT DUP3 GT ISZERO PUSH2 0x29C3 JUMPI PUSH2 0x29C3 PUSH2 0x2A6E JUMP JUMPDEST POP ADD SWAP1 JUMP JUMPDEST PUSH1 0x0 DUP3 PUSH2 0x29E3 JUMPI PUSH4 0x4E487B71 PUSH1 0xE0 SHL DUP2 MSTORE PUSH1 0x12 PUSH1 0x4 MSTORE PUSH1 0x24 DUP2 REVERT JUMPDEST POP DIV SWAP1 JUMP JUMPDEST PUSH1 0x0 DUP2 PUSH1 0x0 NOT DIV DUP4 GT DUP3 ISZERO ISZERO AND ISZERO PUSH2 0x2A02 JUMPI PUSH2 0x2A02 PUSH2 0x2A6E JUMP JUMPDEST POP MUL SWAP1 JUMP JUMPDEST PUSH1 0x0 DUP3 DUP3 LT ISZERO PUSH2 0x2A19 JUMPI PUSH2 0x2A19 PUSH2 0x2A6E JUMP JUMPDEST POP SUB SWAP1 JUMP JUMPDEST PUSH1 0x1 DUP2 DUP2 SHR SWAP1 DUP3 AND DUP1 PUSH2 0x2A32 JUMPI PUSH1 0x7F DUP3 AND SWAP2 POP JUMPDEST PUSH1 0x20 DUP3 LT DUP2 EQ ISZERO PUSH2 0x745 JUMPI PUSH4 0x4E487B71 PUSH1 0xE0 SHL PUSH1 0x0 MSTORE PUSH1 0x22 PUSH1 0x4 MSTORE PUSH1 0x24 PUSH1 0x0 REVERT JUMPDEST PUSH1 0x0 PUSH1 0x0 NOT DUP3 EQ ISZERO PUSH2 0x2A67 JUMPI PUSH2 0x2A67 PUSH2 0x2A6E JUMP JUMPDEST POP PUSH1 0x1 ADD SWAP1 JUMP JUMPDEST PUSH4 0x4E487B71 PUSH1 0xE0 SHL PUSH1 0x0 MSTORE PUSH1 0x11 PUSH1 0x4 MSTORE PUSH1 0x24 PUSH1 0x0 REVERT JUMPDEST PUSH4 0x4E487B71 PUSH1 0xE0 SHL PUSH1 0x0 MSTORE PUSH1 0x41 PUSH1 0x4 MSTORE PUSH1 0x24 PUSH1 0x0 REVERT INVALID LOG2 PUSH5 0x6970667358 0x22 SLT KECCAK256 STOP PC 0xB2 PUSH4 0x8F6B21E7 RETURNDATACOPY 0x4E CHAINID LOG3 PUSH9 0xBB0496AA0ECB30DFD3 0xE CALL 0xDA SAR 0xAD DUP8 SAR PUSH28 0x821364736F6C63430008040033000000000000000000000000000000 "},"methodIdentifiers":{"addAlbum(string,address,string,string,uint256,address[],uint256[])":"d53f2baa","addTrack(string,address,string,string,uint256,address[],uint256[])":"245d1558","addTrackToAlbum(uint256,uint256)":"0021991e","getAlbum(uint256)":"d6e465c9","getArtistBalance(address)":"f4ce0f86","getTotalAlbumAmount(address)":"8d59f7e2","getTotalAlbumStreams(address)":"c103351f","getTotalTrackAmount(address)":"5d0650b4","getTotalTrackStreams(address)":"76dde21b","getTrack(uint256)":"629058ca","getUserPurchasedAlbums(address)":"1d29d599","getUserPurchasedTracks(address)":"acff110e","listAlbumsByArtist(address)":"efb78308","listAllAlbums()":"2cdfb61f","listAllTracks()":"6456b79a","listTracksByArtist(address)":"6850a7e3","purchaseAlbum(uint256)":"ea981775","purchaseTrack(uint256)":"9edc858c","streamAlbum(uint256)":"40d1e240","streamTrack(uint256)":"8ef8b386"}}}}}