{
  "_format": "hh-sol-artifact-1",
  "contractName": "Deyplay",
  "sourceName": "contracts/Deyplay.sol",
  "abi": [
    {
      "anonymous": false,
      "inputs": [
        {
          "indexed": false,
          "internalType": "uint256",
          "name": "id",
          "type": "uint256"
        },
        {
          "indexed": false,
          "internalType": "string",
          "name": "title",
          "type": "string"
        },
        {
          "indexed": false,
          "internalType": "string",
          "name": "description",
          "type": "string"
        },
        {
          "indexed": false,
          "internalType": "address",
          "name": "artist",
          "type": "address"
        },
        {
          "indexed": false,
          "internalType": "string",
          "name": "imageUrl",
          "type": "string"
        },
        {
          "indexed": false,
          "internalType": "string",
          "name": "audioFile",
          "type": "string"
        },
        {
          "indexed": false,
          "internalType": "uint256",
          "name": "price",
          "type": "uint256"
        },
        {
          "indexed": false,
          "internalType": "uint256",
          "name": "streamAmount",
          "type": "uint256"
        },
        {
          "indexed": false,
          "internalType": "address[]",
          "name": "royaltiesOwners",
          "type": "address[]"
        },
        {
          "indexed": false,
          "internalType": "uint256[]",
          "name": "royaltiesPercentages",
          "type": "uint256[]"
        }
      ],
      "name": "TrackCreated",
      "type": "event"
    },
    {
      "anonymous": false,
      "inputs": [
        {
          "indexed": false,
          "internalType": "uint256",
          "name": "trackId",
          "type": "uint256"
        },
        {
          "indexed": false,
          "internalType": "address",
          "name": "buyer",
          "type": "address"
        },
        {
          "indexed": false,
          "internalType": "uint256",
          "name": "amount",
          "type": "uint256"
        }
      ],
      "name": "TrackPurchased",
      "type": "event"
    },
    {
      "anonymous": false,
      "inputs": [
        {
          "indexed": false,
          "internalType": "uint256",
          "name": "trackId",
          "type": "uint256"
        },
        {
          "indexed": false,
          "internalType": "address",
          "name": "listener",
          "type": "address"
        },
        {
          "indexed": false,
          "internalType": "uint256",
          "name": "amount",
          "type": "uint256"
        }
      ],
      "name": "TrackStreamed",
      "type": "event"
    },
    {
      "inputs": [
        {
          "internalType": "string",
          "name": "_title",
          "type": "string"
        },
        {
          "internalType": "string",
          "name": "_description",
          "type": "string"
        },
        {
          "internalType": "address",
          "name": "_artist",
          "type": "address"
        },
        {
          "internalType": "string",
          "name": "_imageUrl",
          "type": "string"
        },
        {
          "internalType": "string",
          "name": "_audioFile",
          "type": "string"
        },
        {
          "internalType": "uint256",
          "name": "_price",
          "type": "uint256"
        },
        {
          "internalType": "uint256",
          "name": "_streamAmount",
          "type": "uint256"
        },
        {
          "internalType": "address[]",
          "name": "_royaltiesOwners",
          "type": "address[]"
        },
        {
          "internalType": "uint256[]",
          "name": "_royaltiesPercentages",
          "type": "uint256[]"
        }
      ],
      "name": "addTrack",
      "outputs": [],
      "stateMutability": "nonpayable",
      "type": "function"
    },
    {
      "inputs": [
        {
          "internalType": "address",
          "name": "_artist",
          "type": "address"
        }
      ],
      "name": "getArtistBalance",
      "outputs": [
        {
          "internalType": "uint256",
          "name": "",
          "type": "uint256"
        }
      ],
      "stateMutability": "view",
      "type": "function"
    },
    {
      "inputs": [
        {
          "internalType": "address",
          "name": "_artist",
          "type": "address"
        }
      ],
      "name": "getTotalTrackAmount",
      "outputs": [
        {
          "internalType": "uint256",
          "name": "",
          "type": "uint256"
        }
      ],
      "stateMutability": "view",
      "type": "function"
    },
    {
      "inputs": [
        {
          "internalType": "address",
          "name": "_artist",
          "type": "address"
        }
      ],
      "name": "getTotalTrackStreams",
      "outputs": [
        {
          "internalType": "uint256",
          "name": "",
          "type": "uint256"
        }
      ],
      "stateMutability": "view",
      "type": "function"
    },
    {
      "inputs": [
        {
          "internalType": "address",
          "name": "_artist",
          "type": "address"
        }
      ],
      "name": "getTotalTracksPurchasedFromArtist",
      "outputs": [
        {
          "internalType": "uint256",
          "name": "",
          "type": "uint256"
        }
      ],
      "stateMutability": "view",
      "type": "function"
    },
    {
      "inputs": [
        {
          "internalType": "address",
          "name": "_artist",
          "type": "address"
        }
      ],
      "name": "getTotalTracksUploadedByArtist",
      "outputs": [
        {
          "internalType": "uint256",
          "name": "",
          "type": "uint256"
        }
      ],
      "stateMutability": "view",
      "type": "function"
    },
    {
      "inputs": [
        {
          "internalType": "uint256",
          "name": "_trackId",
          "type": "uint256"
        }
      ],
      "name": "getTrack",
      "outputs": [
        {
          "components": [
            {
              "internalType": "uint256",
              "name": "id",
              "type": "uint256"
            },
            {
              "internalType": "string",
              "name": "title",
              "type": "string"
            },
            {
              "internalType": "string",
              "name": "description",
              "type": "string"
            },
            {
              "internalType": "address",
              "name": "artist",
              "type": "address"
            },
            {
              "internalType": "string",
              "name": "imageUrl",
              "type": "string"
            },
            {
              "internalType": "string",
              "name": "audioFile",
              "type": "string"
            },
            {
              "internalType": "uint256",
              "name": "price",
              "type": "uint256"
            },
            {
              "internalType": "uint256",
              "name": "totalStreams",
              "type": "uint256"
            },
            {
              "internalType": "uint256",
              "name": "totalPurchases",
              "type": "uint256"
            },
            {
              "internalType": "uint256",
              "name": "streamAmount",
              "type": "uint256"
            },
            {
              "internalType": "address[]",
              "name": "royaltiesOwners",
              "type": "address[]"
            },
            {
              "internalType": "uint256[]",
              "name": "royaltiesPercentages",
              "type": "uint256[]"
            }
          ],
          "internalType": "struct Deyplay.Track",
          "name": "",
          "type": "tuple"
        }
      ],
      "stateMutability": "view",
      "type": "function"
    },
    {
      "inputs": [
        {
          "internalType": "address",
          "name": "_user",
          "type": "address"
        }
      ],
      "name": "getUserPurchasedTracks",
      "outputs": [
        {
          "internalType": "uint256[]",
          "name": "",
          "type": "uint256[]"
        }
      ],
      "stateMutability": "view",
      "type": "function"
    },
    {
      "inputs": [],
      "name": "listAllTracks",
      "outputs": [
        {
          "internalType": "uint256[]",
          "name": "",
          "type": "uint256[]"
        }
      ],
      "stateMutability": "view",
      "type": "function"
    },
    {
      "inputs": [
        {
          "internalType": "address",
          "name": "_artist",
          "type": "address"
        }
      ],
      "name": "listTracksByArtist",
      "outputs": [
        {
          "internalType": "uint256[]",
          "name": "",
          "type": "uint256[]"
        }
      ],
      "stateMutability": "view",
      "type": "function"
    },
    {
      "inputs": [
        {
          "internalType": "uint256",
          "name": "_trackId",
          "type": "uint256"
        }
      ],
      "name": "purchaseTrack",
      "outputs": [],
      "stateMutability": "payable",
      "type": "function"
    },
    {
      "inputs": [
        {
          "internalType": "uint256",
          "name": "_trackId",
          "type": "uint256"
        }
      ],
      "name": "streamTrack",
      "outputs": [],
      "stateMutability": "payable",
      "type": "function"
    }
  ],
  "bytecode": "0x608060405234801561001057600080fd5b50611bd7806100206000396000f3fe6080604052600436106100a75760003560e01c806376dde21b1161006457806376dde21b146101905780638ef8b386146101b05780639edc858c146101c3578063acff110e146101d6578063decdbb2b146101f6578063f4ce0f861461021657600080fd5b80630d546dcc146100ac57806338baaadb146100df5780635d0650b414610101578063629058ca146101215780636456b79a1461014e5780636850a7e314610170575b600080fd5b3480156100b857600080fd5b506100cc6100c7366004611652565b61024c565b6040519081526020015b60405180910390f35b3480156100eb57600080fd5b506100ff6100fa366004611673565b6102a7565b005b34801561010d57600080fd5b506100cc61011c366004611652565b61048c565b34801561012d57600080fd5b5061014161013c366004611787565b610502565b6040516100d6919061189d565b34801561015a57600080fd5b50610163610913565b6040516100d6919061185c565b34801561017c57600080fd5b5061016361018b366004611652565b6109d1565b34801561019c57600080fd5b506100cc6101ab366004611652565b610ac1565b6100ff6101be366004611787565b610b26565b6100ff6101d1366004611787565b610df0565b3480156101e257600080fd5b506101636101f1366004611652565b6110d7565b34801561020257600080fd5b506100cc610211366004611652565b611143565b34801561022257600080fd5b506100cc610231366004611652565b6001600160a01b031660009081526003602052604090205490565b60008060015b60005481116102a0576000818152600160205260409020600301546001600160a01b038581169116141561028e578161028a81611b5a565b9250505b8061029881611b5a565b915050610252565b5092915050565b6000805490806102b683611b5a565b919050555060405180610180016040528060005481526020018a8152602001898152602001886001600160a01b0316815260200187815260200186815260200185815260200160008152602001600081526020018481526020018381526020018281525060016000805481526020019081526020016000206000820151816000015560208201518160010190805190602001906103549291906113d0565b50604082015180516103709160028401916020909101906113d0565b5060608201516003820180546001600160a01b0319166001600160a01b03909216919091179055608082015180516103b29160048401916020909101906113d0565b5060a082015180516103ce9160058401916020909101906113d0565b5060c0820151600682015560e0820151600782015561010082015160088201556101208201516009820155610140820151805161041591600a840191602090910190611454565b50610160820151805161043291600b8401916020909101906114a9565b509050507f912bce95a397f13d435cf205593a32fe94abf42a4a4b7399046f0cc47bc8dc1f6000548a8a8a8a8a8a8a8a8a6040516104799a999897969594939291906119b6565b60405180910390a1505050505050505050565b60008060015b60005481116102a0576000818152600160205260409020600301546001600160a01b03858116911614156104f057600081815260016020526040902060068101546008909101546104e39190611aef565b6104ed9083611ab7565b91505b806104fa81611b5a565b915050610492565b61056f60405180610180016040528060008152602001606081526020016060815260200160006001600160a01b0316815260200160608152602001606081526020016000815260200160008152602001600081526020016000815260200160608152602001606081525090565b8160008111801561058257506000548111155b6105a75760405162461bcd60e51b815260040161059e9061186f565b60405180910390fd5b60008381526001602081815260409283902083516101808101909452805484529182018054918401916105d990611b25565b80601f016020809104026020016040519081016040528092919081815260200182805461060590611b25565b80156106525780601f1061062757610100808354040283529160200191610652565b820191906000526020600020905b81548152906001019060200180831161063557829003601f168201915b5050505050815260200160028201805461066b90611b25565b80601f016020809104026020016040519081016040528092919081815260200182805461069790611b25565b80156106e45780601f106106b9576101008083540402835291602001916106e4565b820191906000526020600020905b8154815290600101906020018083116106c757829003601f168201915b505050918352505060038201546001600160a01b0316602082015260048201805460409092019161071490611b25565b80601f016020809104026020016040519081016040528092919081815260200182805461074090611b25565b801561078d5780601f106107625761010080835404028352916020019161078d565b820191906000526020600020905b81548152906001019060200180831161077057829003601f168201915b505050505081526020016005820180546107a690611b25565b80601f01602080910402602001604051908101604052809291908181526020018280546107d290611b25565b801561081f5780601f106107f45761010080835404028352916020019161081f565b820191906000526020600020905b81548152906001019060200180831161080257829003601f168201915b5050505050815260200160068201548152602001600782015481526020016008820154815260200160098201548152602001600a82018054806020026020016040519081016040528092919081815260200182805480156108a957602002820191906000526020600020905b81546001600160a01b0316815260019091019060200180831161088b575b50505050508152602001600b820180548060200260200160405190810160405280929190818152602001828054801561090157602002820191906000526020600020905b8154815260200190600101908083116108ed575b50505050508152505091505b50919050565b60606000805467ffffffffffffffff81111561093f57634e487b7160e01b600052604160045260246000fd5b604051908082528060200260200182016040528015610968578160200160208202803683370190505b50905060015b600054811161090d576000818152600160208190526040909120549083906109969084611b0e565b815181106109b457634e487b7160e01b600052603260045260246000fd5b6020908102919091010152806109c981611b5a565b91505061096e565b60606000805467ffffffffffffffff8111156109fd57634e487b7160e01b600052604160045260246000fd5b604051908082528060200260200182016040528015610a26578160200160208202803683370190505b509050600060015b6000548111610ab8576000818152600160205260409020600301546001600160a01b0386811691161415610aa6576000818152600160205260409020548351849084908110610a8d57634e487b7160e01b600052603260045260246000fd5b602090810291909101015281610aa281611b5a565b9250505b80610ab081611b5a565b915050610a2e565b50909392505050565b60008060015b60005481116102a0576000818152600160205260409020600301546001600160a01b0385811691161415610b1457600081815260016020526040902060070154610b119083611ab7565b91505b80610b1e81611b5a565b915050610ac7565b80600081118015610b3957506000548111155b610b555760405162461bcd60e51b815260040161059e9061186f565b60008281526001602052604090206009810154341015610bc85760405162461bcd60e51b815260206004820152602860248201527f496e73756666696369656e74207061796d656e7420746f2073747265616d2074604482015267686520747261636b60c01b606482015260840161059e565b6000610c87826009015483600a01805480602002602001604051908101604052809291908181526020018280548015610c2a57602002820191906000526020600020905b81546001600160a01b03168152600190910190602001808311610c0c575b505050505084600b01805480602002602001604051908101604052809291908181526020018280548015610c7d57602002820191906000526020600020905b815481526020019060010190808311610c69575b5050505050611227565b90506000818360090154610c9b9190611b0e565b6007840180549192506000610caf83611b5a565b90915550506003838101546001600160a01b03166000908152602091909152604081208054839290610ce2908490611ab7565b92505081905550610da283600a01805480602002602001604051908101604052809291908181526020018280548015610d4457602002820191906000526020600020905b81546001600160a01b03168152600190910190602001808311610d26575b505050505084600b01805480602002602001604051908101604052809291908181526020018280548015610d9757602002820191906000526020600020905b815481526020019060010190808311610d83575b50505050508461129b565b600983015460408051878152336020820152908101919091527fa8ff0760db1bd134bec00c7f599e3d73ad185cfc7dd4c313b1ccfc4bd9594737906060015b60405180910390a15050505050565b80600081118015610e0357506000548111155b610e1f5760405162461bcd60e51b815260040161059e9061186f565b60008281526001602052604090206006810154341015610e945760405162461bcd60e51b815260206004820152602a60248201527f496e73756666696369656e74207061796d656e7420746f2070757263686173656044820152692074686520747261636b60b01b606482015260840161059e565b6000610f4f826006015483600a01805480602002602001604051908101604052809291908181526020018280548015610c2a576020028201919060005260206000209081546001600160a01b03168152600190910190602001808311610c0c57505050505084600b01805480602002602001604051908101604052809291908181526020018280548015610c7d5760200282019190600052602060002090815481526020019060010190808311610c69575050505050611227565b90506000818360060154610f639190611b0e565b6008840180549192506000610f7783611b5a565b90915550506003838101546001600160a01b03166000908152602091909152604081208054839290610faa908490611ab7565b9250508190555061106683600a01805480602002602001604051908101604052809291908181526020018280548015610d44576020028201919060005260206000209081546001600160a01b03168152600190910190602001808311610d2657505050505084600b01805480602002602001604051908101604052809291908181526020018280548015610d975760200282019190600052602060002090815481526020019060010190808311610d835750505050508461129b565b33600081815260026020908152604080832080546001810182559084529190922001879055600685015490517ffe3f9af2d0ba5be4687ca774df8206ec9cf7919bcf32bd9c76b051e5dfbbb5b492610de1928983526001600160a01b03919091166020830152604082015260600190565b6001600160a01b03811660009081526002602090815260409182902080548351818402810184019094528084526060939283018282801561113757602002820191906000526020600020905b815481526020019060010190808311611123575b50505050509050919050565b33600090815260026020908152604080832080548251818502810185019093528083528493849392919083018282801561119c57602002820191906000526020600020905b815481526020019060010190808311611188575b5050505050905060005b8151811015610ab85760008282815181106111d157634e487b7160e01b600052603260045260246000fd5b602090810291909101810151600081815260019092526040909120600301549091506001600160a01b0387811691161415611214578361121081611b5a565b9450505b508061121f81611b5a565b9150506111a6565b600080805b845181101561129257606484828151811061125757634e487b7160e01b600052603260045260246000fd5b60200260200101518761126a9190611aef565b6112749190611acf565b61127e9083611ab7565b91508061128a81611b5a565b91505061122c565b50949350505050565b81518351146113025760405162461bcd60e51b815260206004820152602d60248201527f4f776e65727320616e642070657263656e746167657320617272617973206c6560448201526c0dccee8d040dad2e6dac2e8c6d609b1b606482015260840161059e565b60005b83518110156113ca57600084828151811061133057634e487b7160e01b600052603260045260246000fd5b602002602001015190506000606485848151811061135e57634e487b7160e01b600052603260045260246000fd5b6020026020010151856113719190611aef565b61137b9190611acf565b6040519091506001600160a01b0383169082156108fc029083906000818181858888f193505050501580156113b4573d6000803e3d6000fd5b50505080806113c290611b5a565b915050611305565b50505050565b8280546113dc90611b25565b90600052602060002090601f0160209004810192826113fe5760008555611444565b82601f1061141757805160ff1916838001178555611444565b82800160010185558215611444579182015b82811115611444578251825591602001919060010190611429565b506114509291506114e3565b5090565b828054828255906000526020600020908101928215611444579160200282015b8281111561144457825182546001600160a01b0319166001600160a01b03909116178255602090920191600190910190611474565b8280548282559060005260206000209081019282156114445791602002820182811115611444578251825591602001919060010190611429565b5b8082111561145057600081556001016114e4565b80356001600160a01b038116811461150f57600080fd5b919050565b600082601f830112611524578081fd5b8135602061153961153483611a93565b611a62565b80838252828201915082860187848660051b8901011115611558578586fd5b855b8581101561157d5761156b826114f8565b8452928401929084019060010161155a565b5090979650505050505050565b600082601f83011261159a578081fd5b813560206115aa61153483611a93565b80838252828201915082860187848660051b89010111156115c9578586fd5b855b8581101561157d578135845292840192908401906001016115cb565b600082601f8301126115f7578081fd5b813567ffffffffffffffff81111561161157611611611b8b565b611624601f8201601f1916602001611a62565b818152846020838601011115611638578283fd5b816020850160208301379081016020019190915292915050565b600060208284031215611663578081fd5b61166c826114f8565b9392505050565b60008060008060008060008060006101208a8c031215611691578485fd5b893567ffffffffffffffff808211156116a8578687fd5b6116b48d838e016115e7565b9a5060208c01359150808211156116c9578687fd5b6116d58d838e016115e7565b99506116e360408d016114f8565b985060608c01359150808211156116f8578687fd5b6117048d838e016115e7565b975060808c0135915080821115611719578687fd5b6117258d838e016115e7565b965060a08c0135955060c08c0135945060e08c0135915080821115611748578384fd5b6117548d838e01611514565b93506101008c013591508082111561176a578283fd5b506117778c828d0161158a565b9150509295985092959850929598565b600060208284031215611798578081fd5b5035919050565b6000815180845260208085019450808401835b838110156117d75781516001600160a01b0316875295820195908201906001016117b2565b509495945050505050565b6000815180845260208085019450808401835b838110156117d7578151875295820195908201906001016117f5565b60008151808452815b818110156118365760208185018101518683018201520161181a565b818111156118475782602083870101525b50601f01601f19169290920160200192915050565b60208152600061166c60208301846117e2565b602080825260149082015273151c9858dac8191bd95cc81b9bdd08195e1a5cdd60621b604082015260600190565b6020815281516020820152600060208301516101808060408501526118c66101a0850183611811565b91506040850151601f19808685030160608701526118e48483611811565b93506060870151915061190260808701836001600160a01b03169052565b60808701519150808685030160a087015261191d8483611811565b935060a08701519150808685030160c087015261193a8483611811565b935060c087015160e087015260e08701519150610100828188015280880151925050610120828188015280880151925050610140828188015280880151925050610160818786030181880152611990858461179f565b9088015187820390920184880152935090506119ac83826117e2565b9695505050505050565b60006101408c83528060208401526119d08184018d611811565b905082810360408401526119e4818c611811565b6001600160a01b038b16606085015283810360808501529050611a07818a611811565b905082810360a0840152611a1b8189611811565b90508660c08401528560e0840152828103610100840152611a3c818661179f565b9050828103610120840152611a5181856117e2565b9d9c50505050505050505050505050565b604051601f8201601f1916810167ffffffffffffffff81118282101715611a8b57611a8b611b8b565b604052919050565b600067ffffffffffffffff821115611aad57611aad611b8b565b5060051b60200190565b60008219821115611aca57611aca611b75565b500190565b600082611aea57634e487b7160e01b81526012600452602481fd5b500490565b6000816000190483118215151615611b0957611b09611b75565b500290565b600082821015611b2057611b20611b75565b500390565b600181811c90821680611b3957607f821691505b6020821081141561090d57634e487b7160e01b600052602260045260246000fd5b6000600019821415611b6e57611b6e611b75565b5060010190565b634e487b7160e01b600052601160045260246000fd5b634e487b7160e01b600052604160045260246000fdfea2646970667358221220f4a001a12730cb3318fcecaac409858b1c4645c473b8a31d7a0cacdff5b7cb0264736f6c63430008040033",
  "linkReferences": {},
  "deployedLinkReferences": {}
}