{
  "_format": "hh-sol-artifact-1",
  "contractName": "Deyplay",
  "sourceName": "contracts/Deyplay.sol",
  "abi": [
    {
      "anonymous": false,
      "inputs": [
        {
          "indexed": false,
          "internalType": "uint256",
          "name": "id",
          "type": "uint256"
        },
        {
          "indexed": false,
          "internalType": "string",
          "name": "title",
          "type": "string"
        },
        {
          "indexed": false,
          "internalType": "address",
          "name": "artist",
          "type": "address"
        },
        {
          "indexed": false,
          "internalType": "string",
          "name": "imageUrl",
          "type": "string"
        },
        {
          "indexed": false,
          "internalType": "string",
          "name": "description",
          "type": "string"
        },
        {
          "indexed": false,
          "internalType": "uint256",
          "name": "price",
          "type": "uint256"
        }
      ],
      "name": "AlbumCreated",
      "type": "event"
    },
    {
      "anonymous": false,
      "inputs": [
        {
          "indexed": false,
          "internalType": "uint256",
          "name": "albumId",
          "type": "uint256"
        },
        {
          "indexed": false,
          "internalType": "address",
          "name": "buyer",
          "type": "address"
        },
        {
          "indexed": false,
          "internalType": "uint256",
          "name": "amount",
          "type": "uint256"
        }
      ],
      "name": "AlbumPurchased",
      "type": "event"
    },
    {
      "anonymous": false,
      "inputs": [
        {
          "indexed": false,
          "internalType": "uint256",
          "name": "albumId",
          "type": "uint256"
        },
        {
          "indexed": false,
          "internalType": "address",
          "name": "listener",
          "type": "address"
        },
        {
          "indexed": false,
          "internalType": "uint256",
          "name": "amount",
          "type": "uint256"
        }
      ],
      "name": "AlbumStreamed",
      "type": "event"
    },
    {
      "anonymous": false,
      "inputs": [
        {
          "indexed": false,
          "internalType": "uint256",
          "name": "id",
          "type": "uint256"
        },
        {
          "indexed": false,
          "internalType": "string",
          "name": "title",
          "type": "string"
        },
        {
          "indexed": false,
          "internalType": "address",
          "name": "artist",
          "type": "address"
        },
        {
          "indexed": false,
          "internalType": "string",
          "name": "imageUrl",
          "type": "string"
        },
        {
          "indexed": false,
          "internalType": "string",
          "name": "audioFile",
          "type": "string"
        },
        {
          "indexed": false,
          "internalType": "uint256",
          "name": "price",
          "type": "uint256"
        }
      ],
      "name": "TrackCreated",
      "type": "event"
    },
    {
      "anonymous": false,
      "inputs": [
        {
          "indexed": false,
          "internalType": "uint256",
          "name": "trackId",
          "type": "uint256"
        },
        {
          "indexed": false,
          "internalType": "address",
          "name": "buyer",
          "type": "address"
        },
        {
          "indexed": false,
          "internalType": "uint256",
          "name": "amount",
          "type": "uint256"
        }
      ],
      "name": "TrackPurchased",
      "type": "event"
    },
    {
      "anonymous": false,
      "inputs": [
        {
          "indexed": false,
          "internalType": "uint256",
          "name": "trackId",
          "type": "uint256"
        },
        {
          "indexed": false,
          "internalType": "address",
          "name": "listener",
          "type": "address"
        },
        {
          "indexed": false,
          "internalType": "uint256",
          "name": "amount",
          "type": "uint256"
        }
      ],
      "name": "TrackStreamed",
      "type": "event"
    },
    {
      "inputs": [
        {
          "internalType": "string",
          "name": "_title",
          "type": "string"
        },
        {
          "internalType": "address",
          "name": "_artist",
          "type": "address"
        },
        {
          "internalType": "string",
          "name": "_imageUrl",
          "type": "string"
        },
        {
          "internalType": "string",
          "name": "_description",
          "type": "string"
        },
        {
          "internalType": "uint256",
          "name": "_price",
          "type": "uint256"
        },
        {
          "internalType": "uint256[]",
          "name": "_audioFiles",
          "type": "uint256[]"
        }
      ],
      "name": "addAlbum",
      "outputs": [],
      "stateMutability": "nonpayable",
      "type": "function"
    },
    {
      "inputs": [
        {
          "internalType": "string",
          "name": "_title",
          "type": "string"
        },
        {
          "internalType": "address",
          "name": "_artist",
          "type": "address"
        },
        {
          "internalType": "string",
          "name": "_imageUrl",
          "type": "string"
        },
        {
          "internalType": "string",
          "name": "_audioFile",
          "type": "string"
        },
        {
          "internalType": "uint256",
          "name": "_price",
          "type": "uint256"
        }
      ],
      "name": "addTrack",
      "outputs": [],
      "stateMutability": "nonpayable",
      "type": "function"
    },
    {
      "inputs": [
        {
          "internalType": "uint256",
          "name": "_trackId",
          "type": "uint256"
        },
        {
          "internalType": "uint256",
          "name": "_albumId",
          "type": "uint256"
        }
      ],
      "name": "addTrackToAlbum",
      "outputs": [],
      "stateMutability": "nonpayable",
      "type": "function"
    },
    {
      "inputs": [
        {
          "internalType": "address",
          "name": "_artist",
          "type": "address"
        }
      ],
      "name": "getArtistBalance",
      "outputs": [
        {
          "internalType": "uint256",
          "name": "",
          "type": "uint256"
        }
      ],
      "stateMutability": "view",
      "type": "function"
    },
    {
      "inputs": [
        {
          "internalType": "address",
          "name": "_artist",
          "type": "address"
        }
      ],
      "name": "getTotalAlbumAmount",
      "outputs": [
        {
          "internalType": "uint256",
          "name": "",
          "type": "uint256"
        }
      ],
      "stateMutability": "view",
      "type": "function"
    },
    {
      "inputs": [
        {
          "internalType": "address",
          "name": "_artist",
          "type": "address"
        }
      ],
      "name": "getTotalAlbumStreams",
      "outputs": [
        {
          "internalType": "uint256",
          "name": "",
          "type": "uint256"
        }
      ],
      "stateMutability": "view",
      "type": "function"
    },
    {
      "inputs": [
        {
          "internalType": "address",
          "name": "_artist",
          "type": "address"
        }
      ],
      "name": "getTotalTrackAmount",
      "outputs": [
        {
          "internalType": "uint256",
          "name": "",
          "type": "uint256"
        }
      ],
      "stateMutability": "view",
      "type": "function"
    },
    {
      "inputs": [
        {
          "internalType": "address",
          "name": "_artist",
          "type": "address"
        }
      ],
      "name": "getTotalTrackStreams",
      "outputs": [
        {
          "internalType": "uint256",
          "name": "",
          "type": "uint256"
        }
      ],
      "stateMutability": "view",
      "type": "function"
    },
    {
      "inputs": [
        {
          "internalType": "address",
          "name": "_user",
          "type": "address"
        }
      ],
      "name": "getUserPurchasedAlbums",
      "outputs": [
        {
          "internalType": "uint256[]",
          "name": "",
          "type": "uint256[]"
        }
      ],
      "stateMutability": "view",
      "type": "function"
    },
    {
      "inputs": [
        {
          "internalType": "address",
          "name": "_user",
          "type": "address"
        }
      ],
      "name": "getUserPurchasedTracks",
      "outputs": [
        {
          "internalType": "uint256[]",
          "name": "",
          "type": "uint256[]"
        }
      ],
      "stateMutability": "view",
      "type": "function"
    },
    {
      "inputs": [
        {
          "internalType": "address",
          "name": "_artist",
          "type": "address"
        }
      ],
      "name": "listAlbumsByArtist",
      "outputs": [
        {
          "internalType": "uint256[]",
          "name": "",
          "type": "uint256[]"
        }
      ],
      "stateMutability": "view",
      "type": "function"
    },
    {
      "inputs": [],
      "name": "listAllAlbums",
      "outputs": [
        {
          "internalType": "uint256[]",
          "name": "",
          "type": "uint256[]"
        }
      ],
      "stateMutability": "view",
      "type": "function"
    },
    {
      "inputs": [],
      "name": "listAllTracks",
      "outputs": [
        {
          "internalType": "uint256[]",
          "name": "",
          "type": "uint256[]"
        }
      ],
      "stateMutability": "view",
      "type": "function"
    },
    {
      "inputs": [
        {
          "internalType": "address",
          "name": "_artist",
          "type": "address"
        }
      ],
      "name": "listTracksByArtist",
      "outputs": [
        {
          "internalType": "uint256[]",
          "name": "",
          "type": "uint256[]"
        }
      ],
      "stateMutability": "view",
      "type": "function"
    },
    {
      "inputs": [
        {
          "internalType": "uint256",
          "name": "_albumId",
          "type": "uint256"
        }
      ],
      "name": "purchaseAlbum",
      "outputs": [],
      "stateMutability": "payable",
      "type": "function"
    },
    {
      "inputs": [
        {
          "internalType": "uint256",
          "name": "_trackId",
          "type": "uint256"
        }
      ],
      "name": "purchaseTrack",
      "outputs": [],
      "stateMutability": "payable",
      "type": "function"
    },
    {
      "inputs": [
        {
          "internalType": "uint256",
          "name": "_albumId",
          "type": "uint256"
        }
      ],
      "name": "streamAlbum",
      "outputs": [],
      "stateMutability": "payable",
      "type": "function"
    },
    {
      "inputs": [
        {
          "internalType": "uint256",
          "name": "_trackId",
          "type": "uint256"
        }
      ],
      "name": "streamTrack",
      "outputs": [],
      "stateMutability": "payable",
      "type": "function"
    }
  ],
  "bytecode": "0x608060405234801561001057600080fd5b506121d3806100206000396000f3fe6080604052600436106101085760003560e01c80638d59f7e211610095578063c103351f11610064578063c103351f14610296578063dd3076b3146102b6578063ea981775146102d6578063efb78308146102e9578063f4ce0f861461030957600080fd5b80638d59f7e2146102305780638ef8b386146102505780639edc858c14610263578063acff110e1461027657600080fd5b80635d0650b4116100dc5780635d0650b41461018d5780636456b79a146101bb5780636850a7e3146101d057806368dbdb59146101f057806376dde21b1461021057600080fd5b806221991e1461010d5780631d29d5991461012f5780632cdfb61f1461016557806340d1e2401461017a575b600080fd5b34801561011957600080fd5b5061012d610128366004611f14565b61033f565b005b34801561013b57600080fd5b5061014f61014a366004611d7d565b6103cc565b60405161015c9190611f80565b60405180910390f35b34801561017157600080fd5b5061014f610438565b61012d610188366004611efc565b6104f9565b34801561019957600080fd5b506101ad6101a8366004611d7d565b6107c1565b60405190815260200161015c565b3480156101c757600080fd5b5061014f61083f565b3480156101dc57600080fd5b5061014f6101eb366004611d7d565b6108f9565b3480156101fc57600080fd5b5061012d61020b366004611e3b565b6109ea565b34801561021c57600080fd5b506101ad61022b366004611d7d565b610c87565b34801561023c57600080fd5b506101ad61024b366004611d7d565b610ced565b61012d61025e366004611efc565b610d63565b61012d610271366004611efc565b61101c565b34801561028257600080fd5b5061014f610291366004611d7d565b611301565b3480156102a257600080fd5b506101ad6102b1366004611d7d565b61136b565b3480156102c257600080fd5b5061012d6102d1366004611d9e565b6113d0565b61012d6102e4366004611efc565b6115d7565b3480156102f557600080fd5b5061014f610304366004611d7d565b6118ba565b34801561031557600080fd5b506101ad610324366004611d7d565b6001600160a01b031660009081526006602052604090205490565b8160008111801561035257506000548111155b6103775760405162461bcd60e51b815260040161036e90611ff2565b60405180910390fd5b8160008111801561038a57506001548111155b6103a65760405162461bcd60e51b815260040161036e90611fc4565b505060009081526003602090815260408220600801805460018101825590835291200155565b6001600160a01b03811660009081526005602090815260409182902080548351818402810184019094528084526060939283018282801561042c57602002820191906000526020600020905b815481526020019060010190808311610418575b50505050509050919050565b6060600060015467ffffffffffffffff81111561046557634e487b7160e01b600052604160045260246000fd5b60405190808252806020026020018201604052801561048e578160200160208202803683370190505b50905060015b60015481116104f357600081815260036020526040902054826104b860018461210a565b815181106104d657634e487b7160e01b600052603260045260246000fd5b6020908102919091010152806104eb81612156565b915050610494565b50919050565b8060008111801561050c57506001548111155b6105285760405162461bcd60e51b815260040161036e90611fc4565b6000828152600360205260409020600581015434101561059b5760405162461bcd60e51b815260206004820152602860248201527f496e73756666696369656e74207061796d656e7420746f2073747265616d2074604482015267686520616c62756d60c01b606482015260840161036e565b600061065a8260050154836009018054806020026020016040519081016040528092919081815260200182805480156105fd57602002820191906000526020600020905b81546001600160a01b031681526001909101906020018083116105df575b505050505084600a0180548060200260200160405190810160405280929190818152602001828054801561065057602002820191906000526020600020905b81548152602001906001019080831161063c575b50505050506119a2565b9050600081836005015461066e919061210a565b600684018054919250600061068283612156565b909155505060028301546001600160a01b0316600090815260066020526040812080548392906106b39084906120b3565b925050819055506107738360090180548060200260200160405190810160405280929190818152602001828054801561071557602002820191906000526020600020905b81546001600160a01b031681526001909101906020018083116106f7575b505050505084600a0180548060200260200160405190810160405280929190818152602001828054801561076857602002820191906000526020600020905b815481526020019060010190808311610754575b505050505084611a16565b600583015460408051878152336020820152908101919091527f9895cbad8f9db9bfb55390deaa7dd85188e313b35ee7ee4748b41ae3b9a7936f906060015b60405180910390a15050505050565b60008060015b600054811161083857600081815260026020819052604090912001546001600160a01b0385811691161415610826576000818152600260205260409020600581015460079091015461081991906120eb565b61082390836120b3565b91505b8061083081612156565b9150506107c7565b5092915050565b60606000805467ffffffffffffffff81111561086b57634e487b7160e01b600052604160045260246000fd5b604051908082528060200260200182016040528015610894578160200160208202803683370190505b50905060015b60005481116104f357600081815260026020526040902054826108be60018461210a565b815181106108dc57634e487b7160e01b600052603260045260246000fd5b6020908102919091010152806108f181612156565b91505061089a565b60606000805467ffffffffffffffff81111561092557634e487b7160e01b600052604160045260246000fd5b60405190808252806020026020018201604052801561094e578160200160208202803683370190505b509050600060015b60005481116109e157600081815260026020819052604090912001546001600160a01b03868116911614156109cf5760008181526002602052604090205483518490849081106109b657634e487b7160e01b600052603260045260246000fd5b6020908102919091010152816109cb81612156565b9250505b806109d981612156565b915050610956565b50909392505050565b6000815111610a4b5760405162461bcd60e51b815260206004820152602760248201527f416c62756d206d7573742068617665206174206c65617374206f6e6520617564604482015266696f2066696c6560c81b606482015260840161036e565b60018054906000610a5b83612156565b91905055506040518061016001604052806001548152602001878152602001866001600160a01b031681526020018581526020018481526020018381526020016000815260200160008152602001828152602001600067ffffffffffffffff811115610ad757634e487b7160e01b600052604160045260246000fd5b604051908082528060200260200182016040528015610b00578160200160208202803683370190505b5081526020016000604051908082528060200260200182016040528015610b31578160200160208202803683370190505b509052600180546000908152600360209081526040909120835181558382015180519193610b659390850192910190611b4b565b5060408201516002820180546001600160a01b0319166001600160a01b0390921691909117905560608201518051610ba7916003840191602090910190611b4b565b5060808201518051610bc3916004840191602090910190611b4b565b5060a0820151600582015560c0820151600682015560e082015160078201556101008201518051610bfe916008840191602090910190611bcf565b506101208201518051610c1b916009840191602090910190611c09565b506101408201518051610c3891600a840191602090910190611bcf565b509050507f9048b43ebaedab71f8a3d6c7e46d1b749420be3cde06fe484c604be17318b32e6001548787878787604051610c7796959493929190612020565b60405180910390a1505050505050565b60008060015b600054811161083857600081815260026020819052604090912001546001600160a01b0385811691161415610cdb57600081815260026020526040902060060154610cd890836120b3565b91505b80610ce581612156565b915050610c8d565b60008060015b6001548111610838576000818152600360205260409020600201546001600160a01b0385811691161415610d515760008181526003602052604090206005810154600790910154610d4491906120eb565b610d4e90836120b3565b91505b80610d5b81612156565b915050610cf3565b80600081118015610d7657506000548111155b610d925760405162461bcd60e51b815260040161036e90611ff2565b60008281526002602052604090206005810154341015610e055760405162461bcd60e51b815260206004820152602860248201527f496e73756666696369656e74207061796d656e7420746f2073747265616d2074604482015267686520747261636b60c01b606482015260840161036e565b6000610ec2826005015483600801805480602002602001604051908101604052809291908181526020018280548015610e6757602002820191906000526020600020905b81546001600160a01b03168152600190910190602001808311610e49575b505050505084600901805480602002602001604051908101604052809291908181526020018280548015610650576020028201919060005260206000209081548152602001906001019080831161063c5750505050506119a2565b90506000818360050154610ed6919061210a565b6006840180549192506000610eea83612156565b909155505060028301546001600160a01b031660009081526006602052604081208054839290610f1b9084906120b3565b92505081905550610fd983600801805480602002602001604051908101604052809291908181526020018280548015610f7d57602002820191906000526020600020905b81546001600160a01b03168152600190910190602001808311610f5f575b505050505084600901805480602002602001604051908101604052809291908181526020018280548015610768576020028201919060005260206000209081548152602001906001019080831161075457505050505084611a16565b600583015460408051878152336020820152908101919091527fa8ff0760db1bd134bec00c7f599e3d73ad185cfc7dd4c313b1ccfc4bd9594737906060016107b2565b8060008111801561102f57506000548111155b61104b5760405162461bcd60e51b815260040161036e90611ff2565b600082815260026020526040902060058101543410156110c05760405162461bcd60e51b815260206004820152602a60248201527f496e73756666696369656e74207061796d656e7420746f2070757263686173656044820152692074686520747261636b60b01b606482015260840161036e565b600061117b826005015483600801805480602002602001604051908101604052809291908181526020018280548015610e67576020028201919060005260206000209081546001600160a01b03168152600190910190602001808311610e4957505050505084600901805480602002602001604051908101604052809291908181526020018280548015610650576020028201919060005260206000209081548152602001906001019080831161063c5750505050506119a2565b9050600081836005015461118f919061210a565b60078401805491925060006111a383612156565b909155505060028301546001600160a01b0316600090815260066020526040812080548392906111d49084906120b3565b9250508190555061129083600801805480602002602001604051908101604052809291908181526020018280548015610f7d576020028201919060005260206000209081546001600160a01b03168152600190910190602001808311610f5f57505050505084600901805480602002602001604051908101604052809291908181526020018280548015610768576020028201919060005260206000209081548152602001906001019080831161075457505050505084611a16565b33600081815260046020908152604080832080546001810182559084529190922001879055600585015490517ffe3f9af2d0ba5be4687ca774df8206ec9cf7919bcf32bd9c76b051e5dfbbb5b4926107b2928983526001600160a01b03919091166020830152604082015260600190565b6001600160a01b03811660009081526004602090815260409182902080548351818402810184019094528084526060939283018282801561042c57602002820191906000526020600020908154815260200190600101908083116104185750505050509050919050565b60008060015b6001548111610838576000818152600360205260409020600201546001600160a01b03858116911614156113be576000818152600360205260409020600601546113bb90836120b3565b91505b806113c881612156565b915050611371565b6000805490806113df83612156565b91905055506040518061014001604052806000548152602001868152602001856001600160a01b031681526020018481526020018381526020018281526020016000815260200160008152602001600067ffffffffffffffff81111561145557634e487b7160e01b600052604160045260246000fd5b60405190808252806020026020018201604052801561147e578160200160208202803683370190505b50815260200160006040519080825280602002602001820160405280156114af578160200160208202803683370190505b5090526000805481526002602090815260409091208251815582820151805191926114e292600185019290910190611b4b565b5060408201516002820180546001600160a01b0319166001600160a01b0390921691909117905560608201518051611524916003840191602090910190611b4b565b5060808201518051611540916004840191602090910190611b4b565b5060a0820151600582015560c0820151600682015560e08201516007820155610100820151805161157b916008840191602090910190611c09565b506101208201518051611598916009840191602090910190611bcf565b509050507f2af8e7defc337a95c0375d800f84c92fa3adb85705812babcd5756064b06694660005486868686866040516107b296959493929190612020565b806000811180156115ea57506001548111155b6116065760405162461bcd60e51b815260040161036e90611fc4565b6000828152600360205260409020600581015434101561167b5760405162461bcd60e51b815260206004820152602a60248201527f496e73756666696369656e74207061796d656e7420746f2070757263686173656044820152692074686520616c62756d60b01b606482015260840161036e565b60006117368260050154836009018054806020026020016040519081016040528092919081815260200182805480156105fd576020028201919060005260206000209081546001600160a01b031681526001909101906020018083116105df57505050505084600a01805480602002602001604051908101604052809291908181526020018280548015610650576020028201919060005260206000209081548152602001906001019080831161063c5750505050506119a2565b9050600081836005015461174a919061210a565b600784018054919250600061175e83612156565b909155505060028301546001600160a01b03166000908152600660205260408120805483929061178f9084906120b3565b9250508190555061184b83600901805480602002602001604051908101604052809291908181526020018280548015610715576020028201919060005260206000209081546001600160a01b031681526001909101906020018083116106f757505050505084600a01805480602002602001604051908101604052809291908181526020018280548015610768576020028201919060005260206000209081548152602001906001019080831161075457505050505084611a16565b3360008181526005602081815260408084208054600181018255908552919093200188905585015490517f11332ef3956cea4003185b2a4db8407e3e5662fe799887282e178f18726ecc9b926107b2928983526001600160a01b03919091166020830152604082015260600190565b6060600060015467ffffffffffffffff8111156118e757634e487b7160e01b600052604160045260246000fd5b604051908082528060200260200182016040528015611910578160200160208202803683370190505b509050600060015b60015481116109e1576000818152600360205260409020600201546001600160a01b038681169116141561199057600081815260036020526040902054835184908490811061197757634e487b7160e01b600052603260045260246000fd5b60209081029190910101528161198c81612156565b9250505b8061199a81612156565b915050611918565b600080805b8451811015611a0d5760648482815181106119d257634e487b7160e01b600052603260045260246000fd5b6020026020010151876119e591906120eb565b6119ef91906120cb565b6119f990836120b3565b915080611a0581612156565b9150506119a7565b50949350505050565b8151835114611a7d5760405162461bcd60e51b815260206004820152602d60248201527f4f776e65727320616e642070657263656e746167657320617272617973206c6560448201526c0dccee8d040dad2e6dac2e8c6d609b1b606482015260840161036e565b60005b8351811015611b45576000848281518110611aab57634e487b7160e01b600052603260045260246000fd5b6020026020010151905060006064858481518110611ad957634e487b7160e01b600052603260045260246000fd5b602002602001015185611aec91906120eb565b611af691906120cb565b6040519091506001600160a01b0383169082156108fc029083906000818181858888f19350505050158015611b2f573d6000803e3d6000fd5b5050508080611b3d90612156565b915050611a80565b50505050565b828054611b5790612121565b90600052602060002090601f016020900481019282611b795760008555611bbf565b82601f10611b9257805160ff1916838001178555611bbf565b82800160010185558215611bbf579182015b82811115611bbf578251825591602001919060010190611ba4565b50611bcb929150611c5e565b5090565b828054828255906000526020600020908101928215611bbf5791602002820182811115611bbf578251825591602001919060010190611ba4565b828054828255906000526020600020908101928215611bbf579160200282015b82811115611bbf57825182546001600160a01b0319166001600160a01b03909116178255602090920191600190910190611c29565b5b80821115611bcb5760008155600101611c5f565b80356001600160a01b0381168114611c8a57600080fd5b919050565b600082601f830112611c9f578081fd5b8135602067ffffffffffffffff821115611cbb57611cbb612187565b8160051b611cca828201612082565b838152828101908684018388018501891015611ce4578687fd5b8693505b85841015611d06578035835260019390930192918401918401611ce8565b50979650505050505050565b600082601f830112611d22578081fd5b813567ffffffffffffffff811115611d3c57611d3c612187565b611d4f601f8201601f1916602001612082565b818152846020838601011115611d63578283fd5b816020850160208301379081016020019190915292915050565b600060208284031215611d8e578081fd5b611d9782611c73565b9392505050565b600080600080600060a08688031215611db5578081fd5b853567ffffffffffffffff80821115611dcc578283fd5b611dd889838a01611d12565b9650611de660208901611c73565b95506040880135915080821115611dfb578283fd5b611e0789838a01611d12565b94506060880135915080821115611e1c578283fd5b50611e2988828901611d12565b95989497509295608001359392505050565b60008060008060008060c08789031215611e53578081fd5b863567ffffffffffffffff80821115611e6a578283fd5b611e768a838b01611d12565b9750611e8460208a01611c73565b96506040890135915080821115611e99578283fd5b611ea58a838b01611d12565b95506060890135915080821115611eba578283fd5b611ec68a838b01611d12565b94506080890135935060a0890135915080821115611ee2578283fd5b50611eef89828a01611c8f565b9150509295509295509295565b600060208284031215611f0d578081fd5b5035919050565b60008060408385031215611f26578182fd5b50508035926020909101359150565b60008151808452815b81811015611f5a57602081850181015186830182015201611f3e565b81811115611f6b5782602083870101525b50601f01601f19169290920160200192915050565b6020808252825182820181905260009190848201906040850190845b81811015611fb857835183529284019291840191600101611f9c565b50909695505050505050565b602080825260149082015273105b189d5b48191bd95cc81b9bdd08195e1a5cdd60621b604082015260600190565b602080825260149082015273151c9858dac8191bd95cc81b9bdd08195e1a5cdd60621b604082015260600190565b86815260c06020820152600061203960c0830188611f35565b6001600160a01b0387166040840152828103606084015261205a8187611f35565b9050828103608084015261206e8186611f35565b9150508260a0830152979650505050505050565b604051601f8201601f1916810167ffffffffffffffff811182821017156120ab576120ab612187565b604052919050565b600082198211156120c6576120c6612171565b500190565b6000826120e657634e487b7160e01b81526012600452602481fd5b500490565b600081600019048311821515161561210557612105612171565b500290565b60008282101561211c5761211c612171565b500390565b600181811c9082168061213557607f821691505b602082108114156104f357634e487b7160e01b600052602260045260246000fd5b600060001982141561216a5761216a612171565b5060010190565b634e487b7160e01b600052601160045260246000fd5b634e487b7160e01b600052604160045260246000fdfea264697066735822122008ed1a6f538d2f66e608a4b9cab9d08ac0d0639f13f45c2048469590d5718c1d64736f6c63430008040033",
  "linkReferences": {},
  "deployedLinkReferences": {}
}