{
  "_format": "hh-sol-artifact-1",
  "contractName": "Deyplay",
  "sourceName": "contracts/Deyplay.sol",
  "abi": [
    {
      "anonymous": false,
      "inputs": [
        {
          "indexed": false,
          "internalType": "uint256",
          "name": "id",
          "type": "uint256"
        },
        {
          "indexed": false,
          "internalType": "string",
          "name": "title",
          "type": "string"
        },
        {
          "indexed": false,
          "internalType": "address",
          "name": "artist",
          "type": "address"
        },
        {
          "indexed": false,
          "internalType": "string",
          "name": "imageUrl",
          "type": "string"
        },
        {
          "indexed": false,
          "internalType": "string",
          "name": "description",
          "type": "string"
        },
        {
          "indexed": false,
          "internalType": "uint256",
          "name": "price",
          "type": "uint256"
        },
        {
          "indexed": false,
          "internalType": "uint256[]",
          "name": "audioFiles",
          "type": "uint256[]"
        },
        {
          "indexed": false,
          "internalType": "address[]",
          "name": "royaltiesOwners",
          "type": "address[]"
        },
        {
          "indexed": false,
          "internalType": "uint256[]",
          "name": "royaltiesPercentages",
          "type": "uint256[]"
        }
      ],
      "name": "AlbumCreated",
      "type": "event"
    },
    {
      "anonymous": false,
      "inputs": [
        {
          "indexed": false,
          "internalType": "uint256",
          "name": "albumId",
          "type": "uint256"
        },
        {
          "indexed": false,
          "internalType": "address",
          "name": "buyer",
          "type": "address"
        },
        {
          "indexed": false,
          "internalType": "uint256",
          "name": "amount",
          "type": "uint256"
        }
      ],
      "name": "AlbumPurchased",
      "type": "event"
    },
    {
      "anonymous": false,
      "inputs": [
        {
          "indexed": false,
          "internalType": "uint256",
          "name": "albumId",
          "type": "uint256"
        },
        {
          "indexed": false,
          "internalType": "address",
          "name": "listener",
          "type": "address"
        },
        {
          "indexed": false,
          "internalType": "uint256",
          "name": "amount",
          "type": "uint256"
        }
      ],
      "name": "AlbumStreamed",
      "type": "event"
    },
    {
      "anonymous": false,
      "inputs": [
        {
          "indexed": false,
          "internalType": "uint256",
          "name": "id",
          "type": "uint256"
        },
        {
          "indexed": false,
          "internalType": "string",
          "name": "title",
          "type": "string"
        },
        {
          "indexed": false,
          "internalType": "address",
          "name": "artist",
          "type": "address"
        },
        {
          "indexed": false,
          "internalType": "string",
          "name": "imageUrl",
          "type": "string"
        },
        {
          "indexed": false,
          "internalType": "string",
          "name": "audioFile",
          "type": "string"
        },
        {
          "indexed": false,
          "internalType": "uint256",
          "name": "price",
          "type": "uint256"
        },
        {
          "indexed": false,
          "internalType": "address[]",
          "name": "royaltiesOwners",
          "type": "address[]"
        },
        {
          "indexed": false,
          "internalType": "uint256[]",
          "name": "royaltiesPercentages",
          "type": "uint256[]"
        }
      ],
      "name": "TrackCreated",
      "type": "event"
    },
    {
      "anonymous": false,
      "inputs": [
        {
          "indexed": false,
          "internalType": "uint256",
          "name": "trackId",
          "type": "uint256"
        },
        {
          "indexed": false,
          "internalType": "address",
          "name": "buyer",
          "type": "address"
        },
        {
          "indexed": false,
          "internalType": "uint256",
          "name": "amount",
          "type": "uint256"
        }
      ],
      "name": "TrackPurchased",
      "type": "event"
    },
    {
      "anonymous": false,
      "inputs": [
        {
          "indexed": false,
          "internalType": "uint256",
          "name": "trackId",
          "type": "uint256"
        },
        {
          "indexed": false,
          "internalType": "address",
          "name": "listener",
          "type": "address"
        },
        {
          "indexed": false,
          "internalType": "uint256",
          "name": "amount",
          "type": "uint256"
        }
      ],
      "name": "TrackStreamed",
      "type": "event"
    },
    {
      "inputs": [
        {
          "internalType": "string",
          "name": "_title",
          "type": "string"
        },
        {
          "internalType": "address",
          "name": "_artist",
          "type": "address"
        },
        {
          "internalType": "string",
          "name": "_imageUrl",
          "type": "string"
        },
        {
          "internalType": "string",
          "name": "_description",
          "type": "string"
        },
        {
          "internalType": "uint256",
          "name": "_price",
          "type": "uint256"
        },
        {
          "internalType": "uint256[]",
          "name": "_audioFiles",
          "type": "uint256[]"
        },
        {
          "internalType": "address[]",
          "name": "_royaltiesOwners",
          "type": "address[]"
        },
        {
          "internalType": "uint256[]",
          "name": "_royaltiesPercentages",
          "type": "uint256[]"
        }
      ],
      "name": "addAlbum",
      "outputs": [],
      "stateMutability": "nonpayable",
      "type": "function"
    },
    {
      "inputs": [
        {
          "internalType": "string",
          "name": "_title",
          "type": "string"
        },
        {
          "internalType": "address",
          "name": "_artist",
          "type": "address"
        },
        {
          "internalType": "string",
          "name": "_imageUrl",
          "type": "string"
        },
        {
          "internalType": "string",
          "name": "_audioFile",
          "type": "string"
        },
        {
          "internalType": "uint256",
          "name": "_price",
          "type": "uint256"
        },
        {
          "internalType": "address[]",
          "name": "_royaltiesOwners",
          "type": "address[]"
        },
        {
          "internalType": "uint256[]",
          "name": "_royaltiesPercentages",
          "type": "uint256[]"
        }
      ],
      "name": "addTrack",
      "outputs": [],
      "stateMutability": "nonpayable",
      "type": "function"
    },
    {
      "inputs": [
        {
          "internalType": "uint256",
          "name": "_trackId",
          "type": "uint256"
        },
        {
          "internalType": "uint256",
          "name": "_albumId",
          "type": "uint256"
        }
      ],
      "name": "addTrackToAlbum",
      "outputs": [],
      "stateMutability": "nonpayable",
      "type": "function"
    },
    {
      "inputs": [
        {
          "internalType": "address",
          "name": "_artist",
          "type": "address"
        }
      ],
      "name": "getArtistBalance",
      "outputs": [
        {
          "internalType": "uint256",
          "name": "",
          "type": "uint256"
        }
      ],
      "stateMutability": "view",
      "type": "function"
    },
    {
      "inputs": [
        {
          "internalType": "address",
          "name": "_artist",
          "type": "address"
        }
      ],
      "name": "getTotalAlbumAmount",
      "outputs": [
        {
          "internalType": "uint256",
          "name": "",
          "type": "uint256"
        }
      ],
      "stateMutability": "view",
      "type": "function"
    },
    {
      "inputs": [
        {
          "internalType": "address",
          "name": "_artist",
          "type": "address"
        }
      ],
      "name": "getTotalAlbumStreams",
      "outputs": [
        {
          "internalType": "uint256",
          "name": "",
          "type": "uint256"
        }
      ],
      "stateMutability": "view",
      "type": "function"
    },
    {
      "inputs": [
        {
          "internalType": "address",
          "name": "_artist",
          "type": "address"
        }
      ],
      "name": "getTotalTrackAmount",
      "outputs": [
        {
          "internalType": "uint256",
          "name": "",
          "type": "uint256"
        }
      ],
      "stateMutability": "view",
      "type": "function"
    },
    {
      "inputs": [
        {
          "internalType": "address",
          "name": "_artist",
          "type": "address"
        }
      ],
      "name": "getTotalTrackStreams",
      "outputs": [
        {
          "internalType": "uint256",
          "name": "",
          "type": "uint256"
        }
      ],
      "stateMutability": "view",
      "type": "function"
    },
    {
      "inputs": [
        {
          "internalType": "address",
          "name": "_user",
          "type": "address"
        }
      ],
      "name": "getUserPurchasedAlbums",
      "outputs": [
        {
          "internalType": "uint256[]",
          "name": "",
          "type": "uint256[]"
        }
      ],
      "stateMutability": "view",
      "type": "function"
    },
    {
      "inputs": [
        {
          "internalType": "address",
          "name": "_user",
          "type": "address"
        }
      ],
      "name": "getUserPurchasedTracks",
      "outputs": [
        {
          "internalType": "uint256[]",
          "name": "",
          "type": "uint256[]"
        }
      ],
      "stateMutability": "view",
      "type": "function"
    },
    {
      "inputs": [
        {
          "internalType": "address",
          "name": "_artist",
          "type": "address"
        }
      ],
      "name": "listAlbumsByArtist",
      "outputs": [
        {
          "internalType": "uint256[]",
          "name": "",
          "type": "uint256[]"
        }
      ],
      "stateMutability": "view",
      "type": "function"
    },
    {
      "inputs": [],
      "name": "listAllAlbums",
      "outputs": [
        {
          "internalType": "uint256[]",
          "name": "",
          "type": "uint256[]"
        }
      ],
      "stateMutability": "view",
      "type": "function"
    },
    {
      "inputs": [],
      "name": "listAllTracks",
      "outputs": [
        {
          "internalType": "uint256[]",
          "name": "",
          "type": "uint256[]"
        }
      ],
      "stateMutability": "view",
      "type": "function"
    },
    {
      "inputs": [
        {
          "internalType": "address",
          "name": "_artist",
          "type": "address"
        }
      ],
      "name": "listTracksByArtist",
      "outputs": [
        {
          "internalType": "uint256[]",
          "name": "",
          "type": "uint256[]"
        }
      ],
      "stateMutability": "view",
      "type": "function"
    },
    {
      "inputs": [
        {
          "internalType": "uint256",
          "name": "_albumId",
          "type": "uint256"
        }
      ],
      "name": "purchaseAlbum",
      "outputs": [],
      "stateMutability": "payable",
      "type": "function"
    },
    {
      "inputs": [
        {
          "internalType": "uint256",
          "name": "_trackId",
          "type": "uint256"
        }
      ],
      "name": "purchaseTrack",
      "outputs": [],
      "stateMutability": "payable",
      "type": "function"
    },
    {
      "inputs": [
        {
          "internalType": "uint256",
          "name": "_albumId",
          "type": "uint256"
        }
      ],
      "name": "streamAlbum",
      "outputs": [],
      "stateMutability": "payable",
      "type": "function"
    },
    {
      "inputs": [
        {
          "internalType": "uint256",
          "name": "_trackId",
          "type": "uint256"
        }
      ],
      "name": "streamTrack",
      "outputs": [],
      "stateMutability": "payable",
      "type": "function"
    }
  ],
  "bytecode": "0x608060405234801561001057600080fd5b5061231a806100206000396000f3fe6080604052600436106101085760003560e01c8063784d8abb11610095578063acff110e11610064578063acff110e14610296578063c103351f146102b6578063ea981775146102d6578063efb78308146102e9578063f4ce0f861461030957600080fd5b8063784d8abb146102305780638d59f7e2146102505780638ef8b386146102705780639edc858c1461028357600080fd5b806340d1e240116100dc57806340d1e2401461019a5780635d0650b4146101ad5780636456b79a146101db5780636850a7e3146101f057806376dde21b1461021057600080fd5b806221991e1461010d5780631d29d5991461012f578063245d1558146101655780632cdfb61f14610185575b600080fd5b34801561011957600080fd5b5061012d610128366004611f26565b61033f565b005b34801561013b57600080fd5b5061014f61014a366004611cfd565b6103cc565b60405161015c9190612004565b60405180910390f35b34801561017157600080fd5b5061012d610180366004611d1e565b610438565b34801561019157600080fd5b5061014f6105d8565b61012d6101a8366004611f0e565b610699565b3480156101b957600080fd5b506101cd6101c8366004611cfd565b610961565b60405190815260200161015c565b3480156101e757600080fd5b5061014f6109df565b3480156101fc57600080fd5b5061014f61020b366004611cfd565b610a99565b34801561021c57600080fd5b506101cd61022b366004611cfd565b610b8a565b34801561023c57600080fd5b5061012d61024b366004611e04565b610bf0565b34801561025c57600080fd5b506101cd61026b366004611cfd565b610e24565b61012d61027e366004611f0e565b610e9a565b61012d610291366004611f0e565b611153565b3480156102a257600080fd5b5061014f6102b1366004611cfd565b611438565b3480156102c257600080fd5b506101cd6102d1366004611cfd565b6114a2565b61012d6102e4366004611f0e565b611507565b3480156102f557600080fd5b5061014f610304366004611cfd565b6117ea565b34801561031557600080fd5b506101cd610324366004611cfd565b6001600160a01b031660009081526006602052604090205490565b8160008111801561035257506000548111155b6103775760405162461bcd60e51b815260040161036e90612045565b60405180910390fd5b8160008111801561038a57506001548111155b6103a65760405162461bcd60e51b815260040161036e90612017565b505060009081526003602090815260408220600801805460018101825590835291200155565b6001600160a01b03811660009081526005602090815260409182902080548351818402810184019094528084526060939283018282801561042c57602002820191906000526020600020905b815481526020019060010190808311610418575b50505050509050919050565b6000805490806104478361229d565b909155505060408051610140810182526000805480835260208084018c81526001600160a01b038c1685870152606085018b9052608085018a905260a0850189905260c0850184905260e085018490526101008501889052610120850187905291835260028152939091208251815590518051929391926104ce9260018501920190611a7b565b5060408201516002820180546001600160a01b0319166001600160a01b0390921691909117905560608201518051610510916003840191602090910190611a7b565b506080820151805161052c916004840191602090910190611a7b565b5060a0820151600582015560c0820151600682015560e082015160078201556101008201518051610567916008840191602090910190611aff565b506101208201518051610584916009840191602090910190611b54565b509050507fbf2201dbf94a92f1d5a37c712b8d9b99e2a1e94a9ead3e3318c067b76569712a600054888888888888886040516105c7989796959493929190612073565b60405180910390a150505050505050565b6060600060015467ffffffffffffffff81111561060557634e487b7160e01b600052604160045260246000fd5b60405190808252806020026020018201604052801561062e578160200160208202803683370190505b50905060015b60015481116106935760008181526003602052604090205482610658600184612251565b8151811061067657634e487b7160e01b600052603260045260246000fd5b60209081029190910101528061068b8161229d565b915050610634565b50919050565b806000811180156106ac57506001548111155b6106c85760405162461bcd60e51b815260040161036e90612017565b6000828152600360205260409020600581015434101561073b5760405162461bcd60e51b815260206004820152602860248201527f496e73756666696369656e74207061796d656e7420746f2073747265616d2074604482015267686520616c62756d60c01b606482015260840161036e565b60006107fa82600501548360090180548060200260200160405190810160405280929190818152602001828054801561079d57602002820191906000526020600020905b81546001600160a01b0316815260019091019060200180831161077f575b505050505084600a018054806020026020016040519081016040528092919081815260200182805480156107f057602002820191906000526020600020905b8154815260200190600101908083116107dc575b50505050506118d2565b9050600081836005015461080e9190612251565b60068401805491925060006108228361229d565b909155505060028301546001600160a01b0316600090815260066020526040812080548392906108539084906121fa565b92505081905550610913836009018054806020026020016040519081016040528092919081815260200182805480156108b557602002820191906000526020600020905b81546001600160a01b03168152600190910190602001808311610897575b505050505084600a0180548060200260200160405190810160405280929190818152602001828054801561090857602002820191906000526020600020905b8154815260200190600101908083116108f4575b505050505084611946565b600583015460408051878152336020820152908101919091527f9895cbad8f9db9bfb55390deaa7dd85188e313b35ee7ee4748b41ae3b9a7936f906060015b60405180910390a15050505050565b60008060015b60005481116109d857600081815260026020819052604090912001546001600160a01b03858116911614156109c657600081815260026020526040902060058101546007909101546109b99190612232565b6109c390836121fa565b91505b806109d08161229d565b915050610967565b5092915050565b60606000805467ffffffffffffffff811115610a0b57634e487b7160e01b600052604160045260246000fd5b604051908082528060200260200182016040528015610a34578160200160208202803683370190505b50905060015b60005481116106935760008181526002602052604090205482610a5e600184612251565b81518110610a7c57634e487b7160e01b600052603260045260246000fd5b602090810291909101015280610a918161229d565b915050610a3a565b60606000805467ffffffffffffffff811115610ac557634e487b7160e01b600052604160045260246000fd5b604051908082528060200260200182016040528015610aee578160200160208202803683370190505b509050600060015b6000548111610b8157600081815260026020819052604090912001546001600160a01b0386811691161415610b6f576000818152600260205260409020548351849084908110610b5657634e487b7160e01b600052603260045260246000fd5b602090810291909101015281610b6b8161229d565b9250505b80610b798161229d565b915050610af6565b50909392505050565b60008060015b60005481116109d857600081815260026020819052604090912001546001600160a01b0385811691161415610bde57600081815260026020526040902060060154610bdb90836121fa565b91505b80610be88161229d565b915050610b90565b6000835111610c515760405162461bcd60e51b815260206004820152602760248201527f416c62756d206d7573742068617665206174206c65617374206f6e6520617564604482015266696f2066696c6560c81b606482015260840161036e565b60018054906000610c618361229d565b91905055506040518061016001604052806001548152602001898152602001886001600160a01b03168152602001878152602001868152602001858152602001600081526020016000815260200184815260200183815260200182815250600360006001548152602001908152602001600020600082015181600001556020820151816001019080519060200190610cfa929190611a7b565b5060408201516002820180546001600160a01b0319166001600160a01b0390921691909117905560608201518051610d3c916003840191602090910190611a7b565b5060808201518051610d58916004840191602090910190611a7b565b5060a0820151600582015560c0820151600682015560e082015160078201556101008201518051610d93916008840191602090910190611b54565b506101208201518051610db0916009840191602090910190611aff565b506101408201518051610dcd91600a840191602090910190611b54565b509050507f35cf2fbf514073689c9dc7a15257dd4daee42df218875b25a09ae0e6db27d75e6001548989898989898989604051610e1299989796959493929190612101565b60405180910390a15050505050505050565b60008060015b60015481116109d8576000818152600360205260409020600201546001600160a01b0385811691161415610e885760008181526003602052604090206005810154600790910154610e7b9190612232565b610e8590836121fa565b91505b80610e928161229d565b915050610e2a565b80600081118015610ead57506000548111155b610ec95760405162461bcd60e51b815260040161036e90612045565b60008281526002602052604090206005810154341015610f3c5760405162461bcd60e51b815260206004820152602860248201527f496e73756666696369656e74207061796d656e7420746f2073747265616d2074604482015267686520747261636b60c01b606482015260840161036e565b6000610ff9826005015483600801805480602002602001604051908101604052809291908181526020018280548015610f9e57602002820191906000526020600020905b81546001600160a01b03168152600190910190602001808311610f80575b5050505050846009018054806020026020016040519081016040528092919081815260200182805480156107f057602002820191906000526020600020908154815260200190600101908083116107dc5750505050506118d2565b9050600081836005015461100d9190612251565b60068401805491925060006110218361229d565b909155505060028301546001600160a01b0316600090815260066020526040812080548392906110529084906121fa565b92505081905550611110836008018054806020026020016040519081016040528092919081815260200182805480156110b457602002820191906000526020600020905b81546001600160a01b03168152600190910190602001808311611096575b50505050508460090180548060200260200160405190810160405280929190818152602001828054801561090857602002820191906000526020600020908154815260200190600101908083116108f457505050505084611946565b600583015460408051878152336020820152908101919091527fa8ff0760db1bd134bec00c7f599e3d73ad185cfc7dd4c313b1ccfc4bd959473790606001610952565b8060008111801561116657506000548111155b6111825760405162461bcd60e51b815260040161036e90612045565b600082815260026020526040902060058101543410156111f75760405162461bcd60e51b815260206004820152602a60248201527f496e73756666696369656e74207061796d656e7420746f2070757263686173656044820152692074686520747261636b60b01b606482015260840161036e565b60006112b2826005015483600801805480602002602001604051908101604052809291908181526020018280548015610f9e576020028201919060005260206000209081546001600160a01b03168152600190910190602001808311610f80575050505050846009018054806020026020016040519081016040528092919081815260200182805480156107f057602002820191906000526020600020908154815260200190600101908083116107dc5750505050506118d2565b905060008183600501546112c69190612251565b60078401805491925060006112da8361229d565b909155505060028301546001600160a01b03166000908152600660205260408120805483929061130b9084906121fa565b925050819055506113c7836008018054806020026020016040519081016040528092919081815260200182805480156110b4576020028201919060005260206000209081546001600160a01b031681526001909101906020018083116110965750505050508460090180548060200260200160405190810160405280929190818152602001828054801561090857602002820191906000526020600020908154815260200190600101908083116108f457505050505084611946565b33600081815260046020908152604080832080546001810182559084529190922001879055600585015490517ffe3f9af2d0ba5be4687ca774df8206ec9cf7919bcf32bd9c76b051e5dfbbb5b492610952928983526001600160a01b03919091166020830152604082015260600190565b6001600160a01b03811660009081526004602090815260409182902080548351818402810184019094528084526060939283018282801561042c57602002820191906000526020600020908154815260200190600101908083116104185750505050509050919050565b60008060015b60015481116109d8576000818152600360205260409020600201546001600160a01b03858116911614156114f5576000818152600360205260409020600601546114f290836121fa565b91505b806114ff8161229d565b9150506114a8565b8060008111801561151a57506001548111155b6115365760405162461bcd60e51b815260040161036e90612017565b600082815260036020526040902060058101543410156115ab5760405162461bcd60e51b815260206004820152602a60248201527f496e73756666696369656e74207061796d656e7420746f2070757263686173656044820152692074686520616c62756d60b01b606482015260840161036e565b600061166682600501548360090180548060200260200160405190810160405280929190818152602001828054801561079d576020028201919060005260206000209081546001600160a01b0316815260019091019060200180831161077f57505050505084600a018054806020026020016040519081016040528092919081815260200182805480156107f057602002820191906000526020600020908154815260200190600101908083116107dc5750505050506118d2565b9050600081836005015461167a9190612251565b600784018054919250600061168e8361229d565b909155505060028301546001600160a01b0316600090815260066020526040812080548392906116bf9084906121fa565b9250508190555061177b836009018054806020026020016040519081016040528092919081815260200182805480156108b5576020028201919060005260206000209081546001600160a01b0316815260019091019060200180831161089757505050505084600a0180548060200260200160405190810160405280929190818152602001828054801561090857602002820191906000526020600020908154815260200190600101908083116108f457505050505084611946565b3360008181526005602081815260408084208054600181018255908552919093200188905585015490517f11332ef3956cea4003185b2a4db8407e3e5662fe799887282e178f18726ecc9b92610952928983526001600160a01b03919091166020830152604082015260600190565b6060600060015467ffffffffffffffff81111561181757634e487b7160e01b600052604160045260246000fd5b604051908082528060200260200182016040528015611840578160200160208202803683370190505b509050600060015b6001548111610b81576000818152600360205260409020600201546001600160a01b03868116911614156118c05760008181526003602052604090205483518490849081106118a757634e487b7160e01b600052603260045260246000fd5b6020908102919091010152816118bc8161229d565b9250505b806118ca8161229d565b915050611848565b600080805b845181101561193d57606484828151811061190257634e487b7160e01b600052603260045260246000fd5b6020026020010151876119159190612232565b61191f9190612212565b61192990836121fa565b9150806119358161229d565b9150506118d7565b50949350505050565b81518351146119ad5760405162461bcd60e51b815260206004820152602d60248201527f4f776e65727320616e642070657263656e746167657320617272617973206c6560448201526c0dccee8d040dad2e6dac2e8c6d609b1b606482015260840161036e565b60005b8351811015611a755760008482815181106119db57634e487b7160e01b600052603260045260246000fd5b6020026020010151905060006064858481518110611a0957634e487b7160e01b600052603260045260246000fd5b602002602001015185611a1c9190612232565b611a269190612212565b6040519091506001600160a01b0383169082156108fc029083906000818181858888f19350505050158015611a5f573d6000803e3d6000fd5b5050508080611a6d9061229d565b9150506119b0565b50505050565b828054611a8790612268565b90600052602060002090601f016020900481019282611aa95760008555611aef565b82601f10611ac257805160ff1916838001178555611aef565b82800160010185558215611aef579182015b82811115611aef578251825591602001919060010190611ad4565b50611afb929150611b8e565b5090565b828054828255906000526020600020908101928215611aef579160200282015b82811115611aef57825182546001600160a01b0319166001600160a01b03909116178255602090920191600190910190611b1f565b828054828255906000526020600020908101928215611aef5791602002820182811115611aef578251825591602001919060010190611ad4565b5b80821115611afb5760008155600101611b8f565b80356001600160a01b0381168114611bba57600080fd5b919050565b600082601f830112611bcf578081fd5b81356020611be4611bdf836121d6565b6121a5565b80838252828201915082860187848660051b8901011115611c03578586fd5b855b85811015611c2857611c1682611ba3565b84529284019290840190600101611c05565b5090979650505050505050565b600082601f830112611c45578081fd5b81356020611c55611bdf836121d6565b80838252828201915082860187848660051b8901011115611c74578586fd5b855b85811015611c2857813584529284019290840190600101611c76565b600082601f830112611ca2578081fd5b813567ffffffffffffffff811115611cbc57611cbc6122ce565b611ccf601f8201601f19166020016121a5565b818152846020838601011115611ce3578283fd5b816020850160208301379081016020019190915292915050565b600060208284031215611d0e578081fd5b611d1782611ba3565b9392505050565b600080600080600080600060e0888a031215611d38578283fd5b873567ffffffffffffffff80821115611d4f578485fd5b611d5b8b838c01611c92565b9850611d6960208b01611ba3565b975060408a0135915080821115611d7e578485fd5b611d8a8b838c01611c92565b965060608a0135915080821115611d9f578485fd5b611dab8b838c01611c92565b955060808a0135945060a08a0135915080821115611dc7578384fd5b611dd38b838c01611bbf565b935060c08a0135915080821115611de8578283fd5b50611df58a828b01611c35565b91505092959891949750929550565b600080600080600080600080610100898b031215611e20578081fd5b883567ffffffffffffffff80821115611e37578283fd5b611e438c838d01611c92565b9950611e5160208c01611ba3565b985060408b0135915080821115611e66578283fd5b611e728c838d01611c92565b975060608b0135915080821115611e87578283fd5b611e938c838d01611c92565b965060808b0135955060a08b0135915080821115611eaf578283fd5b611ebb8c838d01611c35565b945060c08b0135915080821115611ed0578283fd5b611edc8c838d01611bbf565b935060e08b0135915080821115611ef1578283fd5b50611efe8b828c01611c35565b9150509295985092959890939650565b600060208284031215611f1f578081fd5b5035919050565b60008060408385031215611f38578182fd5b50508035926020909101359150565b6000815180845260208085019450808401835b83811015611f7f5781516001600160a01b031687529582019590820190600101611f5a565b509495945050505050565b6000815180845260208085019450808401835b83811015611f7f57815187529582019590820190600101611f9d565b60008151808452815b81811015611fde57602081850181015186830182015201611fc2565b81811115611fef5782602083870101525b50601f01601f19169290920160200192915050565b602081526000611d176020830184611f8a565b602080825260149082015273105b189d5b48191bd95cc81b9bdd08195e1a5cdd60621b604082015260600190565b602080825260149082015273151c9858dac8191bd95cc81b9bdd08195e1a5cdd60621b604082015260600190565b60006101008a835280602084015261208d8184018b611fb9565b6001600160a01b038a166040850152838103606085015290506120b08189611fb9565b905082810360808401526120c48188611fb9565b90508560a084015282810360c08401526120de8186611f47565b905082810360e08401526120f28185611f8a565b9b9a5050505050505050505050565b60006101208b835280602084015261211b8184018c611fb9565b6001600160a01b038b1660408501528381036060850152905061213e818a611fb9565b905082810360808401526121528189611fb9565b90508660a084015282810360c084015261216c8187611f8a565b905082810360e08401526121808186611f47565b90508281036101008401526121958185611f8a565b9c9b505050505050505050505050565b604051601f8201601f1916810167ffffffffffffffff811182821017156121ce576121ce6122ce565b604052919050565b600067ffffffffffffffff8211156121f0576121f06122ce565b5060051b60200190565b6000821982111561220d5761220d6122b8565b500190565b60008261222d57634e487b7160e01b81526012600452602481fd5b500490565b600081600019048311821515161561224c5761224c6122b8565b500290565b600082821015612263576122636122b8565b500390565b600181811c9082168061227c57607f821691505b6020821081141561069357634e487b7160e01b600052602260045260246000fd5b60006000198214156122b1576122b16122b8565b5060010190565b634e487b7160e01b600052601160045260246000fd5b634e487b7160e01b600052604160045260246000fdfea264697066735822122082f525de2e28274fda4516ce93c6ee16fb46a87ad890cd7e75a30b31f0d7c7cb64736f6c63430008040033",
  "linkReferences": {},
  "deployedLinkReferences": {}
}