{
  "_format": "hh-sol-artifact-1",
  "contractName": "Deyplay",
  "sourceName": "contracts/Deyplay.sol",
  "abi": [
    {
      "anonymous": false,
      "inputs": [
        {
          "indexed": false,
          "internalType": "uint256",
          "name": "id",
          "type": "uint256"
        },
        {
          "indexed": false,
          "internalType": "string",
          "name": "title",
          "type": "string"
        },
        {
          "indexed": false,
          "internalType": "string",
          "name": "description",
          "type": "string"
        },
        {
          "indexed": false,
          "internalType": "address",
          "name": "artist",
          "type": "address"
        },
        {
          "indexed": false,
          "internalType": "string",
          "name": "imageUrl",
          "type": "string"
        },
        {
          "indexed": false,
          "internalType": "string",
          "name": "audioFile",
          "type": "string"
        },
        {
          "indexed": false,
          "internalType": "uint256",
          "name": "price",
          "type": "uint256"
        },
        {
          "indexed": false,
          "internalType": "address[]",
          "name": "royaltiesOwners",
          "type": "address[]"
        },
        {
          "indexed": false,
          "internalType": "uint256[]",
          "name": "royaltiesPercentages",
          "type": "uint256[]"
        }
      ],
      "name": "TrackCreated",
      "type": "event"
    },
    {
      "anonymous": false,
      "inputs": [
        {
          "indexed": false,
          "internalType": "uint256",
          "name": "trackId",
          "type": "uint256"
        },
        {
          "indexed": false,
          "internalType": "address",
          "name": "buyer",
          "type": "address"
        },
        {
          "indexed": false,
          "internalType": "uint256",
          "name": "amount",
          "type": "uint256"
        }
      ],
      "name": "TrackPurchased",
      "type": "event"
    },
    {
      "anonymous": false,
      "inputs": [
        {
          "indexed": false,
          "internalType": "uint256",
          "name": "trackId",
          "type": "uint256"
        },
        {
          "indexed": false,
          "internalType": "address",
          "name": "listener",
          "type": "address"
        },
        {
          "indexed": false,
          "internalType": "uint256",
          "name": "amount",
          "type": "uint256"
        }
      ],
      "name": "TrackStreamed",
      "type": "event"
    },
    {
      "inputs": [
        {
          "internalType": "string",
          "name": "_title",
          "type": "string"
        },
        {
          "internalType": "string",
          "name": "_description",
          "type": "string"
        },
        {
          "internalType": "address",
          "name": "_artist",
          "type": "address"
        },
        {
          "internalType": "string",
          "name": "_imageUrl",
          "type": "string"
        },
        {
          "internalType": "string",
          "name": "_audioFile",
          "type": "string"
        },
        {
          "internalType": "uint256",
          "name": "_price",
          "type": "uint256"
        },
        {
          "internalType": "address[]",
          "name": "_royaltiesOwners",
          "type": "address[]"
        },
        {
          "internalType": "uint256[]",
          "name": "_royaltiesPercentages",
          "type": "uint256[]"
        }
      ],
      "name": "addTrack",
      "outputs": [],
      "stateMutability": "nonpayable",
      "type": "function"
    },
    {
      "inputs": [
        {
          "internalType": "address",
          "name": "_artist",
          "type": "address"
        }
      ],
      "name": "getArtistBalance",
      "outputs": [
        {
          "internalType": "uint256",
          "name": "",
          "type": "uint256"
        }
      ],
      "stateMutability": "view",
      "type": "function"
    },
    {
      "inputs": [
        {
          "internalType": "address",
          "name": "_artist",
          "type": "address"
        }
      ],
      "name": "getTotalTrackAmount",
      "outputs": [
        {
          "internalType": "uint256",
          "name": "",
          "type": "uint256"
        }
      ],
      "stateMutability": "view",
      "type": "function"
    },
    {
      "inputs": [
        {
          "internalType": "address",
          "name": "_artist",
          "type": "address"
        }
      ],
      "name": "getTotalTrackStreams",
      "outputs": [
        {
          "internalType": "uint256",
          "name": "",
          "type": "uint256"
        }
      ],
      "stateMutability": "view",
      "type": "function"
    },
    {
      "inputs": [
        {
          "internalType": "address",
          "name": "_artist",
          "type": "address"
        }
      ],
      "name": "getTotalTracksPurchasedFromArtist",
      "outputs": [
        {
          "internalType": "uint256",
          "name": "",
          "type": "uint256"
        }
      ],
      "stateMutability": "view",
      "type": "function"
    },
    {
      "inputs": [
        {
          "internalType": "address",
          "name": "_artist",
          "type": "address"
        }
      ],
      "name": "getTotalTracksUploadedByArtist",
      "outputs": [
        {
          "internalType": "uint256",
          "name": "",
          "type": "uint256"
        }
      ],
      "stateMutability": "view",
      "type": "function"
    },
    {
      "inputs": [
        {
          "internalType": "uint256",
          "name": "_trackId",
          "type": "uint256"
        }
      ],
      "name": "getTrack",
      "outputs": [
        {
          "components": [
            {
              "internalType": "uint256",
              "name": "id",
              "type": "uint256"
            },
            {
              "internalType": "string",
              "name": "title",
              "type": "string"
            },
            {
              "internalType": "string",
              "name": "description",
              "type": "string"
            },
            {
              "internalType": "address",
              "name": "artist",
              "type": "address"
            },
            {
              "internalType": "string",
              "name": "imageUrl",
              "type": "string"
            },
            {
              "internalType": "string",
              "name": "audioFile",
              "type": "string"
            },
            {
              "internalType": "uint256",
              "name": "price",
              "type": "uint256"
            },
            {
              "internalType": "uint256",
              "name": "totalStreams",
              "type": "uint256"
            },
            {
              "internalType": "uint256",
              "name": "totalPurchases",
              "type": "uint256"
            },
            {
              "internalType": "address[]",
              "name": "royaltiesOwners",
              "type": "address[]"
            },
            {
              "internalType": "uint256[]",
              "name": "royaltiesPercentages",
              "type": "uint256[]"
            }
          ],
          "internalType": "struct Deyplay.Track",
          "name": "",
          "type": "tuple"
        }
      ],
      "stateMutability": "view",
      "type": "function"
    },
    {
      "inputs": [
        {
          "internalType": "address",
          "name": "_user",
          "type": "address"
        }
      ],
      "name": "getUserPurchasedTracks",
      "outputs": [
        {
          "internalType": "uint256[]",
          "name": "",
          "type": "uint256[]"
        }
      ],
      "stateMutability": "view",
      "type": "function"
    },
    {
      "inputs": [],
      "name": "listAllTracks",
      "outputs": [
        {
          "internalType": "uint256[]",
          "name": "",
          "type": "uint256[]"
        }
      ],
      "stateMutability": "view",
      "type": "function"
    },
    {
      "inputs": [
        {
          "internalType": "address",
          "name": "_artist",
          "type": "address"
        }
      ],
      "name": "listTracksByArtist",
      "outputs": [
        {
          "internalType": "uint256[]",
          "name": "",
          "type": "uint256[]"
        }
      ],
      "stateMutability": "view",
      "type": "function"
    },
    {
      "inputs": [
        {
          "internalType": "uint256",
          "name": "_trackId",
          "type": "uint256"
        }
      ],
      "name": "purchaseTrack",
      "outputs": [],
      "stateMutability": "payable",
      "type": "function"
    },
    {
      "inputs": [
        {
          "internalType": "uint256",
          "name": "_trackId",
          "type": "uint256"
        }
      ],
      "name": "streamTrack",
      "outputs": [],
      "stateMutability": "payable",
      "type": "function"
    }
  ],
  "bytecode": "0x608060405234801561001057600080fd5b50611b91806100206000396000f3fe6080604052600436106100a75760003560e01c80638ef8b386116100645780638ef8b3861461018e5780639edc858c146101a3578063acff110e146101b6578063d7904d75146101d6578063decdbb2b146101f6578063f4ce0f861461021657600080fd5b80630d546dcc146100ac5780635d0650b4146100df578063629058ca146100ff5780636456b79a1461012c5780636850a7e31461014e57806376dde21b1461016e575b600080fd5b3480156100b857600080fd5b506100cc6100c736600461162d565b61024c565b6040519081526020015b60405180910390f35b3480156100eb57600080fd5b506100cc6100fa36600461162d565b6102a7565b34801561010b57600080fd5b5061011f61011a366004611758565b61031d565b6040516100d6919061186e565b34801561013857600080fd5b5061014161071d565b6040516100d6919061182d565b34801561015a57600080fd5b5061014161016936600461162d565b6107db565b34801561017a57600080fd5b506100cc61018936600461162d565b6108cb565b6101a161019c366004611758565b610930565b005b6101a16101b1366004611758565b610bfa565b3480156101c257600080fd5b506101416101d136600461162d565b610ee1565b3480156101e257600080fd5b506101a16101f136600461164e565b610f4d565b34801561020257600080fd5b506100cc61021136600461162d565b61111e565b34801561022257600080fd5b506100cc61023136600461162d565b6001600160a01b031660009081526003602052604090205490565b60008060015b60005481116102a0576000818152600160205260409020600301546001600160a01b038581169116141561028e578161028a81611b14565b9250505b8061029881611b14565b915050610252565b5092915050565b60008060015b60005481116102a0576000818152600160205260409020600301546001600160a01b038581169116141561030b57600081815260016020526040902060068101546008909101546102fe9190611aa9565b6103089083611a71565b91505b8061031581611b14565b9150506102ad565b61038360405180610160016040528060008152602001606081526020016060815260200160006001600160a01b03168152602001606081526020016060815260200160008152602001600081526020016000815260200160608152602001606081525090565b8160008111801561039657506000548111155b6103bb5760405162461bcd60e51b81526004016103b290611840565b60405180910390fd5b60008381526001602081815260409283902083516101608101909452805484529182018054918401916103ed90611adf565b80601f016020809104026020016040519081016040528092919081815260200182805461041990611adf565b80156104665780601f1061043b57610100808354040283529160200191610466565b820191906000526020600020905b81548152906001019060200180831161044957829003601f168201915b5050505050815260200160028201805461047f90611adf565b80601f01602080910402602001604051908101604052809291908181526020018280546104ab90611adf565b80156104f85780601f106104cd576101008083540402835291602001916104f8565b820191906000526020600020905b8154815290600101906020018083116104db57829003601f168201915b505050918352505060038201546001600160a01b0316602082015260048201805460409092019161052890611adf565b80601f016020809104026020016040519081016040528092919081815260200182805461055490611adf565b80156105a15780601f10610576576101008083540402835291602001916105a1565b820191906000526020600020905b81548152906001019060200180831161058457829003601f168201915b505050505081526020016005820180546105ba90611adf565b80601f01602080910402602001604051908101604052809291908181526020018280546105e690611adf565b80156106335780601f1061060857610100808354040283529160200191610633565b820191906000526020600020905b81548152906001019060200180831161061657829003601f168201915b50505050508152602001600682015481526020016007820154815260200160088201548152602001600982018054806020026020016040519081016040528092919081815260200182805480156106b357602002820191906000526020600020905b81546001600160a01b03168152600190910190602001808311610695575b50505050508152602001600a820180548060200260200160405190810160405280929190818152602001828054801561070b57602002820191906000526020600020905b8154815260200190600101908083116106f7575b50505050508152505091505b50919050565b60606000805467ffffffffffffffff81111561074957634e487b7160e01b600052604160045260246000fd5b604051908082528060200260200182016040528015610772578160200160208202803683370190505b50905060015b6000548111610717576000818152600160208190526040909120549083906107a09084611ac8565b815181106107be57634e487b7160e01b600052603260045260246000fd5b6020908102919091010152806107d381611b14565b915050610778565b60606000805467ffffffffffffffff81111561080757634e487b7160e01b600052604160045260246000fd5b604051908082528060200260200182016040528015610830578160200160208202803683370190505b509050600060015b60005481116108c2576000818152600160205260409020600301546001600160a01b03868116911614156108b057600081815260016020526040902054835184908490811061089757634e487b7160e01b600052603260045260246000fd5b6020908102919091010152816108ac81611b14565b9250505b806108ba81611b14565b915050610838565b50909392505050565b60008060015b60005481116102a0576000818152600160205260409020600301546001600160a01b038581169116141561091e5760008181526001602052604090206007015461091b9083611a71565b91505b8061092881611b14565b9150506108d1565b8060008111801561094357506000548111155b61095f5760405162461bcd60e51b81526004016103b290611840565b600082815260016020526040902060068101543410156109d25760405162461bcd60e51b815260206004820152602860248201527f496e73756666696369656e74207061796d656e7420746f2073747265616d2074604482015267686520747261636b60c01b60648201526084016103b2565b6000610a91826006015483600901805480602002602001604051908101604052809291908181526020018280548015610a3457602002820191906000526020600020905b81546001600160a01b03168152600190910190602001808311610a16575b505050505084600a01805480602002602001604051908101604052809291908181526020018280548015610a8757602002820191906000526020600020905b815481526020019060010190808311610a73575b5050505050611202565b90506000818360060154610aa59190611ac8565b6007840180549192506000610ab983611b14565b90915550506003838101546001600160a01b03166000908152602091909152604081208054839290610aec908490611a71565b92505081905550610bac83600901805480602002602001604051908101604052809291908181526020018280548015610b4e57602002820191906000526020600020905b81546001600160a01b03168152600190910190602001808311610b30575b505050505084600a01805480602002602001604051908101604052809291908181526020018280548015610ba157602002820191906000526020600020905b815481526020019060010190808311610b8d575b505050505084611276565b600683015460408051878152336020820152908101919091527fa8ff0760db1bd134bec00c7f599e3d73ad185cfc7dd4c313b1ccfc4bd9594737906060015b60405180910390a15050505050565b80600081118015610c0d57506000548111155b610c295760405162461bcd60e51b81526004016103b290611840565b60008281526001602052604090206006810154341015610c9e5760405162461bcd60e51b815260206004820152602a60248201527f496e73756666696369656e74207061796d656e7420746f2070757263686173656044820152692074686520747261636b60b01b60648201526084016103b2565b6000610d59826006015483600901805480602002602001604051908101604052809291908181526020018280548015610a34576020028201919060005260206000209081546001600160a01b03168152600190910190602001808311610a1657505050505084600a01805480602002602001604051908101604052809291908181526020018280548015610a875760200282019190600052602060002090815481526020019060010190808311610a73575050505050611202565b90506000818360060154610d6d9190611ac8565b6008840180549192506000610d8183611b14565b90915550506003838101546001600160a01b03166000908152602091909152604081208054839290610db4908490611a71565b92505081905550610e7083600901805480602002602001604051908101604052809291908181526020018280548015610b4e576020028201919060005260206000209081546001600160a01b03168152600190910190602001808311610b3057505050505084600a01805480602002602001604051908101604052809291908181526020018280548015610ba15760200282019190600052602060002090815481526020019060010190808311610b8d57505050505084611276565b33600081815260026020908152604080832080546001810182559084529190922001879055600685015490517ffe3f9af2d0ba5be4687ca774df8206ec9cf7919bcf32bd9c76b051e5dfbbb5b492610beb928983526001600160a01b03919091166020830152604082015260600190565b6001600160a01b038116600090815260026020908152604091829020805483518184028101840190945280845260609392830182828015610f4157602002820191906000526020600020905b815481526020019060010190808311610f2d575b50505050509050919050565b600080549080610f5c83611b14565b91905055506040518061016001604052806000548152602001898152602001888152602001876001600160a01b031681526020018681526020018581526020018481526020016000815260200160008152602001838152602001828152506001600080548152602001908152602001600020600082015181600001556020820151816001019080519060200190610ff49291906113ab565b50604082015180516110109160028401916020909101906113ab565b5060608201516003820180546001600160a01b0319166001600160a01b03909216919091179055608082015180516110529160048401916020909101906113ab565b5060a0820151805161106e9160058401916020909101906113ab565b5060c0820151600682015560e08201516007820155610100820151600882015561012082015180516110aa91600984019160209091019061142f565b5061014082015180516110c791600a840191602090910190611484565b509050507fe2598d3e609dd71c51bd6db67255d4df6be8e7aa0bc5cd6df84a913b3ebf7599600054898989898989898960405161110c99989796959493929190611978565b60405180910390a15050505050505050565b33600090815260026020908152604080832080548251818502810185019093528083528493849392919083018282801561117757602002820191906000526020600020905b815481526020019060010190808311611163575b5050505050905060005b81518110156108c25760008282815181106111ac57634e487b7160e01b600052603260045260246000fd5b602090810291909101810151600081815260019092526040909120600301549091506001600160a01b03878116911614156111ef57836111eb81611b14565b9450505b50806111fa81611b14565b915050611181565b600080805b845181101561126d57606484828151811061123257634e487b7160e01b600052603260045260246000fd5b6020026020010151876112459190611aa9565b61124f9190611a89565b6112599083611a71565b91508061126581611b14565b915050611207565b50949350505050565b81518351146112dd5760405162461bcd60e51b815260206004820152602d60248201527f4f776e65727320616e642070657263656e746167657320617272617973206c6560448201526c0dccee8d040dad2e6dac2e8c6d609b1b60648201526084016103b2565b60005b83518110156113a557600084828151811061130b57634e487b7160e01b600052603260045260246000fd5b602002602001015190506000606485848151811061133957634e487b7160e01b600052603260045260246000fd5b60200260200101518561134c9190611aa9565b6113569190611a89565b6040519091506001600160a01b0383169082156108fc029083906000818181858888f1935050505015801561138f573d6000803e3d6000fd5b505050808061139d90611b14565b9150506112e0565b50505050565b8280546113b790611adf565b90600052602060002090601f0160209004810192826113d9576000855561141f565b82601f106113f257805160ff191683800117855561141f565b8280016001018555821561141f579182015b8281111561141f578251825591602001919060010190611404565b5061142b9291506114be565b5090565b82805482825590600052602060002090810192821561141f579160200282015b8281111561141f57825182546001600160a01b0319166001600160a01b0390911617825560209092019160019091019061144f565b82805482825590600052602060002090810192821561141f579160200282018281111561141f578251825591602001919060010190611404565b5b8082111561142b57600081556001016114bf565b80356001600160a01b03811681146114ea57600080fd5b919050565b600082601f8301126114ff578081fd5b8135602061151461150f83611a4d565b611a1c565b80838252828201915082860187848660051b8901011115611533578586fd5b855b8581101561155857611546826114d3565b84529284019290840190600101611535565b5090979650505050505050565b600082601f830112611575578081fd5b8135602061158561150f83611a4d565b80838252828201915082860187848660051b89010111156115a4578586fd5b855b85811015611558578135845292840192908401906001016115a6565b600082601f8301126115d2578081fd5b813567ffffffffffffffff8111156115ec576115ec611b45565b6115ff601f8201601f1916602001611a1c565b818152846020838601011115611613578283fd5b816020850160208301379081016020019190915292915050565b60006020828403121561163e578081fd5b611647826114d3565b9392505050565b600080600080600080600080610100898b03121561166a578384fd5b883567ffffffffffffffff80821115611681578586fd5b61168d8c838d016115c2565b995060208b01359150808211156116a2578586fd5b6116ae8c838d016115c2565b98506116bc60408c016114d3565b975060608b01359150808211156116d1578586fd5b6116dd8c838d016115c2565b965060808b01359150808211156116f2578586fd5b6116fe8c838d016115c2565b955060a08b0135945060c08b013591508082111561171a578384fd5b6117268c838d016114ef565b935060e08b013591508082111561173b578283fd5b506117488b828c01611565565b9150509295985092959890939650565b600060208284031215611769578081fd5b5035919050565b6000815180845260208085019450808401835b838110156117a85781516001600160a01b031687529582019590820190600101611783565b509495945050505050565b6000815180845260208085019450808401835b838110156117a8578151875295820195908201906001016117c6565b60008151808452815b81811015611807576020818501810151868301820152016117eb565b818111156118185782602083870101525b50601f01601f19169290920160200192915050565b60208152600061164760208301846117b3565b602080825260149082015273151c9858dac8191bd95cc81b9bdd08195e1a5cdd60621b604082015260600190565b6020815281516020820152600060208301516101608060408501526118976101808501836117e2565b91506040850151601f19808685030160608701526118b584836117e2565b9350606087015191506118d360808701836001600160a01b03169052565b60808701519150808685030160a08701526118ee84836117e2565b935060a08701519150808685030160c087015261190b84836117e2565b935060c087015160e087015260e087015191506101008281880152808801519250506101208281880152808801519250506101408187860301818801526119528584611770565b90880151878203909201848801529350905061196e83826117b3565b9695505050505050565b60006101208b83528060208401526119928184018c6117e2565b905082810360408401526119a6818b6117e2565b6001600160a01b038a166060850152838103608085015290506119c981896117e2565b905082810360a08401526119dd81886117e2565b90508560c084015282810360e08401526119f78186611770565b9050828103610100840152611a0c81856117b3565b9c9b505050505050505050505050565b604051601f8201601f1916810167ffffffffffffffff81118282101715611a4557611a45611b45565b604052919050565b600067ffffffffffffffff821115611a6757611a67611b45565b5060051b60200190565b60008219821115611a8457611a84611b2f565b500190565b600082611aa457634e487b7160e01b81526012600452602481fd5b500490565b6000816000190483118215151615611ac357611ac3611b2f565b500290565b600082821015611ada57611ada611b2f565b500390565b600181811c90821680611af357607f821691505b6020821081141561071757634e487b7160e01b600052602260045260246000fd5b6000600019821415611b2857611b28611b2f565b5060010190565b634e487b7160e01b600052601160045260246000fd5b634e487b7160e01b600052604160045260246000fdfea26469706673582212207929ebd327272c2238ac8ba55ef3dd6a8fa061fbbe38e7678bd87533f9787bc964736f6c63430008040033",
  "linkReferences": {},
  "deployedLinkReferences": {}
}