{
  "_format": "hh-sol-artifact-1",
  "contractName": "Deyplay",
  "sourceName": "contracts/Deyplay.sol",
  "abi": [
    {
      "anonymous": false,
      "inputs": [
        {
          "indexed": false,
          "internalType": "uint256",
          "name": "id",
          "type": "uint256"
        },
        {
          "indexed": false,
          "internalType": "string",
          "name": "title",
          "type": "string"
        },
        {
          "indexed": false,
          "internalType": "string",
          "name": "description",
          "type": "string"
        },
        {
          "indexed": false,
          "internalType": "address",
          "name": "artist",
          "type": "address"
        },
        {
          "indexed": false,
          "internalType": "string",
          "name": "imageUrl",
          "type": "string"
        },
        {
          "indexed": false,
          "internalType": "string",
          "name": "audioFile",
          "type": "string"
        },
        {
          "indexed": false,
          "internalType": "uint256",
          "name": "price",
          "type": "uint256"
        },
        {
          "indexed": false,
          "internalType": "uint256",
          "name": "streamAmount",
          "type": "uint256"
        },
        {
          "indexed": false,
          "internalType": "address[]",
          "name": "royaltiesOwners",
          "type": "address[]"
        },
        {
          "indexed": false,
          "internalType": "uint256[]",
          "name": "royaltiesPercentages",
          "type": "uint256[]"
        }
      ],
      "name": "TrackCreated",
      "type": "event"
    },
    {
      "anonymous": false,
      "inputs": [
        {
          "indexed": false,
          "internalType": "uint256",
          "name": "trackId",
          "type": "uint256"
        },
        {
          "indexed": false,
          "internalType": "address",
          "name": "buyer",
          "type": "address"
        },
        {
          "indexed": false,
          "internalType": "uint256",
          "name": "amount",
          "type": "uint256"
        }
      ],
      "name": "TrackPurchased",
      "type": "event"
    },
    {
      "anonymous": false,
      "inputs": [
        {
          "indexed": false,
          "internalType": "uint256",
          "name": "trackId",
          "type": "uint256"
        },
        {
          "indexed": false,
          "internalType": "address",
          "name": "listener",
          "type": "address"
        },
        {
          "indexed": false,
          "internalType": "uint256",
          "name": "amount",
          "type": "uint256"
        }
      ],
      "name": "TrackStreamed",
      "type": "event"
    },
    {
      "inputs": [
        {
          "internalType": "string",
          "name": "_title",
          "type": "string"
        },
        {
          "internalType": "string",
          "name": "_description",
          "type": "string"
        },
        {
          "internalType": "address",
          "name": "_artist",
          "type": "address"
        },
        {
          "internalType": "string",
          "name": "_imageUrl",
          "type": "string"
        },
        {
          "internalType": "string",
          "name": "_audioFile",
          "type": "string"
        },
        {
          "internalType": "uint256",
          "name": "_price",
          "type": "uint256"
        },
        {
          "internalType": "uint256",
          "name": "_streamAmount",
          "type": "uint256"
        },
        {
          "internalType": "address[]",
          "name": "_royaltiesOwners",
          "type": "address[]"
        },
        {
          "internalType": "uint256[]",
          "name": "_royaltiesPercentages",
          "type": "uint256[]"
        }
      ],
      "name": "addTrack",
      "outputs": [],
      "stateMutability": "nonpayable",
      "type": "function"
    },
    {
      "inputs": [
        {
          "internalType": "address",
          "name": "_artist",
          "type": "address"
        }
      ],
      "name": "getArtistBalance",
      "outputs": [
        {
          "internalType": "uint256",
          "name": "",
          "type": "uint256"
        }
      ],
      "stateMutability": "view",
      "type": "function"
    },
    {
      "inputs": [
        {
          "internalType": "address",
          "name": "_artist",
          "type": "address"
        }
      ],
      "name": "getTotalTrackAmount",
      "outputs": [
        {
          "internalType": "uint256",
          "name": "",
          "type": "uint256"
        }
      ],
      "stateMutability": "view",
      "type": "function"
    },
    {
      "inputs": [
        {
          "internalType": "address",
          "name": "_artist",
          "type": "address"
        }
      ],
      "name": "getTotalTrackStreams",
      "outputs": [
        {
          "internalType": "uint256",
          "name": "",
          "type": "uint256"
        }
      ],
      "stateMutability": "view",
      "type": "function"
    },
    {
      "inputs": [
        {
          "internalType": "address",
          "name": "_artist",
          "type": "address"
        }
      ],
      "name": "getTotalTracksPurchasedFromArtist",
      "outputs": [
        {
          "internalType": "uint256",
          "name": "",
          "type": "uint256"
        }
      ],
      "stateMutability": "view",
      "type": "function"
    },
    {
      "inputs": [
        {
          "internalType": "address",
          "name": "_artist",
          "type": "address"
        }
      ],
      "name": "getTotalTracksUploadedByArtist",
      "outputs": [
        {
          "internalType": "uint256",
          "name": "",
          "type": "uint256"
        }
      ],
      "stateMutability": "view",
      "type": "function"
    },
    {
      "inputs": [
        {
          "internalType": "uint256",
          "name": "_trackId",
          "type": "uint256"
        }
      ],
      "name": "getTrack",
      "outputs": [
        {
          "components": [
            {
              "internalType": "uint256",
              "name": "id",
              "type": "uint256"
            },
            {
              "internalType": "string",
              "name": "title",
              "type": "string"
            },
            {
              "internalType": "string",
              "name": "description",
              "type": "string"
            },
            {
              "internalType": "address",
              "name": "artist",
              "type": "address"
            },
            {
              "internalType": "string",
              "name": "imageUrl",
              "type": "string"
            },
            {
              "internalType": "string",
              "name": "audioFile",
              "type": "string"
            },
            {
              "internalType": "uint256",
              "name": "price",
              "type": "uint256"
            },
            {
              "internalType": "uint256",
              "name": "totalStreams",
              "type": "uint256"
            },
            {
              "internalType": "uint256",
              "name": "totalPurchases",
              "type": "uint256"
            },
            {
              "internalType": "address[]",
              "name": "royaltiesOwners",
              "type": "address[]"
            },
            {
              "internalType": "uint256[]",
              "name": "royaltiesPercentages",
              "type": "uint256[]"
            }
          ],
          "internalType": "struct Deyplay.Track",
          "name": "",
          "type": "tuple"
        }
      ],
      "stateMutability": "view",
      "type": "function"
    },
    {
      "inputs": [
        {
          "internalType": "address",
          "name": "_user",
          "type": "address"
        }
      ],
      "name": "getUserPurchasedTracks",
      "outputs": [
        {
          "internalType": "uint256[]",
          "name": "",
          "type": "uint256[]"
        }
      ],
      "stateMutability": "view",
      "type": "function"
    },
    {
      "inputs": [],
      "name": "listAllTracks",
      "outputs": [
        {
          "internalType": "uint256[]",
          "name": "",
          "type": "uint256[]"
        }
      ],
      "stateMutability": "view",
      "type": "function"
    },
    {
      "inputs": [
        {
          "internalType": "address",
          "name": "_artist",
          "type": "address"
        }
      ],
      "name": "listTracksByArtist",
      "outputs": [
        {
          "internalType": "uint256[]",
          "name": "",
          "type": "uint256[]"
        }
      ],
      "stateMutability": "view",
      "type": "function"
    },
    {
      "inputs": [
        {
          "internalType": "uint256",
          "name": "_trackId",
          "type": "uint256"
        }
      ],
      "name": "purchaseTrack",
      "outputs": [],
      "stateMutability": "payable",
      "type": "function"
    },
    {
      "inputs": [
        {
          "internalType": "uint256",
          "name": "_trackId",
          "type": "uint256"
        },
        {
          "internalType": "uint256",
          "name": "_streamAmount",
          "type": "uint256"
        }
      ],
      "name": "streamTrack",
      "outputs": [],
      "stateMutability": "payable",
      "type": "function"
    }
  ],
  "bytecode": "0x608060405234801561001057600080fd5b50611bc2806100206000396000f3fe6080604052600436106100a75760003560e01c80636850a7e3116100645780636850a7e31461018357806376dde21b146101a35780639edc858c146101c3578063acff110e146101d6578063decdbb2b146101f6578063f4ce0f861461021657600080fd5b80630d546dcc146100ac57806338baaadb146100df5780635d0650b414610101578063629058ca146101215780636456b79a1461014e57806367613d0a14610170575b600080fd5b3480156100b857600080fd5b506100cc6100c736600461162b565b61024c565b6040519081526020015b60405180910390f35b3480156100eb57600080fd5b506100ff6100fa36600461164c565b6102a7565b005b34801561010d57600080fd5b506100cc61011c36600461162b565b61047b565b34801561012d57600080fd5b5061014161013c366004611760565b6104f1565b6040516100d69190611897565b34801561015a57600080fd5b506101636108f1565b6040516100d69190611856565b6100ff61017e366004611778565b6109af565b34801561018f57600080fd5b5061016361019e36600461162b565b610c65565b3480156101af57600080fd5b506100cc6101be36600461162b565b610d55565b6100ff6101d1366004611760565b610dba565b3480156101e257600080fd5b506101636101f136600461162b565b6110b0565b34801561020257600080fd5b506100cc61021136600461162b565b61111c565b34801561022257600080fd5b506100cc61023136600461162b565b6001600160a01b031660009081526003602052604090205490565b60008060015b60005481116102a0576000818152600160205260409020600301546001600160a01b038581169116141561028e578161028a81611b45565b9250505b8061029881611b45565b915050610252565b5092915050565b6000805490806102b683611b45565b919050555060405180610160016040528060005481526020018a8152602001898152602001886001600160a01b03168152602001878152602001868152602001858152602001600081526020016000815260200183815260200182815250600160008054815260200190815260200160002060008201518160000155602082015181600101908051906020019061034e9291906113a9565b506040820151805161036a9160028401916020909101906113a9565b5060608201516003820180546001600160a01b0319166001600160a01b03909216919091179055608082015180516103ac9160048401916020909101906113a9565b5060a082015180516103c89160058401916020909101906113a9565b5060c0820151600682015560e082015160078201556101008201516008820155610120820151805161040491600984019160209091019061142d565b50610140820151805161042191600a840191602090910190611482565b509050507f912bce95a397f13d435cf205593a32fe94abf42a4a4b7399046f0cc47bc8dc1f6000548a8a8a8a8a8a8a8a8a6040516104689a999897969594939291906119a1565b60405180910390a1505050505050505050565b60008060015b60005481116102a0576000818152600160205260409020600301546001600160a01b03858116911614156104df57600081815260016020526040902060068101546008909101546104d29190611ada565b6104dc9083611aa2565b91505b806104e981611b45565b915050610481565b61055760405180610160016040528060008152602001606081526020016060815260200160006001600160a01b03168152602001606081526020016060815260200160008152602001600081526020016000815260200160608152602001606081525090565b8160008111801561056a57506000548111155b61058f5760405162461bcd60e51b815260040161058690611869565b60405180910390fd5b60008381526001602081815260409283902083516101608101909452805484529182018054918401916105c190611b10565b80601f01602080910402602001604051908101604052809291908181526020018280546105ed90611b10565b801561063a5780601f1061060f5761010080835404028352916020019161063a565b820191906000526020600020905b81548152906001019060200180831161061d57829003601f168201915b5050505050815260200160028201805461065390611b10565b80601f016020809104026020016040519081016040528092919081815260200182805461067f90611b10565b80156106cc5780601f106106a1576101008083540402835291602001916106cc565b820191906000526020600020905b8154815290600101906020018083116106af57829003601f168201915b505050918352505060038201546001600160a01b031660208201526004820180546040909201916106fc90611b10565b80601f016020809104026020016040519081016040528092919081815260200182805461072890611b10565b80156107755780601f1061074a57610100808354040283529160200191610775565b820191906000526020600020905b81548152906001019060200180831161075857829003601f168201915b5050505050815260200160058201805461078e90611b10565b80601f01602080910402602001604051908101604052809291908181526020018280546107ba90611b10565b80156108075780601f106107dc57610100808354040283529160200191610807565b820191906000526020600020905b8154815290600101906020018083116107ea57829003601f168201915b505050505081526020016006820154815260200160078201548152602001600882015481526020016009820180548060200260200160405190810160405280929190818152602001828054801561088757602002820191906000526020600020905b81546001600160a01b03168152600190910190602001808311610869575b50505050508152602001600a82018054806020026020016040519081016040528092919081815260200182805480156108df57602002820191906000526020600020905b8154815260200190600101908083116108cb575b50505050508152505091505b50919050565b60606000805467ffffffffffffffff81111561091d57634e487b7160e01b600052604160045260246000fd5b604051908082528060200260200182016040528015610946578160200160208202803683370190505b50905060015b60005481116108eb576000818152600160208190526040909120549083906109749084611af9565b8151811061099257634e487b7160e01b600052603260045260246000fd5b6020908102919091010152806109a781611b45565b91505061094c565b816000811180156109c257506000548111155b6109de5760405162461bcd60e51b815260040161058690611869565b600083815260016020526040902034831115610a4d5760405162461bcd60e51b815260206004820152602860248201527f496e73756666696369656e74207061796d656e7420746f2073747265616d2074604482015267686520747261636b60c01b6064820152608401610586565b6000610b088483600901805480602002602001604051908101604052809291908181526020018280548015610aab57602002820191906000526020600020905b81546001600160a01b03168152600190910190602001808311610a8d575b505050505084600a01805480602002602001604051908101604052809291908181526020018280548015610afe57602002820191906000526020600020905b815481526020019060010190808311610aea575b5050505050611200565b90506000610b168286611af9565b6007840180549192506000610b2a83611b45565b90915550506003838101546001600160a01b03166000908152602091909152604081208054839290610b5d908490611aa2565b92505081905550610c1d83600901805480602002602001604051908101604052809291908181526020018280548015610bbf57602002820191906000526020600020905b81546001600160a01b03168152600190910190602001808311610ba1575b505050505084600a01805480602002602001604051908101604052809291908181526020018280548015610c1257602002820191906000526020600020905b815481526020019060010190808311610bfe575b505050505084611274565b604080518781523360208201529081018690527fa8ff0760db1bd134bec00c7f599e3d73ad185cfc7dd4c313b1ccfc4bd95947379060600160405180910390a1505050505050565b60606000805467ffffffffffffffff811115610c9157634e487b7160e01b600052604160045260246000fd5b604051908082528060200260200182016040528015610cba578160200160208202803683370190505b509050600060015b6000548111610d4c576000818152600160205260409020600301546001600160a01b0386811691161415610d3a576000818152600160205260409020548351849084908110610d2157634e487b7160e01b600052603260045260246000fd5b602090810291909101015281610d3681611b45565b9250505b80610d4481611b45565b915050610cc2565b50909392505050565b60008060015b60005481116102a0576000818152600160205260409020600301546001600160a01b0385811691161415610da857600081815260016020526040902060070154610da59083611aa2565b91505b80610db281611b45565b915050610d5b565b80600081118015610dcd57506000548111155b610de95760405162461bcd60e51b815260040161058690611869565b60008281526001602052604090206006810154341015610e5e5760405162461bcd60e51b815260206004820152602a60248201527f496e73756666696369656e74207061796d656e7420746f2070757263686173656044820152692074686520747261636b60b01b6064820152608401610586565b6000610f19826006015483600901805480602002602001604051908101604052809291908181526020018280548015610aab576020028201919060005260206000209081546001600160a01b03168152600190910190602001808311610a8d57505050505084600a01805480602002602001604051908101604052809291908181526020018280548015610afe5760200282019190600052602060002090815481526020019060010190808311610aea575050505050611200565b90506000818360060154610f2d9190611af9565b6008840180549192506000610f4183611b45565b90915550506003838101546001600160a01b03166000908152602091909152604081208054839290610f74908490611aa2565b9250508190555061103083600901805480602002602001604051908101604052809291908181526020018280548015610bbf576020028201919060005260206000209081546001600160a01b03168152600190910190602001808311610ba157505050505084600a01805480602002602001604051908101604052809291908181526020018280548015610c125760200282019190600052602060002090815481526020019060010190808311610bfe57505050505084611274565b33600081815260026020908152604080832080546001810182559084529190922001879055600685015490517ffe3f9af2d0ba5be4687ca774df8206ec9cf7919bcf32bd9c76b051e5dfbbb5b4926110a1928983526001600160a01b03919091166020830152604082015260600190565b60405180910390a15050505050565b6001600160a01b03811660009081526002602090815260409182902080548351818402810184019094528084526060939283018282801561111057602002820191906000526020600020905b8154815260200190600101908083116110fc575b50505050509050919050565b33600090815260026020908152604080832080548251818502810185019093528083528493849392919083018282801561117557602002820191906000526020600020905b815481526020019060010190808311611161575b5050505050905060005b8151811015610d4c5760008282815181106111aa57634e487b7160e01b600052603260045260246000fd5b602090810291909101810151600081815260019092526040909120600301549091506001600160a01b03878116911614156111ed57836111e981611b45565b9450505b50806111f881611b45565b91505061117f565b600080805b845181101561126b57606484828151811061123057634e487b7160e01b600052603260045260246000fd5b6020026020010151876112439190611ada565b61124d9190611aba565b6112579083611aa2565b91508061126381611b45565b915050611205565b50949350505050565b81518351146112db5760405162461bcd60e51b815260206004820152602d60248201527f4f776e65727320616e642070657263656e746167657320617272617973206c6560448201526c0dccee8d040dad2e6dac2e8c6d609b1b6064820152608401610586565b60005b83518110156113a357600084828151811061130957634e487b7160e01b600052603260045260246000fd5b602002602001015190506000606485848151811061133757634e487b7160e01b600052603260045260246000fd5b60200260200101518561134a9190611ada565b6113549190611aba565b6040519091506001600160a01b0383169082156108fc029083906000818181858888f1935050505015801561138d573d6000803e3d6000fd5b505050808061139b90611b45565b9150506112de565b50505050565b8280546113b590611b10565b90600052602060002090601f0160209004810192826113d7576000855561141d565b82601f106113f057805160ff191683800117855561141d565b8280016001018555821561141d579182015b8281111561141d578251825591602001919060010190611402565b506114299291506114bc565b5090565b82805482825590600052602060002090810192821561141d579160200282015b8281111561141d57825182546001600160a01b0319166001600160a01b0390911617825560209092019160019091019061144d565b82805482825590600052602060002090810192821561141d579160200282018281111561141d578251825591602001919060010190611402565b5b8082111561142957600081556001016114bd565b80356001600160a01b03811681146114e857600080fd5b919050565b600082601f8301126114fd578081fd5b8135602061151261150d83611a7e565b611a4d565b80838252828201915082860187848660051b8901011115611531578586fd5b855b8581101561155657611544826114d1565b84529284019290840190600101611533565b5090979650505050505050565b600082601f830112611573578081fd5b8135602061158361150d83611a7e565b80838252828201915082860187848660051b89010111156115a2578586fd5b855b85811015611556578135845292840192908401906001016115a4565b600082601f8301126115d0578081fd5b813567ffffffffffffffff8111156115ea576115ea611b76565b6115fd601f8201601f1916602001611a4d565b818152846020838601011115611611578283fd5b816020850160208301379081016020019190915292915050565b60006020828403121561163c578081fd5b611645826114d1565b9392505050565b60008060008060008060008060006101208a8c03121561166a578485fd5b893567ffffffffffffffff80821115611681578687fd5b61168d8d838e016115c0565b9a5060208c01359150808211156116a2578687fd5b6116ae8d838e016115c0565b99506116bc60408d016114d1565b985060608c01359150808211156116d1578687fd5b6116dd8d838e016115c0565b975060808c01359150808211156116f2578687fd5b6116fe8d838e016115c0565b965060a08c0135955060c08c0135945060e08c0135915080821115611721578384fd5b61172d8d838e016114ed565b93506101008c0135915080821115611743578283fd5b506117508c828d01611563565b9150509295985092959850929598565b600060208284031215611771578081fd5b5035919050565b6000806040838503121561178a578182fd5b50508035926020909101359150565b6000815180845260208085019450808401835b838110156117d15781516001600160a01b0316875295820195908201906001016117ac565b509495945050505050565b6000815180845260208085019450808401835b838110156117d1578151875295820195908201906001016117ef565b60008151808452815b8181101561183057602081850181015186830182015201611814565b818111156118415782602083870101525b50601f01601f19169290920160200192915050565b60208152600061164560208301846117dc565b602080825260149082015273151c9858dac8191bd95cc81b9bdd08195e1a5cdd60621b604082015260600190565b6020815281516020820152600060208301516101608060408501526118c061018085018361180b565b91506040850151601f19808685030160608701526118de848361180b565b9350606087015191506118fc60808701836001600160a01b03169052565b60808701519150808685030160a0870152611917848361180b565b935060a08701519150808685030160c0870152611934848361180b565b935060c087015160e087015260e0870151915061010082818801528088015192505061012082818801528088015192505061014081878603018188015261197b8584611799565b90880151878203909201848801529350905061199783826117dc565b9695505050505050565b60006101408c83528060208401526119bb8184018d61180b565b905082810360408401526119cf818c61180b565b6001600160a01b038b166060850152838103608085015290506119f2818a61180b565b905082810360a0840152611a06818961180b565b90508660c08401528560e0840152828103610100840152611a278186611799565b9050828103610120840152611a3c81856117dc565b9d9c50505050505050505050505050565b604051601f8201601f1916810167ffffffffffffffff81118282101715611a7657611a76611b76565b604052919050565b600067ffffffffffffffff821115611a9857611a98611b76565b5060051b60200190565b60008219821115611ab557611ab5611b60565b500190565b600082611ad557634e487b7160e01b81526012600452602481fd5b500490565b6000816000190483118215151615611af457611af4611b60565b500290565b600082821015611b0b57611b0b611b60565b500390565b600181811c90821680611b2457607f821691505b602082108114156108eb57634e487b7160e01b600052602260045260246000fd5b6000600019821415611b5957611b59611b60565b5060010190565b634e487b7160e01b600052601160045260246000fd5b634e487b7160e01b600052604160045260246000fdfea264697066735822122026bc0e1c2748ab6c32678b3f44fe3dafb57774e09ff25d39ff5bde9e4854735364736f6c63430008040033",
  "linkReferences": {},
  "deployedLinkReferences": {}
}