{
  "_format": "hh-sol-artifact-1",
  "contractName": "Deyplay",
  "sourceName": "contracts/Deyplay.sol",
  "abi": [
    {
      "anonymous": false,
      "inputs": [
        {
          "indexed": false,
          "internalType": "uint256",
          "name": "id",
          "type": "uint256"
        },
        {
          "indexed": false,
          "internalType": "string",
          "name": "title",
          "type": "string"
        },
        {
          "indexed": false,
          "internalType": "address",
          "name": "artist",
          "type": "address"
        },
        {
          "indexed": false,
          "internalType": "string",
          "name": "imageUrl",
          "type": "string"
        },
        {
          "indexed": false,
          "internalType": "string",
          "name": "description",
          "type": "string"
        },
        {
          "indexed": false,
          "internalType": "uint256",
          "name": "price",
          "type": "uint256"
        },
        {
          "indexed": false,
          "internalType": "address[]",
          "name": "royaltiesOwners",
          "type": "address[]"
        },
        {
          "indexed": false,
          "internalType": "uint256[]",
          "name": "royaltiesPercentages",
          "type": "uint256[]"
        }
      ],
      "name": "AlbumCreated",
      "type": "event"
    },
    {
      "anonymous": false,
      "inputs": [
        {
          "indexed": false,
          "internalType": "uint256",
          "name": "albumId",
          "type": "uint256"
        },
        {
          "indexed": false,
          "internalType": "address",
          "name": "buyer",
          "type": "address"
        },
        {
          "indexed": false,
          "internalType": "uint256",
          "name": "amount",
          "type": "uint256"
        }
      ],
      "name": "AlbumPurchased",
      "type": "event"
    },
    {
      "anonymous": false,
      "inputs": [
        {
          "indexed": false,
          "internalType": "uint256",
          "name": "albumId",
          "type": "uint256"
        },
        {
          "indexed": false,
          "internalType": "address",
          "name": "listener",
          "type": "address"
        },
        {
          "indexed": false,
          "internalType": "uint256",
          "name": "amount",
          "type": "uint256"
        }
      ],
      "name": "AlbumStreamed",
      "type": "event"
    },
    {
      "anonymous": false,
      "inputs": [
        {
          "indexed": false,
          "internalType": "uint256",
          "name": "albumId",
          "type": "uint256"
        },
        {
          "indexed": false,
          "internalType": "uint256",
          "name": "trackId",
          "type": "uint256"
        }
      ],
      "name": "TrackAddedToAlbum",
      "type": "event"
    },
    {
      "anonymous": false,
      "inputs": [
        {
          "indexed": false,
          "internalType": "uint256",
          "name": "id",
          "type": "uint256"
        },
        {
          "indexed": false,
          "internalType": "string",
          "name": "title",
          "type": "string"
        },
        {
          "indexed": false,
          "internalType": "address",
          "name": "artist",
          "type": "address"
        },
        {
          "indexed": false,
          "internalType": "string",
          "name": "imageUrl",
          "type": "string"
        },
        {
          "indexed": false,
          "internalType": "string",
          "name": "audioFile",
          "type": "string"
        },
        {
          "indexed": false,
          "internalType": "uint256",
          "name": "price",
          "type": "uint256"
        },
        {
          "indexed": false,
          "internalType": "address[]",
          "name": "royaltiesOwners",
          "type": "address[]"
        },
        {
          "indexed": false,
          "internalType": "uint256[]",
          "name": "royaltiesPercentages",
          "type": "uint256[]"
        }
      ],
      "name": "TrackCreated",
      "type": "event"
    },
    {
      "anonymous": false,
      "inputs": [
        {
          "indexed": false,
          "internalType": "uint256",
          "name": "trackId",
          "type": "uint256"
        },
        {
          "indexed": false,
          "internalType": "address",
          "name": "buyer",
          "type": "address"
        },
        {
          "indexed": false,
          "internalType": "uint256",
          "name": "amount",
          "type": "uint256"
        }
      ],
      "name": "TrackPurchased",
      "type": "event"
    },
    {
      "anonymous": false,
      "inputs": [
        {
          "indexed": false,
          "internalType": "uint256",
          "name": "trackId",
          "type": "uint256"
        },
        {
          "indexed": false,
          "internalType": "address",
          "name": "listener",
          "type": "address"
        },
        {
          "indexed": false,
          "internalType": "uint256",
          "name": "amount",
          "type": "uint256"
        }
      ],
      "name": "TrackStreamed",
      "type": "event"
    },
    {
      "inputs": [
        {
          "internalType": "string",
          "name": "_title",
          "type": "string"
        },
        {
          "internalType": "address",
          "name": "_artist",
          "type": "address"
        },
        {
          "internalType": "string",
          "name": "_imageUrl",
          "type": "string"
        },
        {
          "internalType": "string",
          "name": "_description",
          "type": "string"
        },
        {
          "internalType": "uint256",
          "name": "_price",
          "type": "uint256"
        },
        {
          "internalType": "address[]",
          "name": "_royaltiesOwners",
          "type": "address[]"
        },
        {
          "internalType": "uint256[]",
          "name": "_royaltiesPercentages",
          "type": "uint256[]"
        }
      ],
      "name": "addAlbum",
      "outputs": [],
      "stateMutability": "nonpayable",
      "type": "function"
    },
    {
      "inputs": [
        {
          "internalType": "string",
          "name": "_title",
          "type": "string"
        },
        {
          "internalType": "address",
          "name": "_artist",
          "type": "address"
        },
        {
          "internalType": "string",
          "name": "_imageUrl",
          "type": "string"
        },
        {
          "internalType": "string",
          "name": "_audioFile",
          "type": "string"
        },
        {
          "internalType": "uint256",
          "name": "_price",
          "type": "uint256"
        },
        {
          "internalType": "address[]",
          "name": "_royaltiesOwners",
          "type": "address[]"
        },
        {
          "internalType": "uint256[]",
          "name": "_royaltiesPercentages",
          "type": "uint256[]"
        }
      ],
      "name": "addTrack",
      "outputs": [],
      "stateMutability": "nonpayable",
      "type": "function"
    },
    {
      "inputs": [
        {
          "internalType": "uint256",
          "name": "_albumId",
          "type": "uint256"
        },
        {
          "internalType": "uint256",
          "name": "_trackId",
          "type": "uint256"
        }
      ],
      "name": "addTrackToAlbum",
      "outputs": [],
      "stateMutability": "nonpayable",
      "type": "function"
    },
    {
      "inputs": [
        {
          "internalType": "uint256",
          "name": "_albumId",
          "type": "uint256"
        }
      ],
      "name": "getAlbum",
      "outputs": [
        {
          "components": [
            {
              "internalType": "uint256",
              "name": "id",
              "type": "uint256"
            },
            {
              "internalType": "string",
              "name": "title",
              "type": "string"
            },
            {
              "internalType": "address",
              "name": "artist",
              "type": "address"
            },
            {
              "internalType": "string",
              "name": "imageUrl",
              "type": "string"
            },
            {
              "internalType": "string",
              "name": "description",
              "type": "string"
            },
            {
              "internalType": "uint256",
              "name": "price",
              "type": "uint256"
            },
            {
              "internalType": "uint256",
              "name": "totalStreams",
              "type": "uint256"
            },
            {
              "internalType": "uint256",
              "name": "totalPurchases",
              "type": "uint256"
            },
            {
              "internalType": "uint256[]",
              "name": "audioFileIds",
              "type": "uint256[]"
            },
            {
              "internalType": "address[]",
              "name": "royaltiesOwners",
              "type": "address[]"
            },
            {
              "internalType": "uint256[]",
              "name": "royaltiesPercentages",
              "type": "uint256[]"
            }
          ],
          "internalType": "struct Deyplay.Album",
          "name": "",
          "type": "tuple"
        }
      ],
      "stateMutability": "view",
      "type": "function"
    },
    {
      "inputs": [
        {
          "internalType": "address",
          "name": "_artist",
          "type": "address"
        }
      ],
      "name": "getArtistBalance",
      "outputs": [
        {
          "internalType": "uint256",
          "name": "",
          "type": "uint256"
        }
      ],
      "stateMutability": "view",
      "type": "function"
    },
    {
      "inputs": [
        {
          "internalType": "address",
          "name": "_artist",
          "type": "address"
        }
      ],
      "name": "getTotalAlbumAmount",
      "outputs": [
        {
          "internalType": "uint256",
          "name": "",
          "type": "uint256"
        }
      ],
      "stateMutability": "view",
      "type": "function"
    },
    {
      "inputs": [
        {
          "internalType": "address",
          "name": "_artist",
          "type": "address"
        }
      ],
      "name": "getTotalAlbumStreams",
      "outputs": [
        {
          "internalType": "uint256",
          "name": "",
          "type": "uint256"
        }
      ],
      "stateMutability": "view",
      "type": "function"
    },
    {
      "inputs": [
        {
          "internalType": "address",
          "name": "_artist",
          "type": "address"
        }
      ],
      "name": "getTotalTrackAmount",
      "outputs": [
        {
          "internalType": "uint256",
          "name": "",
          "type": "uint256"
        }
      ],
      "stateMutability": "view",
      "type": "function"
    },
    {
      "inputs": [
        {
          "internalType": "address",
          "name": "_artist",
          "type": "address"
        }
      ],
      "name": "getTotalTrackStreams",
      "outputs": [
        {
          "internalType": "uint256",
          "name": "",
          "type": "uint256"
        }
      ],
      "stateMutability": "view",
      "type": "function"
    },
    {
      "inputs": [
        {
          "internalType": "uint256",
          "name": "_trackId",
          "type": "uint256"
        }
      ],
      "name": "getTrack",
      "outputs": [
        {
          "components": [
            {
              "internalType": "uint256",
              "name": "id",
              "type": "uint256"
            },
            {
              "internalType": "string",
              "name": "title",
              "type": "string"
            },
            {
              "internalType": "address",
              "name": "artist",
              "type": "address"
            },
            {
              "internalType": "string",
              "name": "imageUrl",
              "type": "string"
            },
            {
              "internalType": "string",
              "name": "audioFile",
              "type": "string"
            },
            {
              "internalType": "uint256",
              "name": "price",
              "type": "uint256"
            },
            {
              "internalType": "uint256",
              "name": "totalStreams",
              "type": "uint256"
            },
            {
              "internalType": "uint256",
              "name": "totalPurchases",
              "type": "uint256"
            },
            {
              "internalType": "address[]",
              "name": "royaltiesOwners",
              "type": "address[]"
            },
            {
              "internalType": "uint256[]",
              "name": "royaltiesPercentages",
              "type": "uint256[]"
            }
          ],
          "internalType": "struct Deyplay.Track",
          "name": "",
          "type": "tuple"
        }
      ],
      "stateMutability": "view",
      "type": "function"
    },
    {
      "inputs": [
        {
          "internalType": "address",
          "name": "_user",
          "type": "address"
        }
      ],
      "name": "getUserPurchasedAlbums",
      "outputs": [
        {
          "internalType": "uint256[]",
          "name": "",
          "type": "uint256[]"
        }
      ],
      "stateMutability": "view",
      "type": "function"
    },
    {
      "inputs": [
        {
          "internalType": "address",
          "name": "_user",
          "type": "address"
        }
      ],
      "name": "getUserPurchasedTracks",
      "outputs": [
        {
          "internalType": "uint256[]",
          "name": "",
          "type": "uint256[]"
        }
      ],
      "stateMutability": "view",
      "type": "function"
    },
    {
      "inputs": [
        {
          "internalType": "address",
          "name": "_artist",
          "type": "address"
        }
      ],
      "name": "listAlbumsByArtist",
      "outputs": [
        {
          "internalType": "uint256[]",
          "name": "",
          "type": "uint256[]"
        }
      ],
      "stateMutability": "view",
      "type": "function"
    },
    {
      "inputs": [],
      "name": "listAllAlbums",
      "outputs": [
        {
          "internalType": "uint256[]",
          "name": "",
          "type": "uint256[]"
        }
      ],
      "stateMutability": "view",
      "type": "function"
    },
    {
      "inputs": [],
      "name": "listAllTracks",
      "outputs": [
        {
          "internalType": "uint256[]",
          "name": "",
          "type": "uint256[]"
        }
      ],
      "stateMutability": "view",
      "type": "function"
    },
    {
      "inputs": [
        {
          "internalType": "address",
          "name": "_artist",
          "type": "address"
        }
      ],
      "name": "listTracksByArtist",
      "outputs": [
        {
          "internalType": "uint256[]",
          "name": "",
          "type": "uint256[]"
        }
      ],
      "stateMutability": "view",
      "type": "function"
    },
    {
      "inputs": [
        {
          "internalType": "uint256",
          "name": "_albumId",
          "type": "uint256"
        }
      ],
      "name": "purchaseAlbum",
      "outputs": [],
      "stateMutability": "payable",
      "type": "function"
    },
    {
      "inputs": [
        {
          "internalType": "uint256",
          "name": "_trackId",
          "type": "uint256"
        }
      ],
      "name": "purchaseTrack",
      "outputs": [],
      "stateMutability": "payable",
      "type": "function"
    },
    {
      "inputs": [
        {
          "internalType": "uint256",
          "name": "_albumId",
          "type": "uint256"
        }
      ],
      "name": "streamAlbum",
      "outputs": [],
      "stateMutability": "payable",
      "type": "function"
    },
    {
      "inputs": [
        {
          "internalType": "uint256",
          "name": "_trackId",
          "type": "uint256"
        }
      ],
      "name": "streamTrack",
      "outputs": [],
      "stateMutability": "payable",
      "type": "function"
    }
  ],
  "bytecode": "0x608060405234801561001057600080fd5b50612ad0806100206000396000f3fe60806040526004361061011e5760003560e01c80638d59f7e2116100a0578063d53f2baa11610064578063d53f2baa146102f9578063d6e465c914610319578063ea98177514610346578063efb7830814610359578063f4ce0f861461037957600080fd5b80638d59f7e2146102735780638ef8b386146102935780639edc858c146102a6578063acff110e146102b9578063c103351f146102d957600080fd5b80635d0650b4116100e75780635d0650b4146101c3578063629058ca146101f15780636456b79a1461021e5780636850a7e31461023357806376dde21b1461025357600080fd5b806221991e146101235780631d29d59914610145578063245d15581461017b5780632cdfb61f1461019b57806340d1e240146101b0575b600080fd5b34801561012f57600080fd5b5061014361013e3660046125b9565b6103af565b005b34801561015157600080fd5b5061016561016036600461249a565b61047e565b6040516101729190612697565b60405180910390f35b34801561018757600080fd5b506101436101963660046124bb565b6104ea565b3480156101a757600080fd5b5061016561068a565b6101436101be3660046125a1565b61074b565b3480156101cf57600080fd5b506101e36101de36600461249a565b610a08565b604051908152602001610172565b3480156101fd57600080fd5b5061021161020c3660046125a1565b610a86565b604051610172919061280c565b34801561022a57600080fd5b50610165610dea565b34801561023f57600080fd5b5061016561024e36600461249a565b610ea4565b34801561025f57600080fd5b506101e361026e36600461249a565b610f95565b34801561027f57600080fd5b506101e361028e36600461249a565b610ffb565b6101436102a13660046125a1565b611071565b6101436102b43660046125a1565b61132a565b3480156102c557600080fd5b506101656102d436600461249a565b61160f565b3480156102e557600080fd5b506101e36102f436600461249a565b611679565b34801561030557600080fd5b506101436103143660046124bb565b6116de565b34801561032557600080fd5b506103396103343660046125a1565b6118e3565b6040516101729190612706565b6101436103543660046125a1565b611ca4565b34801561036557600080fd5b5061016561037436600461249a565b611f87565b34801561038557600080fd5b506101e361039436600461249a565b6001600160a01b031660009081526006602052604090205490565b816000811180156103c257506001548111155b6103e75760405162461bcd60e51b81526004016103de906126aa565b60405180910390fd5b816000811180156103fa57506000548111155b6104165760405162461bcd60e51b81526004016103de906126d8565b60008481526003602090815260408083206008810180546001810182559085529383902090930186905580518781529182018690527f1b75cf82c5d11e0d92f67e2806f277b7ae9cb2467100d885c3e54d50c1ae98d291015b60405180910390a15050505050565b6001600160a01b0381166000908152600560209081526040918290208054835181840281018401909452808452606093928301828280156104de57602002820191906000526020600020905b8154815260200190600101908083116104ca575b50505050509050919050565b6000805490806104f983612a53565b909155505060408051610140810182526000805480835260208084018c81526001600160a01b038c1685870152606085018b9052608085018a905260a0850189905260c0850184905260e085018490526101008501889052610120850187905291835260028152939091208251815590518051929391926105809260018501920190612218565b5060408201516002820180546001600160a01b0319166001600160a01b03909216919091179055606082015180516105c2916003840191602090910190612218565b50608082015180516105de916004840191602090910190612218565b5060a0820151600582015560c0820151600682015560e08201516007820155610100820151805161061991600884019160209091019061229c565b5061012082015180516106369160098401916020909101906122f1565b509050507fbf2201dbf94a92f1d5a37c712b8d9b99e2a1e94a9ead3e3318c067b76569712a600054888888888888886040516106799897969594939291906128cd565b60405180910390a150505050505050565b6060600060015467ffffffffffffffff8111156106b757634e487b7160e01b600052604160045260246000fd5b6040519080825280602002602001820160405280156106e0578160200160208202803683370190505b50905060015b6001548111610745576000818152600360205260409020548261070a600184612a07565b8151811061072857634e487b7160e01b600052603260045260246000fd5b60209081029190910101528061073d81612a53565b9150506106e6565b50919050565b8060008111801561075e57506001548111155b61077a5760405162461bcd60e51b81526004016103de906126aa565b600082815260036020526040902060058101543410156107ed5760405162461bcd60e51b815260206004820152602860248201527f496e73756666696369656e74207061796d656e7420746f2073747265616d2074604482015267686520616c62756d60c01b60648201526084016103de565b60006108ac82600501548360090180548060200260200160405190810160405280929190818152602001828054801561084f57602002820191906000526020600020905b81546001600160a01b03168152600190910190602001808311610831575b505050505084600a018054806020026020016040519081016040528092919081815260200182805480156108a257602002820191906000526020600020905b81548152602001906001019080831161088e575b505050505061206f565b905060008183600501546108c09190612a07565b60068401805491925060006108d483612a53565b909155505060028301546001600160a01b0316600090815260066020526040812080548392906109059084906129b0565b925050819055506109c58360090180548060200260200160405190810160405280929190818152602001828054801561096757602002820191906000526020600020905b81546001600160a01b03168152600190910190602001808311610949575b505050505084600a018054806020026020016040519081016040528092919081815260200182805480156109ba57602002820191906000526020600020905b8154815260200190600101908083116109a6575b5050505050846120e3565b600583015460408051878152336020820152908101919091527f9895cbad8f9db9bfb55390deaa7dd85188e313b35ee7ee4748b41ae3b9a7936f9060600161046f565b60008060015b6000548111610a7f57600081815260026020819052604090912001546001600160a01b0385811691161415610a6d5760008181526002602052604090206005810154600790910154610a6091906129e8565b610a6a90836129b0565b91505b80610a7781612a53565b915050610a0e565b5092915050565b610ae5604051806101400160405280600081526020016060815260200160006001600160a01b03168152602001606081526020016060815260200160008152602001600081526020016000815260200160608152602001606081525090565b81600081118015610af857506000548111155b610b145760405162461bcd60e51b81526004016103de906126d8565b600260008481526020019081526020016000206040518061014001604052908160008201548152602001600182018054610b4d90612a1e565b80601f0160208091040260200160405190810160405280929190818152602001828054610b7990612a1e565b8015610bc65780601f10610b9b57610100808354040283529160200191610bc6565b820191906000526020600020905b815481529060010190602001808311610ba957829003601f168201915b505050918352505060028201546001600160a01b03166020820152600382018054604090920191610bf690612a1e565b80601f0160208091040260200160405190810160405280929190818152602001828054610c2290612a1e565b8015610c6f5780601f10610c4457610100808354040283529160200191610c6f565b820191906000526020600020905b815481529060010190602001808311610c5257829003601f168201915b50505050508152602001600482018054610c8890612a1e565b80601f0160208091040260200160405190810160405280929190818152602001828054610cb490612a1e565b8015610d015780601f10610cd657610100808354040283529160200191610d01565b820191906000526020600020905b815481529060010190602001808311610ce457829003601f168201915b5050505050815260200160058201548152602001600682015481526020016007820154815260200160088201805480602002602001604051908101604052809291908181526020018280548015610d8157602002820191906000526020600020905b81546001600160a01b03168152600190910190602001808311610d63575b5050505050815260200160098201805480602002602001604051908101604052809291908181526020018280548015610dd957602002820191906000526020600020905b815481526020019060010190808311610dc5575b505050505081525050915050919050565b60606000805467ffffffffffffffff811115610e1657634e487b7160e01b600052604160045260246000fd5b604051908082528060200260200182016040528015610e3f578160200160208202803683370190505b50905060015b60005481116107455760008181526002602052604090205482610e69600184612a07565b81518110610e8757634e487b7160e01b600052603260045260246000fd5b602090810291909101015280610e9c81612a53565b915050610e45565b60606000805467ffffffffffffffff811115610ed057634e487b7160e01b600052604160045260246000fd5b604051908082528060200260200182016040528015610ef9578160200160208202803683370190505b509050600060015b6000548111610f8c57600081815260026020819052604090912001546001600160a01b0386811691161415610f7a576000818152600260205260409020548351849084908110610f6157634e487b7160e01b600052603260045260246000fd5b602090810291909101015281610f7681612a53565b9250505b80610f8481612a53565b915050610f01565b50909392505050565b60008060015b6000548111610a7f57600081815260026020819052604090912001546001600160a01b0385811691161415610fe957600081815260026020526040902060060154610fe690836129b0565b91505b80610ff381612a53565b915050610f9b565b60008060015b6001548111610a7f576000818152600360205260409020600201546001600160a01b038581169116141561105f576000818152600360205260409020600581015460079091015461105291906129e8565b61105c90836129b0565b91505b8061106981612a53565b915050611001565b8060008111801561108457506000548111155b6110a05760405162461bcd60e51b81526004016103de906126d8565b600082815260026020526040902060058101543410156111135760405162461bcd60e51b815260206004820152602860248201527f496e73756666696369656e74207061796d656e7420746f2073747265616d2074604482015267686520747261636b60c01b60648201526084016103de565b60006111d082600501548360080180548060200260200160405190810160405280929190818152602001828054801561117557602002820191906000526020600020905b81546001600160a01b03168152600190910190602001808311611157575b5050505050846009018054806020026020016040519081016040528092919081815260200182805480156108a2576020028201919060005260206000209081548152602001906001019080831161088e57505050505061206f565b905060008183600501546111e49190612a07565b60068401805491925060006111f883612a53565b909155505060028301546001600160a01b0316600090815260066020526040812080548392906112299084906129b0565b925050819055506112e78360080180548060200260200160405190810160405280929190818152602001828054801561128b57602002820191906000526020600020905b81546001600160a01b0316815260019091019060200180831161126d575b5050505050846009018054806020026020016040519081016040528092919081815260200182805480156109ba57602002820191906000526020600020908154815260200190600101908083116109a6575050505050846120e3565b600583015460408051878152336020820152908101919091527fa8ff0760db1bd134bec00c7f599e3d73ad185cfc7dd4c313b1ccfc4bd95947379060600161046f565b8060008111801561133d57506000548111155b6113595760405162461bcd60e51b81526004016103de906126d8565b600082815260026020526040902060058101543410156113ce5760405162461bcd60e51b815260206004820152602a60248201527f496e73756666696369656e74207061796d656e7420746f2070757263686173656044820152692074686520747261636b60b01b60648201526084016103de565b6000611489826005015483600801805480602002602001604051908101604052809291908181526020018280548015611175576020028201919060005260206000209081546001600160a01b03168152600190910190602001808311611157575050505050846009018054806020026020016040519081016040528092919081815260200182805480156108a2576020028201919060005260206000209081548152602001906001019080831161088e57505050505061206f565b9050600081836005015461149d9190612a07565b60078401805491925060006114b183612a53565b909155505060028301546001600160a01b0316600090815260066020526040812080548392906114e29084906129b0565b9250508190555061159e8360080180548060200260200160405190810160405280929190818152602001828054801561128b576020028201919060005260206000209081546001600160a01b0316815260019091019060200180831161126d575050505050846009018054806020026020016040519081016040528092919081815260200182805480156109ba57602002820191906000526020600020908154815260200190600101908083116109a6575050505050846120e3565b33600081815260046020908152604080832080546001810182559084529190922001879055600585015490517ffe3f9af2d0ba5be4687ca774df8206ec9cf7919bcf32bd9c76b051e5dfbbb5b49261046f928983526001600160a01b03919091166020830152604082015260600190565b6001600160a01b0381166000908152600460209081526040918290208054835181840281018401909452808452606093928301828280156104de57602002820191906000526020600020908154815260200190600101908083116104ca5750505050509050919050565b60008060015b6001548111610a7f576000818152600360205260409020600201546001600160a01b03858116911614156116cc576000818152600360205260409020600601546116c990836129b0565b91505b806116d681612a53565b91505061167f565b600180549060006116ee83612a53565b91905055506040518061016001604052806001548152602001888152602001876001600160a01b031681526020018681526020018581526020018481526020016000815260200160008152602001600067ffffffffffffffff81111561176457634e487b7160e01b600052604160045260246000fd5b60405190808252806020026020018201604052801561178d578160200160208202803683370190505b5081526020808201859052604091820184905260018054600090815260038352929092208351815583820151805191936117cd9390850192910190612218565b5060408201516002820180546001600160a01b0319166001600160a01b039092169190911790556060820151805161180f916003840191602090910190612218565b506080820151805161182b916004840191602090910190612218565b5060a0820151600582015560c0820151600682015560e0820151600782015561010082015180516118669160088401916020909101906122f1565b50610120820151805161188391600984019160209091019061229c565b5061014082015180516118a091600a8401916020909101906122f1565b509050507fd78b5503298a5ec3a0c38871277d16caaede28506de5344aee4a623eebf34ed8600154888888888888886040516106799897969594939291906128cd565b611949604051806101600160405280600081526020016060815260200160006001600160a01b0316815260200160608152602001606081526020016000815260200160008152602001600081526020016060815260200160608152602001606081525090565b8160008111801561195c57506001548111155b6119785760405162461bcd60e51b81526004016103de906126aa565b6003600084815260200190815260200160002060405180610160016040529081600082015481526020016001820180546119b190612a1e565b80601f01602080910402602001604051908101604052809291908181526020018280546119dd90612a1e565b8015611a2a5780601f106119ff57610100808354040283529160200191611a2a565b820191906000526020600020905b815481529060010190602001808311611a0d57829003601f168201915b505050918352505060028201546001600160a01b03166020820152600382018054604090920191611a5a90612a1e565b80601f0160208091040260200160405190810160405280929190818152602001828054611a8690612a1e565b8015611ad35780601f10611aa857610100808354040283529160200191611ad3565b820191906000526020600020905b815481529060010190602001808311611ab657829003601f168201915b50505050508152602001600482018054611aec90612a1e565b80601f0160208091040260200160405190810160405280929190818152602001828054611b1890612a1e565b8015611b655780601f10611b3a57610100808354040283529160200191611b65565b820191906000526020600020905b815481529060010190602001808311611b4857829003601f168201915b5050505050815260200160058201548152602001600682015481526020016007820154815260200160088201805480602002602001604051908101604052809291908181526020018280548015611bdb57602002820191906000526020600020905b815481526020019060010190808311611bc7575b5050505050815260200160098201805480602002602001604051908101604052809291908181526020018280548015611c3d57602002820191906000526020600020905b81546001600160a01b03168152600190910190602001808311611c1f575b50505050508152602001600a8201805480602002602001604051908101604052809291908181526020018280548015610dd95760200282019190600052602060002090815481526020019060010190808311610dc557505050505081525050915050919050565b80600081118015611cb757506001548111155b611cd35760405162461bcd60e51b81526004016103de906126aa565b60008281526003602052604090206005810154341015611d485760405162461bcd60e51b815260206004820152602a60248201527f496e73756666696369656e74207061796d656e7420746f2070757263686173656044820152692074686520616c62756d60b01b60648201526084016103de565b6000611e0382600501548360090180548060200260200160405190810160405280929190818152602001828054801561084f576020028201919060005260206000209081546001600160a01b0316815260019091019060200180831161083157505050505084600a018054806020026020016040519081016040528092919081815260200182805480156108a2576020028201919060005260206000209081548152602001906001019080831161088e57505050505061206f565b90506000818360050154611e179190612a07565b6007840180549192506000611e2b83612a53565b909155505060028301546001600160a01b031660009081526006602052604081208054839290611e5c9084906129b0565b92505081905550611f1883600901805480602002602001604051908101604052809291908181526020018280548015610967576020028201919060005260206000209081546001600160a01b0316815260019091019060200180831161094957505050505084600a018054806020026020016040519081016040528092919081815260200182805480156109ba57602002820191906000526020600020908154815260200190600101908083116109a6575050505050846120e3565b3360008181526005602081815260408084208054600181018255908552919093200188905585015490517f11332ef3956cea4003185b2a4db8407e3e5662fe799887282e178f18726ecc9b9261046f928983526001600160a01b03919091166020830152604082015260600190565b6060600060015467ffffffffffffffff811115611fb457634e487b7160e01b600052604160045260246000fd5b604051908082528060200260200182016040528015611fdd578160200160208202803683370190505b509050600060015b6001548111610f8c576000818152600360205260409020600201546001600160a01b038681169116141561205d57600081815260036020526040902054835184908490811061204457634e487b7160e01b600052603260045260246000fd5b60209081029190910101528161205981612a53565b9250505b8061206781612a53565b915050611fe5565b600080805b84518110156120da57606484828151811061209f57634e487b7160e01b600052603260045260246000fd5b6020026020010151876120b291906129e8565b6120bc91906129c8565b6120c690836129b0565b9150806120d281612a53565b915050612074565b50949350505050565b815183511461214a5760405162461bcd60e51b815260206004820152602d60248201527f4f776e65727320616e642070657263656e746167657320617272617973206c6560448201526c0dccee8d040dad2e6dac2e8c6d609b1b60648201526084016103de565b60005b835181101561221257600084828151811061217857634e487b7160e01b600052603260045260246000fd5b60200260200101519050600060648584815181106121a657634e487b7160e01b600052603260045260246000fd5b6020026020010151856121b991906129e8565b6121c391906129c8565b6040519091506001600160a01b0383169082156108fc029083906000818181858888f193505050501580156121fc573d6000803e3d6000fd5b505050808061220a90612a53565b91505061214d565b50505050565b82805461222490612a1e565b90600052602060002090601f016020900481019282612246576000855561228c565b82601f1061225f57805160ff191683800117855561228c565b8280016001018555821561228c579182015b8281111561228c578251825591602001919060010190612271565b5061229892915061232b565b5090565b82805482825590600052602060002090810192821561228c579160200282015b8281111561228c57825182546001600160a01b0319166001600160a01b039091161782556020909201916001909101906122bc565b82805482825590600052602060002090810192821561228c579160200282018281111561228c578251825591602001919060010190612271565b5b80821115612298576000815560010161232c565b80356001600160a01b038116811461235757600080fd5b919050565b600082601f83011261236c578081fd5b8135602061238161237c8361298c565b61295b565b80838252828201915082860187848660051b89010111156123a0578586fd5b855b858110156123c5576123b382612340565b845292840192908401906001016123a2565b5090979650505050505050565b600082601f8301126123e2578081fd5b813560206123f261237c8361298c565b80838252828201915082860187848660051b8901011115612411578586fd5b855b858110156123c557813584529284019290840190600101612413565b600082601f83011261243f578081fd5b813567ffffffffffffffff81111561245957612459612a84565b61246c601f8201601f191660200161295b565b818152846020838601011115612480578283fd5b816020850160208301379081016020019190915292915050565b6000602082840312156124ab578081fd5b6124b482612340565b9392505050565b600080600080600080600060e0888a0312156124d5578283fd5b873567ffffffffffffffff808211156124ec578485fd5b6124f88b838c0161242f565b985061250660208b01612340565b975060408a013591508082111561251b578485fd5b6125278b838c0161242f565b965060608a013591508082111561253c578485fd5b6125488b838c0161242f565b955060808a0135945060a08a0135915080821115612564578384fd5b6125708b838c0161235c565b935060c08a0135915080821115612585578283fd5b506125928a828b016123d2565b91505092959891949750929550565b6000602082840312156125b2578081fd5b5035919050565b600080604083850312156125cb578182fd5b50508035926020909101359150565b6000815180845260208085019450808401835b838110156126125781516001600160a01b0316875295820195908201906001016125ed565b509495945050505050565b6000815180845260208085019450808401835b8381101561261257815187529582019590820190600101612630565b60008151808452815b8181101561267157602081850181015186830182015201612655565b818111156126825782602083870101525b50601f01601f19169290920160200192915050565b6020815260006124b4602083018461261d565b602080825260149082015273105b189d5b48191bd95cc81b9bdd08195e1a5cdd60621b604082015260600190565b602080825260149082015273151c9858dac8191bd95cc81b9bdd08195e1a5cdd60621b604082015260600190565b60208152815160208201526000602083015161016080604085015261272f61018085018361264c565b9150604085015161274b60608601826001600160a01b03169052565b506060850151601f1980868503016080870152612768848361264c565b935060808701519150808685030160a0870152612785848361264c565b935060a087015160c087015260c087015160e087015260e087015191506101008281880152808801519250506101208187860301818801526127c7858461261d565b9450808801519250506101408187860301818801526127e685846125da565b908801518782039092018488015293509050612802838261261d565b9695505050505050565b60208152815160208201526000602083015161014080604085015261283561016085018361264c565b9150604085015161285160608601826001600160a01b03169052565b506060850151601f198086850301608087015261286e848361264c565b935060808701519150808685030160a087015261288b848361264c565b935060a087015160c087015260c087015160e087015260e087015191506101008281880152808801519250506101208187860301818801526127e685846125da565b60006101008a83528060208401526128e78184018b61264c565b6001600160a01b038a1660408501528381036060850152905061290a818961264c565b9050828103608084015261291e818861264c565b90508560a084015282810360c084015261293881866125da565b905082810360e084015261294c818561261d565b9b9a5050505050505050505050565b604051601f8201601f1916810167ffffffffffffffff8111828210171561298457612984612a84565b604052919050565b600067ffffffffffffffff8211156129a6576129a6612a84565b5060051b60200190565b600082198211156129c3576129c3612a6e565b500190565b6000826129e357634e487b7160e01b81526012600452602481fd5b500490565b6000816000190483118215151615612a0257612a02612a6e565b500290565b600082821015612a1957612a19612a6e565b500390565b600181811c90821680612a3257607f821691505b6020821081141561074557634e487b7160e01b600052602260045260246000fd5b6000600019821415612a6757612a67612a6e565b5060010190565b634e487b7160e01b600052601160045260246000fd5b634e487b7160e01b600052604160045260246000fdfea26469706673582212200058b2638f6b21e73e4e46a368bb0496aa0ecb30dfd30ef1da1dad871d7b821364736f6c63430008040033",
  "linkReferences": {},
  "deployedLinkReferences": {}
}