{
  "_format": "hh-sol-artifact-1",
  "contractName": "Deyplay",
  "sourceName": "contracts/Deyplay.sol",
  "abi": [
    {
      "anonymous": false,
      "inputs": [
        {
          "indexed": false,
          "internalType": "uint256",
          "name": "id",
          "type": "uint256"
        },
        {
          "indexed": false,
          "internalType": "string",
          "name": "title",
          "type": "string"
        },
        {
          "indexed": false,
          "internalType": "address",
          "name": "artist",
          "type": "address"
        },
        {
          "indexed": false,
          "internalType": "string",
          "name": "imageUrl",
          "type": "string"
        },
        {
          "indexed": false,
          "internalType": "string",
          "name": "description",
          "type": "string"
        },
        {
          "indexed": false,
          "internalType": "uint256",
          "name": "price",
          "type": "uint256"
        }
      ],
      "name": "AlbumCreated",
      "type": "event"
    },
    {
      "anonymous": false,
      "inputs": [
        {
          "indexed": false,
          "internalType": "uint256",
          "name": "albumId",
          "type": "uint256"
        },
        {
          "indexed": false,
          "internalType": "address",
          "name": "buyer",
          "type": "address"
        },
        {
          "indexed": false,
          "internalType": "uint256",
          "name": "amount",
          "type": "uint256"
        }
      ],
      "name": "AlbumPurchased",
      "type": "event"
    },
    {
      "anonymous": false,
      "inputs": [
        {
          "indexed": false,
          "internalType": "uint256",
          "name": "albumId",
          "type": "uint256"
        },
        {
          "indexed": false,
          "internalType": "address",
          "name": "listener",
          "type": "address"
        },
        {
          "indexed": false,
          "internalType": "uint256",
          "name": "amount",
          "type": "uint256"
        }
      ],
      "name": "AlbumStreamed",
      "type": "event"
    },
    {
      "anonymous": false,
      "inputs": [
        {
          "indexed": false,
          "internalType": "uint256",
          "name": "id",
          "type": "uint256"
        },
        {
          "indexed": false,
          "internalType": "string",
          "name": "title",
          "type": "string"
        },
        {
          "indexed": false,
          "internalType": "address",
          "name": "artist",
          "type": "address"
        },
        {
          "indexed": false,
          "internalType": "string",
          "name": "imageUrl",
          "type": "string"
        },
        {
          "indexed": false,
          "internalType": "uint256",
          "name": "price",
          "type": "uint256"
        }
      ],
      "name": "TrackCreated",
      "type": "event"
    },
    {
      "anonymous": false,
      "inputs": [
        {
          "indexed": false,
          "internalType": "uint256",
          "name": "trackId",
          "type": "uint256"
        },
        {
          "indexed": false,
          "internalType": "address",
          "name": "buyer",
          "type": "address"
        },
        {
          "indexed": false,
          "internalType": "uint256",
          "name": "amount",
          "type": "uint256"
        }
      ],
      "name": "TrackPurchased",
      "type": "event"
    },
    {
      "anonymous": false,
      "inputs": [
        {
          "indexed": false,
          "internalType": "uint256",
          "name": "trackId",
          "type": "uint256"
        },
        {
          "indexed": false,
          "internalType": "address",
          "name": "listener",
          "type": "address"
        },
        {
          "indexed": false,
          "internalType": "uint256",
          "name": "amount",
          "type": "uint256"
        }
      ],
      "name": "TrackStreamed",
      "type": "event"
    },
    {
      "inputs": [
        {
          "internalType": "string",
          "name": "_title",
          "type": "string"
        },
        {
          "internalType": "address",
          "name": "_artist",
          "type": "address"
        },
        {
          "internalType": "string",
          "name": "_imageUrl",
          "type": "string"
        },
        {
          "internalType": "string",
          "name": "_description",
          "type": "string"
        },
        {
          "internalType": "uint256",
          "name": "_price",
          "type": "uint256"
        },
        {
          "internalType": "uint256[]",
          "name": "_audioFiles",
          "type": "uint256[]"
        }
      ],
      "name": "addAlbum",
      "outputs": [],
      "stateMutability": "nonpayable",
      "type": "function"
    },
    {
      "inputs": [
        {
          "internalType": "string",
          "name": "_title",
          "type": "string"
        },
        {
          "internalType": "address",
          "name": "_artist",
          "type": "address"
        },
        {
          "internalType": "string",
          "name": "_imageUrl",
          "type": "string"
        },
        {
          "internalType": "uint256",
          "name": "_price",
          "type": "uint256"
        }
      ],
      "name": "addTrack",
      "outputs": [],
      "stateMutability": "nonpayable",
      "type": "function"
    },
    {
      "inputs": [
        {
          "internalType": "uint256",
          "name": "_trackId",
          "type": "uint256"
        },
        {
          "internalType": "uint256",
          "name": "_albumId",
          "type": "uint256"
        }
      ],
      "name": "addTrackToAlbum",
      "outputs": [],
      "stateMutability": "nonpayable",
      "type": "function"
    },
    {
      "inputs": [
        {
          "internalType": "address",
          "name": "_artist",
          "type": "address"
        }
      ],
      "name": "getArtistBalance",
      "outputs": [
        {
          "internalType": "uint256",
          "name": "",
          "type": "uint256"
        }
      ],
      "stateMutability": "view",
      "type": "function"
    },
    {
      "inputs": [
        {
          "internalType": "address",
          "name": "_artist",
          "type": "address"
        }
      ],
      "name": "getTotalAlbumAmount",
      "outputs": [
        {
          "internalType": "uint256",
          "name": "",
          "type": "uint256"
        }
      ],
      "stateMutability": "view",
      "type": "function"
    },
    {
      "inputs": [
        {
          "internalType": "address",
          "name": "_artist",
          "type": "address"
        }
      ],
      "name": "getTotalAlbumStreams",
      "outputs": [
        {
          "internalType": "uint256",
          "name": "",
          "type": "uint256"
        }
      ],
      "stateMutability": "view",
      "type": "function"
    },
    {
      "inputs": [],
      "name": "getTotalAlbumStreams",
      "outputs": [
        {
          "internalType": "uint256",
          "name": "",
          "type": "uint256"
        }
      ],
      "stateMutability": "view",
      "type": "function"
    },
    {
      "inputs": [
        {
          "internalType": "address",
          "name": "_artist",
          "type": "address"
        }
      ],
      "name": "getTotalTrackAmount",
      "outputs": [
        {
          "internalType": "uint256",
          "name": "",
          "type": "uint256"
        }
      ],
      "stateMutability": "view",
      "type": "function"
    },
    {
      "inputs": [
        {
          "internalType": "address",
          "name": "_artist",
          "type": "address"
        }
      ],
      "name": "getTotalTrackStreams",
      "outputs": [
        {
          "internalType": "uint256",
          "name": "",
          "type": "uint256"
        }
      ],
      "stateMutability": "view",
      "type": "function"
    },
    {
      "inputs": [],
      "name": "getTotalTrackStreams",
      "outputs": [
        {
          "internalType": "uint256",
          "name": "",
          "type": "uint256"
        }
      ],
      "stateMutability": "view",
      "type": "function"
    },
    {
      "inputs": [
        {
          "internalType": "address",
          "name": "_user",
          "type": "address"
        }
      ],
      "name": "getUserPurchasedAlbums",
      "outputs": [
        {
          "internalType": "uint256[]",
          "name": "",
          "type": "uint256[]"
        }
      ],
      "stateMutability": "view",
      "type": "function"
    },
    {
      "inputs": [
        {
          "internalType": "address",
          "name": "_user",
          "type": "address"
        }
      ],
      "name": "getUserPurchasedTracks",
      "outputs": [
        {
          "internalType": "uint256[]",
          "name": "",
          "type": "uint256[]"
        }
      ],
      "stateMutability": "view",
      "type": "function"
    },
    {
      "inputs": [
        {
          "internalType": "address",
          "name": "_artist",
          "type": "address"
        }
      ],
      "name": "listAlbumsByArtist",
      "outputs": [
        {
          "internalType": "uint256[]",
          "name": "",
          "type": "uint256[]"
        }
      ],
      "stateMutability": "view",
      "type": "function"
    },
    {
      "inputs": [
        {
          "internalType": "address",
          "name": "_artist",
          "type": "address"
        }
      ],
      "name": "listTracksByArtist",
      "outputs": [
        {
          "internalType": "uint256[]",
          "name": "",
          "type": "uint256[]"
        }
      ],
      "stateMutability": "view",
      "type": "function"
    },
    {
      "inputs": [
        {
          "internalType": "uint256",
          "name": "_albumId",
          "type": "uint256"
        }
      ],
      "name": "purchaseAlbum",
      "outputs": [],
      "stateMutability": "payable",
      "type": "function"
    },
    {
      "inputs": [
        {
          "internalType": "uint256",
          "name": "_trackId",
          "type": "uint256"
        }
      ],
      "name": "purchaseTrack",
      "outputs": [],
      "stateMutability": "payable",
      "type": "function"
    },
    {
      "inputs": [
        {
          "internalType": "uint256",
          "name": "_albumId",
          "type": "uint256"
        }
      ],
      "name": "streamAlbum",
      "outputs": [],
      "stateMutability": "payable",
      "type": "function"
    },
    {
      "inputs": [
        {
          "internalType": "uint256",
          "name": "_trackId",
          "type": "uint256"
        }
      ],
      "name": "streamTrack",
      "outputs": [],
      "stateMutability": "payable",
      "type": "function"
    }
  ],
  "bytecode": "0x608060405234801561001057600080fd5b506120ec806100206000396000f3fe6080604052600436106101085760003560e01c80639edc858c11610095578063d7fc0cf211610064578063d7fc0cf2146102a1578063ea981775146102c1578063efb78308146102d4578063f4ce0f86146102f4578063fc78b96b1461032a57600080fd5b80639edc858c14610239578063acff110e1461024c578063c103351f1461026c578063d74c22651461028c57600080fd5b80636850a7e3116100dc5780636850a7e3146101a657806368dbdb59146101c657806376dde21b146101e65780638d59f7e2146102065780638ef8b3861461022657600080fd5b806221991e1461010d5780631d29d5991461012f57806340d1e240146101655780635d0650b414610178575b600080fd5b34801561011957600080fd5b5061012d610128366004611de0565b61033f565b005b34801561013b57600080fd5b5061014f61014a366004611c6d565b6103cc565b60405161015c9190611e4c565b60405180910390f35b61012d610173366004611dc8565b610438565b34801561018457600080fd5b50610198610193366004611c6d565b610700565b60405190815260200161015c565b3480156101b257600080fd5b5061014f6101c1366004611c6d565b61077e565b3480156101d257600080fd5b5061012d6101e1366004611c8e565b61086f565b3480156101f257600080fd5b50610198610201366004611c6d565b610b0c565b34801561021257600080fd5b50610198610221366004611c6d565b610b72565b61012d610234366004611dc8565b610be8565b61012d610247366004611dc8565b610ea1565b34801561025857600080fd5b5061014f610267366004611c6d565b611184565b34801561027857600080fd5b50610198610287366004611c6d565b6111ee565b34801561029857600080fd5b50610198611253565b3480156102ad57600080fd5b5061012d6102bc366004611d4f565b611298565b61012d6102cf366004611dc8565b611488565b3480156102e057600080fd5b5061014f6102ef366004611c6d565b61176b565b34801561030057600080fd5b5061019861030f366004611c6d565b6001600160a01b031660009081526006602052604090205490565b34801561033657600080fd5b50610198611853565b8160008111801561035257506000548111155b6103775760405162461bcd60e51b815260040161036e90611ebe565b60405180910390fd5b8160008111801561038a57506001548111155b6103a65760405162461bcd60e51b815260040161036e90611e90565b505060009081526003602090815260408220600801805460018101825590835291200155565b6001600160a01b03811660009081526005602090815260409182902080548351818402810184019094528084526060939283018282801561042c57602002820191906000526020600020905b815481526020019060010190808311610418575b50505050509050919050565b8060008111801561044b57506001548111155b6104675760405162461bcd60e51b815260040161036e90611e90565b600082815260036020526040902060058101543410156104da5760405162461bcd60e51b815260206004820152602860248201527f496e73756666696369656e74207061796d656e7420746f2073747265616d2074604482015267686520616c62756d60c01b606482015260840161036e565b600061059982600501548360090180548060200260200160405190810160405280929190818152602001828054801561053c57602002820191906000526020600020905b81546001600160a01b0316815260019091019060200180831161051e575b505050505084600a0180548060200260200160405190810160405280929190818152602001828054801561058f57602002820191906000526020600020905b81548152602001906001019080831161057b575b5050505050611892565b905060008183600501546105ad9190612023565b60068401805491925060006105c18361206f565b909155505060028301546001600160a01b0316600090815260066020526040812080548392906105f2908490611fcc565b925050819055506106b28360090180548060200260200160405190810160405280929190818152602001828054801561065457602002820191906000526020600020905b81546001600160a01b03168152600190910190602001808311610636575b505050505084600a018054806020026020016040519081016040528092919081815260200182805480156106a757602002820191906000526020600020905b815481526020019060010190808311610693575b505050505084611906565b600583015460408051878152336020820152908101919091527f9895cbad8f9db9bfb55390deaa7dd85188e313b35ee7ee4748b41ae3b9a7936f906060015b60405180910390a15050505050565b60008060015b600054811161077757600081815260026020819052604090912001546001600160a01b038581169116141561076557600081815260026020526040902060048101546006909101546107589190612004565b6107629083611fcc565b91505b8061076f8161206f565b915050610706565b5092915050565b60606000805467ffffffffffffffff8111156107aa57634e487b7160e01b600052604160045260246000fd5b6040519080825280602002602001820160405280156107d3578160200160208202803683370190505b509050600060015b600054811161086657600081815260026020819052604090912001546001600160a01b038681169116141561085457600081815260026020526040902054835184908490811061083b57634e487b7160e01b600052603260045260246000fd5b6020908102919091010152816108508161206f565b9250505b8061085e8161206f565b9150506107db565b50909392505050565b60008151116108d05760405162461bcd60e51b815260206004820152602760248201527f416c62756d206d7573742068617665206174206c65617374206f6e6520617564604482015266696f2066696c6560c81b606482015260840161036e565b600180549060006108e08361206f565b91905055506040518061016001604052806001548152602001878152602001866001600160a01b031681526020018581526020018481526020018381526020016000815260200160008152602001828152602001600067ffffffffffffffff81111561095c57634e487b7160e01b600052604160045260246000fd5b604051908082528060200260200182016040528015610985578160200160208202803683370190505b50815260200160006040519080825280602002602001820160405280156109b6578160200160208202803683370190505b5090526001805460009081526003602090815260409091208351815583820151805191936109ea9390850192910190611a3b565b5060408201516002820180546001600160a01b0319166001600160a01b0390921691909117905560608201518051610a2c916003840191602090910190611a3b565b5060808201518051610a48916004840191602090910190611a3b565b5060a0820151600582015560c0820151600682015560e082015160078201556101008201518051610a83916008840191602090910190611abf565b506101208201518051610aa0916009840191602090910190611af9565b506101408201518051610abd91600a840191602090910190611abf565b509050507f9048b43ebaedab71f8a3d6c7e46d1b749420be3cde06fe484c604be17318b32e6001548787878787604051610afc96959493929190611eec565b60405180910390a1505050505050565b60008060015b600054811161077757600081815260026020819052604090912001546001600160a01b0385811691161415610b6057600081815260026020526040902060050154610b5d9083611fcc565b91505b80610b6a8161206f565b915050610b12565b60008060015b6001548111610777576000818152600360205260409020600201546001600160a01b0385811691161415610bd65760008181526003602052604090206005810154600790910154610bc99190612004565b610bd39083611fcc565b91505b80610be08161206f565b915050610b78565b80600081118015610bfb57506000548111155b610c175760405162461bcd60e51b815260040161036e90611ebe565b60008281526002602052604090206004810154341015610c8a5760405162461bcd60e51b815260206004820152602860248201527f496e73756666696369656e74207061796d656e7420746f2073747265616d2074604482015267686520747261636b60c01b606482015260840161036e565b6000610d47826004015483600701805480602002602001604051908101604052809291908181526020018280548015610cec57602002820191906000526020600020905b81546001600160a01b03168152600190910190602001808311610cce575b50505050508460080180548060200260200160405190810160405280929190818152602001828054801561058f576020028201919060005260206000209081548152602001906001019080831161057b575050505050611892565b90506000818360040154610d5b9190612023565b6005840180549192506000610d6f8361206f565b909155505060028301546001600160a01b031660009081526006602052604081208054839290610da0908490611fcc565b92505081905550610e5e83600701805480602002602001604051908101604052809291908181526020018280548015610e0257602002820191906000526020600020905b81546001600160a01b03168152600190910190602001808311610de4575b5050505050846008018054806020026020016040519081016040528092919081815260200182805480156106a7576020028201919060005260206000209081548152602001906001019080831161069357505050505084611906565b600483015460408051878152336020820152908101919091527fa8ff0760db1bd134bec00c7f599e3d73ad185cfc7dd4c313b1ccfc4bd9594737906060016106f1565b80600081118015610eb457506000548111155b610ed05760405162461bcd60e51b815260040161036e90611ebe565b60008281526002602052604090206004810154341015610f455760405162461bcd60e51b815260206004820152602a60248201527f496e73756666696369656e74207061796d656e7420746f2070757263686173656044820152692074686520747261636b60b01b606482015260840161036e565b6000611000826004015483600701805480602002602001604051908101604052809291908181526020018280548015610cec576020028201919060005260206000209081546001600160a01b03168152600190910190602001808311610cce5750505050508460080180548060200260200160405190810160405280929190818152602001828054801561058f576020028201919060005260206000209081548152602001906001019080831161057b575050505050611892565b905060008183600401546110149190612023565b60068401805491925060006110288361206f565b909155505060028301546001600160a01b031660009081526006602052604081208054839290611059908490611fcc565b9250508190555061111583600701805480602002602001604051908101604052809291908181526020018280548015610e02576020028201919060005260206000209081546001600160a01b03168152600190910190602001808311610de4575050505050846008018054806020026020016040519081016040528092919081815260200182805480156106a7576020028201919060005260206000209081548152602001906001019080831161069357505050505084611906565b3360008181526004602081815260408084208054600181018255908552919093200188905585015490517ffe3f9af2d0ba5be4687ca774df8206ec9cf7919bcf32bd9c76b051e5dfbbb5b4926106f1928983526001600160a01b03919091166020830152604082015260600190565b6001600160a01b03811660009081526004602090815260409182902080548351818402810184019094528084526060939283018282801561042c57602002820191906000526020600020908154815260200190600101908083116104185750505050509050919050565b60008060015b6001548111610777576000818152600360205260409020600201546001600160a01b03858116911614156112415760008181526003602052604090206006015461123e9083611fcc565b91505b8061124b8161206f565b9150506111f4565b60008060015b60005481116112925760008181526002602052604090206005015461127e9083611fcc565b91508061128a8161206f565b915050611259565b50919050565b6000805490806112a78361206f565b91905055506040518061012001604052806000548152602001858152602001846001600160a01b031681526020018381526020018281526020016000815260200160008152602001600067ffffffffffffffff81111561131757634e487b7160e01b600052604160045260246000fd5b604051908082528060200260200182016040528015611340578160200160208202803683370190505b5081526020016000604051908082528060200260200182016040528015611371578160200160208202803683370190505b5090526000805481526002602090815260409091208251815582820151805191926113a492600185019290910190611a3b565b5060408201516002820180546001600160a01b0319166001600160a01b03909216919091179055606082015180516113e6916003840191602090910190611a3b565b506080820151600482015560a0820151600582015560c0820151600682015560e08201518051611420916007840191602090910190611af9565b50610100820151805161143d916008840191602090910190611abf565b509050507f6c223d041c81947c91abd3aae359c5472d9804fac278d306beca522226876ed96000548585858560405161147a959493929190611f4e565b60405180910390a150505050565b8060008111801561149b57506001548111155b6114b75760405162461bcd60e51b815260040161036e90611e90565b6000828152600360205260409020600581015434101561152c5760405162461bcd60e51b815260206004820152602a60248201527f496e73756666696369656e74207061796d656e7420746f2070757263686173656044820152692074686520616c62756d60b01b606482015260840161036e565b60006115e782600501548360090180548060200260200160405190810160405280929190818152602001828054801561053c576020028201919060005260206000209081546001600160a01b0316815260019091019060200180831161051e57505050505084600a0180548060200260200160405190810160405280929190818152602001828054801561058f576020028201919060005260206000209081548152602001906001019080831161057b575050505050611892565b905060008183600501546115fb9190612023565b600784018054919250600061160f8361206f565b909155505060028301546001600160a01b031660009081526006602052604081208054839290611640908490611fcc565b925050819055506116fc83600901805480602002602001604051908101604052809291908181526020018280548015610654576020028201919060005260206000209081546001600160a01b0316815260019091019060200180831161063657505050505084600a018054806020026020016040519081016040528092919081815260200182805480156106a7576020028201919060005260206000209081548152602001906001019080831161069357505050505084611906565b3360008181526005602081815260408084208054600181018255908552919093200188905585015490517f11332ef3956cea4003185b2a4db8407e3e5662fe799887282e178f18726ecc9b926106f1928983526001600160a01b03919091166020830152604082015260600190565b6060600060015467ffffffffffffffff81111561179857634e487b7160e01b600052604160045260246000fd5b6040519080825280602002602001820160405280156117c1578160200160208202803683370190505b509050600060015b6001548111610866576000818152600360205260409020600201546001600160a01b038681169116141561184157600081815260036020526040902054835184908490811061182857634e487b7160e01b600052603260045260246000fd5b60209081029190910101528161183d8161206f565b9250505b8061184b8161206f565b9150506117c9565b60008060015b60015481116112925760008181526003602052604090206006015461187e9083611fcc565b91508061188a8161206f565b915050611859565b600080805b84518110156118fd5760648482815181106118c257634e487b7160e01b600052603260045260246000fd5b6020026020010151876118d59190612004565b6118df9190611fe4565b6118e99083611fcc565b9150806118f58161206f565b915050611897565b50949350505050565b815183511461196d5760405162461bcd60e51b815260206004820152602d60248201527f4f776e65727320616e642070657263656e746167657320617272617973206c6560448201526c0dccee8d040dad2e6dac2e8c6d609b1b606482015260840161036e565b60005b8351811015611a3557600084828151811061199b57634e487b7160e01b600052603260045260246000fd5b60200260200101519050600060648584815181106119c957634e487b7160e01b600052603260045260246000fd5b6020026020010151856119dc9190612004565b6119e69190611fe4565b6040519091506001600160a01b0383169082156108fc029083906000818181858888f19350505050158015611a1f573d6000803e3d6000fd5b5050508080611a2d9061206f565b915050611970565b50505050565b828054611a479061203a565b90600052602060002090601f016020900481019282611a695760008555611aaf565b82601f10611a8257805160ff1916838001178555611aaf565b82800160010185558215611aaf579182015b82811115611aaf578251825591602001919060010190611a94565b50611abb929150611b4e565b5090565b828054828255906000526020600020908101928215611aaf5791602002820182811115611aaf578251825591602001919060010190611a94565b828054828255906000526020600020908101928215611aaf579160200282015b82811115611aaf57825182546001600160a01b0319166001600160a01b03909116178255602090920191600190910190611b19565b5b80821115611abb5760008155600101611b4f565b80356001600160a01b0381168114611b7a57600080fd5b919050565b600082601f830112611b8f578081fd5b8135602067ffffffffffffffff821115611bab57611bab6120a0565b8160051b611bba828201611f9b565b838152828101908684018388018501891015611bd4578687fd5b8693505b85841015611bf6578035835260019390930192918401918401611bd8565b50979650505050505050565b600082601f830112611c12578081fd5b813567ffffffffffffffff811115611c2c57611c2c6120a0565b611c3f601f8201601f1916602001611f9b565b818152846020838601011115611c53578283fd5b816020850160208301379081016020019190915292915050565b600060208284031215611c7e578081fd5b611c8782611b63565b9392505050565b60008060008060008060c08789031215611ca6578182fd5b863567ffffffffffffffff80821115611cbd578384fd5b611cc98a838b01611c02565b9750611cd760208a01611b63565b96506040890135915080821115611cec578384fd5b611cf88a838b01611c02565b95506060890135915080821115611d0d578384fd5b611d198a838b01611c02565b94506080890135935060a0890135915080821115611d35578283fd5b50611d4289828a01611b7f565b9150509295509295509295565b60008060008060808587031215611d64578384fd5b843567ffffffffffffffff80821115611d7b578586fd5b611d8788838901611c02565b9550611d9560208801611b63565b94506040870135915080821115611daa578384fd5b50611db787828801611c02565b949793965093946060013593505050565b600060208284031215611dd9578081fd5b5035919050565b60008060408385031215611df2578182fd5b50508035926020909101359150565b60008151808452815b81811015611e2657602081850181015186830182015201611e0a565b81811115611e375782602083870101525b50601f01601f19169290920160200192915050565b6020808252825182820181905260009190848201906040850190845b81811015611e8457835183529284019291840191600101611e68565b50909695505050505050565b602080825260149082015273105b189d5b48191bd95cc81b9bdd08195e1a5cdd60621b604082015260600190565b602080825260149082015273151c9858dac8191bd95cc81b9bdd08195e1a5cdd60621b604082015260600190565b86815260c060208201526000611f0560c0830188611e01565b6001600160a01b03871660408401528281036060840152611f268187611e01565b90508281036080840152611f3a8186611e01565b9150508260a0830152979650505050505050565b85815260a060208201526000611f6760a0830187611e01565b6001600160a01b03861660408401528281036060840152611f888186611e01565b9150508260808301529695505050505050565b604051601f8201601f1916810167ffffffffffffffff81118282101715611fc457611fc46120a0565b604052919050565b60008219821115611fdf57611fdf61208a565b500190565b600082611fff57634e487b7160e01b81526012600452602481fd5b500490565b600081600019048311821515161561201e5761201e61208a565b500290565b6000828210156120355761203561208a565b500390565b600181811c9082168061204e57607f821691505b6020821081141561129257634e487b7160e01b600052602260045260246000fd5b60006000198214156120835761208361208a565b5060010190565b634e487b7160e01b600052601160045260246000fd5b634e487b7160e01b600052604160045260246000fdfea2646970667358221220dc60bfcd7729971ff4d138c347881dced294fef05613227845f91da5c19069e964736f6c63430008040033",
  "linkReferences": {},
  "deployedLinkReferences": {}
}