{
  "_format": "hh-sol-artifact-1",
  "contractName": "Deyplay",
  "sourceName": "contracts/Deyplay.sol",
  "abi": [
    {
      "anonymous": false,
      "inputs": [
        {
          "indexed": false,
          "internalType": "uint256",
          "name": "id",
          "type": "uint256"
        },
        {
          "indexed": false,
          "internalType": "string",
          "name": "title",
          "type": "string"
        },
        {
          "indexed": false,
          "internalType": "address",
          "name": "artist",
          "type": "address"
        },
        {
          "indexed": false,
          "internalType": "string",
          "name": "imageUrl",
          "type": "string"
        },
        {
          "indexed": false,
          "internalType": "string",
          "name": "description",
          "type": "string"
        },
        {
          "indexed": false,
          "internalType": "uint256",
          "name": "price",
          "type": "uint256"
        },
        {
          "indexed": false,
          "internalType": "address[]",
          "name": "royaltiesOwners",
          "type": "address[]"
        },
        {
          "indexed": false,
          "internalType": "uint256[]",
          "name": "royaltiesPercentages",
          "type": "uint256[]"
        }
      ],
      "name": "AlbumCreated",
      "type": "event"
    },
    {
      "anonymous": false,
      "inputs": [
        {
          "indexed": false,
          "internalType": "uint256",
          "name": "albumId",
          "type": "uint256"
        },
        {
          "indexed": false,
          "internalType": "address",
          "name": "buyer",
          "type": "address"
        },
        {
          "indexed": false,
          "internalType": "uint256",
          "name": "amount",
          "type": "uint256"
        }
      ],
      "name": "AlbumPurchased",
      "type": "event"
    },
    {
      "anonymous": false,
      "inputs": [
        {
          "indexed": false,
          "internalType": "uint256",
          "name": "albumId",
          "type": "uint256"
        },
        {
          "indexed": false,
          "internalType": "address",
          "name": "listener",
          "type": "address"
        },
        {
          "indexed": false,
          "internalType": "uint256",
          "name": "amount",
          "type": "uint256"
        }
      ],
      "name": "AlbumStreamed",
      "type": "event"
    },
    {
      "anonymous": false,
      "inputs": [
        {
          "indexed": false,
          "internalType": "uint256",
          "name": "id",
          "type": "uint256"
        },
        {
          "indexed": false,
          "internalType": "string",
          "name": "title",
          "type": "string"
        },
        {
          "indexed": false,
          "internalType": "address",
          "name": "artist",
          "type": "address"
        },
        {
          "indexed": false,
          "internalType": "string",
          "name": "imageUrl",
          "type": "string"
        },
        {
          "indexed": false,
          "internalType": "string",
          "name": "audioFile",
          "type": "string"
        },
        {
          "indexed": false,
          "internalType": "uint256",
          "name": "price",
          "type": "uint256"
        },
        {
          "indexed": false,
          "internalType": "address[]",
          "name": "royaltiesOwners",
          "type": "address[]"
        },
        {
          "indexed": false,
          "internalType": "uint256[]",
          "name": "royaltiesPercentages",
          "type": "uint256[]"
        }
      ],
      "name": "TrackCreated",
      "type": "event"
    },
    {
      "anonymous": false,
      "inputs": [
        {
          "indexed": false,
          "internalType": "uint256",
          "name": "trackId",
          "type": "uint256"
        },
        {
          "indexed": false,
          "internalType": "address",
          "name": "buyer",
          "type": "address"
        },
        {
          "indexed": false,
          "internalType": "uint256",
          "name": "amount",
          "type": "uint256"
        }
      ],
      "name": "TrackPurchased",
      "type": "event"
    },
    {
      "anonymous": false,
      "inputs": [
        {
          "indexed": false,
          "internalType": "uint256",
          "name": "trackId",
          "type": "uint256"
        },
        {
          "indexed": false,
          "internalType": "address",
          "name": "listener",
          "type": "address"
        },
        {
          "indexed": false,
          "internalType": "uint256",
          "name": "amount",
          "type": "uint256"
        }
      ],
      "name": "TrackStreamed",
      "type": "event"
    },
    {
      "inputs": [
        {
          "internalType": "string",
          "name": "_title",
          "type": "string"
        },
        {
          "internalType": "address",
          "name": "_artist",
          "type": "address"
        },
        {
          "internalType": "string",
          "name": "_imageUrl",
          "type": "string"
        },
        {
          "internalType": "string",
          "name": "_description",
          "type": "string"
        },
        {
          "internalType": "uint256",
          "name": "_price",
          "type": "uint256"
        },
        {
          "internalType": "address[]",
          "name": "_royaltiesOwners",
          "type": "address[]"
        },
        {
          "internalType": "uint256[]",
          "name": "_royaltiesPercentages",
          "type": "uint256[]"
        }
      ],
      "name": "addAlbum",
      "outputs": [],
      "stateMutability": "nonpayable",
      "type": "function"
    },
    {
      "inputs": [
        {
          "internalType": "string",
          "name": "_title",
          "type": "string"
        },
        {
          "internalType": "address",
          "name": "_artist",
          "type": "address"
        },
        {
          "internalType": "string",
          "name": "_imageUrl",
          "type": "string"
        },
        {
          "internalType": "string",
          "name": "_audioFile",
          "type": "string"
        },
        {
          "internalType": "uint256",
          "name": "_price",
          "type": "uint256"
        },
        {
          "internalType": "address[]",
          "name": "_royaltiesOwners",
          "type": "address[]"
        },
        {
          "internalType": "uint256[]",
          "name": "_royaltiesPercentages",
          "type": "uint256[]"
        }
      ],
      "name": "addTrack",
      "outputs": [],
      "stateMutability": "nonpayable",
      "type": "function"
    },
    {
      "inputs": [
        {
          "internalType": "uint256",
          "name": "_trackId",
          "type": "uint256"
        },
        {
          "internalType": "uint256",
          "name": "_albumId",
          "type": "uint256"
        }
      ],
      "name": "addTrackToAlbum",
      "outputs": [],
      "stateMutability": "nonpayable",
      "type": "function"
    },
    {
      "inputs": [
        {
          "internalType": "address",
          "name": "_artist",
          "type": "address"
        }
      ],
      "name": "getArtistBalance",
      "outputs": [
        {
          "internalType": "uint256",
          "name": "",
          "type": "uint256"
        }
      ],
      "stateMutability": "view",
      "type": "function"
    },
    {
      "inputs": [
        {
          "internalType": "address",
          "name": "_artist",
          "type": "address"
        }
      ],
      "name": "getTotalAlbumAmount",
      "outputs": [
        {
          "internalType": "uint256",
          "name": "",
          "type": "uint256"
        }
      ],
      "stateMutability": "view",
      "type": "function"
    },
    {
      "inputs": [
        {
          "internalType": "address",
          "name": "_artist",
          "type": "address"
        }
      ],
      "name": "getTotalAlbumStreams",
      "outputs": [
        {
          "internalType": "uint256",
          "name": "",
          "type": "uint256"
        }
      ],
      "stateMutability": "view",
      "type": "function"
    },
    {
      "inputs": [
        {
          "internalType": "address",
          "name": "_artist",
          "type": "address"
        }
      ],
      "name": "getTotalTrackAmount",
      "outputs": [
        {
          "internalType": "uint256",
          "name": "",
          "type": "uint256"
        }
      ],
      "stateMutability": "view",
      "type": "function"
    },
    {
      "inputs": [
        {
          "internalType": "address",
          "name": "_artist",
          "type": "address"
        }
      ],
      "name": "getTotalTrackStreams",
      "outputs": [
        {
          "internalType": "uint256",
          "name": "",
          "type": "uint256"
        }
      ],
      "stateMutability": "view",
      "type": "function"
    },
    {
      "inputs": [
        {
          "internalType": "uint256",
          "name": "_trackId",
          "type": "uint256"
        }
      ],
      "name": "getTrack",
      "outputs": [
        {
          "components": [
            {
              "internalType": "uint256",
              "name": "id",
              "type": "uint256"
            },
            {
              "internalType": "string",
              "name": "title",
              "type": "string"
            },
            {
              "internalType": "address",
              "name": "artist",
              "type": "address"
            },
            {
              "internalType": "string",
              "name": "imageUrl",
              "type": "string"
            },
            {
              "internalType": "string",
              "name": "audioFile",
              "type": "string"
            },
            {
              "internalType": "uint256",
              "name": "price",
              "type": "uint256"
            },
            {
              "internalType": "uint256",
              "name": "totalStreams",
              "type": "uint256"
            },
            {
              "internalType": "uint256",
              "name": "totalPurchases",
              "type": "uint256"
            },
            {
              "internalType": "address[]",
              "name": "royaltiesOwners",
              "type": "address[]"
            },
            {
              "internalType": "uint256[]",
              "name": "royaltiesPercentages",
              "type": "uint256[]"
            }
          ],
          "internalType": "struct Deyplay.Track",
          "name": "",
          "type": "tuple"
        }
      ],
      "stateMutability": "view",
      "type": "function"
    },
    {
      "inputs": [
        {
          "internalType": "address",
          "name": "_user",
          "type": "address"
        }
      ],
      "name": "getUserPurchasedAlbums",
      "outputs": [
        {
          "internalType": "uint256[]",
          "name": "",
          "type": "uint256[]"
        }
      ],
      "stateMutability": "view",
      "type": "function"
    },
    {
      "inputs": [
        {
          "internalType": "address",
          "name": "_user",
          "type": "address"
        }
      ],
      "name": "getUserPurchasedTracks",
      "outputs": [
        {
          "internalType": "uint256[]",
          "name": "",
          "type": "uint256[]"
        }
      ],
      "stateMutability": "view",
      "type": "function"
    },
    {
      "inputs": [
        {
          "internalType": "address",
          "name": "_artist",
          "type": "address"
        }
      ],
      "name": "listAlbumsByArtist",
      "outputs": [
        {
          "internalType": "uint256[]",
          "name": "",
          "type": "uint256[]"
        }
      ],
      "stateMutability": "view",
      "type": "function"
    },
    {
      "inputs": [],
      "name": "listAllAlbums",
      "outputs": [
        {
          "internalType": "uint256[]",
          "name": "",
          "type": "uint256[]"
        }
      ],
      "stateMutability": "view",
      "type": "function"
    },
    {
      "inputs": [],
      "name": "listAllTracks",
      "outputs": [
        {
          "internalType": "uint256[]",
          "name": "",
          "type": "uint256[]"
        }
      ],
      "stateMutability": "view",
      "type": "function"
    },
    {
      "inputs": [
        {
          "internalType": "address",
          "name": "_artist",
          "type": "address"
        }
      ],
      "name": "listTracksByArtist",
      "outputs": [
        {
          "internalType": "uint256[]",
          "name": "",
          "type": "uint256[]"
        }
      ],
      "stateMutability": "view",
      "type": "function"
    },
    {
      "inputs": [
        {
          "internalType": "uint256",
          "name": "_albumId",
          "type": "uint256"
        }
      ],
      "name": "purchaseAlbum",
      "outputs": [],
      "stateMutability": "payable",
      "type": "function"
    },
    {
      "inputs": [
        {
          "internalType": "uint256",
          "name": "_trackId",
          "type": "uint256"
        }
      ],
      "name": "purchaseTrack",
      "outputs": [],
      "stateMutability": "payable",
      "type": "function"
    },
    {
      "inputs": [
        {
          "internalType": "uint256",
          "name": "_albumId",
          "type": "uint256"
        }
      ],
      "name": "streamAlbum",
      "outputs": [],
      "stateMutability": "payable",
      "type": "function"
    },
    {
      "inputs": [
        {
          "internalType": "uint256",
          "name": "_trackId",
          "type": "uint256"
        }
      ],
      "name": "streamTrack",
      "outputs": [],
      "stateMutability": "payable",
      "type": "function"
    }
  ],
  "bytecode": "0x608060405234801561001057600080fd5b506125c0806100206000396000f3fe6080604052600436106101135760003560e01c806376dde21b116100a0578063c103351f11610064578063c103351f146102ce578063d53f2baa146102ee578063ea9817751461030e578063efb7830814610321578063f4ce0f861461034157600080fd5b806376dde21b146102485780638d59f7e2146102685780638ef8b386146102885780639edc858c1461029b578063acff110e146102ae57600080fd5b806340d1e240116100e757806340d1e240146101a55780635d0650b4146101b8578063629058ca146101e65780636456b79a146102135780636850a7e31461022857600080fd5b806221991e146101185780631d29d5991461013a578063245d1558146101705780632cdfb61f14610190575b600080fd5b34801561012457600080fd5b50610138610133366004612189565b610377565b005b34801561014657600080fd5b5061015a61015536600461206a565b610404565b6040516101679190612267565b60405180910390f35b34801561017c57600080fd5b5061013861018b36600461208b565b610470565b34801561019c57600080fd5b5061015a610610565b6101386101b3366004612171565b6106d1565b3480156101c457600080fd5b506101d86101d336600461206a565b610999565b604051908152602001610167565b3480156101f257600080fd5b50610206610201366004612171565b610a17565b60405161016791906122d6565b34801561021f57600080fd5b5061015a610d7b565b34801561023457600080fd5b5061015a61024336600461206a565b610e35565b34801561025457600080fd5b506101d861026336600461206a565b610f26565b34801561027457600080fd5b506101d861028336600461206a565b610f8c565b610138610296366004612171565b611002565b6101386102a9366004612171565b6112bb565b3480156102ba57600080fd5b5061015a6102c936600461206a565b6115a0565b3480156102da57600080fd5b506101d86102e936600461206a565b61160a565b3480156102fa57600080fd5b5061013861030936600461208b565b61166f565b61013861031c366004612171565b611874565b34801561032d57600080fd5b5061015a61033c36600461206a565b611b57565b34801561034d57600080fd5b506101d861035c36600461206a565b6001600160a01b031660009081526006602052604090205490565b8160008111801561038a57506000548111155b6103af5760405162461bcd60e51b81526004016103a6906122a8565b60405180910390fd5b816000811180156103c257506001548111155b6103de5760405162461bcd60e51b81526004016103a69061227a565b505060009081526003602090815260408220600801805460018101825590835291200155565b6001600160a01b03811660009081526005602090815260409182902080548351818402810184019094528084526060939283018282801561046457602002820191906000526020600020905b815481526020019060010190808311610450575b50505050509050919050565b60008054908061047f83612543565b909155505060408051610140810182526000805480835260208084018c81526001600160a01b038c1685870152606085018b9052608085018a905260a0850189905260c0850184905260e085018490526101008501889052610120850187905291835260028152939091208251815590518051929391926105069260018501920190611de8565b5060408201516002820180546001600160a01b0319166001600160a01b0390921691909117905560608201518051610548916003840191602090910190611de8565b5060808201518051610564916004840191602090910190611de8565b5060a0820151600582015560c0820151600682015560e08201516007820155610100820151805161059f916008840191602090910190611e6c565b5061012082015180516105bc916009840191602090910190611ec1565b509050507fbf2201dbf94a92f1d5a37c712b8d9b99e2a1e94a9ead3e3318c067b76569712a600054888888888888886040516105ff9897969594939291906123bd565b60405180910390a150505050505050565b6060600060015467ffffffffffffffff81111561063d57634e487b7160e01b600052604160045260246000fd5b604051908082528060200260200182016040528015610666578160200160208202803683370190505b50905060015b60015481116106cb57600081815260036020526040902054826106906001846124f7565b815181106106ae57634e487b7160e01b600052603260045260246000fd5b6020908102919091010152806106c381612543565b91505061066c565b50919050565b806000811180156106e457506001548111155b6107005760405162461bcd60e51b81526004016103a69061227a565b600082815260036020526040902060058101543410156107735760405162461bcd60e51b815260206004820152602860248201527f496e73756666696369656e74207061796d656e7420746f2073747265616d2074604482015267686520616c62756d60c01b60648201526084016103a6565b60006108328260050154836009018054806020026020016040519081016040528092919081815260200182805480156107d557602002820191906000526020600020905b81546001600160a01b031681526001909101906020018083116107b7575b505050505084600a0180548060200260200160405190810160405280929190818152602001828054801561082857602002820191906000526020600020905b815481526020019060010190808311610814575b5050505050611c3f565b9050600081836005015461084691906124f7565b600684018054919250600061085a83612543565b909155505060028301546001600160a01b03166000908152600660205260408120805483929061088b9084906124a0565b9250508190555061094b836009018054806020026020016040519081016040528092919081815260200182805480156108ed57602002820191906000526020600020905b81546001600160a01b031681526001909101906020018083116108cf575b505050505084600a0180548060200260200160405190810160405280929190818152602001828054801561094057602002820191906000526020600020905b81548152602001906001019080831161092c575b505050505084611cb3565b600583015460408051878152336020820152908101919091527f9895cbad8f9db9bfb55390deaa7dd85188e313b35ee7ee4748b41ae3b9a7936f906060015b60405180910390a15050505050565b60008060015b6000548111610a1057600081815260026020819052604090912001546001600160a01b03858116911614156109fe57600081815260026020526040902060058101546007909101546109f191906124d8565b6109fb90836124a0565b91505b80610a0881612543565b91505061099f565b5092915050565b610a76604051806101400160405280600081526020016060815260200160006001600160a01b03168152602001606081526020016060815260200160008152602001600081526020016000815260200160608152602001606081525090565b81600081118015610a8957506000548111155b610aa55760405162461bcd60e51b81526004016103a6906122a8565b600260008481526020019081526020016000206040518061014001604052908160008201548152602001600182018054610ade9061250e565b80601f0160208091040260200160405190810160405280929190818152602001828054610b0a9061250e565b8015610b575780601f10610b2c57610100808354040283529160200191610b57565b820191906000526020600020905b815481529060010190602001808311610b3a57829003601f168201915b505050918352505060028201546001600160a01b03166020820152600382018054604090920191610b879061250e565b80601f0160208091040260200160405190810160405280929190818152602001828054610bb39061250e565b8015610c005780601f10610bd557610100808354040283529160200191610c00565b820191906000526020600020905b815481529060010190602001808311610be357829003601f168201915b50505050508152602001600482018054610c199061250e565b80601f0160208091040260200160405190810160405280929190818152602001828054610c459061250e565b8015610c925780601f10610c6757610100808354040283529160200191610c92565b820191906000526020600020905b815481529060010190602001808311610c7557829003601f168201915b5050505050815260200160058201548152602001600682015481526020016007820154815260200160088201805480602002602001604051908101604052809291908181526020018280548015610d1257602002820191906000526020600020905b81546001600160a01b03168152600190910190602001808311610cf4575b5050505050815260200160098201805480602002602001604051908101604052809291908181526020018280548015610d6a57602002820191906000526020600020905b815481526020019060010190808311610d56575b505050505081525050915050919050565b60606000805467ffffffffffffffff811115610da757634e487b7160e01b600052604160045260246000fd5b604051908082528060200260200182016040528015610dd0578160200160208202803683370190505b50905060015b60005481116106cb5760008181526002602052604090205482610dfa6001846124f7565b81518110610e1857634e487b7160e01b600052603260045260246000fd5b602090810291909101015280610e2d81612543565b915050610dd6565b60606000805467ffffffffffffffff811115610e6157634e487b7160e01b600052604160045260246000fd5b604051908082528060200260200182016040528015610e8a578160200160208202803683370190505b509050600060015b6000548111610f1d57600081815260026020819052604090912001546001600160a01b0386811691161415610f0b576000818152600260205260409020548351849084908110610ef257634e487b7160e01b600052603260045260246000fd5b602090810291909101015281610f0781612543565b9250505b80610f1581612543565b915050610e92565b50909392505050565b60008060015b6000548111610a1057600081815260026020819052604090912001546001600160a01b0385811691161415610f7a57600081815260026020526040902060060154610f7790836124a0565b91505b80610f8481612543565b915050610f2c565b60008060015b6001548111610a10576000818152600360205260409020600201546001600160a01b0385811691161415610ff05760008181526003602052604090206005810154600790910154610fe391906124d8565b610fed90836124a0565b91505b80610ffa81612543565b915050610f92565b8060008111801561101557506000548111155b6110315760405162461bcd60e51b81526004016103a6906122a8565b600082815260026020526040902060058101543410156110a45760405162461bcd60e51b815260206004820152602860248201527f496e73756666696369656e74207061796d656e7420746f2073747265616d2074604482015267686520747261636b60c01b60648201526084016103a6565b600061116182600501548360080180548060200260200160405190810160405280929190818152602001828054801561110657602002820191906000526020600020905b81546001600160a01b031681526001909101906020018083116110e8575b5050505050846009018054806020026020016040519081016040528092919081815260200182805480156108285760200282019190600052602060002090815481526020019060010190808311610814575050505050611c3f565b9050600081836005015461117591906124f7565b600684018054919250600061118983612543565b909155505060028301546001600160a01b0316600090815260066020526040812080548392906111ba9084906124a0565b925050819055506112788360080180548060200260200160405190810160405280929190818152602001828054801561121c57602002820191906000526020600020905b81546001600160a01b031681526001909101906020018083116111fe575b505050505084600901805480602002602001604051908101604052809291908181526020018280548015610940576020028201919060005260206000209081548152602001906001019080831161092c57505050505084611cb3565b600583015460408051878152336020820152908101919091527fa8ff0760db1bd134bec00c7f599e3d73ad185cfc7dd4c313b1ccfc4bd95947379060600161098a565b806000811180156112ce57506000548111155b6112ea5760405162461bcd60e51b81526004016103a6906122a8565b6000828152600260205260409020600581015434101561135f5760405162461bcd60e51b815260206004820152602a60248201527f496e73756666696369656e74207061796d656e7420746f2070757263686173656044820152692074686520747261636b60b01b60648201526084016103a6565b600061141a826005015483600801805480602002602001604051908101604052809291908181526020018280548015611106576020028201919060005260206000209081546001600160a01b031681526001909101906020018083116110e8575050505050846009018054806020026020016040519081016040528092919081815260200182805480156108285760200282019190600052602060002090815481526020019060010190808311610814575050505050611c3f565b9050600081836005015461142e91906124f7565b600784018054919250600061144283612543565b909155505060028301546001600160a01b0316600090815260066020526040812080548392906114739084906124a0565b9250508190555061152f8360080180548060200260200160405190810160405280929190818152602001828054801561121c576020028201919060005260206000209081546001600160a01b031681526001909101906020018083116111fe57505050505084600901805480602002602001604051908101604052809291908181526020018280548015610940576020028201919060005260206000209081548152602001906001019080831161092c57505050505084611cb3565b33600081815260046020908152604080832080546001810182559084529190922001879055600585015490517ffe3f9af2d0ba5be4687ca774df8206ec9cf7919bcf32bd9c76b051e5dfbbb5b49261098a928983526001600160a01b03919091166020830152604082015260600190565b6001600160a01b03811660009081526004602090815260409182902080548351818402810184019094528084526060939283018282801561046457602002820191906000526020600020908154815260200190600101908083116104505750505050509050919050565b60008060015b6001548111610a10576000818152600360205260409020600201546001600160a01b038581169116141561165d5760008181526003602052604090206006015461165a90836124a0565b91505b8061166781612543565b915050611610565b6001805490600061167f83612543565b91905055506040518061016001604052806001548152602001888152602001876001600160a01b031681526020018681526020018581526020018481526020016000815260200160008152602001600067ffffffffffffffff8111156116f557634e487b7160e01b600052604160045260246000fd5b60405190808252806020026020018201604052801561171e578160200160208202803683370190505b50815260208082018590526040918201849052600180546000908152600383529290922083518155838201518051919361175e9390850192910190611de8565b5060408201516002820180546001600160a01b0319166001600160a01b03909216919091179055606082015180516117a0916003840191602090910190611de8565b50608082015180516117bc916004840191602090910190611de8565b5060a0820151600582015560c0820151600682015560e0820151600782015561010082015180516117f7916008840191602090910190611ec1565b506101208201518051611814916009840191602090910190611e6c565b50610140820151805161183191600a840191602090910190611ec1565b509050507fd78b5503298a5ec3a0c38871277d16caaede28506de5344aee4a623eebf34ed8600154888888888888886040516105ff9897969594939291906123bd565b8060008111801561188757506001548111155b6118a35760405162461bcd60e51b81526004016103a69061227a565b600082815260036020526040902060058101543410156119185760405162461bcd60e51b815260206004820152602a60248201527f496e73756666696369656e74207061796d656e7420746f2070757263686173656044820152692074686520616c62756d60b01b60648201526084016103a6565b60006119d38260050154836009018054806020026020016040519081016040528092919081815260200182805480156107d5576020028201919060005260206000209081546001600160a01b031681526001909101906020018083116107b757505050505084600a018054806020026020016040519081016040528092919081815260200182805480156108285760200282019190600052602060002090815481526020019060010190808311610814575050505050611c3f565b905060008183600501546119e791906124f7565b60078401805491925060006119fb83612543565b909155505060028301546001600160a01b031660009081526006602052604081208054839290611a2c9084906124a0565b92505081905550611ae8836009018054806020026020016040519081016040528092919081815260200182805480156108ed576020028201919060005260206000209081546001600160a01b031681526001909101906020018083116108cf57505050505084600a01805480602002602001604051908101604052809291908181526020018280548015610940576020028201919060005260206000209081548152602001906001019080831161092c57505050505084611cb3565b3360008181526005602081815260408084208054600181018255908552919093200188905585015490517f11332ef3956cea4003185b2a4db8407e3e5662fe799887282e178f18726ecc9b9261098a928983526001600160a01b03919091166020830152604082015260600190565b6060600060015467ffffffffffffffff811115611b8457634e487b7160e01b600052604160045260246000fd5b604051908082528060200260200182016040528015611bad578160200160208202803683370190505b509050600060015b6001548111610f1d576000818152600360205260409020600201546001600160a01b0386811691161415611c2d576000818152600360205260409020548351849084908110611c1457634e487b7160e01b600052603260045260246000fd5b602090810291909101015281611c2981612543565b9250505b80611c3781612543565b915050611bb5565b600080805b8451811015611caa576064848281518110611c6f57634e487b7160e01b600052603260045260246000fd5b602002602001015187611c8291906124d8565b611c8c91906124b8565b611c9690836124a0565b915080611ca281612543565b915050611c44565b50949350505050565b8151835114611d1a5760405162461bcd60e51b815260206004820152602d60248201527f4f776e65727320616e642070657263656e746167657320617272617973206c6560448201526c0dccee8d040dad2e6dac2e8c6d609b1b60648201526084016103a6565b60005b8351811015611de2576000848281518110611d4857634e487b7160e01b600052603260045260246000fd5b6020026020010151905060006064858481518110611d7657634e487b7160e01b600052603260045260246000fd5b602002602001015185611d8991906124d8565b611d9391906124b8565b6040519091506001600160a01b0383169082156108fc029083906000818181858888f19350505050158015611dcc573d6000803e3d6000fd5b5050508080611dda90612543565b915050611d1d565b50505050565b828054611df49061250e565b90600052602060002090601f016020900481019282611e165760008555611e5c565b82601f10611e2f57805160ff1916838001178555611e5c565b82800160010185558215611e5c579182015b82811115611e5c578251825591602001919060010190611e41565b50611e68929150611efb565b5090565b828054828255906000526020600020908101928215611e5c579160200282015b82811115611e5c57825182546001600160a01b0319166001600160a01b03909116178255602090920191600190910190611e8c565b828054828255906000526020600020908101928215611e5c5791602002820182811115611e5c578251825591602001919060010190611e41565b5b80821115611e685760008155600101611efc565b80356001600160a01b0381168114611f2757600080fd5b919050565b600082601f830112611f3c578081fd5b81356020611f51611f4c8361247c565b61244b565b80838252828201915082860187848660051b8901011115611f70578586fd5b855b85811015611f9557611f8382611f10565b84529284019290840190600101611f72565b5090979650505050505050565b600082601f830112611fb2578081fd5b81356020611fc2611f4c8361247c565b80838252828201915082860187848660051b8901011115611fe1578586fd5b855b85811015611f9557813584529284019290840190600101611fe3565b600082601f83011261200f578081fd5b813567ffffffffffffffff81111561202957612029612574565b61203c601f8201601f191660200161244b565b818152846020838601011115612050578283fd5b816020850160208301379081016020019190915292915050565b60006020828403121561207b578081fd5b61208482611f10565b9392505050565b600080600080600080600060e0888a0312156120a5578283fd5b873567ffffffffffffffff808211156120bc578485fd5b6120c88b838c01611fff565b98506120d660208b01611f10565b975060408a01359150808211156120eb578485fd5b6120f78b838c01611fff565b965060608a013591508082111561210c578485fd5b6121188b838c01611fff565b955060808a0135945060a08a0135915080821115612134578384fd5b6121408b838c01611f2c565b935060c08a0135915080821115612155578283fd5b506121628a828b01611fa2565b91505092959891949750929550565b600060208284031215612182578081fd5b5035919050565b6000806040838503121561219b578182fd5b50508035926020909101359150565b6000815180845260208085019450808401835b838110156121e25781516001600160a01b0316875295820195908201906001016121bd565b509495945050505050565b6000815180845260208085019450808401835b838110156121e257815187529582019590820190600101612200565b60008151808452815b8181101561224157602081850181015186830182015201612225565b818111156122525782602083870101525b50601f01601f19169290920160200192915050565b60208152600061208460208301846121ed565b602080825260149082015273105b189d5b48191bd95cc81b9bdd08195e1a5cdd60621b604082015260600190565b602080825260149082015273151c9858dac8191bd95cc81b9bdd08195e1a5cdd60621b604082015260600190565b6020815281516020820152600060208301516101408060408501526122ff61016085018361221c565b9150604085015161231b60608601826001600160a01b03169052565b506060850151601f1980868503016080870152612338848361221c565b935060808701519150808685030160a0870152612355848361221c565b935060a087015160c087015260c087015160e087015260e0870151915061010082818801528088015192505061012081878603018188015261239785846121aa565b9088015187820390920184880152935090506123b383826121ed565b9695505050505050565b60006101008a83528060208401526123d78184018b61221c565b6001600160a01b038a166040850152838103606085015290506123fa818961221c565b9050828103608084015261240e818861221c565b90508560a084015282810360c084015261242881866121aa565b905082810360e084015261243c81856121ed565b9b9a5050505050505050505050565b604051601f8201601f1916810167ffffffffffffffff8111828210171561247457612474612574565b604052919050565b600067ffffffffffffffff82111561249657612496612574565b5060051b60200190565b600082198211156124b3576124b361255e565b500190565b6000826124d357634e487b7160e01b81526012600452602481fd5b500490565b60008160001904831182151516156124f2576124f261255e565b500290565b6000828210156125095761250961255e565b500390565b600181811c9082168061252257607f821691505b602082108114156106cb57634e487b7160e01b600052602260045260246000fd5b60006000198214156125575761255761255e565b5060010190565b634e487b7160e01b600052601160045260246000fd5b634e487b7160e01b600052604160045260246000fdfea2646970667358221220edc14536b93e8fc5059e38870d609dd38aa926da0eaceb78be07ca5961eae6c364736f6c63430008040033",
  "linkReferences": {},
  "deployedLinkReferences": {}
}