{
  "_format": "hh-sol-artifact-1",
  "contractName": "Deyplay",
  "sourceName": "contracts/Deyplay.sol",
  "abi": [
    {
      "anonymous": false,
      "inputs": [
        {
          "indexed": false,
          "internalType": "uint256",
          "name": "id",
          "type": "uint256"
        },
        {
          "indexed": false,
          "internalType": "string",
          "name": "title",
          "type": "string"
        },
        {
          "indexed": false,
          "internalType": "address",
          "name": "artist",
          "type": "address"
        },
        {
          "indexed": false,
          "internalType": "string",
          "name": "imageUrl",
          "type": "string"
        },
        {
          "indexed": false,
          "internalType": "string",
          "name": "description",
          "type": "string"
        },
        {
          "indexed": false,
          "internalType": "uint256",
          "name": "price",
          "type": "uint256"
        }
      ],
      "name": "AlbumCreated",
      "type": "event"
    },
    {
      "anonymous": false,
      "inputs": [
        {
          "indexed": false,
          "internalType": "uint256",
          "name": "albumId",
          "type": "uint256"
        },
        {
          "indexed": false,
          "internalType": "address",
          "name": "buyer",
          "type": "address"
        },
        {
          "indexed": false,
          "internalType": "uint256",
          "name": "amount",
          "type": "uint256"
        }
      ],
      "name": "AlbumPurchased",
      "type": "event"
    },
    {
      "anonymous": false,
      "inputs": [
        {
          "indexed": false,
          "internalType": "uint256",
          "name": "albumId",
          "type": "uint256"
        },
        {
          "indexed": false,
          "internalType": "address",
          "name": "listener",
          "type": "address"
        },
        {
          "indexed": false,
          "internalType": "uint256",
          "name": "amount",
          "type": "uint256"
        }
      ],
      "name": "AlbumStreamed",
      "type": "event"
    },
    {
      "anonymous": false,
      "inputs": [
        {
          "indexed": false,
          "internalType": "uint256",
          "name": "id",
          "type": "uint256"
        },
        {
          "indexed": false,
          "internalType": "string",
          "name": "title",
          "type": "string"
        },
        {
          "indexed": false,
          "internalType": "address",
          "name": "artist",
          "type": "address"
        },
        {
          "indexed": false,
          "internalType": "string",
          "name": "imageUrl",
          "type": "string"
        },
        {
          "indexed": false,
          "internalType": "string",
          "name": "audioFile",
          "type": "string"
        },
        {
          "indexed": false,
          "internalType": "uint256",
          "name": "price",
          "type": "uint256"
        }
      ],
      "name": "TrackCreated",
      "type": "event"
    },
    {
      "anonymous": false,
      "inputs": [
        {
          "indexed": false,
          "internalType": "uint256",
          "name": "trackId",
          "type": "uint256"
        },
        {
          "indexed": false,
          "internalType": "address",
          "name": "buyer",
          "type": "address"
        },
        {
          "indexed": false,
          "internalType": "uint256",
          "name": "amount",
          "type": "uint256"
        }
      ],
      "name": "TrackPurchased",
      "type": "event"
    },
    {
      "anonymous": false,
      "inputs": [
        {
          "indexed": false,
          "internalType": "uint256",
          "name": "trackId",
          "type": "uint256"
        },
        {
          "indexed": false,
          "internalType": "address",
          "name": "listener",
          "type": "address"
        },
        {
          "indexed": false,
          "internalType": "uint256",
          "name": "amount",
          "type": "uint256"
        }
      ],
      "name": "TrackStreamed",
      "type": "event"
    },
    {
      "inputs": [
        {
          "internalType": "string",
          "name": "_title",
          "type": "string"
        },
        {
          "internalType": "address",
          "name": "_artist",
          "type": "address"
        },
        {
          "internalType": "string",
          "name": "_imageUrl",
          "type": "string"
        },
        {
          "internalType": "string",
          "name": "_description",
          "type": "string"
        },
        {
          "internalType": "uint256",
          "name": "_price",
          "type": "uint256"
        },
        {
          "internalType": "uint256[]",
          "name": "_audioFiles",
          "type": "uint256[]"
        }
      ],
      "name": "addAlbum",
      "outputs": [],
      "stateMutability": "nonpayable",
      "type": "function"
    },
    {
      "inputs": [
        {
          "internalType": "string",
          "name": "_title",
          "type": "string"
        },
        {
          "internalType": "address",
          "name": "_artist",
          "type": "address"
        },
        {
          "internalType": "string",
          "name": "_imageUrl",
          "type": "string"
        },
        {
          "internalType": "string",
          "name": "_audioFile",
          "type": "string"
        },
        {
          "internalType": "uint256",
          "name": "_price",
          "type": "uint256"
        }
      ],
      "name": "addTrack",
      "outputs": [],
      "stateMutability": "nonpayable",
      "type": "function"
    },
    {
      "inputs": [
        {
          "internalType": "uint256",
          "name": "_trackId",
          "type": "uint256"
        },
        {
          "internalType": "uint256",
          "name": "_albumId",
          "type": "uint256"
        }
      ],
      "name": "addTrackToAlbum",
      "outputs": [],
      "stateMutability": "nonpayable",
      "type": "function"
    },
    {
      "inputs": [
        {
          "internalType": "address",
          "name": "_artist",
          "type": "address"
        }
      ],
      "name": "getArtistBalance",
      "outputs": [
        {
          "internalType": "uint256",
          "name": "",
          "type": "uint256"
        }
      ],
      "stateMutability": "view",
      "type": "function"
    },
    {
      "inputs": [
        {
          "internalType": "address",
          "name": "_artist",
          "type": "address"
        }
      ],
      "name": "getTotalAlbumAmount",
      "outputs": [
        {
          "internalType": "uint256",
          "name": "",
          "type": "uint256"
        }
      ],
      "stateMutability": "view",
      "type": "function"
    },
    {
      "inputs": [
        {
          "internalType": "address",
          "name": "_artist",
          "type": "address"
        }
      ],
      "name": "getTotalAlbumStreams",
      "outputs": [
        {
          "internalType": "uint256",
          "name": "",
          "type": "uint256"
        }
      ],
      "stateMutability": "view",
      "type": "function"
    },
    {
      "inputs": [
        {
          "internalType": "address",
          "name": "_artist",
          "type": "address"
        }
      ],
      "name": "getTotalTrackAmount",
      "outputs": [
        {
          "internalType": "uint256",
          "name": "",
          "type": "uint256"
        }
      ],
      "stateMutability": "view",
      "type": "function"
    },
    {
      "inputs": [
        {
          "internalType": "address",
          "name": "_artist",
          "type": "address"
        }
      ],
      "name": "getTotalTrackStreams",
      "outputs": [
        {
          "internalType": "uint256",
          "name": "",
          "type": "uint256"
        }
      ],
      "stateMutability": "view",
      "type": "function"
    },
    {
      "inputs": [
        {
          "internalType": "address",
          "name": "_user",
          "type": "address"
        }
      ],
      "name": "getUserPurchasedAlbums",
      "outputs": [
        {
          "internalType": "uint256[]",
          "name": "",
          "type": "uint256[]"
        }
      ],
      "stateMutability": "view",
      "type": "function"
    },
    {
      "inputs": [
        {
          "internalType": "address",
          "name": "_user",
          "type": "address"
        }
      ],
      "name": "getUserPurchasedTracks",
      "outputs": [
        {
          "internalType": "uint256[]",
          "name": "",
          "type": "uint256[]"
        }
      ],
      "stateMutability": "view",
      "type": "function"
    },
    {
      "inputs": [
        {
          "internalType": "address",
          "name": "_artist",
          "type": "address"
        }
      ],
      "name": "listAlbumsByArtist",
      "outputs": [
        {
          "internalType": "uint256[]",
          "name": "",
          "type": "uint256[]"
        }
      ],
      "stateMutability": "view",
      "type": "function"
    },
    {
      "inputs": [
        {
          "internalType": "address",
          "name": "_artist",
          "type": "address"
        }
      ],
      "name": "listTracksByArtist",
      "outputs": [
        {
          "internalType": "uint256[]",
          "name": "",
          "type": "uint256[]"
        }
      ],
      "stateMutability": "view",
      "type": "function"
    },
    {
      "inputs": [
        {
          "internalType": "uint256",
          "name": "_albumId",
          "type": "uint256"
        }
      ],
      "name": "purchaseAlbum",
      "outputs": [],
      "stateMutability": "payable",
      "type": "function"
    },
    {
      "inputs": [
        {
          "internalType": "uint256",
          "name": "_trackId",
          "type": "uint256"
        }
      ],
      "name": "purchaseTrack",
      "outputs": [],
      "stateMutability": "payable",
      "type": "function"
    },
    {
      "inputs": [
        {
          "internalType": "uint256",
          "name": "_albumId",
          "type": "uint256"
        }
      ],
      "name": "streamAlbum",
      "outputs": [],
      "stateMutability": "payable",
      "type": "function"
    },
    {
      "inputs": [
        {
          "internalType": "uint256",
          "name": "_trackId",
          "type": "uint256"
        }
      ],
      "name": "streamTrack",
      "outputs": [],
      "stateMutability": "payable",
      "type": "function"
    }
  ],
  "bytecode": "0x608060405234801561001057600080fd5b5061201e806100206000396000f3fe6080604052600436106100f25760003560e01c80638ef8b3861161008a578063dd3076b311610059578063dd3076b314610276578063ea98177514610296578063efb78308146102a9578063f4ce0f86146102c957600080fd5b80638ef8b386146102105780639edc858c14610223578063acff110e14610236578063c103351f1461025657600080fd5b80636850a7e3116100c65780636850a7e31461019057806368dbdb59146101b057806376dde21b146101d05780638d59f7e2146101f057600080fd5b806221991e146100f75780631d29d5991461011957806340d1e2401461014f5780635d0650b414610162575b600080fd5b34801561010357600080fd5b50610117610112366004611d59565b6102ff565b005b34801561012557600080fd5b50610139610134366004611bc2565b61038c565b6040516101469190611dc5565b60405180910390f35b61011761015d366004611d41565b6103f8565b34801561016e57600080fd5b5061018261017d366004611bc2565b6106c0565b604051908152602001610146565b34801561019c57600080fd5b506101396101ab366004611bc2565b61073e565b3480156101bc57600080fd5b506101176101cb366004611c80565b61082f565b3480156101dc57600080fd5b506101826101eb366004611bc2565b610acc565b3480156101fc57600080fd5b5061018261020b366004611bc2565b610b32565b61011761021e366004611d41565b610ba8565b610117610231366004611d41565b610e61565b34801561024257600080fd5b50610139610251366004611bc2565b611146565b34801561026257600080fd5b50610182610271366004611bc2565b6111b0565b34801561028257600080fd5b50610117610291366004611be3565b611215565b6101176102a4366004611d41565b61141c565b3480156102b557600080fd5b506101396102c4366004611bc2565b6116ff565b3480156102d557600080fd5b506101826102e4366004611bc2565b6001600160a01b031660009081526006602052604090205490565b8160008111801561031257506000548111155b6103375760405162461bcd60e51b815260040161032e90611e37565b60405180910390fd5b8160008111801561034a57506001548111155b6103665760405162461bcd60e51b815260040161032e90611e09565b505060009081526003602090815260408220600801805460018101825590835291200155565b6001600160a01b0381166000908152600560209081526040918290208054835181840281018401909452808452606093928301828280156103ec57602002820191906000526020600020905b8154815260200190600101908083116103d8575b50505050509050919050565b8060008111801561040b57506001548111155b6104275760405162461bcd60e51b815260040161032e90611e09565b6000828152600360205260409020600581015434101561049a5760405162461bcd60e51b815260206004820152602860248201527f496e73756666696369656e74207061796d656e7420746f2073747265616d2074604482015267686520616c62756d60c01b606482015260840161032e565b60006105598260050154836009018054806020026020016040519081016040528092919081815260200182805480156104fc57602002820191906000526020600020905b81546001600160a01b031681526001909101906020018083116104de575b505050505084600a0180548060200260200160405190810160405280929190818152602001828054801561054f57602002820191906000526020600020905b81548152602001906001019080831161053b575b50505050506117e7565b9050600081836005015461056d9190611f4f565b600684018054919250600061058183611fa1565b909155505060028301546001600160a01b0316600090815260066020526040812080548392906105b2908490611ef8565b925050819055506106728360090180548060200260200160405190810160405280929190818152602001828054801561061457602002820191906000526020600020905b81546001600160a01b031681526001909101906020018083116105f6575b505050505084600a0180548060200260200160405190810160405280929190818152602001828054801561066757602002820191906000526020600020905b815481526020019060010190808311610653575b50505050508461185b565b600583015460408051878152336020820152908101919091527f9895cbad8f9db9bfb55390deaa7dd85188e313b35ee7ee4748b41ae3b9a7936f906060015b60405180910390a15050505050565b60008060015b600054811161073757600081815260026020819052604090912001546001600160a01b038581169116141561072557600081815260026020526040902060058101546007909101546107189190611f30565b6107229083611ef8565b91505b8061072f81611fa1565b9150506106c6565b5092915050565b60606000805467ffffffffffffffff81111561076a57634e487b7160e01b600052604160045260246000fd5b604051908082528060200260200182016040528015610793578160200160208202803683370190505b509050600060015b600054811161082657600081815260026020819052604090912001546001600160a01b03868116911614156108145760008181526002602052604090205483518490849081106107fb57634e487b7160e01b600052603260045260246000fd5b60209081029190910101528161081081611fa1565b9250505b8061081e81611fa1565b91505061079b565b50909392505050565b60008151116108905760405162461bcd60e51b815260206004820152602760248201527f416c62756d206d7573742068617665206174206c65617374206f6e6520617564604482015266696f2066696c6560c81b606482015260840161032e565b600180549060006108a083611fa1565b91905055506040518061016001604052806001548152602001878152602001866001600160a01b031681526020018581526020018481526020018381526020016000815260200160008152602001828152602001600067ffffffffffffffff81111561091c57634e487b7160e01b600052604160045260246000fd5b604051908082528060200260200182016040528015610945578160200160208202803683370190505b5081526020016000604051908082528060200260200182016040528015610976578160200160208202803683370190505b5090526001805460009081526003602090815260409091208351815583820151805191936109aa9390850192910190611990565b5060408201516002820180546001600160a01b0319166001600160a01b03909216919091179055606082015180516109ec916003840191602090910190611990565b5060808201518051610a08916004840191602090910190611990565b5060a0820151600582015560c0820151600682015560e082015160078201556101008201518051610a43916008840191602090910190611a14565b506101208201518051610a60916009840191602090910190611a4e565b506101408201518051610a7d91600a840191602090910190611a14565b509050507f9048b43ebaedab71f8a3d6c7e46d1b749420be3cde06fe484c604be17318b32e6001548787878787604051610abc96959493929190611e65565b60405180910390a1505050505050565b60008060015b600054811161073757600081815260026020819052604090912001546001600160a01b0385811691161415610b2057600081815260026020526040902060060154610b1d9083611ef8565b91505b80610b2a81611fa1565b915050610ad2565b60008060015b6001548111610737576000818152600360205260409020600201546001600160a01b0385811691161415610b965760008181526003602052604090206005810154600790910154610b899190611f30565b610b939083611ef8565b91505b80610ba081611fa1565b915050610b38565b80600081118015610bbb57506000548111155b610bd75760405162461bcd60e51b815260040161032e90611e37565b60008281526002602052604090206005810154341015610c4a5760405162461bcd60e51b815260206004820152602860248201527f496e73756666696369656e74207061796d656e7420746f2073747265616d2074604482015267686520747261636b60c01b606482015260840161032e565b6000610d07826005015483600801805480602002602001604051908101604052809291908181526020018280548015610cac57602002820191906000526020600020905b81546001600160a01b03168152600190910190602001808311610c8e575b50505050508460090180548060200260200160405190810160405280929190818152602001828054801561054f576020028201919060005260206000209081548152602001906001019080831161053b5750505050506117e7565b90506000818360050154610d1b9190611f4f565b6006840180549192506000610d2f83611fa1565b909155505060028301546001600160a01b031660009081526006602052604081208054839290610d60908490611ef8565b92505081905550610e1e83600801805480602002602001604051908101604052809291908181526020018280548015610dc257602002820191906000526020600020905b81546001600160a01b03168152600190910190602001808311610da4575b50505050508460090180548060200260200160405190810160405280929190818152602001828054801561066757602002820191906000526020600020908154815260200190600101908083116106535750505050508461185b565b600583015460408051878152336020820152908101919091527fa8ff0760db1bd134bec00c7f599e3d73ad185cfc7dd4c313b1ccfc4bd9594737906060016106b1565b80600081118015610e7457506000548111155b610e905760405162461bcd60e51b815260040161032e90611e37565b60008281526002602052604090206005810154341015610f055760405162461bcd60e51b815260206004820152602a60248201527f496e73756666696369656e74207061796d656e7420746f2070757263686173656044820152692074686520747261636b60b01b606482015260840161032e565b6000610fc0826005015483600801805480602002602001604051908101604052809291908181526020018280548015610cac576020028201919060005260206000209081546001600160a01b03168152600190910190602001808311610c8e5750505050508460090180548060200260200160405190810160405280929190818152602001828054801561054f576020028201919060005260206000209081548152602001906001019080831161053b5750505050506117e7565b90506000818360050154610fd49190611f4f565b6007840180549192506000610fe883611fa1565b909155505060028301546001600160a01b031660009081526006602052604081208054839290611019908490611ef8565b925050819055506110d583600801805480602002602001604051908101604052809291908181526020018280548015610dc2576020028201919060005260206000209081546001600160a01b03168152600190910190602001808311610da45750505050508460090180548060200260200160405190810160405280929190818152602001828054801561066757602002820191906000526020600020908154815260200190600101908083116106535750505050508461185b565b33600081815260046020908152604080832080546001810182559084529190922001879055600585015490517ffe3f9af2d0ba5be4687ca774df8206ec9cf7919bcf32bd9c76b051e5dfbbb5b4926106b1928983526001600160a01b03919091166020830152604082015260600190565b6001600160a01b0381166000908152600460209081526040918290208054835181840281018401909452808452606093928301828280156103ec57602002820191906000526020600020908154815260200190600101908083116103d85750505050509050919050565b60008060015b6001548111610737576000818152600360205260409020600201546001600160a01b0385811691161415611203576000818152600360205260409020600601546112009083611ef8565b91505b8061120d81611fa1565b9150506111b6565b60008054908061122483611fa1565b91905055506040518061014001604052806000548152602001868152602001856001600160a01b031681526020018481526020018381526020018281526020016000815260200160008152602001600067ffffffffffffffff81111561129a57634e487b7160e01b600052604160045260246000fd5b6040519080825280602002602001820160405280156112c3578160200160208202803683370190505b50815260200160006040519080825280602002602001820160405280156112f4578160200160208202803683370190505b50905260008054815260026020908152604090912082518155828201518051919261132792600185019290910190611990565b5060408201516002820180546001600160a01b0319166001600160a01b0390921691909117905560608201518051611369916003840191602090910190611990565b5060808201518051611385916004840191602090910190611990565b5060a0820151600582015560c0820151600682015560e0820151600782015561010082015180516113c0916008840191602090910190611a4e565b5061012082015180516113dd916009840191602090910190611a14565b509050507f2af8e7defc337a95c0375d800f84c92fa3adb85705812babcd5756064b06694660005486868686866040516106b196959493929190611e65565b8060008111801561142f57506001548111155b61144b5760405162461bcd60e51b815260040161032e90611e09565b600082815260036020526040902060058101543410156114c05760405162461bcd60e51b815260206004820152602a60248201527f496e73756666696369656e74207061796d656e7420746f2070757263686173656044820152692074686520616c62756d60b01b606482015260840161032e565b600061157b8260050154836009018054806020026020016040519081016040528092919081815260200182805480156104fc576020028201919060005260206000209081546001600160a01b031681526001909101906020018083116104de57505050505084600a0180548060200260200160405190810160405280929190818152602001828054801561054f576020028201919060005260206000209081548152602001906001019080831161053b5750505050506117e7565b9050600081836005015461158f9190611f4f565b60078401805491925060006115a383611fa1565b909155505060028301546001600160a01b0316600090815260066020526040812080548392906115d4908490611ef8565b9250508190555061169083600901805480602002602001604051908101604052809291908181526020018280548015610614576020028201919060005260206000209081546001600160a01b031681526001909101906020018083116105f657505050505084600a0180548060200260200160405190810160405280929190818152602001828054801561066757602002820191906000526020600020908154815260200190600101908083116106535750505050508461185b565b3360008181526005602081815260408084208054600181018255908552919093200188905585015490517f11332ef3956cea4003185b2a4db8407e3e5662fe799887282e178f18726ecc9b926106b1928983526001600160a01b03919091166020830152604082015260600190565b6060600060015467ffffffffffffffff81111561172c57634e487b7160e01b600052604160045260246000fd5b604051908082528060200260200182016040528015611755578160200160208202803683370190505b509050600060015b6001548111610826576000818152600360205260409020600201546001600160a01b03868116911614156117d55760008181526003602052604090205483518490849081106117bc57634e487b7160e01b600052603260045260246000fd5b6020908102919091010152816117d181611fa1565b9250505b806117df81611fa1565b91505061175d565b600080805b845181101561185257606484828151811061181757634e487b7160e01b600052603260045260246000fd5b60200260200101518761182a9190611f30565b6118349190611f10565b61183e9083611ef8565b91508061184a81611fa1565b9150506117ec565b50949350505050565b81518351146118c25760405162461bcd60e51b815260206004820152602d60248201527f4f776e65727320616e642070657263656e746167657320617272617973206c6560448201526c0dccee8d040dad2e6dac2e8c6d609b1b606482015260840161032e565b60005b835181101561198a5760008482815181106118f057634e487b7160e01b600052603260045260246000fd5b602002602001015190506000606485848151811061191e57634e487b7160e01b600052603260045260246000fd5b6020026020010151856119319190611f30565b61193b9190611f10565b6040519091506001600160a01b0383169082156108fc029083906000818181858888f19350505050158015611974573d6000803e3d6000fd5b505050808061198290611fa1565b9150506118c5565b50505050565b82805461199c90611f66565b90600052602060002090601f0160209004810192826119be5760008555611a04565b82601f106119d757805160ff1916838001178555611a04565b82800160010185558215611a04579182015b82811115611a045782518255916020019190600101906119e9565b50611a10929150611aa3565b5090565b828054828255906000526020600020908101928215611a045791602002820182811115611a045782518255916020019190600101906119e9565b828054828255906000526020600020908101928215611a04579160200282015b82811115611a0457825182546001600160a01b0319166001600160a01b03909116178255602090920191600190910190611a6e565b5b80821115611a105760008155600101611aa4565b80356001600160a01b0381168114611acf57600080fd5b919050565b600082601f830112611ae4578081fd5b8135602067ffffffffffffffff821115611b0057611b00611fd2565b8160051b611b0f828201611ec7565b838152828101908684018388018501891015611b29578687fd5b8693505b85841015611b4b578035835260019390930192918401918401611b2d565b50979650505050505050565b600082601f830112611b67578081fd5b813567ffffffffffffffff811115611b8157611b81611fd2565b611b94601f8201601f1916602001611ec7565b818152846020838601011115611ba8578283fd5b816020850160208301379081016020019190915292915050565b600060208284031215611bd3578081fd5b611bdc82611ab8565b9392505050565b600080600080600060a08688031215611bfa578081fd5b853567ffffffffffffffff80821115611c11578283fd5b611c1d89838a01611b57565b9650611c2b60208901611ab8565b95506040880135915080821115611c40578283fd5b611c4c89838a01611b57565b94506060880135915080821115611c61578283fd5b50611c6e88828901611b57565b95989497509295608001359392505050565b60008060008060008060c08789031215611c98578081fd5b863567ffffffffffffffff80821115611caf578283fd5b611cbb8a838b01611b57565b9750611cc960208a01611ab8565b96506040890135915080821115611cde578283fd5b611cea8a838b01611b57565b95506060890135915080821115611cff578283fd5b611d0b8a838b01611b57565b94506080890135935060a0890135915080821115611d27578283fd5b50611d3489828a01611ad4565b9150509295509295509295565b600060208284031215611d52578081fd5b5035919050565b60008060408385031215611d6b578182fd5b50508035926020909101359150565b60008151808452815b81811015611d9f57602081850181015186830182015201611d83565b81811115611db05782602083870101525b50601f01601f19169290920160200192915050565b6020808252825182820181905260009190848201906040850190845b81811015611dfd57835183529284019291840191600101611de1565b50909695505050505050565b602080825260149082015273105b189d5b48191bd95cc81b9bdd08195e1a5cdd60621b604082015260600190565b602080825260149082015273151c9858dac8191bd95cc81b9bdd08195e1a5cdd60621b604082015260600190565b86815260c060208201526000611e7e60c0830188611d7a565b6001600160a01b03871660408401528281036060840152611e9f8187611d7a565b90508281036080840152611eb38186611d7a565b9150508260a0830152979650505050505050565b604051601f8201601f1916810167ffffffffffffffff81118282101715611ef057611ef0611fd2565b604052919050565b60008219821115611f0b57611f0b611fbc565b500190565b600082611f2b57634e487b7160e01b81526012600452602481fd5b500490565b6000816000190483118215151615611f4a57611f4a611fbc565b500290565b600082821015611f6157611f61611fbc565b500390565b600181811c90821680611f7a57607f821691505b60208210811415611f9b57634e487b7160e01b600052602260045260246000fd5b50919050565b6000600019821415611fb557611fb5611fbc565b5060010190565b634e487b7160e01b600052601160045260246000fd5b634e487b7160e01b600052604160045260246000fdfea2646970667358221220edfa14ccb5aeec5e07d58b51d168e2d4d3b1dd65868c712d2ea6f40e30e3b0a864736f6c63430008040033",
  "linkReferences": {},
  "deployedLinkReferences": {}
}