{
  "_format": "hh-sol-artifact-1",
  "contractName": "Deyplay",
  "sourceName": "contracts/Deyplay.sol",
  "abi": [
    {
      "anonymous": false,
      "inputs": [
        {
          "indexed": false,
          "internalType": "uint256",
          "name": "id",
          "type": "uint256"
        },
        {
          "indexed": false,
          "internalType": "string",
          "name": "title",
          "type": "string"
        },
        {
          "indexed": false,
          "internalType": "string",
          "name": "description",
          "type": "string"
        },
        {
          "indexed": false,
          "internalType": "address",
          "name": "artist",
          "type": "address"
        },
        {
          "indexed": false,
          "internalType": "string",
          "name": "imageUrl",
          "type": "string"
        },
        {
          "indexed": false,
          "internalType": "string",
          "name": "audioFile",
          "type": "string"
        },
        {
          "indexed": false,
          "internalType": "uint256",
          "name": "price",
          "type": "uint256"
        },
        {
          "indexed": false,
          "internalType": "address[]",
          "name": "royaltiesOwners",
          "type": "address[]"
        },
        {
          "indexed": false,
          "internalType": "uint256[]",
          "name": "royaltiesPercentages",
          "type": "uint256[]"
        }
      ],
      "name": "TrackCreated",
      "type": "event"
    },
    {
      "anonymous": false,
      "inputs": [
        {
          "indexed": false,
          "internalType": "uint256",
          "name": "trackId",
          "type": "uint256"
        },
        {
          "indexed": false,
          "internalType": "address",
          "name": "buyer",
          "type": "address"
        },
        {
          "indexed": false,
          "internalType": "uint256",
          "name": "amount",
          "type": "uint256"
        }
      ],
      "name": "TrackPurchased",
      "type": "event"
    },
    {
      "anonymous": false,
      "inputs": [
        {
          "indexed": false,
          "internalType": "uint256",
          "name": "trackId",
          "type": "uint256"
        },
        {
          "indexed": false,
          "internalType": "address",
          "name": "listener",
          "type": "address"
        },
        {
          "indexed": false,
          "internalType": "uint256",
          "name": "amount",
          "type": "uint256"
        }
      ],
      "name": "TrackStreamed",
      "type": "event"
    },
    {
      "inputs": [
        {
          "internalType": "string",
          "name": "_title",
          "type": "string"
        },
        {
          "internalType": "string",
          "name": "_description",
          "type": "string"
        },
        {
          "internalType": "address",
          "name": "_artist",
          "type": "address"
        },
        {
          "internalType": "string",
          "name": "_imageUrl",
          "type": "string"
        },
        {
          "internalType": "string",
          "name": "_audioFile",
          "type": "string"
        },
        {
          "internalType": "uint256",
          "name": "_price",
          "type": "uint256"
        },
        {
          "internalType": "address[]",
          "name": "_royaltiesOwners",
          "type": "address[]"
        },
        {
          "internalType": "uint256[]",
          "name": "_royaltiesPercentages",
          "type": "uint256[]"
        }
      ],
      "name": "addTrack",
      "outputs": [],
      "stateMutability": "nonpayable",
      "type": "function"
    },
    {
      "inputs": [
        {
          "internalType": "address",
          "name": "_artist",
          "type": "address"
        }
      ],
      "name": "getArtistBalance",
      "outputs": [
        {
          "internalType": "uint256",
          "name": "",
          "type": "uint256"
        }
      ],
      "stateMutability": "view",
      "type": "function"
    },
    {
      "inputs": [
        {
          "internalType": "address",
          "name": "_artist",
          "type": "address"
        }
      ],
      "name": "getTotalTrackAmount",
      "outputs": [
        {
          "internalType": "uint256",
          "name": "",
          "type": "uint256"
        }
      ],
      "stateMutability": "view",
      "type": "function"
    },
    {
      "inputs": [
        {
          "internalType": "address",
          "name": "_artist",
          "type": "address"
        }
      ],
      "name": "getTotalTrackStreams",
      "outputs": [
        {
          "internalType": "uint256",
          "name": "",
          "type": "uint256"
        }
      ],
      "stateMutability": "view",
      "type": "function"
    },
    {
      "inputs": [
        {
          "internalType": "uint256",
          "name": "_trackId",
          "type": "uint256"
        }
      ],
      "name": "getTrack",
      "outputs": [
        {
          "components": [
            {
              "internalType": "uint256",
              "name": "id",
              "type": "uint256"
            },
            {
              "internalType": "string",
              "name": "title",
              "type": "string"
            },
            {
              "internalType": "string",
              "name": "description",
              "type": "string"
            },
            {
              "internalType": "address",
              "name": "artist",
              "type": "address"
            },
            {
              "internalType": "string",
              "name": "imageUrl",
              "type": "string"
            },
            {
              "internalType": "string",
              "name": "audioFile",
              "type": "string"
            },
            {
              "internalType": "uint256",
              "name": "price",
              "type": "uint256"
            },
            {
              "internalType": "uint256",
              "name": "totalStreams",
              "type": "uint256"
            },
            {
              "internalType": "uint256",
              "name": "totalPurchases",
              "type": "uint256"
            },
            {
              "internalType": "address[]",
              "name": "royaltiesOwners",
              "type": "address[]"
            },
            {
              "internalType": "uint256[]",
              "name": "royaltiesPercentages",
              "type": "uint256[]"
            }
          ],
          "internalType": "struct Deyplay.Track",
          "name": "",
          "type": "tuple"
        }
      ],
      "stateMutability": "view",
      "type": "function"
    },
    {
      "inputs": [
        {
          "internalType": "address",
          "name": "_user",
          "type": "address"
        }
      ],
      "name": "getUserPurchasedTracks",
      "outputs": [
        {
          "internalType": "uint256[]",
          "name": "",
          "type": "uint256[]"
        }
      ],
      "stateMutability": "view",
      "type": "function"
    },
    {
      "inputs": [],
      "name": "listAllTracks",
      "outputs": [
        {
          "internalType": "uint256[]",
          "name": "",
          "type": "uint256[]"
        }
      ],
      "stateMutability": "view",
      "type": "function"
    },
    {
      "inputs": [
        {
          "internalType": "address",
          "name": "_artist",
          "type": "address"
        }
      ],
      "name": "listTracksByArtist",
      "outputs": [
        {
          "internalType": "uint256[]",
          "name": "",
          "type": "uint256[]"
        }
      ],
      "stateMutability": "view",
      "type": "function"
    },
    {
      "inputs": [
        {
          "internalType": "uint256",
          "name": "_trackId",
          "type": "uint256"
        }
      ],
      "name": "purchaseTrack",
      "outputs": [],
      "stateMutability": "payable",
      "type": "function"
    },
    {
      "inputs": [
        {
          "internalType": "uint256",
          "name": "_trackId",
          "type": "uint256"
        }
      ],
      "name": "streamTrack",
      "outputs": [],
      "stateMutability": "payable",
      "type": "function"
    }
  ],
  "bytecode": "0x608060405234801561001057600080fd5b50611a03806100206000396000f3fe6080604052600436106100915760003560e01c80638ef8b386116100595780638ef8b386146101585780639edc858c1461016d578063acff110e14610180578063d7904d75146101a0578063f4ce0f86146101c057600080fd5b80635d0650b414610096578063629058ca146100c95780636456b79a146100f65780636850a7e31461011857806376dde21b14610138575b600080fd5b3480156100a257600080fd5b506100b66100b136600461149f565b6101f6565b6040519081526020015b60405180910390f35b3480156100d557600080fd5b506100e96100e43660046115ca565b610273565b6040516100c091906116e0565b34801561010257600080fd5b5061010b610673565b6040516100c0919061169f565b34801561012457600080fd5b5061010b61013336600461149f565b610731565b34801561014457600080fd5b506100b661015336600461149f565b610821565b61016b6101663660046115ca565b610886565b005b61016b61017b3660046115ca565b610b50565b34801561018c57600080fd5b5061010b61019b36600461149f565b610e37565b3480156101ac57600080fd5b5061016b6101bb3660046114c0565b610ea3565b3480156101cc57600080fd5b506100b66101db36600461149f565b6001600160a01b031660009081526003602052604090205490565b60008060015b600054811161026c576000818152600160205260409020600301546001600160a01b038581169116141561025a576000818152600160205260409020600681015460089091015461024d919061191b565b61025790836118e3565b91505b8061026481611986565b9150506101fc565b5092915050565b6102d960405180610160016040528060008152602001606081526020016060815260200160006001600160a01b03168152602001606081526020016060815260200160008152602001600081526020016000815260200160608152602001606081525090565b816000811180156102ec57506000548111155b6103115760405162461bcd60e51b8152600401610308906116b2565b60405180910390fd5b600083815260016020818152604092839020835161016081019094528054845291820180549184019161034390611951565b80601f016020809104026020016040519081016040528092919081815260200182805461036f90611951565b80156103bc5780601f10610391576101008083540402835291602001916103bc565b820191906000526020600020905b81548152906001019060200180831161039f57829003601f168201915b505050505081526020016002820180546103d590611951565b80601f016020809104026020016040519081016040528092919081815260200182805461040190611951565b801561044e5780601f106104235761010080835404028352916020019161044e565b820191906000526020600020905b81548152906001019060200180831161043157829003601f168201915b505050918352505060038201546001600160a01b0316602082015260048201805460409092019161047e90611951565b80601f01602080910402602001604051908101604052809291908181526020018280546104aa90611951565b80156104f75780601f106104cc576101008083540402835291602001916104f7565b820191906000526020600020905b8154815290600101906020018083116104da57829003601f168201915b5050505050815260200160058201805461051090611951565b80601f016020809104026020016040519081016040528092919081815260200182805461053c90611951565b80156105895780601f1061055e57610100808354040283529160200191610589565b820191906000526020600020905b81548152906001019060200180831161056c57829003601f168201915b505050505081526020016006820154815260200160078201548152602001600882015481526020016009820180548060200260200160405190810160405280929190818152602001828054801561060957602002820191906000526020600020905b81546001600160a01b031681526001909101906020018083116105eb575b50505050508152602001600a820180548060200260200160405190810160405280929190818152602001828054801561066157602002820191906000526020600020905b81548152602001906001019080831161064d575b50505050508152505091505b50919050565b60606000805467ffffffffffffffff81111561069f57634e487b7160e01b600052604160045260246000fd5b6040519080825280602002602001820160405280156106c8578160200160208202803683370190505b50905060015b600054811161066d576000818152600160208190526040909120549083906106f6908461193a565b8151811061071457634e487b7160e01b600052603260045260246000fd5b60209081029190910101528061072981611986565b9150506106ce565b60606000805467ffffffffffffffff81111561075d57634e487b7160e01b600052604160045260246000fd5b604051908082528060200260200182016040528015610786578160200160208202803683370190505b509050600060015b6000548111610818576000818152600160205260409020600301546001600160a01b03868116911614156108065760008181526001602052604090205483518490849081106107ed57634e487b7160e01b600052603260045260246000fd5b60209081029190910101528161080281611986565b9250505b8061081081611986565b91505061078e565b50909392505050565b60008060015b600054811161026c576000818152600160205260409020600301546001600160a01b03858116911614156108745760008181526001602052604090206007015461087190836118e3565b91505b8061087e81611986565b915050610827565b8060008111801561089957506000548111155b6108b55760405162461bcd60e51b8152600401610308906116b2565b600082815260016020526040902060068101543410156109285760405162461bcd60e51b815260206004820152602860248201527f496e73756666696369656e74207061796d656e7420746f2073747265616d2074604482015267686520747261636b60c01b6064820152608401610308565b60006109e782600601548360090180548060200260200160405190810160405280929190818152602001828054801561098a57602002820191906000526020600020905b81546001600160a01b0316815260019091019060200180831161096c575b505050505084600a018054806020026020016040519081016040528092919081815260200182805480156109dd57602002820191906000526020600020905b8154815260200190600101908083116109c9575b5050505050611074565b905060008183600601546109fb919061193a565b6007840180549192506000610a0f83611986565b90915550506003838101546001600160a01b03166000908152602091909152604081208054839290610a429084906118e3565b92505081905550610b0283600901805480602002602001604051908101604052809291908181526020018280548015610aa457602002820191906000526020600020905b81546001600160a01b03168152600190910190602001808311610a86575b505050505084600a01805480602002602001604051908101604052809291908181526020018280548015610af757602002820191906000526020600020905b815481526020019060010190808311610ae3575b5050505050846110e8565b600683015460408051878152336020820152908101919091527fa8ff0760db1bd134bec00c7f599e3d73ad185cfc7dd4c313b1ccfc4bd9594737906060015b60405180910390a15050505050565b80600081118015610b6357506000548111155b610b7f5760405162461bcd60e51b8152600401610308906116b2565b60008281526001602052604090206006810154341015610bf45760405162461bcd60e51b815260206004820152602a60248201527f496e73756666696369656e74207061796d656e7420746f2070757263686173656044820152692074686520747261636b60b01b6064820152608401610308565b6000610caf82600601548360090180548060200260200160405190810160405280929190818152602001828054801561098a576020028201919060005260206000209081546001600160a01b0316815260019091019060200180831161096c57505050505084600a018054806020026020016040519081016040528092919081815260200182805480156109dd57602002820191906000526020600020908154815260200190600101908083116109c9575050505050611074565b90506000818360060154610cc3919061193a565b6008840180549192506000610cd783611986565b90915550506003838101546001600160a01b03166000908152602091909152604081208054839290610d0a9084906118e3565b92505081905550610dc683600901805480602002602001604051908101604052809291908181526020018280548015610aa4576020028201919060005260206000209081546001600160a01b03168152600190910190602001808311610a8657505050505084600a01805480602002602001604051908101604052809291908181526020018280548015610af75760200282019190600052602060002090815481526020019060010190808311610ae3575050505050846110e8565b33600081815260026020908152604080832080546001810182559084529190922001879055600685015490517ffe3f9af2d0ba5be4687ca774df8206ec9cf7919bcf32bd9c76b051e5dfbbb5b492610b41928983526001600160a01b03919091166020830152604082015260600190565b6001600160a01b038116600090815260026020908152604091829020805483518184028101840190945280845260609392830182828015610e9757602002820191906000526020600020905b815481526020019060010190808311610e83575b50505050509050919050565b600080549080610eb283611986565b91905055506040518061016001604052806000548152602001898152602001888152602001876001600160a01b031681526020018681526020018581526020018481526020016000815260200160008152602001838152602001828152506001600080548152602001908152602001600020600082015181600001556020820151816001019080519060200190610f4a92919061121d565b5060408201518051610f6691600284019160209091019061121d565b5060608201516003820180546001600160a01b0319166001600160a01b0390921691909117905560808201518051610fa891600484019160209091019061121d565b5060a08201518051610fc491600584019160209091019061121d565b5060c0820151600682015560e08201516007820155610100820151600882015561012082015180516110009160098401916020909101906112a1565b50610140820151805161101d91600a8401916020909101906112f6565b509050507fe2598d3e609dd71c51bd6db67255d4df6be8e7aa0bc5cd6df84a913b3ebf75996000548989898989898989604051611062999897969594939291906117ea565b60405180910390a15050505050505050565b600080805b84518110156110df5760648482815181106110a457634e487b7160e01b600052603260045260246000fd5b6020026020010151876110b7919061191b565b6110c191906118fb565b6110cb90836118e3565b9150806110d781611986565b915050611079565b50949350505050565b815183511461114f5760405162461bcd60e51b815260206004820152602d60248201527f4f776e65727320616e642070657263656e746167657320617272617973206c6560448201526c0dccee8d040dad2e6dac2e8c6d609b1b6064820152608401610308565b60005b835181101561121757600084828151811061117d57634e487b7160e01b600052603260045260246000fd5b60200260200101519050600060648584815181106111ab57634e487b7160e01b600052603260045260246000fd5b6020026020010151856111be919061191b565b6111c891906118fb565b6040519091506001600160a01b0383169082156108fc029083906000818181858888f19350505050158015611201573d6000803e3d6000fd5b505050808061120f90611986565b915050611152565b50505050565b82805461122990611951565b90600052602060002090601f01602090048101928261124b5760008555611291565b82601f1061126457805160ff1916838001178555611291565b82800160010185558215611291579182015b82811115611291578251825591602001919060010190611276565b5061129d929150611330565b5090565b828054828255906000526020600020908101928215611291579160200282015b8281111561129157825182546001600160a01b0319166001600160a01b039091161782556020909201916001909101906112c1565b8280548282559060005260206000209081019282156112915791602002820182811115611291578251825591602001919060010190611276565b5b8082111561129d5760008155600101611331565b80356001600160a01b038116811461135c57600080fd5b919050565b600082601f830112611371578081fd5b81356020611386611381836118bf565b61188e565b80838252828201915082860187848660051b89010111156113a5578586fd5b855b858110156113ca576113b882611345565b845292840192908401906001016113a7565b5090979650505050505050565b600082601f8301126113e7578081fd5b813560206113f7611381836118bf565b80838252828201915082860187848660051b8901011115611416578586fd5b855b858110156113ca57813584529284019290840190600101611418565b600082601f830112611444578081fd5b813567ffffffffffffffff81111561145e5761145e6119b7565b611471601f8201601f191660200161188e565b818152846020838601011115611485578283fd5b816020850160208301379081016020019190915292915050565b6000602082840312156114b0578081fd5b6114b982611345565b9392505050565b600080600080600080600080610100898b0312156114dc578384fd5b883567ffffffffffffffff808211156114f3578586fd5b6114ff8c838d01611434565b995060208b0135915080821115611514578586fd5b6115208c838d01611434565b985061152e60408c01611345565b975060608b0135915080821115611543578586fd5b61154f8c838d01611434565b965060808b0135915080821115611564578586fd5b6115708c838d01611434565b955060a08b0135945060c08b013591508082111561158c578384fd5b6115988c838d01611361565b935060e08b01359150808211156115ad578283fd5b506115ba8b828c016113d7565b9150509295985092959890939650565b6000602082840312156115db578081fd5b5035919050565b6000815180845260208085019450808401835b8381101561161a5781516001600160a01b0316875295820195908201906001016115f5565b509495945050505050565b6000815180845260208085019450808401835b8381101561161a57815187529582019590820190600101611638565b60008151808452815b818110156116795760208185018101518683018201520161165d565b8181111561168a5782602083870101525b50601f01601f19169290920160200192915050565b6020815260006114b96020830184611625565b602080825260149082015273151c9858dac8191bd95cc81b9bdd08195e1a5cdd60621b604082015260600190565b602081528151602082015260006020830151610160806040850152611709610180850183611654565b91506040850151601f19808685030160608701526117278483611654565b93506060870151915061174560808701836001600160a01b03169052565b60808701519150808685030160a08701526117608483611654565b935060a08701519150808685030160c087015261177d8483611654565b935060c087015160e087015260e087015191506101008281880152808801519250506101208281880152808801519250506101408187860301818801526117c485846115e2565b9088015187820390920184880152935090506117e08382611625565b9695505050505050565b60006101208b83528060208401526118048184018c611654565b90508281036040840152611818818b611654565b6001600160a01b038a1660608501528381036080850152905061183b8189611654565b905082810360a084015261184f8188611654565b90508560c084015282810360e084015261186981866115e2565b905082810361010084015261187e8185611625565b9c9b505050505050505050505050565b604051601f8201601f1916810167ffffffffffffffff811182821017156118b7576118b76119b7565b604052919050565b600067ffffffffffffffff8211156118d9576118d96119b7565b5060051b60200190565b600082198211156118f6576118f66119a1565b500190565b60008261191657634e487b7160e01b81526012600452602481fd5b500490565b6000816000190483118215151615611935576119356119a1565b500290565b60008282101561194c5761194c6119a1565b500390565b600181811c9082168061196557607f821691505b6020821081141561066d57634e487b7160e01b600052602260045260246000fd5b600060001982141561199a5761199a6119a1565b5060010190565b634e487b7160e01b600052601160045260246000fd5b634e487b7160e01b600052604160045260246000fdfea2646970667358221220e2b01057b8a6fff0f9de7fa49b575df32820c82e4a5b2d2ce8f97c200958e20c64736f6c63430008040033",
  "linkReferences": {},
  "deployedLinkReferences": {}
}