{
  "_format": "hh-sol-artifact-1",
  "contractName": "Deyplay",
  "sourceName": "contracts/Deyplay.sol",
  "abi": [
    {
      "anonymous": false,
      "inputs": [
        {
          "indexed": false,
          "internalType": "uint256",
          "name": "id",
          "type": "uint256"
        },
        {
          "indexed": false,
          "internalType": "string",
          "name": "title",
          "type": "string"
        },
        {
          "indexed": false,
          "internalType": "address",
          "name": "artist",
          "type": "address"
        },
        {
          "indexed": false,
          "internalType": "string",
          "name": "imageUrl",
          "type": "string"
        },
        {
          "indexed": false,
          "internalType": "string",
          "name": "description",
          "type": "string"
        },
        {
          "indexed": false,
          "internalType": "uint256",
          "name": "price",
          "type": "uint256"
        },
        {
          "indexed": false,
          "internalType": "address[]",
          "name": "royaltiesOwners",
          "type": "address[]"
        },
        {
          "indexed": false,
          "internalType": "uint256[]",
          "name": "royaltiesPercentages",
          "type": "uint256[]"
        }
      ],
      "name": "AlbumCreated",
      "type": "event"
    },
    {
      "anonymous": false,
      "inputs": [
        {
          "indexed": false,
          "internalType": "uint256",
          "name": "albumId",
          "type": "uint256"
        },
        {
          "indexed": false,
          "internalType": "address",
          "name": "buyer",
          "type": "address"
        },
        {
          "indexed": false,
          "internalType": "uint256",
          "name": "amount",
          "type": "uint256"
        }
      ],
      "name": "AlbumPurchased",
      "type": "event"
    },
    {
      "anonymous": false,
      "inputs": [
        {
          "indexed": false,
          "internalType": "uint256",
          "name": "albumId",
          "type": "uint256"
        },
        {
          "indexed": false,
          "internalType": "address",
          "name": "listener",
          "type": "address"
        },
        {
          "indexed": false,
          "internalType": "uint256",
          "name": "amount",
          "type": "uint256"
        }
      ],
      "name": "AlbumStreamed",
      "type": "event"
    },
    {
      "anonymous": false,
      "inputs": [
        {
          "indexed": false,
          "internalType": "uint256",
          "name": "id",
          "type": "uint256"
        },
        {
          "indexed": false,
          "internalType": "string",
          "name": "title",
          "type": "string"
        },
        {
          "indexed": false,
          "internalType": "address",
          "name": "artist",
          "type": "address"
        },
        {
          "indexed": false,
          "internalType": "string",
          "name": "imageUrl",
          "type": "string"
        },
        {
          "indexed": false,
          "internalType": "string",
          "name": "audioFile",
          "type": "string"
        },
        {
          "indexed": false,
          "internalType": "uint256",
          "name": "price",
          "type": "uint256"
        },
        {
          "indexed": false,
          "internalType": "address[]",
          "name": "royaltiesOwners",
          "type": "address[]"
        },
        {
          "indexed": false,
          "internalType": "uint256[]",
          "name": "royaltiesPercentages",
          "type": "uint256[]"
        }
      ],
      "name": "TrackCreated",
      "type": "event"
    },
    {
      "anonymous": false,
      "inputs": [
        {
          "indexed": false,
          "internalType": "uint256",
          "name": "trackId",
          "type": "uint256"
        },
        {
          "indexed": false,
          "internalType": "address",
          "name": "buyer",
          "type": "address"
        },
        {
          "indexed": false,
          "internalType": "uint256",
          "name": "amount",
          "type": "uint256"
        }
      ],
      "name": "TrackPurchased",
      "type": "event"
    },
    {
      "anonymous": false,
      "inputs": [
        {
          "indexed": false,
          "internalType": "uint256",
          "name": "trackId",
          "type": "uint256"
        },
        {
          "indexed": false,
          "internalType": "address",
          "name": "listener",
          "type": "address"
        },
        {
          "indexed": false,
          "internalType": "uint256",
          "name": "amount",
          "type": "uint256"
        }
      ],
      "name": "TrackStreamed",
      "type": "event"
    },
    {
      "inputs": [
        {
          "internalType": "string",
          "name": "_title",
          "type": "string"
        },
        {
          "internalType": "address",
          "name": "_artist",
          "type": "address"
        },
        {
          "internalType": "string",
          "name": "_imageUrl",
          "type": "string"
        },
        {
          "internalType": "string",
          "name": "_description",
          "type": "string"
        },
        {
          "internalType": "uint256",
          "name": "_price",
          "type": "uint256"
        },
        {
          "internalType": "address[]",
          "name": "_royaltiesOwners",
          "type": "address[]"
        },
        {
          "internalType": "uint256[]",
          "name": "_royaltiesPercentages",
          "type": "uint256[]"
        }
      ],
      "name": "addAlbum",
      "outputs": [],
      "stateMutability": "nonpayable",
      "type": "function"
    },
    {
      "inputs": [
        {
          "internalType": "string",
          "name": "_title",
          "type": "string"
        },
        {
          "internalType": "address",
          "name": "_artist",
          "type": "address"
        },
        {
          "internalType": "string",
          "name": "_imageUrl",
          "type": "string"
        },
        {
          "internalType": "string",
          "name": "_audioFile",
          "type": "string"
        },
        {
          "internalType": "uint256",
          "name": "_price",
          "type": "uint256"
        },
        {
          "internalType": "address[]",
          "name": "_royaltiesOwners",
          "type": "address[]"
        },
        {
          "internalType": "uint256[]",
          "name": "_royaltiesPercentages",
          "type": "uint256[]"
        }
      ],
      "name": "addTrack",
      "outputs": [],
      "stateMutability": "nonpayable",
      "type": "function"
    },
    {
      "inputs": [
        {
          "internalType": "uint256",
          "name": "_trackId",
          "type": "uint256"
        },
        {
          "internalType": "uint256",
          "name": "_albumId",
          "type": "uint256"
        }
      ],
      "name": "addTrackToAlbum",
      "outputs": [],
      "stateMutability": "nonpayable",
      "type": "function"
    },
    {
      "inputs": [
        {
          "internalType": "uint256",
          "name": "_albumId",
          "type": "uint256"
        }
      ],
      "name": "getAlbum",
      "outputs": [
        {
          "components": [
            {
              "internalType": "uint256",
              "name": "id",
              "type": "uint256"
            },
            {
              "internalType": "string",
              "name": "title",
              "type": "string"
            },
            {
              "internalType": "address",
              "name": "artist",
              "type": "address"
            },
            {
              "internalType": "string",
              "name": "imageUrl",
              "type": "string"
            },
            {
              "internalType": "string",
              "name": "description",
              "type": "string"
            },
            {
              "internalType": "uint256",
              "name": "price",
              "type": "uint256"
            },
            {
              "internalType": "uint256",
              "name": "totalStreams",
              "type": "uint256"
            },
            {
              "internalType": "uint256",
              "name": "totalPurchases",
              "type": "uint256"
            },
            {
              "internalType": "uint256[]",
              "name": "audioFiles",
              "type": "uint256[]"
            },
            {
              "internalType": "address[]",
              "name": "royaltiesOwners",
              "type": "address[]"
            },
            {
              "internalType": "uint256[]",
              "name": "royaltiesPercentages",
              "type": "uint256[]"
            }
          ],
          "internalType": "struct Deyplay.Album",
          "name": "",
          "type": "tuple"
        }
      ],
      "stateMutability": "view",
      "type": "function"
    },
    {
      "inputs": [
        {
          "internalType": "address",
          "name": "_artist",
          "type": "address"
        }
      ],
      "name": "getArtistBalance",
      "outputs": [
        {
          "internalType": "uint256",
          "name": "",
          "type": "uint256"
        }
      ],
      "stateMutability": "view",
      "type": "function"
    },
    {
      "inputs": [
        {
          "internalType": "address",
          "name": "_artist",
          "type": "address"
        }
      ],
      "name": "getTotalAlbumAmount",
      "outputs": [
        {
          "internalType": "uint256",
          "name": "",
          "type": "uint256"
        }
      ],
      "stateMutability": "view",
      "type": "function"
    },
    {
      "inputs": [
        {
          "internalType": "address",
          "name": "_artist",
          "type": "address"
        }
      ],
      "name": "getTotalAlbumStreams",
      "outputs": [
        {
          "internalType": "uint256",
          "name": "",
          "type": "uint256"
        }
      ],
      "stateMutability": "view",
      "type": "function"
    },
    {
      "inputs": [
        {
          "internalType": "address",
          "name": "_artist",
          "type": "address"
        }
      ],
      "name": "getTotalTrackAmount",
      "outputs": [
        {
          "internalType": "uint256",
          "name": "",
          "type": "uint256"
        }
      ],
      "stateMutability": "view",
      "type": "function"
    },
    {
      "inputs": [
        {
          "internalType": "address",
          "name": "_artist",
          "type": "address"
        }
      ],
      "name": "getTotalTrackStreams",
      "outputs": [
        {
          "internalType": "uint256",
          "name": "",
          "type": "uint256"
        }
      ],
      "stateMutability": "view",
      "type": "function"
    },
    {
      "inputs": [
        {
          "internalType": "uint256",
          "name": "_trackId",
          "type": "uint256"
        }
      ],
      "name": "getTrack",
      "outputs": [
        {
          "components": [
            {
              "internalType": "uint256",
              "name": "id",
              "type": "uint256"
            },
            {
              "internalType": "string",
              "name": "title",
              "type": "string"
            },
            {
              "internalType": "address",
              "name": "artist",
              "type": "address"
            },
            {
              "internalType": "string",
              "name": "imageUrl",
              "type": "string"
            },
            {
              "internalType": "string",
              "name": "audioFile",
              "type": "string"
            },
            {
              "internalType": "uint256",
              "name": "price",
              "type": "uint256"
            },
            {
              "internalType": "uint256",
              "name": "totalStreams",
              "type": "uint256"
            },
            {
              "internalType": "uint256",
              "name": "totalPurchases",
              "type": "uint256"
            },
            {
              "internalType": "address[]",
              "name": "royaltiesOwners",
              "type": "address[]"
            },
            {
              "internalType": "uint256[]",
              "name": "royaltiesPercentages",
              "type": "uint256[]"
            }
          ],
          "internalType": "struct Deyplay.Track",
          "name": "",
          "type": "tuple"
        }
      ],
      "stateMutability": "view",
      "type": "function"
    },
    {
      "inputs": [
        {
          "internalType": "address",
          "name": "_user",
          "type": "address"
        }
      ],
      "name": "getUserPurchasedAlbums",
      "outputs": [
        {
          "internalType": "uint256[]",
          "name": "",
          "type": "uint256[]"
        }
      ],
      "stateMutability": "view",
      "type": "function"
    },
    {
      "inputs": [
        {
          "internalType": "address",
          "name": "_user",
          "type": "address"
        }
      ],
      "name": "getUserPurchasedTracks",
      "outputs": [
        {
          "internalType": "uint256[]",
          "name": "",
          "type": "uint256[]"
        }
      ],
      "stateMutability": "view",
      "type": "function"
    },
    {
      "inputs": [
        {
          "internalType": "address",
          "name": "_artist",
          "type": "address"
        }
      ],
      "name": "listAlbumsByArtist",
      "outputs": [
        {
          "internalType": "uint256[]",
          "name": "",
          "type": "uint256[]"
        }
      ],
      "stateMutability": "view",
      "type": "function"
    },
    {
      "inputs": [],
      "name": "listAllAlbums",
      "outputs": [
        {
          "internalType": "uint256[]",
          "name": "",
          "type": "uint256[]"
        }
      ],
      "stateMutability": "view",
      "type": "function"
    },
    {
      "inputs": [],
      "name": "listAllTracks",
      "outputs": [
        {
          "internalType": "uint256[]",
          "name": "",
          "type": "uint256[]"
        }
      ],
      "stateMutability": "view",
      "type": "function"
    },
    {
      "inputs": [
        {
          "internalType": "address",
          "name": "_artist",
          "type": "address"
        }
      ],
      "name": "listTracksByArtist",
      "outputs": [
        {
          "internalType": "uint256[]",
          "name": "",
          "type": "uint256[]"
        }
      ],
      "stateMutability": "view",
      "type": "function"
    },
    {
      "inputs": [
        {
          "internalType": "uint256",
          "name": "_albumId",
          "type": "uint256"
        }
      ],
      "name": "purchaseAlbum",
      "outputs": [],
      "stateMutability": "payable",
      "type": "function"
    },
    {
      "inputs": [
        {
          "internalType": "uint256",
          "name": "_trackId",
          "type": "uint256"
        }
      ],
      "name": "purchaseTrack",
      "outputs": [],
      "stateMutability": "payable",
      "type": "function"
    },
    {
      "inputs": [
        {
          "internalType": "uint256",
          "name": "_albumId",
          "type": "uint256"
        }
      ],
      "name": "streamAlbum",
      "outputs": [],
      "stateMutability": "payable",
      "type": "function"
    },
    {
      "inputs": [
        {
          "internalType": "uint256",
          "name": "_trackId",
          "type": "uint256"
        }
      ],
      "name": "streamTrack",
      "outputs": [],
      "stateMutability": "payable",
      "type": "function"
    }
  ],
  "bytecode": "0x608060405234801561001057600080fd5b50612a99806100206000396000f3fe60806040526004361061011e5760003560e01c80638d59f7e2116100a0578063d53f2baa11610064578063d53f2baa146102f9578063d6e465c914610319578063ea98177514610346578063efb7830814610359578063f4ce0f861461037957600080fd5b80638d59f7e2146102735780638ef8b386146102935780639edc858c146102a6578063acff110e146102b9578063c103351f146102d957600080fd5b80635d0650b4116100e75780635d0650b4146101c3578063629058ca146101f15780636456b79a1461021e5780636850a7e31461023357806376dde21b1461025357600080fd5b806221991e146101235780631d29d59914610145578063245d15581461017b5780632cdfb61f1461019b57806340d1e240146101b0575b600080fd5b34801561012f57600080fd5b5061014361013e366004612582565b6103af565b005b34801561015157600080fd5b50610165610160366004612463565b61043c565b6040516101729190612660565b60405180910390f35b34801561018757600080fd5b50610143610196366004612484565b6104a8565b3480156101a757600080fd5b50610165610648565b6101436101be36600461256a565b610709565b3480156101cf57600080fd5b506101e36101de366004612463565b6109d1565b604051908152602001610172565b3480156101fd57600080fd5b5061021161020c36600461256a565b610a4f565b60405161017291906127d5565b34801561022a57600080fd5b50610165610db3565b34801561023f57600080fd5b5061016561024e366004612463565b610e6d565b34801561025f57600080fd5b506101e361026e366004612463565b610f5e565b34801561027f57600080fd5b506101e361028e366004612463565b610fc4565b6101436102a136600461256a565b61103a565b6101436102b436600461256a565b6112f3565b3480156102c557600080fd5b506101656102d4366004612463565b6115d8565b3480156102e557600080fd5b506101e36102f4366004612463565b611642565b34801561030557600080fd5b50610143610314366004612484565b6116a7565b34801561032557600080fd5b5061033961033436600461256a565b6118ac565b60405161017291906126cf565b61014361035436600461256a565b611c6d565b34801561036557600080fd5b50610165610374366004612463565b611f50565b34801561038557600080fd5b506101e3610394366004612463565b6001600160a01b031660009081526006602052604090205490565b816000811180156103c257506000548111155b6103e75760405162461bcd60e51b81526004016103de906126a1565b60405180910390fd5b816000811180156103fa57506001548111155b6104165760405162461bcd60e51b81526004016103de90612673565b505060009081526003602090815260408220600801805460018101825590835291200155565b6001600160a01b03811660009081526005602090815260409182902080548351818402810184019094528084526060939283018282801561049c57602002820191906000526020600020905b815481526020019060010190808311610488575b50505050509050919050565b6000805490806104b783612a1c565b909155505060408051610140810182526000805480835260208084018c81526001600160a01b038c1685870152606085018b9052608085018a905260a0850189905260c0850184905260e0850184905261010085018890526101208501879052918352600281529390912082518155905180519293919261053e92600185019201906121e1565b5060408201516002820180546001600160a01b0319166001600160a01b03909216919091179055606082015180516105809160038401916020909101906121e1565b506080820151805161059c9160048401916020909101906121e1565b5060a0820151600582015560c0820151600682015560e0820151600782015561010082015180516105d7916008840191602090910190612265565b5061012082015180516105f49160098401916020909101906122ba565b509050507fbf2201dbf94a92f1d5a37c712b8d9b99e2a1e94a9ead3e3318c067b76569712a60005488888888888888604051610637989796959493929190612896565b60405180910390a150505050505050565b6060600060015467ffffffffffffffff81111561067557634e487b7160e01b600052604160045260246000fd5b60405190808252806020026020018201604052801561069e578160200160208202803683370190505b50905060015b600154811161070357600081815260036020526040902054826106c86001846129d0565b815181106106e657634e487b7160e01b600052603260045260246000fd5b6020908102919091010152806106fb81612a1c565b9150506106a4565b50919050565b8060008111801561071c57506001548111155b6107385760405162461bcd60e51b81526004016103de90612673565b600082815260036020526040902060058101543410156107ab5760405162461bcd60e51b815260206004820152602860248201527f496e73756666696369656e74207061796d656e7420746f2073747265616d2074604482015267686520616c62756d60c01b60648201526084016103de565b600061086a82600501548360090180548060200260200160405190810160405280929190818152602001828054801561080d57602002820191906000526020600020905b81546001600160a01b031681526001909101906020018083116107ef575b505050505084600a0180548060200260200160405190810160405280929190818152602001828054801561086057602002820191906000526020600020905b81548152602001906001019080831161084c575b5050505050612038565b9050600081836005015461087e91906129d0565b600684018054919250600061089283612a1c565b909155505060028301546001600160a01b0316600090815260066020526040812080548392906108c3908490612979565b925050819055506109838360090180548060200260200160405190810160405280929190818152602001828054801561092557602002820191906000526020600020905b81546001600160a01b03168152600190910190602001808311610907575b505050505084600a0180548060200260200160405190810160405280929190818152602001828054801561097857602002820191906000526020600020905b815481526020019060010190808311610964575b5050505050846120ac565b600583015460408051878152336020820152908101919091527f9895cbad8f9db9bfb55390deaa7dd85188e313b35ee7ee4748b41ae3b9a7936f906060015b60405180910390a15050505050565b60008060015b6000548111610a4857600081815260026020819052604090912001546001600160a01b0385811691161415610a365760008181526002602052604090206005810154600790910154610a2991906129b1565b610a339083612979565b91505b80610a4081612a1c565b9150506109d7565b5092915050565b610aae604051806101400160405280600081526020016060815260200160006001600160a01b03168152602001606081526020016060815260200160008152602001600081526020016000815260200160608152602001606081525090565b81600081118015610ac157506000548111155b610add5760405162461bcd60e51b81526004016103de906126a1565b600260008481526020019081526020016000206040518061014001604052908160008201548152602001600182018054610b16906129e7565b80601f0160208091040260200160405190810160405280929190818152602001828054610b42906129e7565b8015610b8f5780601f10610b6457610100808354040283529160200191610b8f565b820191906000526020600020905b815481529060010190602001808311610b7257829003601f168201915b505050918352505060028201546001600160a01b03166020820152600382018054604090920191610bbf906129e7565b80601f0160208091040260200160405190810160405280929190818152602001828054610beb906129e7565b8015610c385780601f10610c0d57610100808354040283529160200191610c38565b820191906000526020600020905b815481529060010190602001808311610c1b57829003601f168201915b50505050508152602001600482018054610c51906129e7565b80601f0160208091040260200160405190810160405280929190818152602001828054610c7d906129e7565b8015610cca5780601f10610c9f57610100808354040283529160200191610cca565b820191906000526020600020905b815481529060010190602001808311610cad57829003601f168201915b5050505050815260200160058201548152602001600682015481526020016007820154815260200160088201805480602002602001604051908101604052809291908181526020018280548015610d4a57602002820191906000526020600020905b81546001600160a01b03168152600190910190602001808311610d2c575b5050505050815260200160098201805480602002602001604051908101604052809291908181526020018280548015610da257602002820191906000526020600020905b815481526020019060010190808311610d8e575b505050505081525050915050919050565b60606000805467ffffffffffffffff811115610ddf57634e487b7160e01b600052604160045260246000fd5b604051908082528060200260200182016040528015610e08578160200160208202803683370190505b50905060015b60005481116107035760008181526002602052604090205482610e326001846129d0565b81518110610e5057634e487b7160e01b600052603260045260246000fd5b602090810291909101015280610e6581612a1c565b915050610e0e565b60606000805467ffffffffffffffff811115610e9957634e487b7160e01b600052604160045260246000fd5b604051908082528060200260200182016040528015610ec2578160200160208202803683370190505b509050600060015b6000548111610f5557600081815260026020819052604090912001546001600160a01b0386811691161415610f43576000818152600260205260409020548351849084908110610f2a57634e487b7160e01b600052603260045260246000fd5b602090810291909101015281610f3f81612a1c565b9250505b80610f4d81612a1c565b915050610eca565b50909392505050565b60008060015b6000548111610a4857600081815260026020819052604090912001546001600160a01b0385811691161415610fb257600081815260026020526040902060060154610faf9083612979565b91505b80610fbc81612a1c565b915050610f64565b60008060015b6001548111610a48576000818152600360205260409020600201546001600160a01b0385811691161415611028576000818152600360205260409020600581015460079091015461101b91906129b1565b6110259083612979565b91505b8061103281612a1c565b915050610fca565b8060008111801561104d57506000548111155b6110695760405162461bcd60e51b81526004016103de906126a1565b600082815260026020526040902060058101543410156110dc5760405162461bcd60e51b815260206004820152602860248201527f496e73756666696369656e74207061796d656e7420746f2073747265616d2074604482015267686520747261636b60c01b60648201526084016103de565b600061119982600501548360080180548060200260200160405190810160405280929190818152602001828054801561113e57602002820191906000526020600020905b81546001600160a01b03168152600190910190602001808311611120575b505050505084600901805480602002602001604051908101604052809291908181526020018280548015610860576020028201919060005260206000209081548152602001906001019080831161084c575050505050612038565b905060008183600501546111ad91906129d0565b60068401805491925060006111c183612a1c565b909155505060028301546001600160a01b0316600090815260066020526040812080548392906111f2908490612979565b925050819055506112b08360080180548060200260200160405190810160405280929190818152602001828054801561125457602002820191906000526020600020905b81546001600160a01b03168152600190910190602001808311611236575b5050505050846009018054806020026020016040519081016040528092919081815260200182805480156109785760200282019190600052602060002090815481526020019060010190808311610964575050505050846120ac565b600583015460408051878152336020820152908101919091527fa8ff0760db1bd134bec00c7f599e3d73ad185cfc7dd4c313b1ccfc4bd9594737906060016109c2565b8060008111801561130657506000548111155b6113225760405162461bcd60e51b81526004016103de906126a1565b600082815260026020526040902060058101543410156113975760405162461bcd60e51b815260206004820152602a60248201527f496e73756666696369656e74207061796d656e7420746f2070757263686173656044820152692074686520747261636b60b01b60648201526084016103de565b600061145282600501548360080180548060200260200160405190810160405280929190818152602001828054801561113e576020028201919060005260206000209081546001600160a01b0316815260019091019060200180831161112057505050505084600901805480602002602001604051908101604052809291908181526020018280548015610860576020028201919060005260206000209081548152602001906001019080831161084c575050505050612038565b9050600081836005015461146691906129d0565b600784018054919250600061147a83612a1c565b909155505060028301546001600160a01b0316600090815260066020526040812080548392906114ab908490612979565b9250508190555061156783600801805480602002602001604051908101604052809291908181526020018280548015611254576020028201919060005260206000209081546001600160a01b03168152600190910190602001808311611236575050505050846009018054806020026020016040519081016040528092919081815260200182805480156109785760200282019190600052602060002090815481526020019060010190808311610964575050505050846120ac565b33600081815260046020908152604080832080546001810182559084529190922001879055600585015490517ffe3f9af2d0ba5be4687ca774df8206ec9cf7919bcf32bd9c76b051e5dfbbb5b4926109c2928983526001600160a01b03919091166020830152604082015260600190565b6001600160a01b03811660009081526004602090815260409182902080548351818402810184019094528084526060939283018282801561049c57602002820191906000526020600020908154815260200190600101908083116104885750505050509050919050565b60008060015b6001548111610a48576000818152600360205260409020600201546001600160a01b0385811691161415611695576000818152600360205260409020600601546116929083612979565b91505b8061169f81612a1c565b915050611648565b600180549060006116b783612a1c565b91905055506040518061016001604052806001548152602001888152602001876001600160a01b031681526020018681526020018581526020018481526020016000815260200160008152602001600067ffffffffffffffff81111561172d57634e487b7160e01b600052604160045260246000fd5b604051908082528060200260200182016040528015611756578160200160208202803683370190505b50815260208082018590526040918201849052600180546000908152600383529290922083518155838201518051919361179693908501929101906121e1565b5060408201516002820180546001600160a01b0319166001600160a01b03909216919091179055606082015180516117d89160038401916020909101906121e1565b50608082015180516117f49160048401916020909101906121e1565b5060a0820151600582015560c0820151600682015560e08201516007820155610100820151805161182f9160088401916020909101906122ba565b50610120820151805161184c916009840191602090910190612265565b50610140820151805161186991600a8401916020909101906122ba565b509050507fd78b5503298a5ec3a0c38871277d16caaede28506de5344aee4a623eebf34ed860015488888888888888604051610637989796959493929190612896565b611912604051806101600160405280600081526020016060815260200160006001600160a01b0316815260200160608152602001606081526020016000815260200160008152602001600081526020016060815260200160608152602001606081525090565b8160008111801561192557506001548111155b6119415760405162461bcd60e51b81526004016103de90612673565b60036000848152602001908152602001600020604051806101600160405290816000820154815260200160018201805461197a906129e7565b80601f01602080910402602001604051908101604052809291908181526020018280546119a6906129e7565b80156119f35780601f106119c8576101008083540402835291602001916119f3565b820191906000526020600020905b8154815290600101906020018083116119d657829003601f168201915b505050918352505060028201546001600160a01b03166020820152600382018054604090920191611a23906129e7565b80601f0160208091040260200160405190810160405280929190818152602001828054611a4f906129e7565b8015611a9c5780601f10611a7157610100808354040283529160200191611a9c565b820191906000526020600020905b815481529060010190602001808311611a7f57829003601f168201915b50505050508152602001600482018054611ab5906129e7565b80601f0160208091040260200160405190810160405280929190818152602001828054611ae1906129e7565b8015611b2e5780601f10611b0357610100808354040283529160200191611b2e565b820191906000526020600020905b815481529060010190602001808311611b1157829003601f168201915b5050505050815260200160058201548152602001600682015481526020016007820154815260200160088201805480602002602001604051908101604052809291908181526020018280548015611ba457602002820191906000526020600020905b815481526020019060010190808311611b90575b5050505050815260200160098201805480602002602001604051908101604052809291908181526020018280548015611c0657602002820191906000526020600020905b81546001600160a01b03168152600190910190602001808311611be8575b50505050508152602001600a8201805480602002602001604051908101604052809291908181526020018280548015610da25760200282019190600052602060002090815481526020019060010190808311610d8e57505050505081525050915050919050565b80600081118015611c8057506001548111155b611c9c5760405162461bcd60e51b81526004016103de90612673565b60008281526003602052604090206005810154341015611d115760405162461bcd60e51b815260206004820152602a60248201527f496e73756666696369656e74207061796d656e7420746f2070757263686173656044820152692074686520616c62756d60b01b60648201526084016103de565b6000611dcc82600501548360090180548060200260200160405190810160405280929190818152602001828054801561080d576020028201919060005260206000209081546001600160a01b031681526001909101906020018083116107ef57505050505084600a01805480602002602001604051908101604052809291908181526020018280548015610860576020028201919060005260206000209081548152602001906001019080831161084c575050505050612038565b90506000818360050154611de091906129d0565b6007840180549192506000611df483612a1c565b909155505060028301546001600160a01b031660009081526006602052604081208054839290611e25908490612979565b92505081905550611ee183600901805480602002602001604051908101604052809291908181526020018280548015610925576020028201919060005260206000209081546001600160a01b0316815260019091019060200180831161090757505050505084600a018054806020026020016040519081016040528092919081815260200182805480156109785760200282019190600052602060002090815481526020019060010190808311610964575050505050846120ac565b3360008181526005602081815260408084208054600181018255908552919093200188905585015490517f11332ef3956cea4003185b2a4db8407e3e5662fe799887282e178f18726ecc9b926109c2928983526001600160a01b03919091166020830152604082015260600190565b6060600060015467ffffffffffffffff811115611f7d57634e487b7160e01b600052604160045260246000fd5b604051908082528060200260200182016040528015611fa6578160200160208202803683370190505b509050600060015b6001548111610f55576000818152600360205260409020600201546001600160a01b038681169116141561202657600081815260036020526040902054835184908490811061200d57634e487b7160e01b600052603260045260246000fd5b60209081029190910101528161202281612a1c565b9250505b8061203081612a1c565b915050611fae565b600080805b84518110156120a357606484828151811061206857634e487b7160e01b600052603260045260246000fd5b60200260200101518761207b91906129b1565b6120859190612991565b61208f9083612979565b91508061209b81612a1c565b91505061203d565b50949350505050565b81518351146121135760405162461bcd60e51b815260206004820152602d60248201527f4f776e65727320616e642070657263656e746167657320617272617973206c6560448201526c0dccee8d040dad2e6dac2e8c6d609b1b60648201526084016103de565b60005b83518110156121db57600084828151811061214157634e487b7160e01b600052603260045260246000fd5b602002602001015190506000606485848151811061216f57634e487b7160e01b600052603260045260246000fd5b60200260200101518561218291906129b1565b61218c9190612991565b6040519091506001600160a01b0383169082156108fc029083906000818181858888f193505050501580156121c5573d6000803e3d6000fd5b50505080806121d390612a1c565b915050612116565b50505050565b8280546121ed906129e7565b90600052602060002090601f01602090048101928261220f5760008555612255565b82601f1061222857805160ff1916838001178555612255565b82800160010185558215612255579182015b8281111561225557825182559160200191906001019061223a565b506122619291506122f4565b5090565b828054828255906000526020600020908101928215612255579160200282015b8281111561225557825182546001600160a01b0319166001600160a01b03909116178255602090920191600190910190612285565b828054828255906000526020600020908101928215612255579160200282018281111561225557825182559160200191906001019061223a565b5b8082111561226157600081556001016122f5565b80356001600160a01b038116811461232057600080fd5b919050565b600082601f830112612335578081fd5b8135602061234a61234583612955565b612924565b80838252828201915082860187848660051b8901011115612369578586fd5b855b8581101561238e5761237c82612309565b8452928401929084019060010161236b565b5090979650505050505050565b600082601f8301126123ab578081fd5b813560206123bb61234583612955565b80838252828201915082860187848660051b89010111156123da578586fd5b855b8581101561238e578135845292840192908401906001016123dc565b600082601f830112612408578081fd5b813567ffffffffffffffff81111561242257612422612a4d565b612435601f8201601f1916602001612924565b818152846020838601011115612449578283fd5b816020850160208301379081016020019190915292915050565b600060208284031215612474578081fd5b61247d82612309565b9392505050565b600080600080600080600060e0888a03121561249e578283fd5b873567ffffffffffffffff808211156124b5578485fd5b6124c18b838c016123f8565b98506124cf60208b01612309565b975060408a01359150808211156124e4578485fd5b6124f08b838c016123f8565b965060608a0135915080821115612505578485fd5b6125118b838c016123f8565b955060808a0135945060a08a013591508082111561252d578384fd5b6125398b838c01612325565b935060c08a013591508082111561254e578283fd5b5061255b8a828b0161239b565b91505092959891949750929550565b60006020828403121561257b578081fd5b5035919050565b60008060408385031215612594578182fd5b50508035926020909101359150565b6000815180845260208085019450808401835b838110156125db5781516001600160a01b0316875295820195908201906001016125b6565b509495945050505050565b6000815180845260208085019450808401835b838110156125db578151875295820195908201906001016125f9565b60008151808452815b8181101561263a5760208185018101518683018201520161261e565b8181111561264b5782602083870101525b50601f01601f19169290920160200192915050565b60208152600061247d60208301846125e6565b602080825260149082015273105b189d5b48191bd95cc81b9bdd08195e1a5cdd60621b604082015260600190565b602080825260149082015273151c9858dac8191bd95cc81b9bdd08195e1a5cdd60621b604082015260600190565b6020815281516020820152600060208301516101608060408501526126f8610180850183612615565b9150604085015161271460608601826001600160a01b03169052565b506060850151601f19808685030160808701526127318483612615565b935060808701519150808685030160a087015261274e8483612615565b935060a087015160c087015260c087015160e087015260e0870151915061010082818801528088015192505061012081878603018188015261279085846125e6565b9450808801519250506101408187860301818801526127af85846125a3565b9088015187820390920184880152935090506127cb83826125e6565b9695505050505050565b6020815281516020820152600060208301516101408060408501526127fe610160850183612615565b9150604085015161281a60608601826001600160a01b03169052565b506060850151601f19808685030160808701526128378483612615565b935060808701519150808685030160a08701526128548483612615565b935060a087015160c087015260c087015160e087015260e087015191506101008281880152808801519250506101208187860301818801526127af85846125a3565b60006101008a83528060208401526128b08184018b612615565b6001600160a01b038a166040850152838103606085015290506128d38189612615565b905082810360808401526128e78188612615565b90508560a084015282810360c084015261290181866125a3565b905082810360e084015261291581856125e6565b9b9a5050505050505050505050565b604051601f8201601f1916810167ffffffffffffffff8111828210171561294d5761294d612a4d565b604052919050565b600067ffffffffffffffff82111561296f5761296f612a4d565b5060051b60200190565b6000821982111561298c5761298c612a37565b500190565b6000826129ac57634e487b7160e01b81526012600452602481fd5b500490565b60008160001904831182151516156129cb576129cb612a37565b500290565b6000828210156129e2576129e2612a37565b500390565b600181811c908216806129fb57607f821691505b6020821081141561070357634e487b7160e01b600052602260045260246000fd5b6000600019821415612a3057612a30612a37565b5060010190565b634e487b7160e01b600052601160045260246000fd5b634e487b7160e01b600052604160045260246000fdfea264697066735822122069d4d6d954aa742f69214d8343d35752b0845fdf85168f049689489ca402ade164736f6c63430008040033",
  "linkReferences": {},
  "deployedLinkReferences": {}
}