{
  "_format": "hh-sol-artifact-1",
  "contractName": "Deyplay",
  "sourceName": "contracts/Deyplay.sol",
  "abi": [
    {
      "anonymous": false,
      "inputs": [
        {
          "indexed": false,
          "internalType": "uint256",
          "name": "id",
          "type": "uint256"
        },
        {
          "indexed": false,
          "internalType": "string",
          "name": "title",
          "type": "string"
        },
        {
          "indexed": false,
          "internalType": "address",
          "name": "artist",
          "type": "address"
        },
        {
          "indexed": false,
          "internalType": "string",
          "name": "imageUrl",
          "type": "string"
        },
        {
          "indexed": false,
          "internalType": "string",
          "name": "description",
          "type": "string"
        },
        {
          "indexed": false,
          "internalType": "uint256",
          "name": "price",
          "type": "uint256"
        }
      ],
      "name": "AlbumCreated",
      "type": "event"
    },
    {
      "anonymous": false,
      "inputs": [
        {
          "indexed": false,
          "internalType": "uint256",
          "name": "albumId",
          "type": "uint256"
        },
        {
          "indexed": false,
          "internalType": "address",
          "name": "buyer",
          "type": "address"
        },
        {
          "indexed": false,
          "internalType": "uint256",
          "name": "amount",
          "type": "uint256"
        }
      ],
      "name": "AlbumPurchased",
      "type": "event"
    },
    {
      "anonymous": false,
      "inputs": [
        {
          "indexed": false,
          "internalType": "uint256",
          "name": "albumId",
          "type": "uint256"
        },
        {
          "indexed": false,
          "internalType": "address",
          "name": "listener",
          "type": "address"
        },
        {
          "indexed": false,
          "internalType": "uint256",
          "name": "amount",
          "type": "uint256"
        }
      ],
      "name": "AlbumStreamed",
      "type": "event"
    },
    {
      "anonymous": false,
      "inputs": [
        {
          "indexed": false,
          "internalType": "uint256",
          "name": "id",
          "type": "uint256"
        },
        {
          "indexed": false,
          "internalType": "string",
          "name": "title",
          "type": "string"
        },
        {
          "indexed": false,
          "internalType": "address",
          "name": "artist",
          "type": "address"
        },
        {
          "indexed": false,
          "internalType": "string",
          "name": "imageUrl",
          "type": "string"
        },
        {
          "indexed": false,
          "internalType": "uint256",
          "name": "price",
          "type": "uint256"
        }
      ],
      "name": "TrackCreated",
      "type": "event"
    },
    {
      "anonymous": false,
      "inputs": [
        {
          "indexed": false,
          "internalType": "uint256",
          "name": "trackId",
          "type": "uint256"
        },
        {
          "indexed": false,
          "internalType": "address",
          "name": "buyer",
          "type": "address"
        },
        {
          "indexed": false,
          "internalType": "uint256",
          "name": "amount",
          "type": "uint256"
        }
      ],
      "name": "TrackPurchased",
      "type": "event"
    },
    {
      "anonymous": false,
      "inputs": [
        {
          "indexed": false,
          "internalType": "uint256",
          "name": "trackId",
          "type": "uint256"
        },
        {
          "indexed": false,
          "internalType": "address",
          "name": "listener",
          "type": "address"
        },
        {
          "indexed": false,
          "internalType": "uint256",
          "name": "amount",
          "type": "uint256"
        }
      ],
      "name": "TrackStreamed",
      "type": "event"
    },
    {
      "inputs": [
        {
          "internalType": "string",
          "name": "_title",
          "type": "string"
        },
        {
          "internalType": "address",
          "name": "_artist",
          "type": "address"
        },
        {
          "internalType": "string",
          "name": "_imageUrl",
          "type": "string"
        },
        {
          "internalType": "string",
          "name": "_description",
          "type": "string"
        },
        {
          "internalType": "uint256",
          "name": "_price",
          "type": "uint256"
        },
        {
          "internalType": "uint256[]",
          "name": "_audioFiles",
          "type": "uint256[]"
        }
      ],
      "name": "addAlbum",
      "outputs": [],
      "stateMutability": "nonpayable",
      "type": "function"
    },
    {
      "inputs": [
        {
          "internalType": "string",
          "name": "_title",
          "type": "string"
        },
        {
          "internalType": "address",
          "name": "_artist",
          "type": "address"
        },
        {
          "internalType": "string",
          "name": "_imageUrl",
          "type": "string"
        },
        {
          "internalType": "uint256",
          "name": "_price",
          "type": "uint256"
        }
      ],
      "name": "addTrack",
      "outputs": [],
      "stateMutability": "nonpayable",
      "type": "function"
    },
    {
      "inputs": [
        {
          "internalType": "uint256",
          "name": "_trackId",
          "type": "uint256"
        },
        {
          "internalType": "uint256",
          "name": "_albumId",
          "type": "uint256"
        }
      ],
      "name": "addTrackToAlbum",
      "outputs": [],
      "stateMutability": "nonpayable",
      "type": "function"
    },
    {
      "inputs": [
        {
          "internalType": "address",
          "name": "_artist",
          "type": "address"
        }
      ],
      "name": "getArtistBalance",
      "outputs": [
        {
          "internalType": "uint256",
          "name": "",
          "type": "uint256"
        }
      ],
      "stateMutability": "view",
      "type": "function"
    },
    {
      "inputs": [
        {
          "internalType": "address",
          "name": "_artist",
          "type": "address"
        }
      ],
      "name": "getTotalAlbumAmount",
      "outputs": [
        {
          "internalType": "uint256",
          "name": "",
          "type": "uint256"
        }
      ],
      "stateMutability": "view",
      "type": "function"
    },
    {
      "inputs": [
        {
          "internalType": "address",
          "name": "_artist",
          "type": "address"
        }
      ],
      "name": "getTotalAlbumStreams",
      "outputs": [
        {
          "internalType": "uint256",
          "name": "",
          "type": "uint256"
        }
      ],
      "stateMutability": "view",
      "type": "function"
    },
    {
      "inputs": [],
      "name": "getTotalAlbumStreams",
      "outputs": [
        {
          "internalType": "uint256",
          "name": "",
          "type": "uint256"
        }
      ],
      "stateMutability": "view",
      "type": "function"
    },
    {
      "inputs": [
        {
          "internalType": "address",
          "name": "_artist",
          "type": "address"
        }
      ],
      "name": "getTotalTrackAmount",
      "outputs": [
        {
          "internalType": "uint256",
          "name": "",
          "type": "uint256"
        }
      ],
      "stateMutability": "view",
      "type": "function"
    },
    {
      "inputs": [
        {
          "internalType": "address",
          "name": "_artist",
          "type": "address"
        }
      ],
      "name": "getTotalTrackStreams",
      "outputs": [
        {
          "internalType": "uint256",
          "name": "",
          "type": "uint256"
        }
      ],
      "stateMutability": "view",
      "type": "function"
    },
    {
      "inputs": [],
      "name": "getTotalTrackStreams",
      "outputs": [
        {
          "internalType": "uint256",
          "name": "",
          "type": "uint256"
        }
      ],
      "stateMutability": "view",
      "type": "function"
    },
    {
      "inputs": [
        {
          "internalType": "address",
          "name": "_user",
          "type": "address"
        }
      ],
      "name": "getUserPurchasedAlbums",
      "outputs": [
        {
          "internalType": "uint256[]",
          "name": "",
          "type": "uint256[]"
        }
      ],
      "stateMutability": "view",
      "type": "function"
    },
    {
      "inputs": [
        {
          "internalType": "address",
          "name": "_user",
          "type": "address"
        }
      ],
      "name": "getUserPurchasedTracks",
      "outputs": [
        {
          "internalType": "uint256[]",
          "name": "",
          "type": "uint256[]"
        }
      ],
      "stateMutability": "view",
      "type": "function"
    },
    {
      "inputs": [
        {
          "internalType": "address",
          "name": "_artist",
          "type": "address"
        }
      ],
      "name": "listAlbumsByArtist",
      "outputs": [
        {
          "internalType": "uint256[]",
          "name": "",
          "type": "uint256[]"
        }
      ],
      "stateMutability": "view",
      "type": "function"
    },
    {
      "inputs": [
        {
          "internalType": "address",
          "name": "_artist",
          "type": "address"
        }
      ],
      "name": "listTracksByArtist",
      "outputs": [
        {
          "internalType": "uint256[]",
          "name": "",
          "type": "uint256[]"
        }
      ],
      "stateMutability": "view",
      "type": "function"
    },
    {
      "inputs": [
        {
          "internalType": "uint256",
          "name": "_albumId",
          "type": "uint256"
        }
      ],
      "name": "purchaseAlbum",
      "outputs": [],
      "stateMutability": "payable",
      "type": "function"
    },
    {
      "inputs": [
        {
          "internalType": "uint256",
          "name": "_trackId",
          "type": "uint256"
        }
      ],
      "name": "purchaseTrack",
      "outputs": [],
      "stateMutability": "payable",
      "type": "function"
    },
    {
      "inputs": [
        {
          "internalType": "uint256",
          "name": "_albumId",
          "type": "uint256"
        }
      ],
      "name": "streamAlbum",
      "outputs": [],
      "stateMutability": "payable",
      "type": "function"
    },
    {
      "inputs": [
        {
          "internalType": "uint256",
          "name": "_trackId",
          "type": "uint256"
        }
      ],
      "name": "streamTrack",
      "outputs": [],
      "stateMutability": "payable",
      "type": "function"
    }
  ],
  "bytecode": "0x608060405234801561001057600080fd5b50612086806100206000396000f3fe6080604052600436106100d85760003560e01c806221991e146100dd5780631d29d599146100ff57806340d1e240146101355780635d0650b4146101485780636850a7e31461017657806368dbdb591461019657806376dde21b146101b65780638d59f7e2146101d65780638ef8b386146101f65780639edc858c14610209578063acff110e1461021c578063c103351f1461023c578063d74c22651461025c578063d7fc0cf214610271578063ea98177514610291578063efb78308146102a4578063f4ce0f86146102c4578063fc78b96b146102fa575b600080fd5b3480156100e957600080fd5b506100fd6100f8366004611d1c565b61030f565b005b34801561010b57600080fd5b5061011f61011a366004611bab565b61039c565b60405161012c9190611d88565b60405180910390f35b6100fd610143366004611d04565b610408565b34801561015457600080fd5b50610168610163366004611bab565b6106b6565b60405190815260200161012c565b34801561018257600080fd5b5061011f610191366004611bab565b610734565b3480156101a257600080fd5b506100fd6101b1366004611bcc565b610824565b3480156101c257600080fd5b506101686101d1366004611bab565b610ac0565b3480156101e257600080fd5b506101686101f1366004611bab565b610b26565b6100fd610204366004611d04565b610b9c565b6100fd610217366004611d04565b610e37565b34801561022857600080fd5b5061011f610237366004611bab565b6110f0565b34801561024857600080fd5b50610168610257366004611bab565b61115a565b34801561026857600080fd5b506101686111bf565b34801561027d57600080fd5b506100fd61028c366004611c8c565b611204565b6100fd61029f366004611d04565b6113f3565b3480156102b057600080fd5b5061011f6102bf366004611bab565b6116ac565b3480156102d057600080fd5b506101686102df366004611bab565b6001600160a01b031660009081526006602052604090205490565b34801561030657600080fd5b50610168611793565b8160008111801561032257506000548111155b6103475760405162461bcd60e51b815260040161033e90611dfa565b60405180910390fd5b8160008111801561035a57506001548111155b6103765760405162461bcd60e51b815260040161033e90611dcc565b505060009081526003602090815260408220600801805460018101825590835291200155565b6001600160a01b0381166000908152600560209081526040918290208054835181840281018401909452808452606093928301828280156103fc57602002820191906000526020600020905b8154815260200190600101908083116103e8575b50505050509050919050565b8060008111801561041b57506001548111155b6104375760405162461bcd60e51b815260040161033e90611dcc565b600082815260036020526040902060058101543410156104985760405162461bcd60e51b81526020600482015260286024820152600080516020612011833981519152604482015267686520616c62756d60c01b606482015260840161033e565b60006105578260050154836009018054806020026020016040519081016040528092919081815260200182805480156104fa57602002820191906000526020600020905b81546001600160a01b031681526001909101906020018083116104dc575b505050505084600a0180548060200260200160405190810160405280929190818152602001828054801561054d57602002820191906000526020600020905b815481526020019060010190808311610539575b50505050506117d2565b9050600081836005015461056b9190611f7d565b600684018054919250600061057f83611fc9565b909155505060028301546001600160a01b0316600090815260066020526040812080548392906105b0908490611f26565b925050819055506106708360090180548060200260200160405190810160405280929190818152602001828054801561061257602002820191906000526020600020905b81546001600160a01b031681526001909101906020018083116105f4575b505050505084600a0180548060200260200160405190810160405280929190818152602001828054801561066557602002820191906000526020600020905b815481526020019060010190808311610651575b505050505084611846565b7f9895cbad8f9db9bfb55390deaa7dd85188e313b35ee7ee4748b41ae3b9a7936f853385600501546040516106a793929190611e28565b60405180910390a15050505050565b60008060015b600054811161072d57600081815260026020819052604090912001546001600160a01b038581169116141561071b576000818152600260205260409020600481015460069091015461070e9190611f5e565b6107189083611f26565b91505b8061072581611fc9565b9150506106bc565b5092915050565b6060600080546001600160401b0381111561075f57634e487b7160e01b600052604160045260246000fd5b604051908082528060200260200182016040528015610788578160200160208202803683370190505b509050600060015b600054811161081b57600081815260026020819052604090912001546001600160a01b03868116911614156108095760008181526002602052604090205483518490849081106107f057634e487b7160e01b600052603260045260246000fd5b60209081029190910101528161080581611fc9565b9250505b8061081381611fc9565b915050610790565b50909392505050565b60008151116108855760405162461bcd60e51b815260206004820152602760248201527f416c62756d206d7573742068617665206174206c65617374206f6e6520617564604482015266696f2066696c6560c81b606482015260840161033e565b6001805490600061089583611fc9565b91905055506040518061016001604052806001548152602001878152602001866001600160a01b03168152602001858152602001848152602001838152602001600081526020016000815260200182815260200160006001600160401b0381111561091057634e487b7160e01b600052604160045260246000fd5b604051908082528060200260200182016040528015610939578160200160208202803683370190505b508152602001600060405190808252806020026020018201604052801561096a578160200160208202803683370190505b50905260018054600090815260036020908152604090912083518155838201518051919361099e939085019291019061197b565b5060408201516002820180546001600160a01b0319166001600160a01b03909216919091179055606082015180516109e091600384019160209091019061197b565b50608082015180516109fc91600484019160209091019061197b565b5060a0820151600582015560c0820151600682015560e082015160078201556101008201518051610a379160088401916020909101906119ff565b506101208201518051610a54916009840191602090910190611a39565b506101408201518051610a7191600a8401916020909101906119ff565b509050507f9048b43ebaedab71f8a3d6c7e46d1b749420be3cde06fe484c604be17318b32e6001548787878787604051610ab096959493929190611e47565b60405180910390a1505050505050565b60008060015b600054811161072d57600081815260026020819052604090912001546001600160a01b0385811691161415610b1457600081815260026020526040902060050154610b119083611f26565b91505b80610b1e81611fc9565b915050610ac6565b60008060015b600154811161072d576000818152600360205260409020600201546001600160a01b0385811691161415610b8a5760008181526003602052604090206005810154600790910154610b7d9190611f5e565b610b879083611f26565b91505b80610b9481611fc9565b915050610b2c565b80600081118015610baf57506000548111155b610bcb5760405162461bcd60e51b815260040161033e90611dfa565b60008281526002602052604090206004810154341015610c2c5760405162461bcd60e51b81526020600482015260286024820152600080516020612011833981519152604482015267686520747261636b60c01b606482015260840161033e565b6000610ce9826004015483600701805480602002602001604051908101604052809291908181526020018280548015610c8e57602002820191906000526020600020905b81546001600160a01b03168152600190910190602001808311610c70575b50505050508460080180548060200260200160405190810160405280929190818152602001828054801561054d57602002820191906000526020600020908154815260200190600101908083116105395750505050506117d2565b90506000818360040154610cfd9190611f7d565b6005840180549192506000610d1183611fc9565b909155505060028301546001600160a01b031660009081526006602052604081208054839290610d42908490611f26565b92505081905550610e0083600701805480602002602001604051908101604052809291908181526020018280548015610da457602002820191906000526020600020905b81546001600160a01b03168152600190910190602001808311610d86575b505050505084600801805480602002602001604051908101604052809291908181526020018280548015610665576020028201919060005260206000209081548152602001906001019080831161065157505050505084611846565b7fa8ff0760db1bd134bec00c7f599e3d73ad185cfc7dd4c313b1ccfc4bd9594737853385600401546040516106a793929190611e28565b80600081118015610e4a57506000548111155b610e665760405162461bcd60e51b815260040161033e90611dfa565b60008281526002602052604090206004810154341015610ec95760405162461bcd60e51b815260206004820152602a60248201526000805160206120318339815191526044820152692074686520747261636b60b01b606482015260840161033e565b6000610f84826004015483600701805480602002602001604051908101604052809291908181526020018280548015610c8e576020028201919060005260206000209081546001600160a01b03168152600190910190602001808311610c705750505050508460080180548060200260200160405190810160405280929190818152602001828054801561054d57602002820191906000526020600020908154815260200190600101908083116105395750505050506117d2565b90506000818360040154610f989190611f7d565b6006840180549192506000610fac83611fc9565b909155505060028301546001600160a01b031660009081526006602052604081208054839290610fdd908490611f26565b9250508190555061109983600701805480602002602001604051908101604052809291908181526020018280548015610da4576020028201919060005260206000209081546001600160a01b03168152600190910190602001808311610d8657505050505084600801805480602002602001604051908101604052809291908181526020018280548015610665576020028201919060005260206000209081548152602001906001019080831161065157505050505084611846565b3360008181526004602081815260408084208054600181018255908552919093200188905585015490517ffe3f9af2d0ba5be4687ca774df8206ec9cf7919bcf32bd9c76b051e5dfbbb5b4926106a7928992611e28565b6001600160a01b0381166000908152600460209081526040918290208054835181840281018401909452808452606093928301828280156103fc57602002820191906000526020600020908154815260200190600101908083116103e85750505050509050919050565b60008060015b600154811161072d576000818152600360205260409020600201546001600160a01b03858116911614156111ad576000818152600360205260409020600601546111aa9083611f26565b91505b806111b781611fc9565b915050611160565b60008060015b60005481116111fe576000818152600260205260409020600501546111ea9083611f26565b9150806111f681611fc9565b9150506111c5565b50919050565b60008054908061121383611fc9565b91905055506040518061012001604052806000548152602001858152602001846001600160a01b03168152602001838152602001828152602001600081526020016000815260200160006001600160401b0381111561128257634e487b7160e01b600052604160045260246000fd5b6040519080825280602002602001820160405280156112ab578160200160208202803683370190505b50815260200160006040519080825280602002602001820160405280156112dc578160200160208202803683370190505b50905260008054815260026020908152604090912082518155828201518051919261130f9260018501929091019061197b565b5060408201516002820180546001600160a01b0319166001600160a01b039092169190911790556060820151805161135191600384019160209091019061197b565b506080820151600482015560a0820151600582015560c0820151600682015560e0820151805161138b916007840191602090910190611a39565b5061010082015180516113a89160088401916020909101906119ff565b509050507f6c223d041c81947c91abd3aae359c5472d9804fac278d306beca522226876ed9600054858585856040516113e5959493929190611ea9565b60405180910390a150505050565b8060008111801561140657506001548111155b6114225760405162461bcd60e51b815260040161033e90611dcc565b600082815260036020526040902060058101543410156114855760405162461bcd60e51b815260206004820152602a60248201526000805160206120318339815191526044820152692074686520616c62756d60b01b606482015260840161033e565b60006115408260050154836009018054806020026020016040519081016040528092919081815260200182805480156104fa576020028201919060005260206000209081546001600160a01b031681526001909101906020018083116104dc57505050505084600a0180548060200260200160405190810160405280929190818152602001828054801561054d57602002820191906000526020600020908154815260200190600101908083116105395750505050506117d2565b905060008183600501546115549190611f7d565b600784018054919250600061156883611fc9565b909155505060028301546001600160a01b031660009081526006602052604081208054839290611599908490611f26565b9250508190555061165583600901805480602002602001604051908101604052809291908181526020018280548015610612576020028201919060005260206000209081546001600160a01b031681526001909101906020018083116105f457505050505084600a01805480602002602001604051908101604052809291908181526020018280548015610665576020028201919060005260206000209081548152602001906001019080831161065157505050505084611846565b3360008181526005602081815260408084208054600181018255908552919093200188905585015490517f11332ef3956cea4003185b2a4db8407e3e5662fe799887282e178f18726ecc9b926106a7928992611e28565b606060006001546001600160401b038111156116d857634e487b7160e01b600052604160045260246000fd5b604051908082528060200260200182016040528015611701578160200160208202803683370190505b509050600060015b600154811161081b576000818152600360205260409020600201546001600160a01b038681169116141561178157600081815260036020526040902054835184908490811061176857634e487b7160e01b600052603260045260246000fd5b60209081029190910101528161177d81611fc9565b9250505b8061178b81611fc9565b915050611709565b60008060015b60015481116111fe576000818152600360205260409020600601546117be9083611f26565b9150806117ca81611fc9565b915050611799565b600080805b845181101561183d57606484828151811061180257634e487b7160e01b600052603260045260246000fd5b6020026020010151876118159190611f5e565b61181f9190611f3e565b6118299083611f26565b91508061183581611fc9565b9150506117d7565b50949350505050565b81518351146118ad5760405162461bcd60e51b815260206004820152602d60248201527f4f776e65727320616e642070657263656e746167657320617272617973206c6560448201526c0dccee8d040dad2e6dac2e8c6d609b1b606482015260840161033e565b60005b83518110156119755760008482815181106118db57634e487b7160e01b600052603260045260246000fd5b602002602001015190506000606485848151811061190957634e487b7160e01b600052603260045260246000fd5b60200260200101518561191c9190611f5e565b6119269190611f3e565b6040519091506001600160a01b0383169082156108fc029083906000818181858888f1935050505015801561195f573d6000803e3d6000fd5b505050808061196d90611fc9565b9150506118b0565b50505050565b82805461198790611f94565b90600052602060002090601f0160209004810192826119a957600085556119ef565b82601f106119c257805160ff19168380011785556119ef565b828001600101855582156119ef579182015b828111156119ef5782518255916020019190600101906119d4565b506119fb929150611a8e565b5090565b8280548282559060005260206000209081019282156119ef57916020028201828111156119ef5782518255916020019190600101906119d4565b8280548282559060005260206000209081019282156119ef579160200282015b828111156119ef57825182546001600160a01b0319166001600160a01b03909116178255602090920191600190910190611a59565b5b808211156119fb5760008155600101611a8f565b80356001600160a01b0381168114611aba57600080fd5b919050565b600082601f830112611acf578081fd5b813560206001600160401b03821115611aea57611aea611ffa565b8160051b611af9828201611ef6565b838152828101908684018388018501891015611b13578687fd5b8693505b85841015611b35578035835260019390930192918401918401611b17565b50979650505050505050565b600082601f830112611b51578081fd5b81356001600160401b03811115611b6a57611b6a611ffa565b611b7d601f8201601f1916602001611ef6565b818152846020838601011115611b91578283fd5b816020850160208301379081016020019190915292915050565b600060208284031215611bbc578081fd5b611bc582611aa3565b9392505050565b60008060008060008060c08789031215611be4578182fd5b86356001600160401b0380821115611bfa578384fd5b611c068a838b01611b41565b9750611c1460208a01611aa3565b96506040890135915080821115611c29578384fd5b611c358a838b01611b41565b95506060890135915080821115611c4a578384fd5b611c568a838b01611b41565b94506080890135935060a0890135915080821115611c72578283fd5b50611c7f89828a01611abf565b9150509295509295509295565b60008060008060808587031215611ca1578384fd5b84356001600160401b0380821115611cb7578586fd5b611cc388838901611b41565b9550611cd160208801611aa3565b94506040870135915080821115611ce6578384fd5b50611cf387828801611b41565b949793965093946060013593505050565b600060208284031215611d15578081fd5b5035919050565b60008060408385031215611d2e578182fd5b50508035926020909101359150565b60008151808452815b81811015611d6257602081850181015186830182015201611d46565b81811115611d735782602083870101525b50601f01601f19169290920160200192915050565b6020808252825182820181905260009190848201906040850190845b81811015611dc057835183529284019291840191600101611da4565b50909695505050505050565b602080825260149082015273105b189d5b48191bd95cc81b9bdd08195e1a5cdd60621b604082015260600190565b602080825260149082015273151c9858dac8191bd95cc81b9bdd08195e1a5cdd60621b604082015260600190565b9283526001600160a01b03919091166020830152604082015260600190565b86815260c060208201526000611e6060c0830188611d3d565b6001600160a01b03871660408401528281036060840152611e818187611d3d565b90508281036080840152611e958186611d3d565b9150508260a0830152979650505050505050565b85815260a060208201526000611ec260a0830187611d3d565b6001600160a01b03861660408401528281036060840152611ee38186611d3d565b9150508260808301529695505050505050565b604051601f8201601f191681016001600160401b0381118282101715611f1e57611f1e611ffa565b604052919050565b60008219821115611f3957611f39611fe4565b500190565b600082611f5957634e487b7160e01b81526012600452602481fd5b500490565b6000816000190483118215151615611f7857611f78611fe4565b500290565b600082821015611f8f57611f8f611fe4565b500390565b600181811c90821680611fa857607f821691505b602082108114156111fe57634e487b7160e01b600052602260045260246000fd5b6000600019821415611fdd57611fdd611fe4565b5060010190565b634e487b7160e01b600052601160045260246000fd5b634e487b7160e01b600052604160045260246000fdfe496e73756666696369656e74207061796d656e7420746f2073747265616d2074496e73756666696369656e74207061796d656e7420746f207075726368617365a2646970667358221220ba3390f9d72ba9bca3b88eae4e6b6c852da42d1ce1d2f59ac88c48bcc35ab83a64736f6c63430008040033",
  "linkReferences": {},
  "deployedLinkReferences": {}
}