{
  "_format": "hh-sol-artifact-1",
  "contractName": "Deyplay",
  "sourceName": "contracts/Deyplay.sol",
  "abi": [
    {
      "anonymous": false,
      "inputs": [
        {
          "indexed": false,
          "internalType": "uint256",
          "name": "id",
          "type": "uint256"
        },
        {
          "indexed": false,
          "internalType": "string",
          "name": "title",
          "type": "string"
        },
        {
          "indexed": false,
          "internalType": "string",
          "name": "description",
          "type": "string"
        },
        {
          "indexed": false,
          "internalType": "address",
          "name": "artist",
          "type": "address"
        },
        {
          "indexed": false,
          "internalType": "string",
          "name": "imageUrl",
          "type": "string"
        },
        {
          "indexed": false,
          "internalType": "string",
          "name": "audioFile",
          "type": "string"
        },
        {
          "indexed": false,
          "internalType": "uint256",
          "name": "streamAmount",
          "type": "uint256"
        },
        {
          "indexed": false,
          "internalType": "address[]",
          "name": "royaltiesOwners",
          "type": "address[]"
        },
        {
          "indexed": false,
          "internalType": "uint256[]",
          "name": "royaltiesPercentages",
          "type": "uint256[]"
        }
      ],
      "name": "TrackCreated",
      "type": "event"
    },
    {
      "anonymous": false,
      "inputs": [
        {
          "indexed": false,
          "internalType": "uint256",
          "name": "trackId",
          "type": "uint256"
        },
        {
          "indexed": false,
          "internalType": "address",
          "name": "listener",
          "type": "address"
        },
        {
          "indexed": false,
          "internalType": "uint256",
          "name": "amount",
          "type": "uint256"
        }
      ],
      "name": "TrackStreamed",
      "type": "event"
    },
    {
      "inputs": [
        {
          "internalType": "string",
          "name": "_title",
          "type": "string"
        },
        {
          "internalType": "string",
          "name": "_description",
          "type": "string"
        },
        {
          "internalType": "address",
          "name": "_artist",
          "type": "address"
        },
        {
          "internalType": "string",
          "name": "_imageUrl",
          "type": "string"
        },
        {
          "internalType": "string",
          "name": "_audioFile",
          "type": "string"
        },
        {
          "internalType": "uint256",
          "name": "_streamAmount",
          "type": "uint256"
        },
        {
          "internalType": "address[]",
          "name": "_royaltiesOwners",
          "type": "address[]"
        },
        {
          "internalType": "uint256[]",
          "name": "_royaltiesPercentages",
          "type": "uint256[]"
        }
      ],
      "name": "addTrack",
      "outputs": [],
      "stateMutability": "nonpayable",
      "type": "function"
    },
    {
      "inputs": [
        {
          "internalType": "address",
          "name": "_artist",
          "type": "address"
        }
      ],
      "name": "getArtistBalance",
      "outputs": [
        {
          "internalType": "uint256",
          "name": "",
          "type": "uint256"
        }
      ],
      "stateMutability": "view",
      "type": "function"
    },
    {
      "inputs": [
        {
          "internalType": "address",
          "name": "_artist",
          "type": "address"
        }
      ],
      "name": "getTotalTrackAmount",
      "outputs": [
        {
          "internalType": "uint256",
          "name": "",
          "type": "uint256"
        }
      ],
      "stateMutability": "view",
      "type": "function"
    },
    {
      "inputs": [
        {
          "internalType": "address",
          "name": "_artist",
          "type": "address"
        }
      ],
      "name": "getTotalTrackStreams",
      "outputs": [
        {
          "internalType": "uint256",
          "name": "",
          "type": "uint256"
        }
      ],
      "stateMutability": "view",
      "type": "function"
    },
    {
      "inputs": [
        {
          "internalType": "address",
          "name": "_artist",
          "type": "address"
        }
      ],
      "name": "getTotalTracksUploadedByArtist",
      "outputs": [
        {
          "internalType": "uint256",
          "name": "",
          "type": "uint256"
        }
      ],
      "stateMutability": "view",
      "type": "function"
    },
    {
      "inputs": [
        {
          "internalType": "uint256",
          "name": "_trackId",
          "type": "uint256"
        }
      ],
      "name": "getTrack",
      "outputs": [
        {
          "components": [
            {
              "internalType": "uint256",
              "name": "id",
              "type": "uint256"
            },
            {
              "internalType": "string",
              "name": "title",
              "type": "string"
            },
            {
              "internalType": "string",
              "name": "description",
              "type": "string"
            },
            {
              "internalType": "address",
              "name": "artist",
              "type": "address"
            },
            {
              "internalType": "string",
              "name": "imageUrl",
              "type": "string"
            },
            {
              "internalType": "string",
              "name": "audioFile",
              "type": "string"
            },
            {
              "internalType": "uint256",
              "name": "totalStreams",
              "type": "uint256"
            },
            {
              "internalType": "uint256",
              "name": "totalPurchases",
              "type": "uint256"
            },
            {
              "internalType": "uint256",
              "name": "streamAmount",
              "type": "uint256"
            },
            {
              "internalType": "address[]",
              "name": "royaltiesOwners",
              "type": "address[]"
            },
            {
              "internalType": "uint256[]",
              "name": "royaltiesPercentages",
              "type": "uint256[]"
            }
          ],
          "internalType": "struct Deyplay.Track",
          "name": "",
          "type": "tuple"
        }
      ],
      "stateMutability": "view",
      "type": "function"
    },
    {
      "inputs": [],
      "name": "listAllTracks",
      "outputs": [
        {
          "internalType": "uint256[]",
          "name": "",
          "type": "uint256[]"
        }
      ],
      "stateMutability": "view",
      "type": "function"
    },
    {
      "inputs": [
        {
          "internalType": "address",
          "name": "_artist",
          "type": "address"
        }
      ],
      "name": "listTracksByArtist",
      "outputs": [
        {
          "internalType": "uint256[]",
          "name": "",
          "type": "uint256[]"
        }
      ],
      "stateMutability": "view",
      "type": "function"
    },
    {
      "inputs": [
        {
          "internalType": "uint256",
          "name": "_trackId",
          "type": "uint256"
        }
      ],
      "name": "streamTrack",
      "outputs": [],
      "stateMutability": "payable",
      "type": "function"
    }
  ],
  "bytecode": "0x608060405234801561001057600080fd5b50611769806100206000396000f3fe6080604052600436106100865760003560e01c80636850a7e3116100595780636850a7e31461012d57806376dde21b1461014d5780638ef8b3861461016d578063d7904d7514610182578063f4ce0f86146101a257600080fd5b80630d546dcc1461008b5780635d0650b4146100be578063629058ca146100de5780636456b79a1461010b575b600080fd5b34801561009757600080fd5b506100ab6100a6366004611233565b6101d8565b6040519081526020015b60405180910390f35b3480156100ca57600080fd5b506100ab6100d9366004611233565b610233565b3480156100ea57600080fd5b506100fe6100f936600461135e565b6102a9565b6040516100b59190611446565b34801561011757600080fd5b506101206106cc565b6040516100b59190611433565b34801561013957600080fd5b50610120610148366004611233565b61078a565b34801561015957600080fd5b506100ab610168366004611233565b61087a565b61018061017b36600461135e565b6108df565b005b34801561018e57600080fd5b5061018061019d366004611254565b610bcb565b3480156101ae57600080fd5b506100ab6101bd366004611233565b6001600160a01b031660009081526002602052604090205490565b60008060015b600054811161022c576000818152600160205260409020600301546001600160a01b038581169116141561021a5781610216816116ec565b9250505b80610224816116ec565b9150506101de565b5092915050565b60008060015b600054811161022c576000818152600160205260409020600301546001600160a01b0385811691161415610297576000818152600160205260409020600881015460079091015461028a9190611681565b6102949083611649565b91505b806102a1816116ec565b915050610239565b61030f60405180610160016040528060008152602001606081526020016060815260200160006001600160a01b03168152602001606081526020016060815260200160008152602001600081526020016000815260200160608152602001606081525090565b8160008111801561032257506000548111155b61036a5760405162461bcd60e51b8152602060048201526014602482015273151c9858dac8191bd95cc81b9bdd08195e1a5cdd60621b60448201526064015b60405180910390fd5b600083815260016020818152604092839020835161016081019094528054845291820180549184019161039c906116b7565b80601f01602080910402602001604051908101604052809291908181526020018280546103c8906116b7565b80156104155780601f106103ea57610100808354040283529160200191610415565b820191906000526020600020905b8154815290600101906020018083116103f857829003601f168201915b5050505050815260200160028201805461042e906116b7565b80601f016020809104026020016040519081016040528092919081815260200182805461045a906116b7565b80156104a75780601f1061047c576101008083540402835291602001916104a7565b820191906000526020600020905b81548152906001019060200180831161048a57829003601f168201915b505050918352505060038201546001600160a01b031660208201526004820180546040909201916104d7906116b7565b80601f0160208091040260200160405190810160405280929190818152602001828054610503906116b7565b80156105505780601f1061052557610100808354040283529160200191610550565b820191906000526020600020905b81548152906001019060200180831161053357829003601f168201915b50505050508152602001600582018054610569906116b7565b80601f0160208091040260200160405190810160405280929190818152602001828054610595906116b7565b80156105e25780601f106105b7576101008083540402835291602001916105e2565b820191906000526020600020905b8154815290600101906020018083116105c557829003601f168201915b505050505081526020016006820154815260200160078201548152602001600882015481526020016009820180548060200260200160405190810160405280929190818152602001828054801561066257602002820191906000526020600020905b81546001600160a01b03168152600190910190602001808311610644575b50505050508152602001600a82018054806020026020016040519081016040528092919081815260200182805480156106ba57602002820191906000526020600020905b8154815260200190600101908083116106a6575b50505050508152505091505b50919050565b60606000805467ffffffffffffffff8111156106f857634e487b7160e01b600052604160045260246000fd5b604051908082528060200260200182016040528015610721578160200160208202803683370190505b50905060015b60005481116106c65760008181526001602081905260409091205490839061074f90846116a0565b8151811061076d57634e487b7160e01b600052603260045260246000fd5b602090810291909101015280610782816116ec565b915050610727565b60606000805467ffffffffffffffff8111156107b657634e487b7160e01b600052604160045260246000fd5b6040519080825280602002602001820160405280156107df578160200160208202803683370190505b509050600060015b6000548111610871576000818152600160205260409020600301546001600160a01b038681169116141561085f57600081815260016020526040902054835184908490811061084657634e487b7160e01b600052603260045260246000fd5b60209081029190910101528161085b816116ec565b9250505b80610869816116ec565b9150506107e7565b50909392505050565b60008060015b600054811161022c576000818152600160205260409020600301546001600160a01b03858116911614156108cd576000818152600160205260409020600601546108ca9083611649565b91505b806108d7816116ec565b915050610880565b806000811180156108f257506000548111155b6109355760405162461bcd60e51b8152602060048201526014602482015273151c9858dac8191bd95cc81b9bdd08195e1a5cdd60621b6044820152606401610361565b600082815260016020526040902060088101543410156109a85760405162461bcd60e51b815260206004820152602860248201527f496e73756666696369656e74207061796d656e7420746f2073747265616d2074604482015267686520747261636b60c01b6064820152608401610361565b6000610a67826008015483600901805480602002602001604051908101604052809291908181526020018280548015610a0a57602002820191906000526020600020905b81546001600160a01b031681526001909101906020018083116109ec575b505050505084600a01805480602002602001604051908101604052809291908181526020018280548015610a5d57602002820191906000526020600020905b815481526020019060010190808311610a49575b5050505050610d9c565b90506000818360080154610a7b91906116a0565b6006840180549192506000610a8f836116ec565b909155505060038301546001600160a01b031660009081526002602052604081208054839290610ac0908490611649565b92505081905550610b8083600901805480602002602001604051908101604052809291908181526020018280548015610b2257602002820191906000526020600020905b81546001600160a01b03168152600190910190602001808311610b04575b505050505084600a01805480602002602001604051908101604052809291908181526020018280548015610b7557602002820191906000526020600020905b815481526020019060010190808311610b61575b505050505084610e10565b60088301546040805187815233602082015280820192909252517fa8ff0760db1bd134bec00c7f599e3d73ad185cfc7dd4c313b1ccfc4bd95947379181900360600190a15050505050565b600080549080610bda836116ec565b91905055506040518061016001604052806000548152602001898152602001888152602001876001600160a01b031681526020018681526020018581526020016000815260200160008152602001848152602001838152602001828152506001600080548152602001908152602001600020600082015181600001556020820151816001019080519060200190610c72929190610fb1565b5060408201518051610c8e916002840191602090910190610fb1565b5060608201516003820180546001600160a01b0319166001600160a01b0390921691909117905560808201518051610cd0916004840191602090910190610fb1565b5060a08201518051610cec916005840191602090910190610fb1565b5060c0820151600682015560e0820151600782015561010082015160088201556101208201518051610d28916009840191602090910190611035565b506101408201518051610d4591600a84019160209091019061108a565b509050507fe2598d3e609dd71c51bd6db67255d4df6be8e7aa0bc5cd6df84a913b3ebf75996000548989898989898989604051610d8a99989796959493929190611550565b60405180910390a15050505050505050565b600080805b8451811015610e07576064848281518110610dcc57634e487b7160e01b600052603260045260246000fd5b602002602001015187610ddf9190611681565b610de99190611661565b610df39083611649565b915080610dff816116ec565b915050610da1565b50949350505050565b8151835114610e775760405162461bcd60e51b815260206004820152602d60248201527f4f776e65727320616e642070657263656e746167657320617272617973206c6560448201526c0dccee8d040dad2e6dac2e8c6d609b1b6064820152608401610361565b60005b8351811015610fab576000848281518110610ea557634e487b7160e01b600052603260045260246000fd5b6020026020010151905060006064858481518110610ed357634e487b7160e01b600052603260045260246000fd5b602002602001015185610ee69190611681565b610ef09190611661565b90506000826001600160a01b03168260405160006040518083038185875af1925050503d8060008114610f3f576040519150601f19603f3d011682016040523d82523d6000602084013e610f44565b606091505b5050905080610f955760405162461bcd60e51b815260206004820152601e60248201527f4661696c656420746f2073656e6420726f79616c7479207061796d656e7400006044820152606401610361565b5050508080610fa3906116ec565b915050610e7a565b50505050565b828054610fbd906116b7565b90600052602060002090601f016020900481019282610fdf5760008555611025565b82601f10610ff857805160ff1916838001178555611025565b82800160010185558215611025579182015b8281111561102557825182559160200191906001019061100a565b506110319291506110c4565b5090565b828054828255906000526020600020908101928215611025579160200282015b8281111561102557825182546001600160a01b0319166001600160a01b03909116178255602090920191600190910190611055565b828054828255906000526020600020908101928215611025579160200282018281111561102557825182559160200191906001019061100a565b5b8082111561103157600081556001016110c5565b80356001600160a01b03811681146110f057600080fd5b919050565b600082601f830112611105578081fd5b8135602061111a61111583611625565b6115f4565b80838252828201915082860187848660051b8901011115611139578586fd5b855b8581101561115e5761114c826110d9565b8452928401929084019060010161113b565b5090979650505050505050565b600082601f83011261117b578081fd5b8135602061118b61111583611625565b80838252828201915082860187848660051b89010111156111aa578586fd5b855b8581101561115e578135845292840192908401906001016111ac565b600082601f8301126111d8578081fd5b813567ffffffffffffffff8111156111f2576111f261171d565b611205601f8201601f19166020016115f4565b818152846020838601011115611219578283fd5b816020850160208301379081016020019190915292915050565b600060208284031215611244578081fd5b61124d826110d9565b9392505050565b600080600080600080600080610100898b031215611270578384fd5b883567ffffffffffffffff80821115611287578586fd5b6112938c838d016111c8565b995060208b01359150808211156112a8578586fd5b6112b48c838d016111c8565b98506112c260408c016110d9565b975060608b01359150808211156112d7578586fd5b6112e38c838d016111c8565b965060808b01359150808211156112f8578586fd5b6113048c838d016111c8565b955060a08b0135945060c08b0135915080821115611320578384fd5b61132c8c838d016110f5565b935060e08b0135915080821115611341578283fd5b5061134e8b828c0161116b565b9150509295985092959890939650565b60006020828403121561136f578081fd5b5035919050565b6000815180845260208085019450808401835b838110156113ae5781516001600160a01b031687529582019590820190600101611389565b509495945050505050565b6000815180845260208085019450808401835b838110156113ae578151875295820195908201906001016113cc565b60008151808452815b8181101561140d576020818501810151868301820152016113f1565b8181111561141e5782602083870101525b50601f01601f19169290920160200192915050565b60208152600061124d60208301846113b9565b60208152815160208201526000602083015161016080604085015261146f6101808501836113e8565b91506040850151601f198086850301606087015261148d84836113e8565b9350606087015191506114ab60808701836001600160a01b03169052565b60808701519150808685030160a08701526114c684836113e8565b935060a08701519150808685030160c08701526114e384836113e8565b935060c087015160e087015260e0870151915061010082818801528088015192505061012082818801528088015192505061014081878603018188015261152a8584611376565b90880151878203909201848801529350905061154683826113b9565b9695505050505050565b60006101208b835280602084015261156a8184018c6113e8565b9050828103604084015261157e818b6113e8565b6001600160a01b038a166060850152838103608085015290506115a181896113e8565b905082810360a08401526115b581886113e8565b90508560c084015282810360e08401526115cf8186611376565b90508281036101008401526115e481856113b9565b9c9b505050505050505050505050565b604051601f8201601f1916810167ffffffffffffffff8111828210171561161d5761161d61171d565b604052919050565b600067ffffffffffffffff82111561163f5761163f61171d565b5060051b60200190565b6000821982111561165c5761165c611707565b500190565b60008261167c57634e487b7160e01b81526012600452602481fd5b500490565b600081600019048311821515161561169b5761169b611707565b500290565b6000828210156116b2576116b2611707565b500390565b600181811c908216806116cb57607f821691505b602082108114156106c657634e487b7160e01b600052602260045260246000fd5b600060001982141561170057611700611707565b5060010190565b634e487b7160e01b600052601160045260246000fd5b634e487b7160e01b600052604160045260246000fdfea26469706673582212201641417e195e9f1473feec68eed319bf8d4670affc9568d7874ba33319b1ac6664736f6c63430008040033",
  "linkReferences": {},
  "deployedLinkReferences": {}
}