{
  "_format": "hh-sol-artifact-1",
  "contractName": "Deyplay",
  "sourceName": "contracts/Deyplay.sol",
  "abi": [
    {
      "anonymous": false,
      "inputs": [
        {
          "indexed": false,
          "internalType": "uint256",
          "name": "id",
          "type": "uint256"
        },
        {
          "indexed": false,
          "internalType": "string",
          "name": "title",
          "type": "string"
        },
        {
          "indexed": false,
          "internalType": "address",
          "name": "artist",
          "type": "address"
        },
        {
          "indexed": false,
          "internalType": "string",
          "name": "imageUrl",
          "type": "string"
        },
        {
          "indexed": false,
          "internalType": "string",
          "name": "description",
          "type": "string"
        },
        {
          "indexed": false,
          "internalType": "uint256",
          "name": "price",
          "type": "uint256"
        },
        {
          "indexed": false,
          "internalType": "address[]",
          "name": "royaltiesOwners",
          "type": "address[]"
        },
        {
          "indexed": false,
          "internalType": "uint256[]",
          "name": "royaltiesPercentages",
          "type": "uint256[]"
        }
      ],
      "name": "AlbumCreated",
      "type": "event"
    },
    {
      "anonymous": false,
      "inputs": [
        {
          "indexed": false,
          "internalType": "uint256",
          "name": "albumId",
          "type": "uint256"
        },
        {
          "indexed": false,
          "internalType": "address",
          "name": "buyer",
          "type": "address"
        },
        {
          "indexed": false,
          "internalType": "uint256",
          "name": "amount",
          "type": "uint256"
        }
      ],
      "name": "AlbumPurchased",
      "type": "event"
    },
    {
      "anonymous": false,
      "inputs": [
        {
          "indexed": false,
          "internalType": "uint256",
          "name": "albumId",
          "type": "uint256"
        },
        {
          "indexed": false,
          "internalType": "address",
          "name": "listener",
          "type": "address"
        },
        {
          "indexed": false,
          "internalType": "uint256",
          "name": "amount",
          "type": "uint256"
        }
      ],
      "name": "AlbumStreamed",
      "type": "event"
    },
    {
      "anonymous": false,
      "inputs": [
        {
          "indexed": false,
          "internalType": "uint256",
          "name": "id",
          "type": "uint256"
        },
        {
          "indexed": false,
          "internalType": "string",
          "name": "title",
          "type": "string"
        },
        {
          "indexed": false,
          "internalType": "address",
          "name": "artist",
          "type": "address"
        },
        {
          "indexed": false,
          "internalType": "string",
          "name": "imageUrl",
          "type": "string"
        },
        {
          "indexed": false,
          "internalType": "string",
          "name": "audioFile",
          "type": "string"
        },
        {
          "indexed": false,
          "internalType": "uint256",
          "name": "price",
          "type": "uint256"
        },
        {
          "indexed": false,
          "internalType": "address[]",
          "name": "royaltiesOwners",
          "type": "address[]"
        },
        {
          "indexed": false,
          "internalType": "uint256[]",
          "name": "royaltiesPercentages",
          "type": "uint256[]"
        }
      ],
      "name": "TrackCreated",
      "type": "event"
    },
    {
      "anonymous": false,
      "inputs": [
        {
          "indexed": false,
          "internalType": "uint256",
          "name": "trackId",
          "type": "uint256"
        },
        {
          "indexed": false,
          "internalType": "address",
          "name": "buyer",
          "type": "address"
        },
        {
          "indexed": false,
          "internalType": "uint256",
          "name": "amount",
          "type": "uint256"
        }
      ],
      "name": "TrackPurchased",
      "type": "event"
    },
    {
      "anonymous": false,
      "inputs": [
        {
          "indexed": false,
          "internalType": "uint256",
          "name": "trackId",
          "type": "uint256"
        },
        {
          "indexed": false,
          "internalType": "address",
          "name": "listener",
          "type": "address"
        },
        {
          "indexed": false,
          "internalType": "uint256",
          "name": "amount",
          "type": "uint256"
        }
      ],
      "name": "TrackStreamed",
      "type": "event"
    },
    {
      "inputs": [
        {
          "internalType": "string",
          "name": "_title",
          "type": "string"
        },
        {
          "internalType": "address",
          "name": "_artist",
          "type": "address"
        },
        {
          "internalType": "string",
          "name": "_imageUrl",
          "type": "string"
        },
        {
          "internalType": "string",
          "name": "_description",
          "type": "string"
        },
        {
          "internalType": "uint256",
          "name": "_price",
          "type": "uint256"
        },
        {
          "internalType": "address[]",
          "name": "_royaltiesOwners",
          "type": "address[]"
        },
        {
          "internalType": "uint256[]",
          "name": "_royaltiesPercentages",
          "type": "uint256[]"
        }
      ],
      "name": "addAlbum",
      "outputs": [],
      "stateMutability": "nonpayable",
      "type": "function"
    },
    {
      "inputs": [
        {
          "internalType": "string",
          "name": "_title",
          "type": "string"
        },
        {
          "internalType": "address",
          "name": "_artist",
          "type": "address"
        },
        {
          "internalType": "string",
          "name": "_imageUrl",
          "type": "string"
        },
        {
          "internalType": "string",
          "name": "_audioFile",
          "type": "string"
        },
        {
          "internalType": "uint256",
          "name": "_price",
          "type": "uint256"
        },
        {
          "internalType": "address[]",
          "name": "_royaltiesOwners",
          "type": "address[]"
        },
        {
          "internalType": "uint256[]",
          "name": "_royaltiesPercentages",
          "type": "uint256[]"
        }
      ],
      "name": "addTrack",
      "outputs": [],
      "stateMutability": "nonpayable",
      "type": "function"
    },
    {
      "inputs": [
        {
          "internalType": "uint256",
          "name": "_trackId",
          "type": "uint256"
        },
        {
          "internalType": "uint256",
          "name": "_albumId",
          "type": "uint256"
        },
        {
          "internalType": "string",
          "name": "_title",
          "type": "string"
        },
        {
          "internalType": "string",
          "name": "_imageUrl",
          "type": "string"
        },
        {
          "internalType": "string",
          "name": "_audioFile",
          "type": "string"
        },
        {
          "internalType": "uint256",
          "name": "_totalStreams",
          "type": "uint256"
        },
        {
          "internalType": "uint256",
          "name": "_totalPurchases",
          "type": "uint256"
        }
      ],
      "name": "addTrackToAlbum",
      "outputs": [],
      "stateMutability": "nonpayable",
      "type": "function"
    },
    {
      "inputs": [
        {
          "internalType": "uint256",
          "name": "_albumId",
          "type": "uint256"
        }
      ],
      "name": "getAlbum",
      "outputs": [
        {
          "components": [
            {
              "internalType": "uint256",
              "name": "id",
              "type": "uint256"
            },
            {
              "internalType": "string",
              "name": "title",
              "type": "string"
            },
            {
              "internalType": "address",
              "name": "artist",
              "type": "address"
            },
            {
              "internalType": "string",
              "name": "imageUrl",
              "type": "string"
            },
            {
              "internalType": "string",
              "name": "description",
              "type": "string"
            },
            {
              "internalType": "uint256",
              "name": "price",
              "type": "uint256"
            },
            {
              "internalType": "uint256",
              "name": "totalStreams",
              "type": "uint256"
            },
            {
              "internalType": "uint256",
              "name": "totalPurchases",
              "type": "uint256"
            },
            {
              "internalType": "uint256[]",
              "name": "audioFiles",
              "type": "uint256[]"
            },
            {
              "internalType": "address[]",
              "name": "royaltiesOwners",
              "type": "address[]"
            },
            {
              "internalType": "uint256[]",
              "name": "royaltiesPercentages",
              "type": "uint256[]"
            }
          ],
          "internalType": "struct Deyplay.Album",
          "name": "",
          "type": "tuple"
        }
      ],
      "stateMutability": "view",
      "type": "function"
    },
    {
      "inputs": [
        {
          "internalType": "address",
          "name": "_artist",
          "type": "address"
        }
      ],
      "name": "getArtistBalance",
      "outputs": [
        {
          "internalType": "uint256",
          "name": "",
          "type": "uint256"
        }
      ],
      "stateMutability": "view",
      "type": "function"
    },
    {
      "inputs": [
        {
          "internalType": "address",
          "name": "_artist",
          "type": "address"
        }
      ],
      "name": "getTotalAlbumAmount",
      "outputs": [
        {
          "internalType": "uint256",
          "name": "",
          "type": "uint256"
        }
      ],
      "stateMutability": "view",
      "type": "function"
    },
    {
      "inputs": [
        {
          "internalType": "address",
          "name": "_artist",
          "type": "address"
        }
      ],
      "name": "getTotalAlbumStreams",
      "outputs": [
        {
          "internalType": "uint256",
          "name": "",
          "type": "uint256"
        }
      ],
      "stateMutability": "view",
      "type": "function"
    },
    {
      "inputs": [
        {
          "internalType": "address",
          "name": "_artist",
          "type": "address"
        }
      ],
      "name": "getTotalTrackAmount",
      "outputs": [
        {
          "internalType": "uint256",
          "name": "",
          "type": "uint256"
        }
      ],
      "stateMutability": "view",
      "type": "function"
    },
    {
      "inputs": [
        {
          "internalType": "address",
          "name": "_artist",
          "type": "address"
        }
      ],
      "name": "getTotalTrackStreams",
      "outputs": [
        {
          "internalType": "uint256",
          "name": "",
          "type": "uint256"
        }
      ],
      "stateMutability": "view",
      "type": "function"
    },
    {
      "inputs": [
        {
          "internalType": "uint256",
          "name": "_trackId",
          "type": "uint256"
        }
      ],
      "name": "getTrack",
      "outputs": [
        {
          "components": [
            {
              "internalType": "uint256",
              "name": "id",
              "type": "uint256"
            },
            {
              "internalType": "string",
              "name": "title",
              "type": "string"
            },
            {
              "internalType": "address",
              "name": "artist",
              "type": "address"
            },
            {
              "internalType": "string",
              "name": "imageUrl",
              "type": "string"
            },
            {
              "internalType": "string",
              "name": "audioFile",
              "type": "string"
            },
            {
              "internalType": "uint256",
              "name": "price",
              "type": "uint256"
            },
            {
              "internalType": "uint256",
              "name": "totalStreams",
              "type": "uint256"
            },
            {
              "internalType": "uint256",
              "name": "totalPurchases",
              "type": "uint256"
            },
            {
              "internalType": "address[]",
              "name": "royaltiesOwners",
              "type": "address[]"
            },
            {
              "internalType": "uint256[]",
              "name": "royaltiesPercentages",
              "type": "uint256[]"
            }
          ],
          "internalType": "struct Deyplay.Track",
          "name": "",
          "type": "tuple"
        }
      ],
      "stateMutability": "view",
      "type": "function"
    },
    {
      "inputs": [
        {
          "internalType": "address",
          "name": "_user",
          "type": "address"
        }
      ],
      "name": "getUserPurchasedAlbums",
      "outputs": [
        {
          "internalType": "uint256[]",
          "name": "",
          "type": "uint256[]"
        }
      ],
      "stateMutability": "view",
      "type": "function"
    },
    {
      "inputs": [
        {
          "internalType": "address",
          "name": "_user",
          "type": "address"
        }
      ],
      "name": "getUserPurchasedTracks",
      "outputs": [
        {
          "internalType": "uint256[]",
          "name": "",
          "type": "uint256[]"
        }
      ],
      "stateMutability": "view",
      "type": "function"
    },
    {
      "inputs": [
        {
          "internalType": "address",
          "name": "_artist",
          "type": "address"
        }
      ],
      "name": "listAlbumsByArtist",
      "outputs": [
        {
          "internalType": "uint256[]",
          "name": "",
          "type": "uint256[]"
        }
      ],
      "stateMutability": "view",
      "type": "function"
    },
    {
      "inputs": [],
      "name": "listAllAlbums",
      "outputs": [
        {
          "internalType": "uint256[]",
          "name": "",
          "type": "uint256[]"
        }
      ],
      "stateMutability": "view",
      "type": "function"
    },
    {
      "inputs": [],
      "name": "listAllTracks",
      "outputs": [
        {
          "internalType": "uint256[]",
          "name": "",
          "type": "uint256[]"
        }
      ],
      "stateMutability": "view",
      "type": "function"
    },
    {
      "inputs": [
        {
          "internalType": "address",
          "name": "_artist",
          "type": "address"
        }
      ],
      "name": "listTracksByArtist",
      "outputs": [
        {
          "internalType": "uint256[]",
          "name": "",
          "type": "uint256[]"
        }
      ],
      "stateMutability": "view",
      "type": "function"
    },
    {
      "inputs": [
        {
          "internalType": "uint256",
          "name": "_albumId",
          "type": "uint256"
        }
      ],
      "name": "purchaseAlbum",
      "outputs": [],
      "stateMutability": "payable",
      "type": "function"
    },
    {
      "inputs": [
        {
          "internalType": "uint256",
          "name": "_trackId",
          "type": "uint256"
        }
      ],
      "name": "purchaseTrack",
      "outputs": [],
      "stateMutability": "payable",
      "type": "function"
    },
    {
      "inputs": [
        {
          "internalType": "uint256",
          "name": "_albumId",
          "type": "uint256"
        }
      ],
      "name": "streamAlbum",
      "outputs": [],
      "stateMutability": "payable",
      "type": "function"
    },
    {
      "inputs": [
        {
          "internalType": "uint256",
          "name": "_trackId",
          "type": "uint256"
        }
      ],
      "name": "streamTrack",
      "outputs": [],
      "stateMutability": "payable",
      "type": "function"
    }
  ],
  "bytecode": "0x608060405234801561001057600080fd5b50612b8a806100206000396000f3fe60806040526004361061011f5760003560e01c80638ef8b386116100a0578063d53f2baa11610064578063d53f2baa146102fa578063d6e465c91461031a578063ea98177514610347578063efb783081461035a578063f4ce0f861461037a57600080fd5b80638ef8b3861461027457806390ffd735146102875780639edc858c146102a7578063acff110e146102ba578063c103351f146102da57600080fd5b8063629058ca116100e7578063629058ca146101d25780636456b79a146101ff5780636850a7e31461021457806376dde21b146102345780638d59f7e21461025457600080fd5b80631d29d59914610124578063245d15581461015a5780632cdfb61f1461017c57806340d1e240146101915780635d0650b4146101a4575b600080fd5b34801561013057600080fd5b5061014461013f3660046124ca565b6103b0565b6040516101519190612751565b60405180910390f35b34801561016657600080fd5b5061017a6101753660046124eb565b61041c565b005b34801561018857600080fd5b506101446105bc565b61017a61019f3660046125d1565b61067d565b3480156101b057600080fd5b506101c46101bf3660046124ca565b61094e565b604051908152602001610151565b3480156101de57600080fd5b506101f26101ed3660046125d1565b6109cc565b60405161015191906128c6565b34801561020b57600080fd5b50610144610d30565b34801561022057600080fd5b5061014461022f3660046124ca565b610dea565b34801561024057600080fd5b506101c461024f3660046124ca565b610edb565b34801561026057600080fd5b506101c461026f3660046124ca565b610f41565b61017a6102823660046125d1565b610fb7565b34801561029357600080fd5b5061017a6102a23660046125e9565b611270565b61017a6102b53660046125d1565b61135a565b3480156102c657600080fd5b506101446102d53660046124ca565b61163f565b3480156102e657600080fd5b506101c46102f53660046124ca565b6116a9565b34801561030657600080fd5b5061017a6103153660046124eb565b61170e565b34801561032657600080fd5b5061033a6103353660046125d1565b611913565b60405161015191906127c0565b61017a6103553660046125d1565b611cd4565b34801561036657600080fd5b506101446103753660046124ca565b611fb7565b34801561038657600080fd5b506101c46103953660046124ca565b6001600160a01b031660009081526006602052604090205490565b6001600160a01b03811660009081526005602090815260409182902080548351818402810184019094528084526060939283018282801561041057602002820191906000526020600020905b8154815260200190600101908083116103fc575b50505050509050919050565b60008054908061042b83612b0d565b909155505060408051610140810182526000805480835260208084018c81526001600160a01b038c1685870152606085018b9052608085018a905260a0850189905260c0850184905260e085018490526101008501889052610120850187905291835260028152939091208251815590518051929391926104b29260018501920190612248565b5060408201516002820180546001600160a01b0319166001600160a01b03909216919091179055606082015180516104f4916003840191602090910190612248565b5060808201518051610510916004840191602090910190612248565b5060a0820151600582015560c0820151600682015560e08201516007820155610100820151805161054b9160088401916020909101906122cc565b506101208201518051610568916009840191602090910190612321565b509050507fbf2201dbf94a92f1d5a37c712b8d9b99e2a1e94a9ead3e3318c067b76569712a600054888888888888886040516105ab989796959493929190612987565b60405180910390a150505050505050565b6060600060015467ffffffffffffffff8111156105e957634e487b7160e01b600052604160045260246000fd5b604051908082528060200260200182016040528015610612578160200160208202803683370190505b50905060015b6001548111610677576000818152600360205260409020548261063c600184612ac1565b8151811061065a57634e487b7160e01b600052603260045260246000fd5b60209081029190910101528061066f81612b0d565b915050610618565b50919050565b8060008111801561069057506001548111155b6106b55760405162461bcd60e51b81526004016106ac90612764565b60405180910390fd5b600082815260036020526040902060058101543410156107285760405162461bcd60e51b815260206004820152602860248201527f496e73756666696369656e74207061796d656e7420746f2073747265616d2074604482015267686520616c62756d60c01b60648201526084016106ac565b60006107e782600501548360090180548060200260200160405190810160405280929190818152602001828054801561078a57602002820191906000526020600020905b81546001600160a01b0316815260019091019060200180831161076c575b505050505084600a018054806020026020016040519081016040528092919081815260200182805480156107dd57602002820191906000526020600020905b8154815260200190600101908083116107c9575b505050505061209f565b905060008183600501546107fb9190612ac1565b600684018054919250600061080f83612b0d565b909155505060028301546001600160a01b031660009081526006602052604081208054839290610840908490612a6a565b92505081905550610900836009018054806020026020016040519081016040528092919081815260200182805480156108a257602002820191906000526020600020905b81546001600160a01b03168152600190910190602001808311610884575b505050505084600a018054806020026020016040519081016040528092919081815260200182805480156108f557602002820191906000526020600020905b8154815260200190600101908083116108e1575b505050505084612113565b600583015460408051878152336020820152908101919091527f9895cbad8f9db9bfb55390deaa7dd85188e313b35ee7ee4748b41ae3b9a7936f906060015b60405180910390a15050505050565b60008060015b60005481116109c557600081815260026020819052604090912001546001600160a01b03858116911614156109b357600081815260026020526040902060058101546007909101546109a69190612aa2565b6109b09083612a6a565b91505b806109bd81612b0d565b915050610954565b5092915050565b610a2b604051806101400160405280600081526020016060815260200160006001600160a01b03168152602001606081526020016060815260200160008152602001600081526020016000815260200160608152602001606081525090565b81600081118015610a3e57506000548111155b610a5a5760405162461bcd60e51b81526004016106ac90612792565b600260008481526020019081526020016000206040518061014001604052908160008201548152602001600182018054610a9390612ad8565b80601f0160208091040260200160405190810160405280929190818152602001828054610abf90612ad8565b8015610b0c5780601f10610ae157610100808354040283529160200191610b0c565b820191906000526020600020905b815481529060010190602001808311610aef57829003601f168201915b505050918352505060028201546001600160a01b03166020820152600382018054604090920191610b3c90612ad8565b80601f0160208091040260200160405190810160405280929190818152602001828054610b6890612ad8565b8015610bb55780601f10610b8a57610100808354040283529160200191610bb5565b820191906000526020600020905b815481529060010190602001808311610b9857829003601f168201915b50505050508152602001600482018054610bce90612ad8565b80601f0160208091040260200160405190810160405280929190818152602001828054610bfa90612ad8565b8015610c475780601f10610c1c57610100808354040283529160200191610c47565b820191906000526020600020905b815481529060010190602001808311610c2a57829003601f168201915b5050505050815260200160058201548152602001600682015481526020016007820154815260200160088201805480602002602001604051908101604052809291908181526020018280548015610cc757602002820191906000526020600020905b81546001600160a01b03168152600190910190602001808311610ca9575b5050505050815260200160098201805480602002602001604051908101604052809291908181526020018280548015610d1f57602002820191906000526020600020905b815481526020019060010190808311610d0b575b505050505081525050915050919050565b60606000805467ffffffffffffffff811115610d5c57634e487b7160e01b600052604160045260246000fd5b604051908082528060200260200182016040528015610d85578160200160208202803683370190505b50905060015b60005481116106775760008181526002602052604090205482610daf600184612ac1565b81518110610dcd57634e487b7160e01b600052603260045260246000fd5b602090810291909101015280610de281612b0d565b915050610d8b565b60606000805467ffffffffffffffff811115610e1657634e487b7160e01b600052604160045260246000fd5b604051908082528060200260200182016040528015610e3f578160200160208202803683370190505b509050600060015b6000548111610ed257600081815260026020819052604090912001546001600160a01b0386811691161415610ec0576000818152600260205260409020548351849084908110610ea757634e487b7160e01b600052603260045260246000fd5b602090810291909101015281610ebc81612b0d565b9250505b80610eca81612b0d565b915050610e47565b50909392505050565b60008060015b60005481116109c557600081815260026020819052604090912001546001600160a01b0385811691161415610f2f57600081815260026020526040902060060154610f2c9083612a6a565b91505b80610f3981612b0d565b915050610ee1565b60008060015b60015481116109c5576000818152600360205260409020600201546001600160a01b0385811691161415610fa55760008181526003602052604090206005810154600790910154610f989190612aa2565b610fa29083612a6a565b91505b80610faf81612b0d565b915050610f47565b80600081118015610fca57506000548111155b610fe65760405162461bcd60e51b81526004016106ac90612792565b600082815260026020526040902060058101543410156110595760405162461bcd60e51b815260206004820152602860248201527f496e73756666696369656e74207061796d656e7420746f2073747265616d2074604482015267686520747261636b60c01b60648201526084016106ac565b60006111168260050154836008018054806020026020016040519081016040528092919081815260200182805480156110bb57602002820191906000526020600020905b81546001600160a01b0316815260019091019060200180831161109d575b5050505050846009018054806020026020016040519081016040528092919081815260200182805480156107dd57602002820191906000526020600020908154815260200190600101908083116107c957505050505061209f565b9050600081836005015461112a9190612ac1565b600684018054919250600061113e83612b0d565b909155505060028301546001600160a01b03166000908152600660205260408120805483929061116f908490612a6a565b9250508190555061122d836008018054806020026020016040519081016040528092919081815260200182805480156111d157602002820191906000526020600020905b81546001600160a01b031681526001909101906020018083116111b3575b5050505050846009018054806020026020016040519081016040528092919081815260200182805480156108f557602002820191906000526020600020908154815260200190600101908083116108e157505050505084612113565b600583015460408051878152336020820152908101919091527fa8ff0760db1bd134bec00c7f599e3d73ad185cfc7dd4c313b1ccfc4bd95947379060600161093f565b8660008111801561128357506000548111155b61129f5760405162461bcd60e51b81526004016106ac90612792565b866000811180156112b257506001548111155b6112ce5760405162461bcd60e51b81526004016106ac90612764565b600088815260036020908152604080832060088101805460018181018355918652848620018e90558d855260028452919093208a51909261131592840191908c0190612248565b50875161132b90600383019060208b0190612248565b50865161134190600483019060208a0190612248565b5060068101959095555050506007909101555050505050565b8060008111801561136d57506000548111155b6113895760405162461bcd60e51b81526004016106ac90612792565b600082815260026020526040902060058101543410156113fe5760405162461bcd60e51b815260206004820152602a60248201527f496e73756666696369656e74207061796d656e7420746f2070757263686173656044820152692074686520747261636b60b01b60648201526084016106ac565b60006114b98260050154836008018054806020026020016040519081016040528092919081815260200182805480156110bb576020028201919060005260206000209081546001600160a01b0316815260019091019060200180831161109d575050505050846009018054806020026020016040519081016040528092919081815260200182805480156107dd57602002820191906000526020600020908154815260200190600101908083116107c957505050505061209f565b905060008183600501546114cd9190612ac1565b60078401805491925060006114e183612b0d565b909155505060028301546001600160a01b031660009081526006602052604081208054839290611512908490612a6a565b925050819055506115ce836008018054806020026020016040519081016040528092919081815260200182805480156111d1576020028201919060005260206000209081546001600160a01b031681526001909101906020018083116111b3575050505050846009018054806020026020016040519081016040528092919081815260200182805480156108f557602002820191906000526020600020908154815260200190600101908083116108e157505050505084612113565b33600081815260046020908152604080832080546001810182559084529190922001879055600585015490517ffe3f9af2d0ba5be4687ca774df8206ec9cf7919bcf32bd9c76b051e5dfbbb5b49261093f928983526001600160a01b03919091166020830152604082015260600190565b6001600160a01b03811660009081526004602090815260409182902080548351818402810184019094528084526060939283018282801561041057602002820191906000526020600020908154815260200190600101908083116103fc5750505050509050919050565b60008060015b60015481116109c5576000818152600360205260409020600201546001600160a01b03858116911614156116fc576000818152600360205260409020600601546116f99083612a6a565b91505b8061170681612b0d565b9150506116af565b6001805490600061171e83612b0d565b91905055506040518061016001604052806001548152602001888152602001876001600160a01b031681526020018681526020018581526020018481526020016000815260200160008152602001600067ffffffffffffffff81111561179457634e487b7160e01b600052604160045260246000fd5b6040519080825280602002602001820160405280156117bd578160200160208202803683370190505b5081526020808201859052604091820184905260018054600090815260038352929092208351815583820151805191936117fd9390850192910190612248565b5060408201516002820180546001600160a01b0319166001600160a01b039092169190911790556060820151805161183f916003840191602090910190612248565b506080820151805161185b916004840191602090910190612248565b5060a0820151600582015560c0820151600682015560e082015160078201556101008201518051611896916008840191602090910190612321565b5061012082015180516118b39160098401916020909101906122cc565b5061014082015180516118d091600a840191602090910190612321565b509050507fd78b5503298a5ec3a0c38871277d16caaede28506de5344aee4a623eebf34ed8600154888888888888886040516105ab989796959493929190612987565b611979604051806101600160405280600081526020016060815260200160006001600160a01b0316815260200160608152602001606081526020016000815260200160008152602001600081526020016060815260200160608152602001606081525090565b8160008111801561198c57506001548111155b6119a85760405162461bcd60e51b81526004016106ac90612764565b6003600084815260200190815260200160002060405180610160016040529081600082015481526020016001820180546119e190612ad8565b80601f0160208091040260200160405190810160405280929190818152602001828054611a0d90612ad8565b8015611a5a5780601f10611a2f57610100808354040283529160200191611a5a565b820191906000526020600020905b815481529060010190602001808311611a3d57829003601f168201915b505050918352505060028201546001600160a01b03166020820152600382018054604090920191611a8a90612ad8565b80601f0160208091040260200160405190810160405280929190818152602001828054611ab690612ad8565b8015611b035780601f10611ad857610100808354040283529160200191611b03565b820191906000526020600020905b815481529060010190602001808311611ae657829003601f168201915b50505050508152602001600482018054611b1c90612ad8565b80601f0160208091040260200160405190810160405280929190818152602001828054611b4890612ad8565b8015611b955780601f10611b6a57610100808354040283529160200191611b95565b820191906000526020600020905b815481529060010190602001808311611b7857829003601f168201915b5050505050815260200160058201548152602001600682015481526020016007820154815260200160088201805480602002602001604051908101604052809291908181526020018280548015611c0b57602002820191906000526020600020905b815481526020019060010190808311611bf7575b5050505050815260200160098201805480602002602001604051908101604052809291908181526020018280548015611c6d57602002820191906000526020600020905b81546001600160a01b03168152600190910190602001808311611c4f575b50505050508152602001600a8201805480602002602001604051908101604052809291908181526020018280548015610d1f5760200282019190600052602060002090815481526020019060010190808311610d0b57505050505081525050915050919050565b80600081118015611ce757506001548111155b611d035760405162461bcd60e51b81526004016106ac90612764565b60008281526003602052604090206005810154341015611d785760405162461bcd60e51b815260206004820152602a60248201527f496e73756666696369656e74207061796d656e7420746f2070757263686173656044820152692074686520616c62756d60b01b60648201526084016106ac565b6000611e3382600501548360090180548060200260200160405190810160405280929190818152602001828054801561078a576020028201919060005260206000209081546001600160a01b0316815260019091019060200180831161076c57505050505084600a018054806020026020016040519081016040528092919081815260200182805480156107dd57602002820191906000526020600020908154815260200190600101908083116107c957505050505061209f565b90506000818360050154611e479190612ac1565b6007840180549192506000611e5b83612b0d565b909155505060028301546001600160a01b031660009081526006602052604081208054839290611e8c908490612a6a565b92505081905550611f48836009018054806020026020016040519081016040528092919081815260200182805480156108a2576020028201919060005260206000209081546001600160a01b0316815260019091019060200180831161088457505050505084600a018054806020026020016040519081016040528092919081815260200182805480156108f557602002820191906000526020600020908154815260200190600101908083116108e157505050505084612113565b3360008181526005602081815260408084208054600181018255908552919093200188905585015490517f11332ef3956cea4003185b2a4db8407e3e5662fe799887282e178f18726ecc9b9261093f928983526001600160a01b03919091166020830152604082015260600190565b6060600060015467ffffffffffffffff811115611fe457634e487b7160e01b600052604160045260246000fd5b60405190808252806020026020018201604052801561200d578160200160208202803683370190505b509050600060015b6001548111610ed2576000818152600360205260409020600201546001600160a01b038681169116141561208d57600081815260036020526040902054835184908490811061207457634e487b7160e01b600052603260045260246000fd5b60209081029190910101528161208981612b0d565b9250505b8061209781612b0d565b915050612015565b600080805b845181101561210a5760648482815181106120cf57634e487b7160e01b600052603260045260246000fd5b6020026020010151876120e29190612aa2565b6120ec9190612a82565b6120f69083612a6a565b91508061210281612b0d565b9150506120a4565b50949350505050565b815183511461217a5760405162461bcd60e51b815260206004820152602d60248201527f4f776e65727320616e642070657263656e746167657320617272617973206c6560448201526c0dccee8d040dad2e6dac2e8c6d609b1b60648201526084016106ac565b60005b83518110156122425760008482815181106121a857634e487b7160e01b600052603260045260246000fd5b60200260200101519050600060648584815181106121d657634e487b7160e01b600052603260045260246000fd5b6020026020010151856121e99190612aa2565b6121f39190612a82565b6040519091506001600160a01b0383169082156108fc029083906000818181858888f1935050505015801561222c573d6000803e3d6000fd5b505050808061223a90612b0d565b91505061217d565b50505050565b82805461225490612ad8565b90600052602060002090601f01602090048101928261227657600085556122bc565b82601f1061228f57805160ff19168380011785556122bc565b828001600101855582156122bc579182015b828111156122bc5782518255916020019190600101906122a1565b506122c892915061235b565b5090565b8280548282559060005260206000209081019282156122bc579160200282015b828111156122bc57825182546001600160a01b0319166001600160a01b039091161782556020909201916001909101906122ec565b8280548282559060005260206000209081019282156122bc57916020028201828111156122bc5782518255916020019190600101906122a1565b5b808211156122c8576000815560010161235c565b80356001600160a01b038116811461238757600080fd5b919050565b600082601f83011261239c578081fd5b813560206123b16123ac83612a46565b612a15565b80838252828201915082860187848660051b89010111156123d0578586fd5b855b858110156123f5576123e382612370565b845292840192908401906001016123d2565b5090979650505050505050565b600082601f830112612412578081fd5b813560206124226123ac83612a46565b80838252828201915082860187848660051b8901011115612441578586fd5b855b858110156123f557813584529284019290840190600101612443565b600082601f83011261246f578081fd5b813567ffffffffffffffff81111561248957612489612b3e565b61249c601f8201601f1916602001612a15565b8181528460208386010111156124b0578283fd5b816020850160208301379081016020019190915292915050565b6000602082840312156124db578081fd5b6124e482612370565b9392505050565b600080600080600080600060e0888a031215612505578283fd5b873567ffffffffffffffff8082111561251c578485fd5b6125288b838c0161245f565b985061253660208b01612370565b975060408a013591508082111561254b578485fd5b6125578b838c0161245f565b965060608a013591508082111561256c578485fd5b6125788b838c0161245f565b955060808a0135945060a08a0135915080821115612594578384fd5b6125a08b838c0161238c565b935060c08a01359150808211156125b5578283fd5b506125c28a828b01612402565b91505092959891949750929550565b6000602082840312156125e2578081fd5b5035919050565b600080600080600080600060e0888a031215612603578283fd5b8735965060208801359550604088013567ffffffffffffffff80821115612628578485fd5b6126348b838c0161245f565b965060608a0135915080821115612649578485fd5b6126558b838c0161245f565b955060808a013591508082111561266a578485fd5b506126778a828b0161245f565b93505060a0880135915060c0880135905092959891949750929550565b6000815180845260208085019450808401835b838110156126cc5781516001600160a01b0316875295820195908201906001016126a7565b509495945050505050565b6000815180845260208085019450808401835b838110156126cc578151875295820195908201906001016126ea565b60008151808452815b8181101561272b5760208185018101518683018201520161270f565b8181111561273c5782602083870101525b50601f01601f19169290920160200192915050565b6020815260006124e460208301846126d7565b602080825260149082015273105b189d5b48191bd95cc81b9bdd08195e1a5cdd60621b604082015260600190565b602080825260149082015273151c9858dac8191bd95cc81b9bdd08195e1a5cdd60621b604082015260600190565b6020815281516020820152600060208301516101608060408501526127e9610180850183612706565b9150604085015161280560608601826001600160a01b03169052565b506060850151601f19808685030160808701526128228483612706565b935060808701519150808685030160a087015261283f8483612706565b935060a087015160c087015260c087015160e087015260e0870151915061010082818801528088015192505061012081878603018188015261288185846126d7565b9450808801519250506101408187860301818801526128a08584612694565b9088015187820390920184880152935090506128bc83826126d7565b9695505050505050565b6020815281516020820152600060208301516101408060408501526128ef610160850183612706565b9150604085015161290b60608601826001600160a01b03169052565b506060850151601f19808685030160808701526129288483612706565b935060808701519150808685030160a08701526129458483612706565b935060a087015160c087015260c087015160e087015260e087015191506101008281880152808801519250506101208187860301818801526128a08584612694565b60006101008a83528060208401526129a18184018b612706565b6001600160a01b038a166040850152838103606085015290506129c48189612706565b905082810360808401526129d88188612706565b90508560a084015282810360c08401526129f28186612694565b905082810360e0840152612a0681856126d7565b9b9a5050505050505050505050565b604051601f8201601f1916810167ffffffffffffffff81118282101715612a3e57612a3e612b3e565b604052919050565b600067ffffffffffffffff821115612a6057612a60612b3e565b5060051b60200190565b60008219821115612a7d57612a7d612b28565b500190565b600082612a9d57634e487b7160e01b81526012600452602481fd5b500490565b6000816000190483118215151615612abc57612abc612b28565b500290565b600082821015612ad357612ad3612b28565b500390565b600181811c90821680612aec57607f821691505b6020821081141561067757634e487b7160e01b600052602260045260246000fd5b6000600019821415612b2157612b21612b28565b5060010190565b634e487b7160e01b600052601160045260246000fd5b634e487b7160e01b600052604160045260246000fdfea2646970667358221220ccec7aebaa90471213e11af61031b290f4fe15c059c58c8d357b8547e417d08c64736f6c63430008040033",
  "linkReferences": {},
  "deployedLinkReferences": {}
}