{
  "_format": "hh-sol-artifact-1",
  "contractName": "Deyplay",
  "sourceName": "contracts/Deyplay.sol",
  "abi": [
    {
      "anonymous": false,
      "inputs": [
        {
          "indexed": false,
          "internalType": "uint256",
          "name": "id",
          "type": "uint256"
        },
        {
          "indexed": false,
          "internalType": "string",
          "name": "title",
          "type": "string"
        },
        {
          "indexed": false,
          "internalType": "address",
          "name": "artist",
          "type": "address"
        },
        {
          "indexed": false,
          "internalType": "string",
          "name": "imageUrl",
          "type": "string"
        },
        {
          "indexed": false,
          "internalType": "string",
          "name": "description",
          "type": "string"
        },
        {
          "indexed": false,
          "internalType": "uint256",
          "name": "price",
          "type": "uint256"
        },
        {
          "indexed": false,
          "internalType": "address[]",
          "name": "royaltiesOwners",
          "type": "address[]"
        },
        {
          "indexed": false,
          "internalType": "uint256[]",
          "name": "royaltiesPercentages",
          "type": "uint256[]"
        }
      ],
      "name": "AlbumCreated",
      "type": "event"
    },
    {
      "anonymous": false,
      "inputs": [
        {
          "indexed": false,
          "internalType": "uint256",
          "name": "albumId",
          "type": "uint256"
        },
        {
          "indexed": false,
          "internalType": "address",
          "name": "buyer",
          "type": "address"
        },
        {
          "indexed": false,
          "internalType": "uint256",
          "name": "amount",
          "type": "uint256"
        }
      ],
      "name": "AlbumPurchased",
      "type": "event"
    },
    {
      "anonymous": false,
      "inputs": [
        {
          "indexed": false,
          "internalType": "uint256",
          "name": "albumId",
          "type": "uint256"
        },
        {
          "indexed": false,
          "internalType": "address",
          "name": "listener",
          "type": "address"
        },
        {
          "indexed": false,
          "internalType": "uint256",
          "name": "amount",
          "type": "uint256"
        }
      ],
      "name": "AlbumStreamed",
      "type": "event"
    },
    {
      "anonymous": false,
      "inputs": [
        {
          "indexed": false,
          "internalType": "uint256",
          "name": "id",
          "type": "uint256"
        },
        {
          "indexed": false,
          "internalType": "string",
          "name": "title",
          "type": "string"
        },
        {
          "indexed": false,
          "internalType": "address",
          "name": "artist",
          "type": "address"
        },
        {
          "indexed": false,
          "internalType": "string",
          "name": "imageUrl",
          "type": "string"
        },
        {
          "indexed": false,
          "internalType": "string",
          "name": "audioFile",
          "type": "string"
        },
        {
          "indexed": false,
          "internalType": "uint256",
          "name": "price",
          "type": "uint256"
        },
        {
          "indexed": false,
          "internalType": "address[]",
          "name": "royaltiesOwners",
          "type": "address[]"
        },
        {
          "indexed": false,
          "internalType": "uint256[]",
          "name": "royaltiesPercentages",
          "type": "uint256[]"
        }
      ],
      "name": "TrackCreated",
      "type": "event"
    },
    {
      "anonymous": false,
      "inputs": [
        {
          "indexed": false,
          "internalType": "uint256",
          "name": "trackId",
          "type": "uint256"
        },
        {
          "indexed": false,
          "internalType": "address",
          "name": "buyer",
          "type": "address"
        },
        {
          "indexed": false,
          "internalType": "uint256",
          "name": "amount",
          "type": "uint256"
        }
      ],
      "name": "TrackPurchased",
      "type": "event"
    },
    {
      "anonymous": false,
      "inputs": [
        {
          "indexed": false,
          "internalType": "uint256",
          "name": "trackId",
          "type": "uint256"
        },
        {
          "indexed": false,
          "internalType": "address",
          "name": "listener",
          "type": "address"
        },
        {
          "indexed": false,
          "internalType": "uint256",
          "name": "amount",
          "type": "uint256"
        }
      ],
      "name": "TrackStreamed",
      "type": "event"
    },
    {
      "inputs": [
        {
          "internalType": "string",
          "name": "_title",
          "type": "string"
        },
        {
          "internalType": "address",
          "name": "_artist",
          "type": "address"
        },
        {
          "internalType": "string",
          "name": "_imageUrl",
          "type": "string"
        },
        {
          "internalType": "string",
          "name": "_description",
          "type": "string"
        },
        {
          "internalType": "uint256",
          "name": "_price",
          "type": "uint256"
        },
        {
          "internalType": "uint256[]",
          "name": "_audioFiles",
          "type": "uint256[]"
        },
        {
          "internalType": "address[]",
          "name": "_royaltiesOwners",
          "type": "address[]"
        },
        {
          "internalType": "uint256[]",
          "name": "_royaltiesPercentages",
          "type": "uint256[]"
        }
      ],
      "name": "addAlbum",
      "outputs": [],
      "stateMutability": "nonpayable",
      "type": "function"
    },
    {
      "inputs": [
        {
          "internalType": "string",
          "name": "_title",
          "type": "string"
        },
        {
          "internalType": "address",
          "name": "_artist",
          "type": "address"
        },
        {
          "internalType": "string",
          "name": "_imageUrl",
          "type": "string"
        },
        {
          "internalType": "string",
          "name": "_audioFile",
          "type": "string"
        },
        {
          "internalType": "uint256",
          "name": "_price",
          "type": "uint256"
        },
        {
          "internalType": "address[]",
          "name": "_royaltiesOwners",
          "type": "address[]"
        },
        {
          "internalType": "uint256[]",
          "name": "_royaltiesPercentages",
          "type": "uint256[]"
        }
      ],
      "name": "addTrack",
      "outputs": [],
      "stateMutability": "nonpayable",
      "type": "function"
    },
    {
      "inputs": [
        {
          "internalType": "uint256",
          "name": "_trackId",
          "type": "uint256"
        },
        {
          "internalType": "uint256",
          "name": "_albumId",
          "type": "uint256"
        }
      ],
      "name": "addTrackToAlbum",
      "outputs": [],
      "stateMutability": "nonpayable",
      "type": "function"
    },
    {
      "inputs": [
        {
          "internalType": "address",
          "name": "_artist",
          "type": "address"
        }
      ],
      "name": "getArtistBalance",
      "outputs": [
        {
          "internalType": "uint256",
          "name": "",
          "type": "uint256"
        }
      ],
      "stateMutability": "view",
      "type": "function"
    },
    {
      "inputs": [
        {
          "internalType": "address",
          "name": "_artist",
          "type": "address"
        }
      ],
      "name": "getTotalAlbumAmount",
      "outputs": [
        {
          "internalType": "uint256",
          "name": "",
          "type": "uint256"
        }
      ],
      "stateMutability": "view",
      "type": "function"
    },
    {
      "inputs": [
        {
          "internalType": "address",
          "name": "_artist",
          "type": "address"
        }
      ],
      "name": "getTotalAlbumStreams",
      "outputs": [
        {
          "internalType": "uint256",
          "name": "",
          "type": "uint256"
        }
      ],
      "stateMutability": "view",
      "type": "function"
    },
    {
      "inputs": [
        {
          "internalType": "address",
          "name": "_artist",
          "type": "address"
        }
      ],
      "name": "getTotalTrackAmount",
      "outputs": [
        {
          "internalType": "uint256",
          "name": "",
          "type": "uint256"
        }
      ],
      "stateMutability": "view",
      "type": "function"
    },
    {
      "inputs": [
        {
          "internalType": "address",
          "name": "_artist",
          "type": "address"
        }
      ],
      "name": "getTotalTrackStreams",
      "outputs": [
        {
          "internalType": "uint256",
          "name": "",
          "type": "uint256"
        }
      ],
      "stateMutability": "view",
      "type": "function"
    },
    {
      "inputs": [
        {
          "internalType": "address",
          "name": "_user",
          "type": "address"
        }
      ],
      "name": "getUserPurchasedAlbums",
      "outputs": [
        {
          "internalType": "uint256[]",
          "name": "",
          "type": "uint256[]"
        }
      ],
      "stateMutability": "view",
      "type": "function"
    },
    {
      "inputs": [
        {
          "internalType": "address",
          "name": "_user",
          "type": "address"
        }
      ],
      "name": "getUserPurchasedTracks",
      "outputs": [
        {
          "internalType": "uint256[]",
          "name": "",
          "type": "uint256[]"
        }
      ],
      "stateMutability": "view",
      "type": "function"
    },
    {
      "inputs": [
        {
          "internalType": "address",
          "name": "_artist",
          "type": "address"
        }
      ],
      "name": "listAlbumsByArtist",
      "outputs": [
        {
          "internalType": "uint256[]",
          "name": "",
          "type": "uint256[]"
        }
      ],
      "stateMutability": "view",
      "type": "function"
    },
    {
      "inputs": [],
      "name": "listAllAlbums",
      "outputs": [
        {
          "internalType": "uint256[]",
          "name": "",
          "type": "uint256[]"
        }
      ],
      "stateMutability": "view",
      "type": "function"
    },
    {
      "inputs": [],
      "name": "listAllTracks",
      "outputs": [
        {
          "internalType": "uint256[]",
          "name": "",
          "type": "uint256[]"
        }
      ],
      "stateMutability": "view",
      "type": "function"
    },
    {
      "inputs": [
        {
          "internalType": "address",
          "name": "_artist",
          "type": "address"
        }
      ],
      "name": "listTracksByArtist",
      "outputs": [
        {
          "internalType": "uint256[]",
          "name": "",
          "type": "uint256[]"
        }
      ],
      "stateMutability": "view",
      "type": "function"
    },
    {
      "inputs": [
        {
          "internalType": "uint256",
          "name": "_albumId",
          "type": "uint256"
        }
      ],
      "name": "purchaseAlbum",
      "outputs": [],
      "stateMutability": "payable",
      "type": "function"
    },
    {
      "inputs": [
        {
          "internalType": "uint256",
          "name": "_trackId",
          "type": "uint256"
        }
      ],
      "name": "purchaseTrack",
      "outputs": [],
      "stateMutability": "payable",
      "type": "function"
    },
    {
      "inputs": [
        {
          "internalType": "uint256",
          "name": "_albumId",
          "type": "uint256"
        }
      ],
      "name": "streamAlbum",
      "outputs": [],
      "stateMutability": "payable",
      "type": "function"
    },
    {
      "inputs": [
        {
          "internalType": "uint256",
          "name": "_trackId",
          "type": "uint256"
        }
      ],
      "name": "streamTrack",
      "outputs": [],
      "stateMutability": "payable",
      "type": "function"
    }
  ],
  "bytecode": "0x608060405234801561001057600080fd5b50612265806100206000396000f3fe6080604052600436106101085760003560e01c8063784d8abb11610095578063acff110e11610064578063acff110e14610296578063c103351f146102b6578063ea981775146102d6578063efb78308146102e9578063f4ce0f861461030957600080fd5b8063784d8abb146102305780638d59f7e2146102505780638ef8b386146102705780639edc858c1461028357600080fd5b806340d1e240116100dc57806340d1e2401461019a5780635d0650b4146101ad5780636456b79a146101db5780636850a7e3146101f057806376dde21b1461021057600080fd5b806221991e1461010d5780631d29d5991461012f578063245d1558146101655780632cdfb61f14610185575b600080fd5b34801561011957600080fd5b5061012d610128366004611f24565b61033f565b005b34801561013b57600080fd5b5061014f61014a366004611cfb565b6103cc565b60405161015c9190611fca565b60405180910390f35b34801561017157600080fd5b5061012d610180366004611d1c565b610438565b34801561019157600080fd5b5061014f6105d8565b61012d6101a8366004611f0c565b610699565b3480156101b957600080fd5b506101cd6101c8366004611cfb565b610961565b60405190815260200161015c565b3480156101e757600080fd5b5061014f6109df565b3480156101fc57600080fd5b5061014f61020b366004611cfb565b610a99565b34801561021c57600080fd5b506101cd61022b366004611cfb565b610b8a565b34801561023c57600080fd5b5061012d61024b366004611e02565b610bf0565b34801561025c57600080fd5b506101cd61026b366004611cfb565b610e22565b61012d61027e366004611f0c565b610e98565b61012d610291366004611f0c565b611151565b3480156102a257600080fd5b5061014f6102b1366004611cfb565b611436565b3480156102c257600080fd5b506101cd6102d1366004611cfb565b6114a0565b61012d6102e4366004611f0c565b611505565b3480156102f557600080fd5b5061014f610304366004611cfb565b6117e8565b34801561031557600080fd5b506101cd610324366004611cfb565b6001600160a01b031660009081526006602052604090205490565b8160008111801561035257506000548111155b6103775760405162461bcd60e51b815260040161036e9061200b565b60405180910390fd5b8160008111801561038a57506001548111155b6103a65760405162461bcd60e51b815260040161036e90611fdd565b505060009081526003602090815260408220600801805460018101825590835291200155565b6001600160a01b03811660009081526005602090815260409182902080548351818402810184019094528084526060939283018282801561042c57602002820191906000526020600020905b815481526020019060010190808311610418575b50505050509050919050565b600080549080610447836121e8565b909155505060408051610140810182526000805480835260208084018c81526001600160a01b038c1685870152606085018b9052608085018a905260a0850189905260c0850184905260e085018490526101008501889052610120850187905291835260028152939091208251815590518051929391926104ce9260018501920190611a79565b5060408201516002820180546001600160a01b0319166001600160a01b0390921691909117905560608201518051610510916003840191602090910190611a79565b506080820151805161052c916004840191602090910190611a79565b5060a0820151600582015560c0820151600682015560e082015160078201556101008201518051610567916008840191602090910190611afd565b506101208201518051610584916009840191602090910190611b52565b509050507fbf2201dbf94a92f1d5a37c712b8d9b99e2a1e94a9ead3e3318c067b76569712a600054888888888888886040516105c7989796959493929190612039565b60405180910390a150505050505050565b6060600060015467ffffffffffffffff81111561060557634e487b7160e01b600052604160045260246000fd5b60405190808252806020026020018201604052801561062e578160200160208202803683370190505b50905060015b6001548111610693576000818152600360205260409020548261065860018461219c565b8151811061067657634e487b7160e01b600052603260045260246000fd5b60209081029190910101528061068b816121e8565b915050610634565b50919050565b806000811180156106ac57506001548111155b6106c85760405162461bcd60e51b815260040161036e90611fdd565b6000828152600360205260409020600581015434101561073b5760405162461bcd60e51b815260206004820152602860248201527f496e73756666696369656e74207061796d656e7420746f2073747265616d2074604482015267686520616c62756d60c01b606482015260840161036e565b60006107fa82600501548360090180548060200260200160405190810160405280929190818152602001828054801561079d57602002820191906000526020600020905b81546001600160a01b0316815260019091019060200180831161077f575b505050505084600a018054806020026020016040519081016040528092919081815260200182805480156107f057602002820191906000526020600020905b8154815260200190600101908083116107dc575b50505050506118d0565b9050600081836005015461080e919061219c565b6006840180549192506000610822836121e8565b909155505060028301546001600160a01b031660009081526006602052604081208054839290610853908490612145565b92505081905550610913836009018054806020026020016040519081016040528092919081815260200182805480156108b557602002820191906000526020600020905b81546001600160a01b03168152600190910190602001808311610897575b505050505084600a0180548060200260200160405190810160405280929190818152602001828054801561090857602002820191906000526020600020905b8154815260200190600101908083116108f4575b505050505084611944565b600583015460408051878152336020820152908101919091527f9895cbad8f9db9bfb55390deaa7dd85188e313b35ee7ee4748b41ae3b9a7936f906060015b60405180910390a15050505050565b60008060015b60005481116109d857600081815260026020819052604090912001546001600160a01b03858116911614156109c657600081815260026020526040902060058101546007909101546109b9919061217d565b6109c39083612145565b91505b806109d0816121e8565b915050610967565b5092915050565b60606000805467ffffffffffffffff811115610a0b57634e487b7160e01b600052604160045260246000fd5b604051908082528060200260200182016040528015610a34578160200160208202803683370190505b50905060015b60005481116106935760008181526002602052604090205482610a5e60018461219c565b81518110610a7c57634e487b7160e01b600052603260045260246000fd5b602090810291909101015280610a91816121e8565b915050610a3a565b60606000805467ffffffffffffffff811115610ac557634e487b7160e01b600052604160045260246000fd5b604051908082528060200260200182016040528015610aee578160200160208202803683370190505b509050600060015b6000548111610b8157600081815260026020819052604090912001546001600160a01b0386811691161415610b6f576000818152600260205260409020548351849084908110610b5657634e487b7160e01b600052603260045260246000fd5b602090810291909101015281610b6b816121e8565b9250505b80610b79816121e8565b915050610af6565b50909392505050565b60008060015b60005481116109d857600081815260026020819052604090912001546001600160a01b0385811691161415610bde57600081815260026020526040902060060154610bdb9083612145565b91505b80610be8816121e8565b915050610b90565b6000835111610c515760405162461bcd60e51b815260206004820152602760248201527f416c62756d206d7573742068617665206174206c65617374206f6e6520617564604482015266696f2066696c6560c81b606482015260840161036e565b60018054906000610c61836121e8565b91905055506040518061016001604052806001548152602001898152602001886001600160a01b03168152602001878152602001868152602001858152602001600081526020016000815260200184815260200183815260200182815250600360006001548152602001908152602001600020600082015181600001556020820151816001019080519060200190610cfa929190611a79565b5060408201516002820180546001600160a01b0319166001600160a01b0390921691909117905560608201518051610d3c916003840191602090910190611a79565b5060808201518051610d58916004840191602090910190611a79565b5060a0820151600582015560c0820151600682015560e082015160078201556101008201518051610d93916008840191602090910190611b52565b506101208201518051610db0916009840191602090910190611afd565b506101408201518051610dcd91600a840191602090910190611b52565b509050507fd78b5503298a5ec3a0c38871277d16caaede28506de5344aee4a623eebf34ed860015489898989898888604051610e10989796959493929190612039565b60405180910390a15050505050505050565b60008060015b60015481116109d8576000818152600360205260409020600201546001600160a01b0385811691161415610e865760008181526003602052604090206005810154600790910154610e79919061217d565b610e839083612145565b91505b80610e90816121e8565b915050610e28565b80600081118015610eab57506000548111155b610ec75760405162461bcd60e51b815260040161036e9061200b565b60008281526002602052604090206005810154341015610f3a5760405162461bcd60e51b815260206004820152602860248201527f496e73756666696369656e74207061796d656e7420746f2073747265616d2074604482015267686520747261636b60c01b606482015260840161036e565b6000610ff7826005015483600801805480602002602001604051908101604052809291908181526020018280548015610f9c57602002820191906000526020600020905b81546001600160a01b03168152600190910190602001808311610f7e575b5050505050846009018054806020026020016040519081016040528092919081815260200182805480156107f057602002820191906000526020600020908154815260200190600101908083116107dc5750505050506118d0565b9050600081836005015461100b919061219c565b600684018054919250600061101f836121e8565b909155505060028301546001600160a01b031660009081526006602052604081208054839290611050908490612145565b9250508190555061110e836008018054806020026020016040519081016040528092919081815260200182805480156110b257602002820191906000526020600020905b81546001600160a01b03168152600190910190602001808311611094575b50505050508460090180548060200260200160405190810160405280929190818152602001828054801561090857602002820191906000526020600020908154815260200190600101908083116108f457505050505084611944565b600583015460408051878152336020820152908101919091527fa8ff0760db1bd134bec00c7f599e3d73ad185cfc7dd4c313b1ccfc4bd959473790606001610952565b8060008111801561116457506000548111155b6111805760405162461bcd60e51b815260040161036e9061200b565b600082815260026020526040902060058101543410156111f55760405162461bcd60e51b815260206004820152602a60248201527f496e73756666696369656e74207061796d656e7420746f2070757263686173656044820152692074686520747261636b60b01b606482015260840161036e565b60006112b0826005015483600801805480602002602001604051908101604052809291908181526020018280548015610f9c576020028201919060005260206000209081546001600160a01b03168152600190910190602001808311610f7e575050505050846009018054806020026020016040519081016040528092919081815260200182805480156107f057602002820191906000526020600020908154815260200190600101908083116107dc5750505050506118d0565b905060008183600501546112c4919061219c565b60078401805491925060006112d8836121e8565b909155505060028301546001600160a01b031660009081526006602052604081208054839290611309908490612145565b925050819055506113c5836008018054806020026020016040519081016040528092919081815260200182805480156110b2576020028201919060005260206000209081546001600160a01b031681526001909101906020018083116110945750505050508460090180548060200260200160405190810160405280929190818152602001828054801561090857602002820191906000526020600020908154815260200190600101908083116108f457505050505084611944565b33600081815260046020908152604080832080546001810182559084529190922001879055600585015490517ffe3f9af2d0ba5be4687ca774df8206ec9cf7919bcf32bd9c76b051e5dfbbb5b492610952928983526001600160a01b03919091166020830152604082015260600190565b6001600160a01b03811660009081526004602090815260409182902080548351818402810184019094528084526060939283018282801561042c57602002820191906000526020600020908154815260200190600101908083116104185750505050509050919050565b60008060015b60015481116109d8576000818152600360205260409020600201546001600160a01b03858116911614156114f3576000818152600360205260409020600601546114f09083612145565b91505b806114fd816121e8565b9150506114a6565b8060008111801561151857506001548111155b6115345760405162461bcd60e51b815260040161036e90611fdd565b600082815260036020526040902060058101543410156115a95760405162461bcd60e51b815260206004820152602a60248201527f496e73756666696369656e74207061796d656e7420746f2070757263686173656044820152692074686520616c62756d60b01b606482015260840161036e565b600061166482600501548360090180548060200260200160405190810160405280929190818152602001828054801561079d576020028201919060005260206000209081546001600160a01b0316815260019091019060200180831161077f57505050505084600a018054806020026020016040519081016040528092919081815260200182805480156107f057602002820191906000526020600020908154815260200190600101908083116107dc5750505050506118d0565b90506000818360050154611678919061219c565b600784018054919250600061168c836121e8565b909155505060028301546001600160a01b0316600090815260066020526040812080548392906116bd908490612145565b92505081905550611779836009018054806020026020016040519081016040528092919081815260200182805480156108b5576020028201919060005260206000209081546001600160a01b0316815260019091019060200180831161089757505050505084600a0180548060200260200160405190810160405280929190818152602001828054801561090857602002820191906000526020600020908154815260200190600101908083116108f457505050505084611944565b3360008181526005602081815260408084208054600181018255908552919093200188905585015490517f11332ef3956cea4003185b2a4db8407e3e5662fe799887282e178f18726ecc9b92610952928983526001600160a01b03919091166020830152604082015260600190565b6060600060015467ffffffffffffffff81111561181557634e487b7160e01b600052604160045260246000fd5b60405190808252806020026020018201604052801561183e578160200160208202803683370190505b509050600060015b6001548111610b81576000818152600360205260409020600201546001600160a01b03868116911614156118be5760008181526003602052604090205483518490849081106118a557634e487b7160e01b600052603260045260246000fd5b6020908102919091010152816118ba816121e8565b9250505b806118c8816121e8565b915050611846565b600080805b845181101561193b57606484828151811061190057634e487b7160e01b600052603260045260246000fd5b602002602001015187611913919061217d565b61191d919061215d565b6119279083612145565b915080611933816121e8565b9150506118d5565b50949350505050565b81518351146119ab5760405162461bcd60e51b815260206004820152602d60248201527f4f776e65727320616e642070657263656e746167657320617272617973206c6560448201526c0dccee8d040dad2e6dac2e8c6d609b1b606482015260840161036e565b60005b8351811015611a735760008482815181106119d957634e487b7160e01b600052603260045260246000fd5b6020026020010151905060006064858481518110611a0757634e487b7160e01b600052603260045260246000fd5b602002602001015185611a1a919061217d565b611a24919061215d565b6040519091506001600160a01b0383169082156108fc029083906000818181858888f19350505050158015611a5d573d6000803e3d6000fd5b5050508080611a6b906121e8565b9150506119ae565b50505050565b828054611a85906121b3565b90600052602060002090601f016020900481019282611aa75760008555611aed565b82601f10611ac057805160ff1916838001178555611aed565b82800160010185558215611aed579182015b82811115611aed578251825591602001919060010190611ad2565b50611af9929150611b8c565b5090565b828054828255906000526020600020908101928215611aed579160200282015b82811115611aed57825182546001600160a01b0319166001600160a01b03909116178255602090920191600190910190611b1d565b828054828255906000526020600020908101928215611aed5791602002820182811115611aed578251825591602001919060010190611ad2565b5b80821115611af95760008155600101611b8d565b80356001600160a01b0381168114611bb857600080fd5b919050565b600082601f830112611bcd578081fd5b81356020611be2611bdd83612121565b6120f0565b80838252828201915082860187848660051b8901011115611c01578586fd5b855b85811015611c2657611c1482611ba1565b84529284019290840190600101611c03565b5090979650505050505050565b600082601f830112611c43578081fd5b81356020611c53611bdd83612121565b80838252828201915082860187848660051b8901011115611c72578586fd5b855b85811015611c2657813584529284019290840190600101611c74565b600082601f830112611ca0578081fd5b813567ffffffffffffffff811115611cba57611cba612219565b611ccd601f8201601f19166020016120f0565b818152846020838601011115611ce1578283fd5b816020850160208301379081016020019190915292915050565b600060208284031215611d0c578081fd5b611d1582611ba1565b9392505050565b600080600080600080600060e0888a031215611d36578283fd5b873567ffffffffffffffff80821115611d4d578485fd5b611d598b838c01611c90565b9850611d6760208b01611ba1565b975060408a0135915080821115611d7c578485fd5b611d888b838c01611c90565b965060608a0135915080821115611d9d578485fd5b611da98b838c01611c90565b955060808a0135945060a08a0135915080821115611dc5578384fd5b611dd18b838c01611bbd565b935060c08a0135915080821115611de6578283fd5b50611df38a828b01611c33565b91505092959891949750929550565b600080600080600080600080610100898b031215611e1e578081fd5b883567ffffffffffffffff80821115611e35578283fd5b611e418c838d01611c90565b9950611e4f60208c01611ba1565b985060408b0135915080821115611e64578283fd5b611e708c838d01611c90565b975060608b0135915080821115611e85578283fd5b611e918c838d01611c90565b965060808b0135955060a08b0135915080821115611ead578283fd5b611eb98c838d01611c33565b945060c08b0135915080821115611ece578283fd5b611eda8c838d01611bbd565b935060e08b0135915080821115611eef578283fd5b50611efc8b828c01611c33565b9150509295985092959890939650565b600060208284031215611f1d578081fd5b5035919050565b60008060408385031215611f36578182fd5b50508035926020909101359150565b6000815180845260208085019450808401835b83811015611f7457815187529582019590820190600101611f58565b509495945050505050565b60008151808452815b81811015611fa457602081850181015186830182015201611f88565b81811115611fb55782602083870101525b50601f01601f19169290920160200192915050565b602081526000611d156020830184611f45565b602080825260149082015273105b189d5b48191bd95cc81b9bdd08195e1a5cdd60621b604082015260600190565b602080825260149082015273151c9858dac8191bd95cc81b9bdd08195e1a5cdd60621b604082015260600190565b60006101008a8352602081818501526120548285018c611f7f565b6001600160a01b038b811660408701528582036060870152909250612079838b611f7f565b9250848303608086015261208d838a611f7f565b60a0860189905285810360c08701528751808252838901945090830190855b818110156120ca5785518416835294840194918401916001016120ac565b505085810360e08701526120de8188611f45565b9e9d5050505050505050505050505050565b604051601f8201601f1916810167ffffffffffffffff8111828210171561211957612119612219565b604052919050565b600067ffffffffffffffff82111561213b5761213b612219565b5060051b60200190565b6000821982111561215857612158612203565b500190565b60008261217857634e487b7160e01b81526012600452602481fd5b500490565b600081600019048311821515161561219757612197612203565b500290565b6000828210156121ae576121ae612203565b500390565b600181811c908216806121c757607f821691505b6020821081141561069357634e487b7160e01b600052602260045260246000fd5b60006000198214156121fc576121fc612203565b5060010190565b634e487b7160e01b600052601160045260246000fd5b634e487b7160e01b600052604160045260246000fdfea2646970667358221220d71d098787c021ecb8be845b2d3ffd4c73fa9274e463d5fe2b4dcfa5f750240e64736f6c63430008040033",
  "linkReferences": {},
  "deployedLinkReferences": {}
}