{
  "_format": "hh-sol-artifact-1",
  "contractName": "Deyplay",
  "sourceName": "contracts/Deyplay.sol",
  "abi": [
    {
      "anonymous": false,
      "inputs": [
        {
          "indexed": false,
          "internalType": "uint256",
          "name": "id",
          "type": "uint256"
        },
        {
          "indexed": false,
          "internalType": "string",
          "name": "title",
          "type": "string"
        },
        {
          "indexed": false,
          "internalType": "address",
          "name": "artist",
          "type": "address"
        },
        {
          "indexed": false,
          "internalType": "string",
          "name": "imageUrl",
          "type": "string"
        },
        {
          "indexed": false,
          "internalType": "string",
          "name": "description",
          "type": "string"
        },
        {
          "indexed": false,
          "internalType": "uint256",
          "name": "price",
          "type": "uint256"
        },
        {
          "indexed": false,
          "internalType": "address[]",
          "name": "royaltiesOwners",
          "type": "address[]"
        },
        {
          "indexed": false,
          "internalType": "uint256[]",
          "name": "royaltiesPercentages",
          "type": "uint256[]"
        }
      ],
      "name": "AlbumCreated",
      "type": "event"
    },
    {
      "anonymous": false,
      "inputs": [
        {
          "indexed": false,
          "internalType": "uint256",
          "name": "albumId",
          "type": "uint256"
        },
        {
          "indexed": false,
          "internalType": "address",
          "name": "buyer",
          "type": "address"
        },
        {
          "indexed": false,
          "internalType": "uint256",
          "name": "amount",
          "type": "uint256"
        }
      ],
      "name": "AlbumPurchased",
      "type": "event"
    },
    {
      "anonymous": false,
      "inputs": [
        {
          "indexed": false,
          "internalType": "uint256",
          "name": "albumId",
          "type": "uint256"
        },
        {
          "indexed": false,
          "internalType": "address",
          "name": "listener",
          "type": "address"
        },
        {
          "indexed": false,
          "internalType": "uint256",
          "name": "amount",
          "type": "uint256"
        }
      ],
      "name": "AlbumStreamed",
      "type": "event"
    },
    {
      "anonymous": false,
      "inputs": [
        {
          "indexed": false,
          "internalType": "uint256",
          "name": "id",
          "type": "uint256"
        },
        {
          "indexed": false,
          "internalType": "string",
          "name": "title",
          "type": "string"
        },
        {
          "indexed": false,
          "internalType": "address",
          "name": "artist",
          "type": "address"
        },
        {
          "indexed": false,
          "internalType": "string",
          "name": "imageUrl",
          "type": "string"
        },
        {
          "indexed": false,
          "internalType": "string",
          "name": "audioFile",
          "type": "string"
        },
        {
          "indexed": false,
          "internalType": "uint256",
          "name": "price",
          "type": "uint256"
        },
        {
          "indexed": false,
          "internalType": "address[]",
          "name": "royaltiesOwners",
          "type": "address[]"
        },
        {
          "indexed": false,
          "internalType": "uint256[]",
          "name": "royaltiesPercentages",
          "type": "uint256[]"
        }
      ],
      "name": "TrackCreated",
      "type": "event"
    },
    {
      "anonymous": false,
      "inputs": [
        {
          "indexed": false,
          "internalType": "uint256",
          "name": "trackId",
          "type": "uint256"
        },
        {
          "indexed": false,
          "internalType": "address",
          "name": "buyer",
          "type": "address"
        },
        {
          "indexed": false,
          "internalType": "uint256",
          "name": "amount",
          "type": "uint256"
        }
      ],
      "name": "TrackPurchased",
      "type": "event"
    },
    {
      "anonymous": false,
      "inputs": [
        {
          "indexed": false,
          "internalType": "uint256",
          "name": "trackId",
          "type": "uint256"
        },
        {
          "indexed": false,
          "internalType": "address",
          "name": "listener",
          "type": "address"
        },
        {
          "indexed": false,
          "internalType": "uint256",
          "name": "amount",
          "type": "uint256"
        }
      ],
      "name": "TrackStreamed",
      "type": "event"
    },
    {
      "inputs": [
        {
          "internalType": "string",
          "name": "_title",
          "type": "string"
        },
        {
          "internalType": "address",
          "name": "_artist",
          "type": "address"
        },
        {
          "internalType": "string",
          "name": "_imageUrl",
          "type": "string"
        },
        {
          "internalType": "string",
          "name": "_description",
          "type": "string"
        },
        {
          "internalType": "uint256",
          "name": "_price",
          "type": "uint256"
        },
        {
          "internalType": "address[]",
          "name": "_royaltiesOwners",
          "type": "address[]"
        },
        {
          "internalType": "uint256[]",
          "name": "_royaltiesPercentages",
          "type": "uint256[]"
        }
      ],
      "name": "addAlbum",
      "outputs": [],
      "stateMutability": "nonpayable",
      "type": "function"
    },
    {
      "inputs": [
        {
          "internalType": "string",
          "name": "_title",
          "type": "string"
        },
        {
          "internalType": "address",
          "name": "_artist",
          "type": "address"
        },
        {
          "internalType": "string",
          "name": "_imageUrl",
          "type": "string"
        },
        {
          "internalType": "string",
          "name": "_audioFile",
          "type": "string"
        },
        {
          "internalType": "uint256",
          "name": "_price",
          "type": "uint256"
        },
        {
          "internalType": "address[]",
          "name": "_royaltiesOwners",
          "type": "address[]"
        },
        {
          "internalType": "uint256[]",
          "name": "_royaltiesPercentages",
          "type": "uint256[]"
        }
      ],
      "name": "addTrack",
      "outputs": [],
      "stateMutability": "nonpayable",
      "type": "function"
    },
    {
      "inputs": [
        {
          "internalType": "uint256",
          "name": "_trackId",
          "type": "uint256"
        },
        {
          "internalType": "uint256",
          "name": "_albumId",
          "type": "uint256"
        }
      ],
      "name": "addTrackToAlbum",
      "outputs": [],
      "stateMutability": "nonpayable",
      "type": "function"
    },
    {
      "inputs": [
        {
          "internalType": "address",
          "name": "_artist",
          "type": "address"
        }
      ],
      "name": "getArtistBalance",
      "outputs": [
        {
          "internalType": "uint256",
          "name": "",
          "type": "uint256"
        }
      ],
      "stateMutability": "view",
      "type": "function"
    },
    {
      "inputs": [
        {
          "internalType": "address",
          "name": "_artist",
          "type": "address"
        }
      ],
      "name": "getTotalAlbumAmount",
      "outputs": [
        {
          "internalType": "uint256",
          "name": "",
          "type": "uint256"
        }
      ],
      "stateMutability": "view",
      "type": "function"
    },
    {
      "inputs": [
        {
          "internalType": "address",
          "name": "_artist",
          "type": "address"
        }
      ],
      "name": "getTotalAlbumStreams",
      "outputs": [
        {
          "internalType": "uint256",
          "name": "",
          "type": "uint256"
        }
      ],
      "stateMutability": "view",
      "type": "function"
    },
    {
      "inputs": [
        {
          "internalType": "address",
          "name": "_artist",
          "type": "address"
        }
      ],
      "name": "getTotalTrackAmount",
      "outputs": [
        {
          "internalType": "uint256",
          "name": "",
          "type": "uint256"
        }
      ],
      "stateMutability": "view",
      "type": "function"
    },
    {
      "inputs": [
        {
          "internalType": "address",
          "name": "_artist",
          "type": "address"
        }
      ],
      "name": "getTotalTrackStreams",
      "outputs": [
        {
          "internalType": "uint256",
          "name": "",
          "type": "uint256"
        }
      ],
      "stateMutability": "view",
      "type": "function"
    },
    {
      "inputs": [
        {
          "internalType": "address",
          "name": "_user",
          "type": "address"
        }
      ],
      "name": "getUserPurchasedAlbums",
      "outputs": [
        {
          "internalType": "uint256[]",
          "name": "",
          "type": "uint256[]"
        }
      ],
      "stateMutability": "view",
      "type": "function"
    },
    {
      "inputs": [
        {
          "internalType": "address",
          "name": "_user",
          "type": "address"
        }
      ],
      "name": "getUserPurchasedTracks",
      "outputs": [
        {
          "internalType": "uint256[]",
          "name": "",
          "type": "uint256[]"
        }
      ],
      "stateMutability": "view",
      "type": "function"
    },
    {
      "inputs": [
        {
          "internalType": "address",
          "name": "_artist",
          "type": "address"
        }
      ],
      "name": "listAlbumsByArtist",
      "outputs": [
        {
          "internalType": "uint256[]",
          "name": "",
          "type": "uint256[]"
        }
      ],
      "stateMutability": "view",
      "type": "function"
    },
    {
      "inputs": [],
      "name": "listAllAlbums",
      "outputs": [
        {
          "internalType": "uint256[]",
          "name": "",
          "type": "uint256[]"
        }
      ],
      "stateMutability": "view",
      "type": "function"
    },
    {
      "inputs": [],
      "name": "listAllTracks",
      "outputs": [
        {
          "internalType": "uint256[]",
          "name": "",
          "type": "uint256[]"
        }
      ],
      "stateMutability": "view",
      "type": "function"
    },
    {
      "inputs": [
        {
          "internalType": "address",
          "name": "_artist",
          "type": "address"
        }
      ],
      "name": "listTracksByArtist",
      "outputs": [
        {
          "internalType": "uint256[]",
          "name": "",
          "type": "uint256[]"
        }
      ],
      "stateMutability": "view",
      "type": "function"
    },
    {
      "inputs": [
        {
          "internalType": "uint256",
          "name": "_albumId",
          "type": "uint256"
        }
      ],
      "name": "purchaseAlbum",
      "outputs": [],
      "stateMutability": "payable",
      "type": "function"
    },
    {
      "inputs": [
        {
          "internalType": "uint256",
          "name": "_trackId",
          "type": "uint256"
        }
      ],
      "name": "purchaseTrack",
      "outputs": [],
      "stateMutability": "payable",
      "type": "function"
    },
    {
      "inputs": [
        {
          "internalType": "uint256",
          "name": "_albumId",
          "type": "uint256"
        }
      ],
      "name": "streamAlbum",
      "outputs": [],
      "stateMutability": "payable",
      "type": "function"
    },
    {
      "inputs": [
        {
          "internalType": "uint256",
          "name": "_trackId",
          "type": "uint256"
        }
      ],
      "name": "streamTrack",
      "outputs": [],
      "stateMutability": "payable",
      "type": "function"
    }
  ],
  "bytecode": "0x608060405234801561001057600080fd5b5061212e806100206000396000f3fe6080604052600436106101085760003560e01c80638d59f7e211610095578063c103351f11610064578063c103351f14610296578063d53f2baa146102b6578063ea981775146102d6578063efb78308146102e9578063f4ce0f861461030957600080fd5b80638d59f7e2146102305780638ef8b386146102505780639edc858c14610263578063acff110e1461027657600080fd5b806340d1e240116100dc57806340d1e2401461019a5780635d0650b4146101ad5780636456b79a146101db5780636850a7e3146101f057806376dde21b1461021057600080fd5b806221991e1461010d5780631d29d5991461012f578063245d1558146101655780632cdfb61f14610185575b600080fd5b34801561011957600080fd5b5061012d610128366004611ded565b61033f565b005b34801561013b57600080fd5b5061014f61014a366004611cce565b6103cc565b60405161015c9190611e93565b60405180910390f35b34801561017157600080fd5b5061012d610180366004611cef565b610438565b34801561019157600080fd5b5061014f6105d8565b61012d6101a8366004611dd5565b610699565b3480156101b957600080fd5b506101cd6101c8366004611cce565b610961565b60405190815260200161015c565b3480156101e757600080fd5b5061014f6109df565b3480156101fc57600080fd5b5061014f61020b366004611cce565b610a99565b34801561021c57600080fd5b506101cd61022b366004611cce565b610b8a565b34801561023c57600080fd5b506101cd61024b366004611cce565b610bf0565b61012d61025e366004611dd5565b610c66565b61012d610271366004611dd5565b610f1f565b34801561028257600080fd5b5061014f610291366004611cce565b611204565b3480156102a257600080fd5b506101cd6102b1366004611cce565b61126e565b3480156102c257600080fd5b5061012d6102d1366004611cef565b6112d3565b61012d6102e4366004611dd5565b6114d8565b3480156102f557600080fd5b5061014f610304366004611cce565b6117bb565b34801561031557600080fd5b506101cd610324366004611cce565b6001600160a01b031660009081526006602052604090205490565b8160008111801561035257506000548111155b6103775760405162461bcd60e51b815260040161036e90611ed4565b60405180910390fd5b8160008111801561038a57506001548111155b6103a65760405162461bcd60e51b815260040161036e90611ea6565b505060009081526003602090815260408220600801805460018101825590835291200155565b6001600160a01b03811660009081526005602090815260409182902080548351818402810184019094528084526060939283018282801561042c57602002820191906000526020600020905b815481526020019060010190808311610418575b50505050509050919050565b600080549080610447836120b1565b909155505060408051610140810182526000805480835260208084018c81526001600160a01b038c1685870152606085018b9052608085018a905260a0850189905260c0850184905260e085018490526101008501889052610120850187905291835260028152939091208251815590518051929391926104ce9260018501920190611a4c565b5060408201516002820180546001600160a01b0319166001600160a01b0390921691909117905560608201518051610510916003840191602090910190611a4c565b506080820151805161052c916004840191602090910190611a4c565b5060a0820151600582015560c0820151600682015560e082015160078201556101008201518051610567916008840191602090910190611ad0565b506101208201518051610584916009840191602090910190611b25565b509050507fbf2201dbf94a92f1d5a37c712b8d9b99e2a1e94a9ead3e3318c067b76569712a600054888888888888886040516105c7989796959493929190611f02565b60405180910390a150505050505050565b6060600060015467ffffffffffffffff81111561060557634e487b7160e01b600052604160045260246000fd5b60405190808252806020026020018201604052801561062e578160200160208202803683370190505b50905060015b60015481116106935760008181526003602052604090205482610658600184612065565b8151811061067657634e487b7160e01b600052603260045260246000fd5b60209081029190910101528061068b816120b1565b915050610634565b50919050565b806000811180156106ac57506001548111155b6106c85760405162461bcd60e51b815260040161036e90611ea6565b6000828152600360205260409020600581015434101561073b5760405162461bcd60e51b815260206004820152602860248201527f496e73756666696369656e74207061796d656e7420746f2073747265616d2074604482015267686520616c62756d60c01b606482015260840161036e565b60006107fa82600501548360090180548060200260200160405190810160405280929190818152602001828054801561079d57602002820191906000526020600020905b81546001600160a01b0316815260019091019060200180831161077f575b505050505084600a018054806020026020016040519081016040528092919081815260200182805480156107f057602002820191906000526020600020905b8154815260200190600101908083116107dc575b50505050506118a3565b9050600081836005015461080e9190612065565b6006840180549192506000610822836120b1565b909155505060028301546001600160a01b03166000908152600660205260408120805483929061085390849061200e565b92505081905550610913836009018054806020026020016040519081016040528092919081815260200182805480156108b557602002820191906000526020600020905b81546001600160a01b03168152600190910190602001808311610897575b505050505084600a0180548060200260200160405190810160405280929190818152602001828054801561090857602002820191906000526020600020905b8154815260200190600101908083116108f4575b505050505084611917565b600583015460408051878152336020820152908101919091527f9895cbad8f9db9bfb55390deaa7dd85188e313b35ee7ee4748b41ae3b9a7936f906060015b60405180910390a15050505050565b60008060015b60005481116109d857600081815260026020819052604090912001546001600160a01b03858116911614156109c657600081815260026020526040902060058101546007909101546109b99190612046565b6109c3908361200e565b91505b806109d0816120b1565b915050610967565b5092915050565b60606000805467ffffffffffffffff811115610a0b57634e487b7160e01b600052604160045260246000fd5b604051908082528060200260200182016040528015610a34578160200160208202803683370190505b50905060015b60005481116106935760008181526002602052604090205482610a5e600184612065565b81518110610a7c57634e487b7160e01b600052603260045260246000fd5b602090810291909101015280610a91816120b1565b915050610a3a565b60606000805467ffffffffffffffff811115610ac557634e487b7160e01b600052604160045260246000fd5b604051908082528060200260200182016040528015610aee578160200160208202803683370190505b509050600060015b6000548111610b8157600081815260026020819052604090912001546001600160a01b0386811691161415610b6f576000818152600260205260409020548351849084908110610b5657634e487b7160e01b600052603260045260246000fd5b602090810291909101015281610b6b816120b1565b9250505b80610b79816120b1565b915050610af6565b50909392505050565b60008060015b60005481116109d857600081815260026020819052604090912001546001600160a01b0385811691161415610bde57600081815260026020526040902060060154610bdb908361200e565b91505b80610be8816120b1565b915050610b90565b60008060015b60015481116109d8576000818152600360205260409020600201546001600160a01b0385811691161415610c545760008181526003602052604090206005810154600790910154610c479190612046565b610c51908361200e565b91505b80610c5e816120b1565b915050610bf6565b80600081118015610c7957506000548111155b610c955760405162461bcd60e51b815260040161036e90611ed4565b60008281526002602052604090206005810154341015610d085760405162461bcd60e51b815260206004820152602860248201527f496e73756666696369656e74207061796d656e7420746f2073747265616d2074604482015267686520747261636b60c01b606482015260840161036e565b6000610dc5826005015483600801805480602002602001604051908101604052809291908181526020018280548015610d6a57602002820191906000526020600020905b81546001600160a01b03168152600190910190602001808311610d4c575b5050505050846009018054806020026020016040519081016040528092919081815260200182805480156107f057602002820191906000526020600020908154815260200190600101908083116107dc5750505050506118a3565b90506000818360050154610dd99190612065565b6006840180549192506000610ded836120b1565b909155505060028301546001600160a01b031660009081526006602052604081208054839290610e1e90849061200e565b92505081905550610edc83600801805480602002602001604051908101604052809291908181526020018280548015610e8057602002820191906000526020600020905b81546001600160a01b03168152600190910190602001808311610e62575b50505050508460090180548060200260200160405190810160405280929190818152602001828054801561090857602002820191906000526020600020908154815260200190600101908083116108f457505050505084611917565b600583015460408051878152336020820152908101919091527fa8ff0760db1bd134bec00c7f599e3d73ad185cfc7dd4c313b1ccfc4bd959473790606001610952565b80600081118015610f3257506000548111155b610f4e5760405162461bcd60e51b815260040161036e90611ed4565b60008281526002602052604090206005810154341015610fc35760405162461bcd60e51b815260206004820152602a60248201527f496e73756666696369656e74207061796d656e7420746f2070757263686173656044820152692074686520747261636b60b01b606482015260840161036e565b600061107e826005015483600801805480602002602001604051908101604052809291908181526020018280548015610d6a576020028201919060005260206000209081546001600160a01b03168152600190910190602001808311610d4c575050505050846009018054806020026020016040519081016040528092919081815260200182805480156107f057602002820191906000526020600020908154815260200190600101908083116107dc5750505050506118a3565b905060008183600501546110929190612065565b60078401805491925060006110a6836120b1565b909155505060028301546001600160a01b0316600090815260066020526040812080548392906110d790849061200e565b9250508190555061119383600801805480602002602001604051908101604052809291908181526020018280548015610e80576020028201919060005260206000209081546001600160a01b03168152600190910190602001808311610e625750505050508460090180548060200260200160405190810160405280929190818152602001828054801561090857602002820191906000526020600020908154815260200190600101908083116108f457505050505084611917565b33600081815260046020908152604080832080546001810182559084529190922001879055600585015490517ffe3f9af2d0ba5be4687ca774df8206ec9cf7919bcf32bd9c76b051e5dfbbb5b492610952928983526001600160a01b03919091166020830152604082015260600190565b6001600160a01b03811660009081526004602090815260409182902080548351818402810184019094528084526060939283018282801561042c57602002820191906000526020600020908154815260200190600101908083116104185750505050509050919050565b60008060015b60015481116109d8576000818152600360205260409020600201546001600160a01b03858116911614156112c1576000818152600360205260409020600601546112be908361200e565b91505b806112cb816120b1565b915050611274565b600180549060006112e3836120b1565b91905055506040518061016001604052806001548152602001888152602001876001600160a01b031681526020018681526020018581526020018481526020016000815260200160008152602001600067ffffffffffffffff81111561135957634e487b7160e01b600052604160045260246000fd5b604051908082528060200260200182016040528015611382578160200160208202803683370190505b5081526020808201859052604091820184905260018054600090815260038352929092208351815583820151805191936113c29390850192910190611a4c565b5060408201516002820180546001600160a01b0319166001600160a01b0390921691909117905560608201518051611404916003840191602090910190611a4c565b5060808201518051611420916004840191602090910190611a4c565b5060a0820151600582015560c0820151600682015560e08201516007820155610100820151805161145b916008840191602090910190611b25565b506101208201518051611478916009840191602090910190611ad0565b50610140820151805161149591600a840191602090910190611b25565b509050507fd78b5503298a5ec3a0c38871277d16caaede28506de5344aee4a623eebf34ed8600154888888888888886040516105c7989796959493929190611f02565b806000811180156114eb57506001548111155b6115075760405162461bcd60e51b815260040161036e90611ea6565b6000828152600360205260409020600581015434101561157c5760405162461bcd60e51b815260206004820152602a60248201527f496e73756666696369656e74207061796d656e7420746f2070757263686173656044820152692074686520616c62756d60b01b606482015260840161036e565b600061163782600501548360090180548060200260200160405190810160405280929190818152602001828054801561079d576020028201919060005260206000209081546001600160a01b0316815260019091019060200180831161077f57505050505084600a018054806020026020016040519081016040528092919081815260200182805480156107f057602002820191906000526020600020908154815260200190600101908083116107dc5750505050506118a3565b9050600081836005015461164b9190612065565b600784018054919250600061165f836120b1565b909155505060028301546001600160a01b03166000908152600660205260408120805483929061169090849061200e565b9250508190555061174c836009018054806020026020016040519081016040528092919081815260200182805480156108b5576020028201919060005260206000209081546001600160a01b0316815260019091019060200180831161089757505050505084600a0180548060200260200160405190810160405280929190818152602001828054801561090857602002820191906000526020600020908154815260200190600101908083116108f457505050505084611917565b3360008181526005602081815260408084208054600181018255908552919093200188905585015490517f11332ef3956cea4003185b2a4db8407e3e5662fe799887282e178f18726ecc9b92610952928983526001600160a01b03919091166020830152604082015260600190565b6060600060015467ffffffffffffffff8111156117e857634e487b7160e01b600052604160045260246000fd5b604051908082528060200260200182016040528015611811578160200160208202803683370190505b509050600060015b6001548111610b81576000818152600360205260409020600201546001600160a01b038681169116141561189157600081815260036020526040902054835184908490811061187857634e487b7160e01b600052603260045260246000fd5b60209081029190910101528161188d816120b1565b9250505b8061189b816120b1565b915050611819565b600080805b845181101561190e5760648482815181106118d357634e487b7160e01b600052603260045260246000fd5b6020026020010151876118e69190612046565b6118f09190612026565b6118fa908361200e565b915080611906816120b1565b9150506118a8565b50949350505050565b815183511461197e5760405162461bcd60e51b815260206004820152602d60248201527f4f776e65727320616e642070657263656e746167657320617272617973206c6560448201526c0dccee8d040dad2e6dac2e8c6d609b1b606482015260840161036e565b60005b8351811015611a465760008482815181106119ac57634e487b7160e01b600052603260045260246000fd5b60200260200101519050600060648584815181106119da57634e487b7160e01b600052603260045260246000fd5b6020026020010151856119ed9190612046565b6119f79190612026565b6040519091506001600160a01b0383169082156108fc029083906000818181858888f19350505050158015611a30573d6000803e3d6000fd5b5050508080611a3e906120b1565b915050611981565b50505050565b828054611a589061207c565b90600052602060002090601f016020900481019282611a7a5760008555611ac0565b82601f10611a9357805160ff1916838001178555611ac0565b82800160010185558215611ac0579182015b82811115611ac0578251825591602001919060010190611aa5565b50611acc929150611b5f565b5090565b828054828255906000526020600020908101928215611ac0579160200282015b82811115611ac057825182546001600160a01b0319166001600160a01b03909116178255602090920191600190910190611af0565b828054828255906000526020600020908101928215611ac05791602002820182811115611ac0578251825591602001919060010190611aa5565b5b80821115611acc5760008155600101611b60565b80356001600160a01b0381168114611b8b57600080fd5b919050565b600082601f830112611ba0578081fd5b81356020611bb5611bb083611fea565b611fb9565b80838252828201915082860187848660051b8901011115611bd4578586fd5b855b85811015611bf957611be782611b74565b84529284019290840190600101611bd6565b5090979650505050505050565b600082601f830112611c16578081fd5b81356020611c26611bb083611fea565b80838252828201915082860187848660051b8901011115611c45578586fd5b855b85811015611bf957813584529284019290840190600101611c47565b600082601f830112611c73578081fd5b813567ffffffffffffffff811115611c8d57611c8d6120e2565b611ca0601f8201601f1916602001611fb9565b818152846020838601011115611cb4578283fd5b816020850160208301379081016020019190915292915050565b600060208284031215611cdf578081fd5b611ce882611b74565b9392505050565b600080600080600080600060e0888a031215611d09578283fd5b873567ffffffffffffffff80821115611d20578485fd5b611d2c8b838c01611c63565b9850611d3a60208b01611b74565b975060408a0135915080821115611d4f578485fd5b611d5b8b838c01611c63565b965060608a0135915080821115611d70578485fd5b611d7c8b838c01611c63565b955060808a0135945060a08a0135915080821115611d98578384fd5b611da48b838c01611b90565b935060c08a0135915080821115611db9578283fd5b50611dc68a828b01611c06565b91505092959891949750929550565b600060208284031215611de6578081fd5b5035919050565b60008060408385031215611dff578182fd5b50508035926020909101359150565b6000815180845260208085019450808401835b83811015611e3d57815187529582019590820190600101611e21565b509495945050505050565b60008151808452815b81811015611e6d57602081850181015186830182015201611e51565b81811115611e7e5782602083870101525b50601f01601f19169290920160200192915050565b602081526000611ce86020830184611e0e565b602080825260149082015273105b189d5b48191bd95cc81b9bdd08195e1a5cdd60621b604082015260600190565b602080825260149082015273151c9858dac8191bd95cc81b9bdd08195e1a5cdd60621b604082015260600190565b60006101008a835260208181850152611f1d8285018c611e48565b6001600160a01b038b811660408701528582036060870152909250611f42838b611e48565b92508483036080860152611f56838a611e48565b60a0860189905285810360c08701528751808252838901945090830190855b81811015611f93578551841683529484019491840191600101611f75565b505085810360e0870152611fa78188611e0e565b9e9d5050505050505050505050505050565b604051601f8201601f1916810167ffffffffffffffff81118282101715611fe257611fe26120e2565b604052919050565b600067ffffffffffffffff821115612004576120046120e2565b5060051b60200190565b60008219821115612021576120216120cc565b500190565b60008261204157634e487b7160e01b81526012600452602481fd5b500490565b6000816000190483118215151615612060576120606120cc565b500290565b600082821015612077576120776120cc565b500390565b600181811c9082168061209057607f821691505b6020821081141561069357634e487b7160e01b600052602260045260246000fd5b60006000198214156120c5576120c56120cc565b5060010190565b634e487b7160e01b600052601160045260246000fd5b634e487b7160e01b600052604160045260246000fdfea2646970667358221220cfa889a06ca63e29e41e79d84fa8febf8943571d613844b422c4ea0d9608611764736f6c63430008040033",
  "linkReferences": {},
  "deployedLinkReferences": {}
}