{
  "_format": "hh-sol-artifact-1",
  "contractName": "Deyplay",
  "sourceName": "contracts/Deyplay.sol",
  "abi": [
    {
      "anonymous": false,
      "inputs": [
        {
          "indexed": false,
          "internalType": "uint256",
          "name": "id",
          "type": "uint256"
        },
        {
          "indexed": false,
          "internalType": "string",
          "name": "title",
          "type": "string"
        },
        {
          "indexed": false,
          "internalType": "address",
          "name": "artist",
          "type": "address"
        },
        {
          "indexed": false,
          "internalType": "string",
          "name": "imageUrl",
          "type": "string"
        },
        {
          "indexed": false,
          "internalType": "string",
          "name": "description",
          "type": "string"
        },
        {
          "indexed": false,
          "internalType": "uint256",
          "name": "price",
          "type": "uint256"
        },
        {
          "indexed": false,
          "internalType": "address[]",
          "name": "royaltiesOwners",
          "type": "address[]"
        },
        {
          "indexed": false,
          "internalType": "uint256[]",
          "name": "royaltiesPercentages",
          "type": "uint256[]"
        }
      ],
      "name": "AlbumCreated",
      "type": "event"
    },
    {
      "anonymous": false,
      "inputs": [
        {
          "indexed": false,
          "internalType": "uint256",
          "name": "albumId",
          "type": "uint256"
        },
        {
          "indexed": false,
          "internalType": "address",
          "name": "buyer",
          "type": "address"
        },
        {
          "indexed": false,
          "internalType": "uint256",
          "name": "amount",
          "type": "uint256"
        }
      ],
      "name": "AlbumPurchased",
      "type": "event"
    },
    {
      "anonymous": false,
      "inputs": [
        {
          "indexed": false,
          "internalType": "uint256",
          "name": "albumId",
          "type": "uint256"
        },
        {
          "indexed": false,
          "internalType": "address",
          "name": "listener",
          "type": "address"
        },
        {
          "indexed": false,
          "internalType": "uint256",
          "name": "amount",
          "type": "uint256"
        }
      ],
      "name": "AlbumStreamed",
      "type": "event"
    },
    {
      "anonymous": false,
      "inputs": [
        {
          "indexed": false,
          "internalType": "uint256",
          "name": "albumId",
          "type": "uint256"
        },
        {
          "indexed": false,
          "internalType": "uint256",
          "name": "trackId",
          "type": "uint256"
        }
      ],
      "name": "TrackAddedToAlbum",
      "type": "event"
    },
    {
      "anonymous": false,
      "inputs": [
        {
          "indexed": false,
          "internalType": "uint256",
          "name": "id",
          "type": "uint256"
        },
        {
          "indexed": false,
          "internalType": "string",
          "name": "title",
          "type": "string"
        },
        {
          "indexed": false,
          "internalType": "address",
          "name": "artist",
          "type": "address"
        },
        {
          "indexed": false,
          "internalType": "string",
          "name": "imageUrl",
          "type": "string"
        },
        {
          "indexed": false,
          "internalType": "string",
          "name": "audioFile",
          "type": "string"
        },
        {
          "indexed": false,
          "internalType": "uint256",
          "name": "price",
          "type": "uint256"
        },
        {
          "indexed": false,
          "internalType": "address[]",
          "name": "royaltiesOwners",
          "type": "address[]"
        },
        {
          "indexed": false,
          "internalType": "uint256[]",
          "name": "royaltiesPercentages",
          "type": "uint256[]"
        }
      ],
      "name": "TrackCreated",
      "type": "event"
    },
    {
      "anonymous": false,
      "inputs": [
        {
          "indexed": false,
          "internalType": "uint256",
          "name": "trackId",
          "type": "uint256"
        },
        {
          "indexed": false,
          "internalType": "address",
          "name": "buyer",
          "type": "address"
        },
        {
          "indexed": false,
          "internalType": "uint256",
          "name": "amount",
          "type": "uint256"
        }
      ],
      "name": "TrackPurchased",
      "type": "event"
    },
    {
      "anonymous": false,
      "inputs": [
        {
          "indexed": false,
          "internalType": "uint256",
          "name": "trackId",
          "type": "uint256"
        },
        {
          "indexed": false,
          "internalType": "address",
          "name": "listener",
          "type": "address"
        },
        {
          "indexed": false,
          "internalType": "uint256",
          "name": "amount",
          "type": "uint256"
        }
      ],
      "name": "TrackStreamed",
      "type": "event"
    },
    {
      "inputs": [
        {
          "internalType": "string",
          "name": "_title",
          "type": "string"
        },
        {
          "internalType": "address",
          "name": "_artist",
          "type": "address"
        },
        {
          "internalType": "string",
          "name": "_imageUrl",
          "type": "string"
        },
        {
          "internalType": "string",
          "name": "_description",
          "type": "string"
        },
        {
          "internalType": "uint256",
          "name": "_price",
          "type": "uint256"
        },
        {
          "internalType": "address[]",
          "name": "_royaltiesOwners",
          "type": "address[]"
        },
        {
          "internalType": "uint256[]",
          "name": "_royaltiesPercentages",
          "type": "uint256[]"
        }
      ],
      "name": "addAlbum",
      "outputs": [],
      "stateMutability": "nonpayable",
      "type": "function"
    },
    {
      "inputs": [
        {
          "internalType": "string",
          "name": "_title",
          "type": "string"
        },
        {
          "internalType": "address",
          "name": "_artist",
          "type": "address"
        },
        {
          "internalType": "string",
          "name": "_imageUrl",
          "type": "string"
        },
        {
          "internalType": "string",
          "name": "_audioFile",
          "type": "string"
        },
        {
          "internalType": "uint256",
          "name": "_price",
          "type": "uint256"
        },
        {
          "internalType": "address[]",
          "name": "_royaltiesOwners",
          "type": "address[]"
        },
        {
          "internalType": "uint256[]",
          "name": "_royaltiesPercentages",
          "type": "uint256[]"
        }
      ],
      "name": "addTrack",
      "outputs": [],
      "stateMutability": "nonpayable",
      "type": "function"
    },
    {
      "inputs": [
        {
          "internalType": "uint256",
          "name": "_albumId",
          "type": "uint256"
        },
        {
          "internalType": "string",
          "name": "_title",
          "type": "string"
        },
        {
          "internalType": "string",
          "name": "_audioFile",
          "type": "string"
        },
        {
          "internalType": "string",
          "name": "_imageUrl",
          "type": "string"
        },
        {
          "internalType": "uint256",
          "name": "_price",
          "type": "uint256"
        }
      ],
      "name": "addTrackToAlbum",
      "outputs": [],
      "stateMutability": "nonpayable",
      "type": "function"
    },
    {
      "inputs": [
        {
          "internalType": "uint256",
          "name": "_albumId",
          "type": "uint256"
        }
      ],
      "name": "getAlbum",
      "outputs": [
        {
          "components": [
            {
              "internalType": "uint256",
              "name": "id",
              "type": "uint256"
            },
            {
              "internalType": "string",
              "name": "title",
              "type": "string"
            },
            {
              "internalType": "address",
              "name": "artist",
              "type": "address"
            },
            {
              "internalType": "string",
              "name": "imageUrl",
              "type": "string"
            },
            {
              "internalType": "string",
              "name": "description",
              "type": "string"
            },
            {
              "internalType": "uint256",
              "name": "price",
              "type": "uint256"
            },
            {
              "internalType": "uint256",
              "name": "totalStreams",
              "type": "uint256"
            },
            {
              "internalType": "uint256",
              "name": "totalPurchases",
              "type": "uint256"
            },
            {
              "internalType": "uint256[]",
              "name": "audioFileIds",
              "type": "uint256[]"
            },
            {
              "internalType": "address[]",
              "name": "royaltiesOwners",
              "type": "address[]"
            },
            {
              "internalType": "uint256[]",
              "name": "royaltiesPercentages",
              "type": "uint256[]"
            }
          ],
          "internalType": "struct Deyplay.Album",
          "name": "",
          "type": "tuple"
        }
      ],
      "stateMutability": "view",
      "type": "function"
    },
    {
      "inputs": [
        {
          "internalType": "address",
          "name": "_artist",
          "type": "address"
        }
      ],
      "name": "getArtistBalance",
      "outputs": [
        {
          "internalType": "uint256",
          "name": "",
          "type": "uint256"
        }
      ],
      "stateMutability": "view",
      "type": "function"
    },
    {
      "inputs": [
        {
          "internalType": "address",
          "name": "_artist",
          "type": "address"
        }
      ],
      "name": "getTotalAlbumAmount",
      "outputs": [
        {
          "internalType": "uint256",
          "name": "",
          "type": "uint256"
        }
      ],
      "stateMutability": "view",
      "type": "function"
    },
    {
      "inputs": [
        {
          "internalType": "address",
          "name": "_artist",
          "type": "address"
        }
      ],
      "name": "getTotalAlbumStreams",
      "outputs": [
        {
          "internalType": "uint256",
          "name": "",
          "type": "uint256"
        }
      ],
      "stateMutability": "view",
      "type": "function"
    },
    {
      "inputs": [
        {
          "internalType": "address",
          "name": "_artist",
          "type": "address"
        }
      ],
      "name": "getTotalTrackAmount",
      "outputs": [
        {
          "internalType": "uint256",
          "name": "",
          "type": "uint256"
        }
      ],
      "stateMutability": "view",
      "type": "function"
    },
    {
      "inputs": [
        {
          "internalType": "address",
          "name": "_artist",
          "type": "address"
        }
      ],
      "name": "getTotalTrackStreams",
      "outputs": [
        {
          "internalType": "uint256",
          "name": "",
          "type": "uint256"
        }
      ],
      "stateMutability": "view",
      "type": "function"
    },
    {
      "inputs": [
        {
          "internalType": "uint256",
          "name": "_trackId",
          "type": "uint256"
        }
      ],
      "name": "getTrack",
      "outputs": [
        {
          "components": [
            {
              "internalType": "uint256",
              "name": "id",
              "type": "uint256"
            },
            {
              "internalType": "string",
              "name": "title",
              "type": "string"
            },
            {
              "internalType": "address",
              "name": "artist",
              "type": "address"
            },
            {
              "internalType": "string",
              "name": "imageUrl",
              "type": "string"
            },
            {
              "internalType": "string",
              "name": "audioFile",
              "type": "string"
            },
            {
              "internalType": "uint256",
              "name": "price",
              "type": "uint256"
            },
            {
              "internalType": "uint256",
              "name": "totalStreams",
              "type": "uint256"
            },
            {
              "internalType": "uint256",
              "name": "totalPurchases",
              "type": "uint256"
            },
            {
              "internalType": "address[]",
              "name": "royaltiesOwners",
              "type": "address[]"
            },
            {
              "internalType": "uint256[]",
              "name": "royaltiesPercentages",
              "type": "uint256[]"
            }
          ],
          "internalType": "struct Deyplay.Track",
          "name": "",
          "type": "tuple"
        }
      ],
      "stateMutability": "view",
      "type": "function"
    },
    {
      "inputs": [
        {
          "internalType": "address",
          "name": "_user",
          "type": "address"
        }
      ],
      "name": "getUserPurchasedAlbums",
      "outputs": [
        {
          "internalType": "uint256[]",
          "name": "",
          "type": "uint256[]"
        }
      ],
      "stateMutability": "view",
      "type": "function"
    },
    {
      "inputs": [
        {
          "internalType": "address",
          "name": "_user",
          "type": "address"
        }
      ],
      "name": "getUserPurchasedTracks",
      "outputs": [
        {
          "internalType": "uint256[]",
          "name": "",
          "type": "uint256[]"
        }
      ],
      "stateMutability": "view",
      "type": "function"
    },
    {
      "inputs": [
        {
          "internalType": "address",
          "name": "_artist",
          "type": "address"
        }
      ],
      "name": "listAlbumsByArtist",
      "outputs": [
        {
          "internalType": "uint256[]",
          "name": "",
          "type": "uint256[]"
        }
      ],
      "stateMutability": "view",
      "type": "function"
    },
    {
      "inputs": [],
      "name": "listAllAlbums",
      "outputs": [
        {
          "internalType": "uint256[]",
          "name": "",
          "type": "uint256[]"
        }
      ],
      "stateMutability": "view",
      "type": "function"
    },
    {
      "inputs": [],
      "name": "listAllTracks",
      "outputs": [
        {
          "internalType": "uint256[]",
          "name": "",
          "type": "uint256[]"
        }
      ],
      "stateMutability": "view",
      "type": "function"
    },
    {
      "inputs": [
        {
          "internalType": "address",
          "name": "_artist",
          "type": "address"
        }
      ],
      "name": "listTracksByArtist",
      "outputs": [
        {
          "internalType": "uint256[]",
          "name": "",
          "type": "uint256[]"
        }
      ],
      "stateMutability": "view",
      "type": "function"
    },
    {
      "inputs": [
        {
          "internalType": "uint256",
          "name": "_albumId",
          "type": "uint256"
        }
      ],
      "name": "purchaseAlbum",
      "outputs": [],
      "stateMutability": "payable",
      "type": "function"
    },
    {
      "inputs": [
        {
          "internalType": "uint256",
          "name": "_trackId",
          "type": "uint256"
        }
      ],
      "name": "purchaseTrack",
      "outputs": [],
      "stateMutability": "payable",
      "type": "function"
    },
    {
      "inputs": [
        {
          "internalType": "uint256",
          "name": "_albumId",
          "type": "uint256"
        }
      ],
      "name": "streamAlbum",
      "outputs": [],
      "stateMutability": "payable",
      "type": "function"
    },
    {
      "inputs": [
        {
          "internalType": "uint256",
          "name": "_trackId",
          "type": "uint256"
        }
      ],
      "name": "streamTrack",
      "outputs": [],
      "stateMutability": "payable",
      "type": "function"
    }
  ],
  "bytecode": "0x608060405234801561001057600080fd5b50612d40806100206000396000f3fe60806040526004361061011f5760003560e01c80638ef8b386116100a0578063d6e465c911610064578063d6e465c9146102fa578063d9a105e514610327578063ea98177514610347578063efb783081461035a578063f4ce0f861461037a57600080fd5b80638ef8b386146102745780639edc858c14610287578063acff110e1461029a578063c103351f146102ba578063d53f2baa146102da57600080fd5b8063629058ca116100e7578063629058ca146101d25780636456b79a146101ff5780636850a7e31461021457806376dde21b146102345780638d59f7e21461025457600080fd5b80631d29d59914610124578063245d15581461015a5780632cdfb61f1461017c57806340d1e240146101915780635d0650b4146101a4575b600080fd5b34801561013057600080fd5b5061014461013f366004612695565b6103b0565b6040516101519190612907565b60405180910390f35b34801561016657600080fd5b5061017a6101753660046126b6565b61041c565b005b34801561018857600080fd5b506101446105bc565b61017a61019f36600461279c565b61067d565b3480156101b057600080fd5b506101c46101bf366004612695565b61094e565b604051908152602001610151565b3480156101de57600080fd5b506101f26101ed36600461279c565b6109cc565b6040516101519190612a7c565b34801561020b57600080fd5b50610144610d30565b34801561022057600080fd5b5061014461022f366004612695565b610dea565b34801561024057600080fd5b506101c461024f366004612695565b610edb565b34801561026057600080fd5b506101c461026f366004612695565b610f41565b61017a61028236600461279c565b610fb7565b61017a61029536600461279c565b611270565b3480156102a657600080fd5b506101446102b5366004612695565b611555565b3480156102c657600080fd5b506101c46102d5366004612695565b6115bf565b3480156102e657600080fd5b5061017a6102f53660046126b6565b611624565b34801561030657600080fd5b5061031a61031536600461279c565b611829565b6040516101519190612976565b34801561033357600080fd5b5061017a6103423660046127b4565b611bea565b61017a61035536600461279c565b611e9f565b34801561036657600080fd5b50610144610375366004612695565b612182565b34801561038657600080fd5b506101c4610395366004612695565b6001600160a01b031660009081526006602052604090205490565b6001600160a01b03811660009081526005602090815260409182902080548351818402810184019094528084526060939283018282801561041057602002820191906000526020600020905b8154815260200190600101908083116103fc575b50505050509050919050565b60008054908061042b83612cc3565b909155505060408051610140810182526000805480835260208084018c81526001600160a01b038c1685870152606085018b9052608085018a905260a0850189905260c0850184905260e085018490526101008501889052610120850187905291835260028152939091208251815590518051929391926104b29260018501920190612413565b5060408201516002820180546001600160a01b0319166001600160a01b03909216919091179055606082015180516104f4916003840191602090910190612413565b5060808201518051610510916004840191602090910190612413565b5060a0820151600582015560c0820151600682015560e08201516007820155610100820151805161054b916008840191602090910190612497565b5061012082015180516105689160098401916020909101906124ec565b509050507fbf2201dbf94a92f1d5a37c712b8d9b99e2a1e94a9ead3e3318c067b76569712a600054888888888888886040516105ab989796959493929190612b3d565b60405180910390a150505050505050565b6060600060015467ffffffffffffffff8111156105e957634e487b7160e01b600052604160045260246000fd5b604051908082528060200260200182016040528015610612578160200160208202803683370190505b50905060015b6001548111610677576000818152600360205260409020548261063c600184612c77565b8151811061065a57634e487b7160e01b600052603260045260246000fd5b60209081029190910101528061066f81612cc3565b915050610618565b50919050565b8060008111801561069057506001548111155b6106b55760405162461bcd60e51b81526004016106ac9061291a565b60405180910390fd5b600082815260036020526040902060058101543410156107285760405162461bcd60e51b815260206004820152602860248201527f496e73756666696369656e74207061796d656e7420746f2073747265616d2074604482015267686520616c62756d60c01b60648201526084016106ac565b60006107e782600501548360090180548060200260200160405190810160405280929190818152602001828054801561078a57602002820191906000526020600020905b81546001600160a01b0316815260019091019060200180831161076c575b505050505084600a018054806020026020016040519081016040528092919081815260200182805480156107dd57602002820191906000526020600020905b8154815260200190600101908083116107c9575b505050505061226a565b905060008183600501546107fb9190612c77565b600684018054919250600061080f83612cc3565b909155505060028301546001600160a01b031660009081526006602052604081208054839290610840908490612c20565b92505081905550610900836009018054806020026020016040519081016040528092919081815260200182805480156108a257602002820191906000526020600020905b81546001600160a01b03168152600190910190602001808311610884575b505050505084600a018054806020026020016040519081016040528092919081815260200182805480156108f557602002820191906000526020600020905b8154815260200190600101908083116108e1575b5050505050846122de565b600583015460408051878152336020820152908101919091527f9895cbad8f9db9bfb55390deaa7dd85188e313b35ee7ee4748b41ae3b9a7936f906060015b60405180910390a15050505050565b60008060015b60005481116109c557600081815260026020819052604090912001546001600160a01b03858116911614156109b357600081815260026020526040902060058101546007909101546109a69190612c58565b6109b09083612c20565b91505b806109bd81612cc3565b915050610954565b5092915050565b610a2b604051806101400160405280600081526020016060815260200160006001600160a01b03168152602001606081526020016060815260200160008152602001600081526020016000815260200160608152602001606081525090565b81600081118015610a3e57506000548111155b610a5a5760405162461bcd60e51b81526004016106ac90612948565b600260008481526020019081526020016000206040518061014001604052908160008201548152602001600182018054610a9390612c8e565b80601f0160208091040260200160405190810160405280929190818152602001828054610abf90612c8e565b8015610b0c5780601f10610ae157610100808354040283529160200191610b0c565b820191906000526020600020905b815481529060010190602001808311610aef57829003601f168201915b505050918352505060028201546001600160a01b03166020820152600382018054604090920191610b3c90612c8e565b80601f0160208091040260200160405190810160405280929190818152602001828054610b6890612c8e565b8015610bb55780601f10610b8a57610100808354040283529160200191610bb5565b820191906000526020600020905b815481529060010190602001808311610b9857829003601f168201915b50505050508152602001600482018054610bce90612c8e565b80601f0160208091040260200160405190810160405280929190818152602001828054610bfa90612c8e565b8015610c475780601f10610c1c57610100808354040283529160200191610c47565b820191906000526020600020905b815481529060010190602001808311610c2a57829003601f168201915b5050505050815260200160058201548152602001600682015481526020016007820154815260200160088201805480602002602001604051908101604052809291908181526020018280548015610cc757602002820191906000526020600020905b81546001600160a01b03168152600190910190602001808311610ca9575b5050505050815260200160098201805480602002602001604051908101604052809291908181526020018280548015610d1f57602002820191906000526020600020905b815481526020019060010190808311610d0b575b505050505081525050915050919050565b60606000805467ffffffffffffffff811115610d5c57634e487b7160e01b600052604160045260246000fd5b604051908082528060200260200182016040528015610d85578160200160208202803683370190505b50905060015b60005481116106775760008181526002602052604090205482610daf600184612c77565b81518110610dcd57634e487b7160e01b600052603260045260246000fd5b602090810291909101015280610de281612cc3565b915050610d8b565b60606000805467ffffffffffffffff811115610e1657634e487b7160e01b600052604160045260246000fd5b604051908082528060200260200182016040528015610e3f578160200160208202803683370190505b509050600060015b6000548111610ed257600081815260026020819052604090912001546001600160a01b0386811691161415610ec0576000818152600260205260409020548351849084908110610ea757634e487b7160e01b600052603260045260246000fd5b602090810291909101015281610ebc81612cc3565b9250505b80610eca81612cc3565b915050610e47565b50909392505050565b60008060015b60005481116109c557600081815260026020819052604090912001546001600160a01b0385811691161415610f2f57600081815260026020526040902060060154610f2c9083612c20565b91505b80610f3981612cc3565b915050610ee1565b60008060015b60015481116109c5576000818152600360205260409020600201546001600160a01b0385811691161415610fa55760008181526003602052604090206005810154600790910154610f989190612c58565b610fa29083612c20565b91505b80610faf81612cc3565b915050610f47565b80600081118015610fca57506000548111155b610fe65760405162461bcd60e51b81526004016106ac90612948565b600082815260026020526040902060058101543410156110595760405162461bcd60e51b815260206004820152602860248201527f496e73756666696369656e74207061796d656e7420746f2073747265616d2074604482015267686520747261636b60c01b60648201526084016106ac565b60006111168260050154836008018054806020026020016040519081016040528092919081815260200182805480156110bb57602002820191906000526020600020905b81546001600160a01b0316815260019091019060200180831161109d575b5050505050846009018054806020026020016040519081016040528092919081815260200182805480156107dd57602002820191906000526020600020908154815260200190600101908083116107c957505050505061226a565b9050600081836005015461112a9190612c77565b600684018054919250600061113e83612cc3565b909155505060028301546001600160a01b03166000908152600660205260408120805483929061116f908490612c20565b9250508190555061122d836008018054806020026020016040519081016040528092919081815260200182805480156111d157602002820191906000526020600020905b81546001600160a01b031681526001909101906020018083116111b3575b5050505050846009018054806020026020016040519081016040528092919081815260200182805480156108f557602002820191906000526020600020908154815260200190600101908083116108e1575050505050846122de565b600583015460408051878152336020820152908101919091527fa8ff0760db1bd134bec00c7f599e3d73ad185cfc7dd4c313b1ccfc4bd95947379060600161093f565b8060008111801561128357506000548111155b61129f5760405162461bcd60e51b81526004016106ac90612948565b600082815260026020526040902060058101543410156113145760405162461bcd60e51b815260206004820152602a60248201527f496e73756666696369656e74207061796d656e7420746f2070757263686173656044820152692074686520747261636b60b01b60648201526084016106ac565b60006113cf8260050154836008018054806020026020016040519081016040528092919081815260200182805480156110bb576020028201919060005260206000209081546001600160a01b0316815260019091019060200180831161109d575050505050846009018054806020026020016040519081016040528092919081815260200182805480156107dd57602002820191906000526020600020908154815260200190600101908083116107c957505050505061226a565b905060008183600501546113e39190612c77565b60078401805491925060006113f783612cc3565b909155505060028301546001600160a01b031660009081526006602052604081208054839290611428908490612c20565b925050819055506114e4836008018054806020026020016040519081016040528092919081815260200182805480156111d1576020028201919060005260206000209081546001600160a01b031681526001909101906020018083116111b3575050505050846009018054806020026020016040519081016040528092919081815260200182805480156108f557602002820191906000526020600020908154815260200190600101908083116108e1575050505050846122de565b33600081815260046020908152604080832080546001810182559084529190922001879055600585015490517ffe3f9af2d0ba5be4687ca774df8206ec9cf7919bcf32bd9c76b051e5dfbbb5b49261093f928983526001600160a01b03919091166020830152604082015260600190565b6001600160a01b03811660009081526004602090815260409182902080548351818402810184019094528084526060939283018282801561041057602002820191906000526020600020908154815260200190600101908083116103fc5750505050509050919050565b60008060015b60015481116109c5576000818152600360205260409020600201546001600160a01b03858116911614156116125760008181526003602052604090206006015461160f9083612c20565b91505b8061161c81612cc3565b9150506115c5565b6001805490600061163483612cc3565b91905055506040518061016001604052806001548152602001888152602001876001600160a01b031681526020018681526020018581526020018481526020016000815260200160008152602001600067ffffffffffffffff8111156116aa57634e487b7160e01b600052604160045260246000fd5b6040519080825280602002602001820160405280156116d3578160200160208202803683370190505b5081526020808201859052604091820184905260018054600090815260038352929092208351815583820151805191936117139390850192910190612413565b5060408201516002820180546001600160a01b0319166001600160a01b0390921691909117905560608201518051611755916003840191602090910190612413565b5060808201518051611771916004840191602090910190612413565b5060a0820151600582015560c0820151600682015560e0820151600782015561010082015180516117ac9160088401916020909101906124ec565b5061012082015180516117c9916009840191602090910190612497565b5061014082015180516117e691600a8401916020909101906124ec565b509050507fd78b5503298a5ec3a0c38871277d16caaede28506de5344aee4a623eebf34ed8600154888888888888886040516105ab989796959493929190612b3d565b61188f604051806101600160405280600081526020016060815260200160006001600160a01b0316815260200160608152602001606081526020016000815260200160008152602001600081526020016060815260200160608152602001606081525090565b816000811180156118a257506001548111155b6118be5760405162461bcd60e51b81526004016106ac9061291a565b6003600084815260200190815260200160002060405180610160016040529081600082015481526020016001820180546118f790612c8e565b80601f016020809104026020016040519081016040528092919081815260200182805461192390612c8e565b80156119705780601f1061194557610100808354040283529160200191611970565b820191906000526020600020905b81548152906001019060200180831161195357829003601f168201915b505050918352505060028201546001600160a01b031660208201526003820180546040909201916119a090612c8e565b80601f01602080910402602001604051908101604052809291908181526020018280546119cc90612c8e565b8015611a195780601f106119ee57610100808354040283529160200191611a19565b820191906000526020600020905b8154815290600101906020018083116119fc57829003601f168201915b50505050508152602001600482018054611a3290612c8e565b80601f0160208091040260200160405190810160405280929190818152602001828054611a5e90612c8e565b8015611aab5780601f10611a8057610100808354040283529160200191611aab565b820191906000526020600020905b815481529060010190602001808311611a8e57829003601f168201915b5050505050815260200160058201548152602001600682015481526020016007820154815260200160088201805480602002602001604051908101604052809291908181526020018280548015611b2157602002820191906000526020600020905b815481526020019060010190808311611b0d575b5050505050815260200160098201805480602002602001604051908101604052809291908181526020018280548015611b8357602002820191906000526020600020905b81546001600160a01b03168152600190910190602001808311611b65575b50505050508152602001600a8201805480602002602001604051908101604052809291908181526020018280548015610d1f5760200282019190600052602060002090815481526020019060010190808311610d0b57505050505081525050915050919050565b84600081118015611bfd57506001548111155b611c195760405162461bcd60e51b81526004016106ac9061291a565b600080549080611c2883612cc3565b9091555050600086815260036020818152604080842084546008820180546001810182559087528487200155815161014081018352855481528084018b905260028201546001600160a01b03168184015260608101899052608081018a905260a0810188905260c0810186905260e08101869052948b90529282526009909201805483518184028101840190945280845261010085019392830182828015611cf957602002820191906000526020600020905b81546001600160a01b03168152600190910190602001808311611cdb575b5050505050815260200160036000898152602001908152602001600020600a01805480602002602001604051908101604052809291908181526020018280548015611d6357602002820191906000526020600020905b815481526020019060010190808311611d4f575b505050919092525050600080548152600260209081526040909120825181558282015180519192611d9c92600185019290910190612413565b5060408201516002820180546001600160a01b0319166001600160a01b0390921691909117905560608201518051611dde916003840191602090910190612413565b5060808201518051611dfa916004840191602090910190612413565b5060a0820151600582015560c0820151600682015560e082015160078201556101008201518051611e35916008840191602090910190612497565b506101208201518051611e529160098401916020909101906124ec565b50506000546040517f1b75cf82c5d11e0d92f67e2806f277b7ae9cb2467100d885c3e54d50c1ae98d29250611e8f91898252602082015260400190565b60405180910390a1505050505050565b80600081118015611eb257506001548111155b611ece5760405162461bcd60e51b81526004016106ac9061291a565b60008281526003602052604090206005810154341015611f435760405162461bcd60e51b815260206004820152602a60248201527f496e73756666696369656e74207061796d656e7420746f2070757263686173656044820152692074686520616c62756d60b01b60648201526084016106ac565b6000611ffe82600501548360090180548060200260200160405190810160405280929190818152602001828054801561078a576020028201919060005260206000209081546001600160a01b0316815260019091019060200180831161076c57505050505084600a018054806020026020016040519081016040528092919081815260200182805480156107dd57602002820191906000526020600020908154815260200190600101908083116107c957505050505061226a565b905060008183600501546120129190612c77565b600784018054919250600061202683612cc3565b909155505060028301546001600160a01b031660009081526006602052604081208054839290612057908490612c20565b92505081905550612113836009018054806020026020016040519081016040528092919081815260200182805480156108a2576020028201919060005260206000209081546001600160a01b0316815260019091019060200180831161088457505050505084600a018054806020026020016040519081016040528092919081815260200182805480156108f557602002820191906000526020600020908154815260200190600101908083116108e1575050505050846122de565b3360008181526005602081815260408084208054600181018255908552919093200188905585015490517f11332ef3956cea4003185b2a4db8407e3e5662fe799887282e178f18726ecc9b9261093f928983526001600160a01b03919091166020830152604082015260600190565b6060600060015467ffffffffffffffff8111156121af57634e487b7160e01b600052604160045260246000fd5b6040519080825280602002602001820160405280156121d8578160200160208202803683370190505b509050600060015b6001548111610ed2576000818152600360205260409020600201546001600160a01b038681169116141561225857600081815260036020526040902054835184908490811061223f57634e487b7160e01b600052603260045260246000fd5b60209081029190910101528161225481612cc3565b9250505b8061226281612cc3565b9150506121e0565b600080805b84518110156122d557606484828151811061229a57634e487b7160e01b600052603260045260246000fd5b6020026020010151876122ad9190612c58565b6122b79190612c38565b6122c19083612c20565b9150806122cd81612cc3565b91505061226f565b50949350505050565b81518351146123455760405162461bcd60e51b815260206004820152602d60248201527f4f776e65727320616e642070657263656e746167657320617272617973206c6560448201526c0dccee8d040dad2e6dac2e8c6d609b1b60648201526084016106ac565b60005b835181101561240d57600084828151811061237357634e487b7160e01b600052603260045260246000fd5b60200260200101519050600060648584815181106123a157634e487b7160e01b600052603260045260246000fd5b6020026020010151856123b49190612c58565b6123be9190612c38565b6040519091506001600160a01b0383169082156108fc029083906000818181858888f193505050501580156123f7573d6000803e3d6000fd5b505050808061240590612cc3565b915050612348565b50505050565b82805461241f90612c8e565b90600052602060002090601f0160209004810192826124415760008555612487565b82601f1061245a57805160ff1916838001178555612487565b82800160010185558215612487579182015b8281111561248757825182559160200191906001019061246c565b50612493929150612526565b5090565b828054828255906000526020600020908101928215612487579160200282015b8281111561248757825182546001600160a01b0319166001600160a01b039091161782556020909201916001909101906124b7565b828054828255906000526020600020908101928215612487579160200282018281111561248757825182559160200191906001019061246c565b5b808211156124935760008155600101612527565b80356001600160a01b038116811461255257600080fd5b919050565b600082601f830112612567578081fd5b8135602061257c61257783612bfc565b612bcb565b80838252828201915082860187848660051b890101111561259b578586fd5b855b858110156125c0576125ae8261253b565b8452928401929084019060010161259d565b5090979650505050505050565b600082601f8301126125dd578081fd5b813560206125ed61257783612bfc565b80838252828201915082860187848660051b890101111561260c578586fd5b855b858110156125c05781358452928401929084019060010161260e565b600082601f83011261263a578081fd5b813567ffffffffffffffff81111561265457612654612cf4565b612667601f8201601f1916602001612bcb565b81815284602083860101111561267b578283fd5b816020850160208301379081016020019190915292915050565b6000602082840312156126a6578081fd5b6126af8261253b565b9392505050565b600080600080600080600060e0888a0312156126d0578283fd5b873567ffffffffffffffff808211156126e7578485fd5b6126f38b838c0161262a565b985061270160208b0161253b565b975060408a0135915080821115612716578485fd5b6127228b838c0161262a565b965060608a0135915080821115612737578485fd5b6127438b838c0161262a565b955060808a0135945060a08a013591508082111561275f578384fd5b61276b8b838c01612557565b935060c08a0135915080821115612780578283fd5b5061278d8a828b016125cd565b91505092959891949750929550565b6000602082840312156127ad578081fd5b5035919050565b600080600080600060a086880312156127cb578081fd5b85359450602086013567ffffffffffffffff808211156127e9578283fd5b6127f589838a0161262a565b9550604088013591508082111561280a578283fd5b61281689838a0161262a565b9450606088013591508082111561282b578283fd5b506128388882890161262a565b95989497509295608001359392505050565b6000815180845260208085019450808401835b838110156128825781516001600160a01b03168752958201959082019060010161285d565b509495945050505050565b6000815180845260208085019450808401835b83811015612882578151875295820195908201906001016128a0565b60008151808452815b818110156128e1576020818501810151868301820152016128c5565b818111156128f25782602083870101525b50601f01601f19169290920160200192915050565b6020815260006126af602083018461288d565b602080825260149082015273105b189d5b48191bd95cc81b9bdd08195e1a5cdd60621b604082015260600190565b602080825260149082015273151c9858dac8191bd95cc81b9bdd08195e1a5cdd60621b604082015260600190565b60208152815160208201526000602083015161016080604085015261299f6101808501836128bc565b915060408501516129bb60608601826001600160a01b03169052565b506060850151601f19808685030160808701526129d884836128bc565b935060808701519150808685030160a08701526129f584836128bc565b935060a087015160c087015260c087015160e087015260e08701519150610100828188015280880151925050610120818786030181880152612a37858461288d565b945080880151925050610140818786030181880152612a56858461284a565b908801518782039092018488015293509050612a72838261288d565b9695505050505050565b602081528151602082015260006020830151610140806040850152612aa56101608501836128bc565b91506040850151612ac160608601826001600160a01b03169052565b506060850151601f1980868503016080870152612ade84836128bc565b935060808701519150808685030160a0870152612afb84836128bc565b935060a087015160c087015260c087015160e087015260e08701519150610100828188015280880151925050610120818786030181880152612a56858461284a565b60006101008a8352806020840152612b578184018b6128bc565b6001600160a01b038a16604085015283810360608501529050612b7a81896128bc565b90508281036080840152612b8e81886128bc565b90508560a084015282810360c0840152612ba8818661284a565b905082810360e0840152612bbc818561288d565b9b9a5050505050505050505050565b604051601f8201601f1916810167ffffffffffffffff81118282101715612bf457612bf4612cf4565b604052919050565b600067ffffffffffffffff821115612c1657612c16612cf4565b5060051b60200190565b60008219821115612c3357612c33612cde565b500190565b600082612c5357634e487b7160e01b81526012600452602481fd5b500490565b6000816000190483118215151615612c7257612c72612cde565b500290565b600082821015612c8957612c89612cde565b500390565b600181811c90821680612ca257607f821691505b6020821081141561067757634e487b7160e01b600052602260045260246000fd5b6000600019821415612cd757612cd7612cde565b5060010190565b634e487b7160e01b600052601160045260246000fd5b634e487b7160e01b600052604160045260246000fdfea2646970667358221220026f92c462ddbe7889d30bd9ca0e00a1cd6c67072804d923990c4ff090e46ac664736f6c63430008040033",
  "linkReferences": {},
  "deployedLinkReferences": {}
}